{"abi":[{"anonymous":false,"inputs":[{"indexed":true,"internalType":"address","name":"_owner","type":"address"},{"indexed":true,"internalType":"address","name":"_approved","type":"address"},{"indexed":true,"internalType":"uint256","name":"_tokenId","type":"uint256"}],"name":"Approval","type":"event"},{"anonymous":false,"inputs":[{"indexed":false,"internalType":"uint256","name":"heroId","type":"uint256"},{"indexed":false,"internalType":"string","name":"name","type":"string"},{"indexed":false,"internalType":"uint256","name":"dna","type":"uint256"}],"name":"NewHero","type":"event"},{"anonymous":false,"inputs":[{"indexed":true,"internalType":"address","name":"previousOwner","type":"address"},{"indexed":true,"internalType":"address","name":"newOwner","type":"address"}],"name":"OwnershipTransferred","type":"event"},{"anonymous":false,"inputs":[{"indexed":true,"internalType":"address","name":"_from","type":"address"},{"indexed":true,"internalType":"address","name":"_to","type":"address"},{"indexed":true,"internalType":"uint256","name":"_tokenId","type":"uint256"}],"name":"Transfer","type":"event"},{"inputs":[{"internalType":"address","name":"_approved","type":"address"},{"internalType":"uint256","name":"_tokenId","type":"uint256"}],"name":"approve","outputs":[],"stateMutability":"payable","type":"function"},{"inputs":[{"internalType":"address","name":"_owner","type":"address"}],"name":"balanceOf","outputs":[{"internalType":"uint256","name":"","type":"uint256"}],"stateMutability":"view","type":"function"},{"inputs":[{"internalType":"string","name":"_name","type":"string"}],"name":"createRandomHero","outputs":[],"stateMutability":"nonpayable","type":"function"},{"inputs":[{"internalType":"address","name":"_owner","type":"address"}],"name":"getHeroesByOwner","outputs":[{"internalType":"uint256[]","name":"","type":"uint256[]"}],"stateMutability":"view","type":"function"},{"inputs":[{"internalType":"uint256","name":"","type":"uint256"}],"name":"heroToOwner","outputs":[{"internalType":"address","name":"","type":"address"}],"stateMutability":"view","type":"function"},{"inputs":[{"internalType":"uint256","name":"","type":"uint256"}],"name":"heroes","outputs":[{"internalType":"string","name":"name","type":"string"},{"internalType":"uint256","name":"dna","type":"uint256"},{"internalType":"uint32","name":"level","type":"uint32"}],"stateMutability":"view","type":"function"},{"inputs":[],"name":"isOwner","outputs":[{"internalType":"bool","name":"","type":"bool"}],"stateMutability":"view","type":"function"},{"inputs":[],"name":"owner","outputs":[{"internalType":"address","name":"","type":"address"}],"stateMutability":"view","type":"function"},{"inputs":[{"internalType":"uint256","name":"_tokenId","type":"uint256"}],"name":"ownerOf","outputs":[{"internalType":"address","name":"","type":"address"}],"stateMutability":"view","type":"function"},{"inputs":[],"name":"renounceOwnership","outputs":[],"stateMutability":"nonpayable","type":"function"},{"inputs":[{"internalType":"address","name":"_from","type":"address"},{"internalType":"address","name":"_to","type":"address"},{"internalType":"uint256","name":"_tokenId","type":"uint256"}],"name":"transferFrom","outputs":[],"stateMutability":"payable","type":"function"},{"inputs":[{"internalType":"address","name":"newOwner","type":"address"}],"name":"transferOwnership","outputs":[],"stateMutability":"nonpayable","type":"function"}],"devdoc":{"author":"Agung Sepruloh","details":"Development","kind":"dev","methods":{"isOwner()":{"returns":{"_0":"true if `msg.sender` is the owner of the contract."}},"owner()":{"returns":{"_0":"the address of the owner."}},"renounceOwnership()":{"details":"Allows the current owner to relinquish control of the contract."},"transferOwnership(address)":{"details":"Allows the current owner to transfer control of the contract to a newOwner.","params":{"newOwner":"The address to transfer ownership to."}}},"title":"A contract that manages transfering zombie ownership","version":1},"evm":{"assembly":"    /* \"HeroOwnership.sol\":6744:8015  contract HeroOwnership is HeroHelper, ERC721 {... */\n  mstore(0x40, 0x80)\n    /* \"HeroOwnership.sol\":5206:5208  16 */\n  0x10\n    /* \"HeroOwnership.sol\":5186:5208  uint256 dnaDigits = 16 */\n  0x01\n  sstore\n    /* \"HeroOwnership.sol\":5237:5246  dnaDigits */\n  sload(0x01)\n    /* \"HeroOwnership.sol\":5233:5235  10 */\n  0x0a\n    /* \"HeroOwnership.sol\":5233:5246  10**dnaDigits */\n  tag_1\n  swap2\n  swap1\n  tag_2\n  jump\t// in\ntag_1:\n    /* \"HeroOwnership.sol\":5212:5246  uint256 dnaModulus = 10**dnaDigits */\n  0x02\n  sstore\n    /* \"HeroOwnership.sol\":5273:5279  1 days */\n  0x015180\n    /* \"HeroOwnership.sol\":5250:5279  uint256 cooldownTime = 1 days */\n  0x03\n  sstore\n    /* \"HeroOwnership.sol\":6744:8015  contract HeroOwnership is HeroHelper, ERC721 {... */\n  callvalue\n  dup1\n  iszero\n  tag_3\n  jumpi\n  0x00\n  dup1\n  revert\ntag_3:\n  pop\n    /* \"HeroOwnership.sol\":3604:3614  msg.sender */\n  caller\n    /* \"HeroOwnership.sol\":3595:3601  _owner */\n  0x00\n  dup1\n    /* \"HeroOwnership.sol\":3595:3614  _owner = msg.sender */\n  0x0100\n  exp\n  dup2\n  sload\n  dup2\n  0xffffffffffffffffffffffffffffffffffffffff\n  mul\n  not\n  and\n  swap1\n  dup4\n  0xffffffffffffffffffffffffffffffffffffffff\n  and\n  mul\n  or\n  swap1\n  sstore\n  pop\n    /* \"HeroOwnership.sol\":3658:3664  _owner */\n  0x00\n  dup1\n  sload\n  swap1\n  0x0100\n  exp\n  swap1\n  div\n  0xffffffffffffffffffffffffffffffffffffffff\n  and\n    /* \"HeroOwnership.sol\":3625:3665  OwnershipTransferred(address(0), _owner) */\n  0xffffffffffffffffffffffffffffffffffffffff\n  and\n    /* \"HeroOwnership.sol\":3654:3655  0 */\n  0x00\n    /* \"HeroOwnership.sol\":3625:3665  OwnershipTransferred(address(0), _owner) */\n  0xffffffffffffffffffffffffffffffffffffffff\n  and\n  0x8be0079c531659141344cd1fd0a4f28419497f9722a3daafe3b4186f6b6457e0\n  mload(0x40)\n  mload(0x40)\n  dup1\n  swap2\n  sub\n  swap1\n  log3\n    /* \"HeroOwnership.sol\":6744:8015  contract HeroOwnership is HeroHelper, ERC721 {... */\n  jump(tag_6)\n    /* \"#utility.yul\":7:187   */\ntag_7:\n    /* \"#utility.yul\":55:132   */\n  0x4e487b7100000000000000000000000000000000000000000000000000000000\n    /* \"#utility.yul\":52:53   */\n  0x00\n    /* \"#utility.yul\":45:133   */\n  mstore\n    /* \"#utility.yul\":152:156   */\n  0x11\n    /* \"#utility.yul\":149:150   */\n  0x04\n    /* \"#utility.yul\":142:157   */\n  mstore\n    /* \"#utility.yul\":176:180   */\n  0x24\n    /* \"#utility.yul\":173:174   */\n  0x00\n    /* \"#utility.yul\":166:181   */\n  revert\n    /* \"#utility.yul\":193:295   */\ntag_8:\n    /* \"#utility.yul\":235:243   */\n  0x00\n    /* \"#utility.yul\":282:287   */\n  dup2\n    /* \"#utility.yul\":279:280   */\n  0x01\n    /* \"#utility.yul\":275:288   */\n  shr\n    /* \"#utility.yul\":254:288   */\n  swap1\n  pop\n    /* \"#utility.yul\":193:295   */\n  swap2\n  swap1\n  pop\n  jump\t// out\n    /* \"#utility.yul\":301:1149   */\ntag_9:\n    /* \"#utility.yul\":362:367   */\n  0x00\n    /* \"#utility.yul\":369:373   */\n  dup1\n    /* \"#utility.yul\":393:399   */\n  dup3\n    /* \"#utility.yul\":384:399   */\n  swap2\n  pop\n    /* \"#utility.yul\":417:422   */\n  dup4\n    /* \"#utility.yul\":408:422   */\n  swap1\n  pop\n    /* \"#utility.yul\":431:1143   */\ntag_16:\n    /* \"#utility.yul\":452:453   */\n  0x01\n    /* \"#utility.yul\":442:450   */\n  dup6\n    /* \"#utility.yul\":439:454   */\n  gt\n    /* \"#utility.yul\":431:1143   */\n  iszero\n  tag_18\n  jumpi\n    /* \"#utility.yul\":547:551   */\n  dup1\n    /* \"#utility.yul\":542:545   */\n  dup7\n    /* \"#utility.yul\":538:552   */\n  div\n    /* \"#utility.yul\":532:536   */\n  dup2\n    /* \"#utility.yul\":529:553   */\n  gt\n    /* \"#utility.yul\":526:576   */\n  iszero\n  tag_19\n  jumpi\n    /* \"#utility.yul\":556:574   */\n  tag_20\n  tag_7\n  jump\t// in\ntag_20:\n    /* \"#utility.yul\":526:576   */\ntag_19:\n    /* \"#utility.yul\":606:607   */\n  0x01\n    /* \"#utility.yul\":596:604   */\n  dup6\n    /* \"#utility.yul\":592:608   */\n  and\n    /* \"#utility.yul\":589:1040   */\n  iszero\n  tag_21\n  jumpi\n    /* \"#utility.yul\":1021:1025   */\n  dup1\n    /* \"#utility.yul\":1014:1019   */\n  dup3\n    /* \"#utility.yul\":1010:1026   */\n  mul\n    /* \"#utility.yul\":1001:1026   */\n  swap2\n  pop\n    /* \"#utility.yul\":589:1040   */\ntag_21:\n    /* \"#utility.yul\":1071:1075   */\n  dup1\n    /* \"#utility.yul\":1065:1069   */\n  dup2\n    /* \"#utility.yul\":1061:1076   */\n  mul\n    /* \"#utility.yul\":1053:1076   */\n  swap1\n  pop\n    /* \"#utility.yul\":1101:1133   */\n  tag_22\n    /* \"#utility.yul\":1124:1132   */\n  dup6\n    /* \"#utility.yul\":1101:1133   */\n  tag_8\n  jump\t// in\ntag_22:\n    /* \"#utility.yul\":1089:1133   */\n  swap5\n  pop\n    /* \"#utility.yul\":431:1143   */\n  jump(tag_16)\ntag_18:\n    /* \"#utility.yul\":301:1149   */\n  swap5\n  pop\n  swap5\n  swap3\n  pop\n  pop\n  pop\n  jump\t// out\n    /* \"#utility.yul\":1155:2228   */\ntag_10:\n    /* \"#utility.yul\":1209:1214   */\n  0x00\n    /* \"#utility.yul\":1400:1408   */\n  dup3\n    /* \"#utility.yul\":1390:1430   */\n  tag_24\n  jumpi\n    /* \"#utility.yul\":1421:1422   */\n  0x01\n    /* \"#utility.yul\":1412:1422   */\n  swap1\n  pop\n    /* \"#utility.yul\":1423:1428   */\n  jump(tag_23)\n    /* \"#utility.yul\":1390:1430   */\ntag_24:\n    /* \"#utility.yul\":1449:1453   */\n  dup2\n    /* \"#utility.yul\":1439:1475   */\n  tag_25\n  jumpi\n    /* \"#utility.yul\":1466:1467   */\n  0x00\n    /* \"#utility.yul\":1457:1467   */\n  swap1\n  pop\n    /* \"#utility.yul\":1468:1473   */\n  jump(tag_23)\n    /* \"#utility.yul\":1439:1475   */\ntag_25:\n    /* \"#utility.yul\":1535:1539   */\n  dup2\n    /* \"#utility.yul\":1583:1584   */\n  0x01\n    /* \"#utility.yul\":1578:1605   */\n  dup2\n  eq\n  tag_27\n  jumpi\n    /* \"#utility.yul\":1619:1620   */\n  0x02\n    /* \"#utility.yul\":1614:1805   */\n  dup2\n  eq\n  tag_28\n  jumpi\n    /* \"#utility.yul\":1528:1805   */\n  jump(tag_26)\n    /* \"#utility.yul\":1578:1605   */\ntag_27:\n    /* \"#utility.yul\":1596:1597   */\n  0x01\n    /* \"#utility.yul\":1587:1597   */\n  swap2\n  pop\n    /* \"#utility.yul\":1598:1603   */\n  pop\n  jump(tag_23)\n    /* \"#utility.yul\":1614:1805   */\ntag_28:\n    /* \"#utility.yul\":1659:1662   */\n  0xff\n    /* \"#utility.yul\":1649:1657   */\n  dup5\n    /* \"#utility.yul\":1646:1663   */\n  gt\n    /* \"#utility.yul\":1643:1686   */\n  iszero\n  tag_29\n  jumpi\n    /* \"#utility.yul\":1666:1684   */\n  tag_30\n  tag_7\n  jump\t// in\ntag_30:\n    /* \"#utility.yul\":1643:1686   */\ntag_29:\n    /* \"#utility.yul\":1715:1723   */\n  dup4\n    /* \"#utility.yul\":1712:1713   */\n  0x02\n    /* \"#utility.yul\":1708:1724   */\n  exp\n    /* \"#utility.yul\":1699:1724   */\n  swap2\n  pop\n    /* \"#utility.yul\":1750:1753   */\n  dup5\n    /* \"#utility.yul\":1743:1748   */\n  dup3\n    /* \"#utility.yul\":1740:1754   */\n  gt\n    /* \"#utility.yul\":1737:1777   */\n  iszero\n  tag_31\n  jumpi\n    /* \"#utility.yul\":1757:1775   */\n  tag_32\n  tag_7\n  jump\t// in\ntag_32:\n    /* \"#utility.yul\":1737:1777   */\ntag_31:\n    /* \"#utility.yul\":1790:1795   */\n  pop\n  jump(tag_23)\n    /* \"#utility.yul\":1528:1805   */\ntag_26:\n  pop\n    /* \"#utility.yul\":1914:1916   */\n  0x20\n    /* \"#utility.yul\":1904:1912   */\n  dup4\n    /* \"#utility.yul\":1901:1917   */\n  lt\n    /* \"#utility.yul\":1895:1898   */\n  0x0133\n    /* \"#utility.yul\":1889:1893   */\n  dup4\n    /* \"#utility.yul\":1886:1899   */\n  lt\n    /* \"#utility.yul\":1882:1918   */\n  and\n    /* \"#utility.yul\":1864:1866   */\n  0x4e\n    /* \"#utility.yul\":1854:1862   */\n  dup5\n    /* \"#utility.yul\":1851:1867   */\n  lt\n    /* \"#utility.yul\":1846:1848   */\n  0x0b\n    /* \"#utility.yul\":1840:1844   */\n  dup5\n    /* \"#utility.yul\":1837:1849   */\n  lt\n    /* \"#utility.yul\":1833:1868   */\n  and\n    /* \"#utility.yul\":1817:1928   */\n  or\n    /* \"#utility.yul\":1814:2060   */\n  iszero\n  tag_33\n  jumpi\n    /* \"#utility.yul\":1970:1978   */\n  dup3\n    /* \"#utility.yul\":1964:1968   */\n  dup3\n    /* \"#utility.yul\":1960:1979   */\n  exp\n    /* \"#utility.yul\":1951:1979   */\n  swap1\n  pop\n    /* \"#utility.yul\":2005:2008   */\n  dup4\n    /* \"#utility.yul\":1998:2003   */\n  dup2\n    /* \"#utility.yul\":1995:2009   */\n  gt\n    /* \"#utility.yul\":1992:2032   */\n  iszero\n  tag_34\n  jumpi\n    /* \"#utility.yul\":2012:2030   */\n  tag_35\n  tag_7\n  jump\t// in\ntag_35:\n    /* \"#utility.yul\":1992:2032   */\ntag_34:\n    /* \"#utility.yul\":2045:2050   */\n  jump(tag_23)\n    /* \"#utility.yul\":1814:2060   */\ntag_33:\n    /* \"#utility.yul\":2085:2127   */\n  tag_36\n    /* \"#utility.yul\":2123:2126   */\n  dup5\n    /* \"#utility.yul\":2113:2121   */\n  dup5\n    /* \"#utility.yul\":2107:2111   */\n  dup5\n    /* \"#utility.yul\":2104:2105   */\n  0x01\n    /* \"#utility.yul\":2085:2127   */\n  tag_9\n  jump\t// in\ntag_36:\n    /* \"#utility.yul\":2070:2127   */\n  swap3\n  pop\n  swap1\n  pop\n    /* \"#utility.yul\":2159:2163   */\n  dup2\n    /* \"#utility.yul\":2154:2157   */\n  dup5\n    /* \"#utility.yul\":2150:2164   */\n  div\n    /* \"#utility.yul\":2143:2148   */\n  dup2\n    /* \"#utility.yul\":2140:2165   */\n  gt\n    /* \"#utility.yul\":2137:2188   */\n  iszero\n  tag_37\n  jumpi\n    /* \"#utility.yul\":2168:2186   */\n  tag_38\n  tag_7\n  jump\t// in\ntag_38:\n    /* \"#utility.yul\":2137:2188   */\ntag_37:\n    /* \"#utility.yul\":2217:2221   */\n  dup2\n    /* \"#utility.yul\":2210:2215   */\n  dup2\n    /* \"#utility.yul\":2206:2222   */\n  mul\n    /* \"#utility.yul\":2197:2222   */\n  swap1\n  pop\n    /* \"#utility.yul\":1155:2228   */\ntag_23:\n  swap4\n  swap3\n  pop\n  pop\n  pop\n  jump\t// out\n    /* \"#utility.yul\":2234:2311   */\ntag_11:\n    /* \"#utility.yul\":2271:2278   */\n  0x00\n    /* \"#utility.yul\":2300:2305   */\n  dup2\n    /* \"#utility.yul\":2289:2305   */\n  swap1\n  pop\n    /* \"#utility.yul\":2234:2311   */\n  swap2\n  swap1\n  pop\n  jump\t// out\n    /* \"#utility.yul\":2317:2602   */\ntag_2:\n    /* \"#utility.yul\":2377:2382   */\n  0x00\n    /* \"#utility.yul\":2401:2424   */\n  tag_41\n    /* \"#utility.yul\":2419:2423   */\n  dup3\n    /* \"#utility.yul\":2401:2424   */\n  tag_11\n  jump\t// in\ntag_41:\n    /* \"#utility.yul\":2393:2424   */\n  swap2\n  pop\n    /* \"#utility.yul\":2445:2472   */\n  tag_42\n    /* \"#utility.yul\":2463:2471   */\n  dup4\n    /* \"#utility.yul\":2445:2472   */\n  tag_11\n  jump\t// in\ntag_42:\n    /* \"#utility.yul\":2433:2472   */\n  swap3\n  pop\n    /* \"#utility.yul\":2491:2595   */\n  tag_43\n    /* \"#utility.yul\":2528:2594   */\n  0xffffffffffffffffffffffffffffffffffffffffffffffffffffffffffffffff\n    /* \"#utility.yul\":2518:2526   */\n  dup5\n    /* \"#utility.yul\":2512:2516   */\n  dup5\n    /* \"#utility.yul\":2491:2595   */\n  tag_10\n  jump\t// in\ntag_43:\n    /* \"#utility.yul\":2482:2595   */\n  swap1\n  pop\n    /* \"#utility.yul\":2317:2602   */\n  swap3\n  swap2\n  pop\n  pop\n  jump\t// out\n    /* \"HeroOwnership.sol\":6744:8015  contract HeroOwnership is HeroHelper, ERC721 {... */\ntag_6:\n  dataSize(sub_0)\n  dup1\n  dataOffset(sub_0)\n  0x00\n  codecopy\n  0x00\n  return\nstop\n\nsub_0: assembly {\n        /* \"HeroOwnership.sol\":6744:8015  contract HeroOwnership is HeroHelper, ERC721 {... */\n      mstore(0x40, 0x80)\n      jumpi(tag_1, lt(calldatasize, 0x04))\n      shr(0xe0, calldataload(0x00))\n      dup1\n      0x7b0f0a19\n      gt\n      tag_14\n      jumpi\n      dup1\n      0x7b0f0a19\n      eq\n      tag_8\n      jumpi\n      dup1\n      0x8a72ec00\n      eq\n      tag_9\n      jumpi\n      dup1\n      0x8da5cb5b\n      eq\n      tag_10\n      jumpi\n      dup1\n      0x8f32d59b\n      eq\n      tag_11\n      jumpi\n      dup1\n      0xa8d4a03b\n      eq\n      tag_12\n      jumpi\n      dup1\n      0xf2fde38b\n      eq\n      tag_13\n      jumpi\n      jump(tag_1)\n    tag_14:\n      dup1\n      0x07c99f4e\n      eq\n      tag_2\n      jumpi\n      dup1\n      0x095ea7b3\n      eq\n      tag_3\n      jumpi\n      dup1\n      0x23b872dd\n      eq\n      tag_4\n      jumpi\n      dup1\n      0x6352211e\n      eq\n      tag_5\n      jumpi\n      dup1\n      0x70a08231\n      eq\n      tag_6\n      jumpi\n      dup1\n      0x715018a6\n      eq\n      tag_7\n      jumpi\n    tag_1:\n      0x00\n      dup1\n      revert\n        /* \"HeroOwnership.sol\":6277:6628  function getHeroesByOwner(address _owner) external view returns (uint256[] memory) {... */\n    tag_2:\n      callvalue\n      dup1\n      iszero\n      tag_15\n      jumpi\n      0x00\n      dup1\n      revert\n    tag_15:\n      pop\n      tag_16\n      0x04\n      dup1\n      calldatasize\n      sub\n      dup2\n      add\n      swap1\n      tag_17\n      swap2\n      swap1\n      tag_18\n      jump\t// in\n    tag_17:\n      tag_19\n      jump\t// in\n    tag_16:\n      mload(0x40)\n      tag_20\n      swap2\n      swap1\n      tag_21\n      jump\t// in\n    tag_20:\n      mload(0x40)\n      dup1\n      swap2\n      sub\n      swap1\n      return\n        /* \"HeroOwnership.sol\":7710:7910  function approve(address _approved, uint256 _tokenId) external payable override onlyOwnerOf(_tokenId) {... */\n    tag_3:\n      tag_22\n      0x04\n      dup1\n      calldatasize\n      sub\n      dup2\n      add\n      swap1\n      tag_23\n      swap2\n      swap1\n      tag_24\n      jump\t// in\n    tag_23:\n      tag_25\n      jump\t// in\n    tag_22:\n      stop\n        /* \"HeroOwnership.sol\":7463:7706  function transferFrom(... */\n    tag_4:\n      tag_26\n      0x04\n      dup1\n      calldatasize\n      sub\n      dup2\n      add\n      swap1\n      tag_27\n      swap2\n      swap1\n      tag_28\n      jump\t// in\n    tag_27:\n      tag_29\n      jump\t// in\n    tag_26:\n      stop\n        /* \"HeroOwnership.sol\":7052:7175  function ownerOf(uint256 _tokenId) external view virtual override returns (address) {... */\n    tag_5:\n      callvalue\n      dup1\n      iszero\n      tag_30\n      jumpi\n      0x00\n      dup1\n      revert\n    tag_30:\n      pop\n      tag_31\n      0x04\n      dup1\n      calldatasize\n      sub\n      dup2\n      add\n      swap1\n      tag_32\n      swap2\n      swap1\n      tag_33\n      jump\t// in\n    tag_32:\n      tag_34\n      jump\t// in\n    tag_31:\n      mload(0x40)\n      tag_35\n      swap2\n      swap1\n      tag_36\n      jump\t// in\n    tag_35:\n      mload(0x40)\n      dup1\n      swap2\n      sub\n      swap1\n      return\n        /* \"HeroOwnership.sol\":6932:7048  function balanceOf(address _owner) external view override returns (uint256) {... */\n    tag_6:\n      callvalue\n      dup1\n      iszero\n      tag_37\n      jumpi\n      0x00\n      dup1\n      revert\n    tag_37:\n      pop\n      tag_38\n      0x04\n      dup1\n      calldatasize\n      sub\n      dup2\n      add\n      swap1\n      tag_39\n      swap2\n      swap1\n      tag_18\n      jump\t// in\n    tag_39:\n      tag_40\n      jump\t// in\n    tag_38:\n      mload(0x40)\n      tag_41\n      swap2\n      swap1\n      tag_42\n      jump\t// in\n    tag_41:\n      mload(0x40)\n      dup1\n      swap2\n      sub\n      swap1\n      return\n        /* \"HeroOwnership.sol\":4361:4488  function renounceOwnership() public onlyOwner {... */\n    tag_7:\n      callvalue\n      dup1\n      iszero\n      tag_43\n      jumpi\n      0x00\n      dup1\n      revert\n    tag_43:\n      pop\n      tag_44\n      tag_45\n      jump\t// in\n    tag_44:\n      stop\n        /* \"HeroOwnership.sol\":5442:5488  mapping(uint256 => address) public heroToOwner */\n    tag_8:\n      callvalue\n      dup1\n      iszero\n      tag_46\n      jumpi\n      0x00\n      dup1\n      revert\n    tag_46:\n      pop\n      tag_47\n      0x04\n      dup1\n      calldatasize\n      sub\n      dup2\n      add\n      swap1\n      tag_48\n      swap2\n      swap1\n      tag_33\n      jump\t// in\n    tag_48:\n      tag_49\n      jump\t// in\n    tag_47:\n      mload(0x40)\n      tag_50\n      swap2\n      swap1\n      tag_36\n      jump\t// in\n    tag_50:\n      mload(0x40)\n      dup1\n      swap2\n      sub\n      swap1\n      return\n        /* \"HeroOwnership.sol\":6006:6234  function createRandomHero(string memory _name) public {... */\n    tag_9:\n      callvalue\n      dup1\n      iszero\n      tag_51\n      jumpi\n      0x00\n      dup1\n      revert\n    tag_51:\n      pop\n      tag_52\n      0x04\n      dup1\n      calldatasize\n      sub\n      dup2\n      add\n      swap1\n      tag_53\n      swap2\n      swap1\n      tag_54\n      jump\t// in\n    tag_53:\n      tag_55\n      jump\t// in\n    tag_52:\n      stop\n        /* \"HeroOwnership.sol\":3725:3796  function owner() public view returns (address) {... */\n    tag_10:\n      callvalue\n      dup1\n      iszero\n      tag_56\n      jumpi\n      0x00\n      dup1\n      revert\n    tag_56:\n      pop\n      tag_57\n      tag_58\n      jump\t// in\n    tag_57:\n      mload(0x40)\n      tag_59\n      swap2\n      swap1\n      tag_36\n      jump\t// in\n    tag_59:\n      mload(0x40)\n      dup1\n      swap2\n      sub\n      swap1\n      return\n        /* \"HeroOwnership.sol\":4013:4097  function isOwner() public view returns (bool) {... */\n    tag_11:\n      callvalue\n      dup1\n      iszero\n      tag_60\n      jumpi\n      0x00\n      dup1\n      revert\n    tag_60:\n      pop\n      tag_61\n      tag_62\n      jump\t// in\n    tag_61:\n      mload(0x40)\n      tag_63\n      swap2\n      swap1\n      tag_64\n      jump\t// in\n    tag_63:\n      mload(0x40)\n      dup1\n      swap2\n      sub\n      swap1\n      return\n        /* \"HeroOwnership.sol\":5417:5437  Hero[] public heroes */\n    tag_12:\n      callvalue\n      dup1\n      iszero\n      tag_65\n      jumpi\n      0x00\n      dup1\n      revert\n    tag_65:\n      pop\n      tag_66\n      0x04\n      dup1\n      calldatasize\n      sub\n      dup2\n      add\n      swap1\n      tag_67\n      swap2\n      swap1\n      tag_33\n      jump\t// in\n    tag_67:\n      tag_68\n      jump\t// in\n    tag_66:\n      mload(0x40)\n      tag_69\n      swap4\n      swap3\n      swap2\n      swap1\n      tag_70\n      jump\t// in\n    tag_69:\n      mload(0x40)\n      dup1\n      swap2\n      sub\n      swap1\n      return\n        /* \"HeroOwnership.sol\":4649:4750  function transferOwnership(address newOwner) public onlyOwner {... */\n    tag_13:\n      callvalue\n      dup1\n      iszero\n      tag_71\n      jumpi\n      0x00\n      dup1\n      revert\n    tag_71:\n      pop\n      tag_72\n      0x04\n      dup1\n      calldatasize\n      sub\n      dup2\n      add\n      swap1\n      tag_73\n      swap2\n      swap1\n      tag_18\n      jump\t// in\n    tag_73:\n      tag_74\n      jump\t// in\n    tag_72:\n      stop\n        /* \"HeroOwnership.sol\":6277:6628  function getHeroesByOwner(address _owner) external view returns (uint256[] memory) {... */\n    tag_19:\n        /* \"HeroOwnership.sol\":6342:6358  uint256[] memory */\n      0x60\n        /* \"HeroOwnership.sol\":6366:6389  uint256[] memory result */\n      0x00\n        /* \"HeroOwnership.sol\":6406:6420  ownerHeroCount */\n      0x06\n        /* \"HeroOwnership.sol\":6406:6428  ownerHeroCount[_owner] */\n      0x00\n        /* \"HeroOwnership.sol\":6421:6427  _owner */\n      dup5\n        /* \"HeroOwnership.sol\":6406:6428  ownerHeroCount[_owner] */\n      0xffffffffffffffffffffffffffffffffffffffff\n      and\n      0xffffffffffffffffffffffffffffffffffffffff\n      and\n      dup2\n      mstore\n      0x20\n      add\n      swap1\n      dup2\n      mstore\n      0x20\n      add\n      0x00\n      keccak256\n      sload\n        /* \"HeroOwnership.sol\":6392:6429  new uint256[](ownerHeroCount[_owner]) */\n      0xffffffffffffffff\n      dup2\n      gt\n      iszero\n      tag_76\n      jumpi\n      tag_77\n      tag_78\n      jump\t// in\n    tag_77:\n    tag_76:\n      mload(0x40)\n      swap1\n      dup1\n      dup3\n      mstore\n      dup1\n      0x20\n      mul\n      0x20\n      add\n      dup3\n      add\n      0x40\n      mstore\n      dup1\n      iszero\n      tag_79\n      jumpi\n      dup2\n      0x20\n      add\n      0x20\n      dup3\n      mul\n      dup1\n      calldatasize\n      dup4\n      calldatacopy\n      dup1\n      dup3\n      add\n      swap2\n      pop\n      pop\n      swap1\n      pop\n    tag_79:\n      pop\n        /* \"HeroOwnership.sol\":6366:6429  uint256[] memory result = new uint256[](ownerHeroCount[_owner]) */\n      swap1\n      pop\n        /* \"HeroOwnership.sol\":6435:6450  uint256 counter */\n      0x00\n        /* \"HeroOwnership.sol\":6465:6474  uint256 i */\n      dup1\n        /* \"HeroOwnership.sol\":6460:6605  for (uint256 i = 0; i < heroes.length; i++) {... */\n    tag_80:\n        /* \"HeroOwnership.sol\":6484:6490  heroes */\n      0x04\n        /* \"HeroOwnership.sol\":6484:6497  heroes.length */\n      dup1\n      sload\n      swap1\n      pop\n        /* \"HeroOwnership.sol\":6480:6481  i */\n      dup2\n        /* \"HeroOwnership.sol\":6480:6497  i < heroes.length */\n      lt\n        /* \"HeroOwnership.sol\":6460:6605  for (uint256 i = 0; i < heroes.length; i++) {... */\n      iszero\n      tag_81\n      jumpi\n        /* \"HeroOwnership.sol\":6534:6540  _owner */\n      dup5\n        /* \"HeroOwnership.sol\":6516:6540  heroToOwner[i] == _owner */\n      0xffffffffffffffffffffffffffffffffffffffff\n      and\n        /* \"HeroOwnership.sol\":6516:6527  heroToOwner */\n      0x05\n        /* \"HeroOwnership.sol\":6516:6530  heroToOwner[i] */\n      0x00\n        /* \"HeroOwnership.sol\":6528:6529  i */\n      dup4\n        /* \"HeroOwnership.sol\":6516:6530  heroToOwner[i] */\n      dup2\n      mstore\n      0x20\n      add\n      swap1\n      dup2\n      mstore\n      0x20\n      add\n      0x00\n      keccak256\n      0x00\n      swap1\n      sload\n      swap1\n      0x0100\n      exp\n      swap1\n      div\n      0xffffffffffffffffffffffffffffffffffffffff\n      and\n        /* \"HeroOwnership.sol\":6516:6540  heroToOwner[i] == _owner */\n      0xffffffffffffffffffffffffffffffffffffffff\n      and\n      eq\n        /* \"HeroOwnership.sol\":6512:6599  if (heroToOwner[i] == _owner) {... */\n      iszero\n      tag_83\n      jumpi\n        /* \"HeroOwnership.sol\":6570:6571  i */\n      dup1\n        /* \"HeroOwnership.sol\":6552:6558  result */\n      dup4\n        /* \"HeroOwnership.sol\":6559:6566  counter */\n      dup4\n        /* \"HeroOwnership.sol\":6552:6567  result[counter] */\n      dup2\n      mload\n      dup2\n      lt\n      tag_84\n      jumpi\n      tag_85\n      tag_86\n      jump\t// in\n    tag_85:\n    tag_84:\n      0x20\n      mul\n      0x20\n      add\n      add\n        /* \"HeroOwnership.sol\":6552:6571  result[counter] = i */\n      dup2\n      dup2\n      mstore\n      pop\n      pop\n        /* \"HeroOwnership.sol\":6581:6590  counter++ */\n      dup2\n      dup1\n      tag_87\n      swap1\n      tag_88\n      jump\t// in\n    tag_87:\n      swap3\n      pop\n      pop\n        /* \"HeroOwnership.sol\":6512:6599  if (heroToOwner[i] == _owner) {... */\n    tag_83:\n        /* \"HeroOwnership.sol\":6499:6502  i++ */\n      dup1\n      dup1\n      tag_89\n      swap1\n      tag_88\n      jump\t// in\n    tag_89:\n      swap2\n      pop\n      pop\n        /* \"HeroOwnership.sol\":6460:6605  for (uint256 i = 0; i < heroes.length; i++) {... */\n      jump(tag_80)\n    tag_81:\n      pop\n        /* \"HeroOwnership.sol\":6617:6623  result */\n      dup2\n        /* \"HeroOwnership.sol\":6610:6623  return result */\n      swap3\n      pop\n      pop\n      pop\n        /* \"HeroOwnership.sol\":6277:6628  function getHeroesByOwner(address _owner) external view returns (uint256[] memory) {... */\n      swap2\n      swap1\n      pop\n      jump\t// out\n        /* \"HeroOwnership.sol\":7710:7910  function approve(address _approved, uint256 _tokenId) external payable override onlyOwnerOf(_tokenId) {... */\n    tag_25:\n        /* \"HeroOwnership.sol\":7802:7810  _tokenId */\n      dup1\n        /* \"HeroOwnership.sol\":7980:7991  heroToOwner */\n      0x05\n        /* \"HeroOwnership.sol\":7980:8000  heroToOwner[_heroId] */\n      0x00\n        /* \"HeroOwnership.sol\":7992:7999  _heroId */\n      dup3\n        /* \"HeroOwnership.sol\":7980:8000  heroToOwner[_heroId] */\n      dup2\n      mstore\n      0x20\n      add\n      swap1\n      dup2\n      mstore\n      0x20\n      add\n      0x00\n      keccak256\n      0x00\n      swap1\n      sload\n      swap1\n      0x0100\n      exp\n      swap1\n      div\n      0xffffffffffffffffffffffffffffffffffffffff\n      and\n        /* \"HeroOwnership.sol\":7966:8000  msg.sender == heroToOwner[_heroId] */\n      0xffffffffffffffffffffffffffffffffffffffff\n      and\n        /* \"HeroOwnership.sol\":7966:7976  msg.sender */\n      caller\n        /* \"HeroOwnership.sol\":7966:8000  msg.sender == heroToOwner[_heroId] */\n      0xffffffffffffffffffffffffffffffffffffffff\n      and\n      eq\n        /* \"HeroOwnership.sol\":7958:8001  require(msg.sender == heroToOwner[_heroId]) */\n      tag_91\n      jumpi\n      0x00\n      dup1\n      revert\n    tag_91:\n        /* \"HeroOwnership.sol\":7844:7853  _approved */\n      dup3\n        /* \"HeroOwnership.sol\":7818:7831  heroApprovals */\n      0x07\n        /* \"HeroOwnership.sol\":7818:7841  heroApprovals[_tokenId] */\n      0x00\n        /* \"HeroOwnership.sol\":7832:7840  _tokenId */\n      dup5\n        /* \"HeroOwnership.sol\":7818:7841  heroApprovals[_tokenId] */\n      dup2\n      mstore\n      0x20\n      add\n      swap1\n      dup2\n      mstore\n      0x20\n      add\n      0x00\n      keccak256\n      0x00\n        /* \"HeroOwnership.sol\":7818:7853  heroApprovals[_tokenId] = _approved */\n      0x0100\n      exp\n      dup2\n      sload\n      dup2\n      0xffffffffffffffffffffffffffffffffffffffff\n      mul\n      not\n      and\n      swap1\n      dup4\n      0xffffffffffffffffffffffffffffffffffffffff\n      and\n      mul\n      or\n      swap1\n      sstore\n      pop\n        /* \"HeroOwnership.sol\":7896:7904  _tokenId */\n      dup2\n        /* \"HeroOwnership.sol\":7885:7894  _approved */\n      dup4\n        /* \"HeroOwnership.sol\":7864:7905  Approval(msg.sender, _approved, _tokenId) */\n      0xffffffffffffffffffffffffffffffffffffffff\n      and\n        /* \"HeroOwnership.sol\":7873:7883  msg.sender */\n      caller\n        /* \"HeroOwnership.sol\":7864:7905  Approval(msg.sender, _approved, _tokenId) */\n      0xffffffffffffffffffffffffffffffffffffffff\n      and\n      0x8c5be1e5ebec7d5bd14f71427d1e84f3dd0314c0f7b2291e5b200ac8c7c3b925\n      mload(0x40)\n      mload(0x40)\n      dup1\n      swap2\n      sub\n      swap1\n      log4\n        /* \"HeroOwnership.sol\":7710:7910  function approve(address _approved, uint256 _tokenId) external payable override onlyOwnerOf(_tokenId) {... */\n      pop\n      pop\n      pop\n      jump\t// out\n        /* \"HeroOwnership.sol\":7463:7706  function transferFrom(... */\n    tag_29:\n        /* \"HeroOwnership.sol\":7612:7622  msg.sender */\n      caller\n        /* \"HeroOwnership.sol\":7587:7622  heroToOwner[_tokenId] == msg.sender */\n      0xffffffffffffffffffffffffffffffffffffffff\n      and\n        /* \"HeroOwnership.sol\":7587:7598  heroToOwner */\n      0x05\n        /* \"HeroOwnership.sol\":7587:7608  heroToOwner[_tokenId] */\n      0x00\n        /* \"HeroOwnership.sol\":7599:7607  _tokenId */\n      dup4\n        /* \"HeroOwnership.sol\":7587:7608  heroToOwner[_tokenId] */\n      dup2\n      mstore\n      0x20\n      add\n      swap1\n      dup2\n      mstore\n      0x20\n      add\n      0x00\n      keccak256\n      0x00\n      swap1\n      sload\n      swap1\n      0x0100\n      exp\n      swap1\n      div\n      0xffffffffffffffffffffffffffffffffffffffff\n      and\n        /* \"HeroOwnership.sol\":7587:7622  heroToOwner[_tokenId] == msg.sender */\n      0xffffffffffffffffffffffffffffffffffffffff\n      and\n      eq\n        /* \"HeroOwnership.sol\":7587:7663  heroToOwner[_tokenId] == msg.sender || heroApprovals[_tokenId] == msg.sender */\n      dup1\n      tag_94\n      jumpi\n      pop\n        /* \"HeroOwnership.sol\":7653:7663  msg.sender */\n      caller\n        /* \"HeroOwnership.sol\":7626:7663  heroApprovals[_tokenId] == msg.sender */\n      0xffffffffffffffffffffffffffffffffffffffff\n      and\n        /* \"HeroOwnership.sol\":7626:7639  heroApprovals */\n      0x07\n        /* \"HeroOwnership.sol\":7626:7649  heroApprovals[_tokenId] */\n      0x00\n        /* \"HeroOwnership.sol\":7640:7648  _tokenId */\n      dup4\n        /* \"HeroOwnership.sol\":7626:7649  heroApprovals[_tokenId] */\n      dup2\n      mstore\n      0x20\n      add\n      swap1\n      dup2\n      mstore\n      0x20\n      add\n      0x00\n      keccak256\n      0x00\n      swap1\n      sload\n      swap1\n      0x0100\n      exp\n      swap1\n      div\n      0xffffffffffffffffffffffffffffffffffffffff\n      and\n        /* \"HeroOwnership.sol\":7626:7663  heroApprovals[_tokenId] == msg.sender */\n      0xffffffffffffffffffffffffffffffffffffffff\n      and\n      eq\n        /* \"HeroOwnership.sol\":7587:7663  heroToOwner[_tokenId] == msg.sender || heroApprovals[_tokenId] == msg.sender */\n    tag_94:\n        /* \"HeroOwnership.sol\":7579:7664  require(heroToOwner[_tokenId] == msg.sender || heroApprovals[_tokenId] == msg.sender) */\n      tag_95\n      jumpi\n      0x00\n      dup1\n      revert\n    tag_95:\n        /* \"HeroOwnership.sol\":7670:7701  _transfer(_from, _to, _tokenId) */\n      tag_96\n        /* \"HeroOwnership.sol\":7680:7685  _from */\n      dup4\n        /* \"HeroOwnership.sol\":7687:7690  _to */\n      dup4\n        /* \"HeroOwnership.sol\":7692:7700  _tokenId */\n      dup4\n        /* \"HeroOwnership.sol\":7670:7679  _transfer */\n      tag_97\n        /* \"HeroOwnership.sol\":7670:7701  _transfer(_from, _to, _tokenId) */\n      jump\t// in\n    tag_96:\n        /* \"HeroOwnership.sol\":7463:7706  function transferFrom(... */\n      pop\n      pop\n      pop\n      jump\t// out\n        /* \"HeroOwnership.sol\":7052:7175  function ownerOf(uint256 _tokenId) external view virtual override returns (address) {... */\n    tag_34:\n        /* \"HeroOwnership.sol\":7127:7134  address */\n      0x00\n        /* \"HeroOwnership.sol\":7149:7160  heroToOwner */\n      0x05\n        /* \"HeroOwnership.sol\":7149:7170  heroToOwner[_tokenId] */\n      0x00\n        /* \"HeroOwnership.sol\":7161:7169  _tokenId */\n      dup4\n        /* \"HeroOwnership.sol\":7149:7170  heroToOwner[_tokenId] */\n      dup2\n      mstore\n      0x20\n      add\n      swap1\n      dup2\n      mstore\n      0x20\n      add\n      0x00\n      keccak256\n      0x00\n      swap1\n      sload\n      swap1\n      0x0100\n      exp\n      swap1\n      div\n      0xffffffffffffffffffffffffffffffffffffffff\n      and\n        /* \"HeroOwnership.sol\":7142:7170  return heroToOwner[_tokenId] */\n      swap1\n      pop\n        /* \"HeroOwnership.sol\":7052:7175  function ownerOf(uint256 _tokenId) external view virtual override returns (address) {... */\n      swap2\n      swap1\n      pop\n      jump\t// out\n        /* \"HeroOwnership.sol\":6932:7048  function balanceOf(address _owner) external view override returns (uint256) {... */\n    tag_40:\n        /* \"HeroOwnership.sol\":6999:7006  uint256 */\n      0x00\n        /* \"HeroOwnership.sol\":7021:7035  ownerHeroCount */\n      0x06\n        /* \"HeroOwnership.sol\":7021:7043  ownerHeroCount[_owner] */\n      0x00\n        /* \"HeroOwnership.sol\":7036:7042  _owner */\n      dup4\n        /* \"HeroOwnership.sol\":7021:7043  ownerHeroCount[_owner] */\n      0xffffffffffffffffffffffffffffffffffffffff\n      and\n      0xffffffffffffffffffffffffffffffffffffffff\n      and\n      dup2\n      mstore\n      0x20\n      add\n      swap1\n      dup2\n      mstore\n      0x20\n      add\n      0x00\n      keccak256\n      sload\n        /* \"HeroOwnership.sol\":7014:7043  return ownerHeroCount[_owner] */\n      swap1\n      pop\n        /* \"HeroOwnership.sol\":6932:7048  function balanceOf(address _owner) external view override returns (uint256) {... */\n      swap2\n      swap1\n      pop\n      jump\t// out\n        /* \"HeroOwnership.sol\":4361:4488  function renounceOwnership() public onlyOwner {... */\n    tag_45:\n        /* \"HeroOwnership.sol\":3911:3920  isOwner() */\n      tag_101\n        /* \"HeroOwnership.sol\":3911:3918  isOwner */\n      tag_62\n        /* \"HeroOwnership.sol\":3911:3920  isOwner() */\n      jump\t// in\n    tag_101:\n        /* \"HeroOwnership.sol\":3903:3921  require(isOwner()) */\n      tag_102\n      jumpi\n      0x00\n      dup1\n      revert\n    tag_102:\n        /* \"HeroOwnership.sol\":4455:4456  0 */\n      0x00\n        /* \"HeroOwnership.sol\":4418:4458  OwnershipTransferred(_owner, address(0)) */\n      0xffffffffffffffffffffffffffffffffffffffff\n      and\n        /* \"HeroOwnership.sol\":4439:4445  _owner */\n      0x00\n      dup1\n      sload\n      swap1\n      0x0100\n      exp\n      swap1\n      div\n      0xffffffffffffffffffffffffffffffffffffffff\n      and\n        /* \"HeroOwnership.sol\":4418:4458  OwnershipTransferred(_owner, address(0)) */\n      0xffffffffffffffffffffffffffffffffffffffff\n      and\n      0x8be0079c531659141344cd1fd0a4f28419497f9722a3daafe3b4186f6b6457e0\n      mload(0x40)\n      mload(0x40)\n      dup1\n      swap2\n      sub\n      swap1\n      log3\n        /* \"HeroOwnership.sol\":4481:4482  0 */\n      0x00\n        /* \"HeroOwnership.sol\":4464:4470  _owner */\n      dup1\n      0x00\n        /* \"HeroOwnership.sol\":4464:4483  _owner = address(0) */\n      0x0100\n      exp\n      dup2\n      sload\n      dup2\n      0xffffffffffffffffffffffffffffffffffffffff\n      mul\n      not\n      and\n      swap1\n      dup4\n      0xffffffffffffffffffffffffffffffffffffffff\n      and\n      mul\n      or\n      swap1\n      sstore\n      pop\n        /* \"HeroOwnership.sol\":4361:4488  function renounceOwnership() public onlyOwner {... */\n      jump\t// out\n        /* \"HeroOwnership.sol\":5442:5488  mapping(uint256 => address) public heroToOwner */\n    tag_49:\n      mstore(0x20, 0x05)\n      dup1\n      0x00\n      mstore\n      keccak256(0x00, 0x40)\n      0x00\n      swap2\n      pop\n      sload\n      swap1\n      0x0100\n      exp\n      swap1\n      div\n      0xffffffffffffffffffffffffffffffffffffffff\n      and\n      dup2\n      jump\t// out\n        /* \"HeroOwnership.sol\":6006:6234  function createRandomHero(string memory _name) public {... */\n    tag_55:\n        /* \"HeroOwnership.sol\":6153:6168  uint256 randDna */\n      0x00\n        /* \"HeroOwnership.sol\":6171:6196  _generateRandomDna(_name) */\n      tag_105\n        /* \"HeroOwnership.sol\":6190:6195  _name */\n      dup3\n        /* \"HeroOwnership.sol\":6171:6189  _generateRandomDna */\n      tag_106\n        /* \"HeroOwnership.sol\":6171:6196  _generateRandomDna(_name) */\n      jump\t// in\n    tag_105:\n        /* \"HeroOwnership.sol\":6153:6196  uint256 randDna = _generateRandomDna(_name) */\n      swap1\n      pop\n        /* \"HeroOwnership.sol\":6202:6229  _createHero(_name, randDna) */\n      tag_107\n        /* \"HeroOwnership.sol\":6214:6219  _name */\n      dup3\n        /* \"HeroOwnership.sol\":6221:6228  randDna */\n      dup3\n        /* \"HeroOwnership.sol\":6202:6213  _createHero */\n      tag_108\n        /* \"HeroOwnership.sol\":6202:6229  _createHero(_name, randDna) */\n      jump\t// in\n    tag_107:\n        /* \"HeroOwnership.sol\":6060:6234  {... */\n      pop\n        /* \"HeroOwnership.sol\":6006:6234  function createRandomHero(string memory _name) public {... */\n      pop\n      jump\t// out\n        /* \"HeroOwnership.sol\":3725:3796  function owner() public view returns (address) {... */\n    tag_58:\n        /* \"HeroOwnership.sol\":3763:3770  address */\n      0x00\n        /* \"HeroOwnership.sol\":3785:3791  _owner */\n      dup1\n      0x00\n      swap1\n      sload\n      swap1\n      0x0100\n      exp\n      swap1\n      div\n      0xffffffffffffffffffffffffffffffffffffffff\n      and\n        /* \"HeroOwnership.sol\":3778:3791  return _owner */\n      swap1\n      pop\n        /* \"HeroOwnership.sol\":3725:3796  function owner() public view returns (address) {... */\n      swap1\n      jump\t// out\n        /* \"HeroOwnership.sol\":4013:4097  function isOwner() public view returns (bool) {... */\n    tag_62:\n        /* \"HeroOwnership.sol\":4053:4057  bool */\n      0x00\n        /* \"HeroOwnership.sol\":4086:4092  _owner */\n      dup1\n      0x00\n      swap1\n      sload\n      swap1\n      0x0100\n      exp\n      swap1\n      div\n      0xffffffffffffffffffffffffffffffffffffffff\n      and\n        /* \"HeroOwnership.sol\":4072:4092  msg.sender == _owner */\n      0xffffffffffffffffffffffffffffffffffffffff\n      and\n        /* \"HeroOwnership.sol\":4072:4082  msg.sender */\n      caller\n        /* \"HeroOwnership.sol\":4072:4092  msg.sender == _owner */\n      0xffffffffffffffffffffffffffffffffffffffff\n      and\n      eq\n        /* \"HeroOwnership.sol\":4065:4092  return msg.sender == _owner */\n      swap1\n      pop\n        /* \"HeroOwnership.sol\":4013:4097  function isOwner() public view returns (bool) {... */\n      swap1\n      jump\t// out\n        /* \"HeroOwnership.sol\":5417:5437  Hero[] public heroes */\n    tag_68:\n      0x04\n      dup2\n      dup2\n      sload\n      dup2\n      lt\n      tag_111\n      jumpi\n      0x00\n      dup1\n      revert\n    tag_111:\n      swap1\n      0x00\n      mstore\n      keccak256(0x00, 0x20)\n      swap1\n      0x03\n      mul\n      add\n      0x00\n      swap2\n      pop\n      swap1\n      pop\n      dup1\n      0x00\n      add\n      dup1\n      sload\n      tag_113\n      swap1\n      tag_114\n      jump\t// in\n    tag_113:\n      dup1\n      0x1f\n      add\n      0x20\n      dup1\n      swap2\n      div\n      mul\n      0x20\n      add\n      mload(0x40)\n      swap1\n      dup2\n      add\n      0x40\n      mstore\n      dup1\n      swap3\n      swap2\n      swap1\n      dup2\n      dup2\n      mstore\n      0x20\n      add\n      dup3\n      dup1\n      sload\n      tag_115\n      swap1\n      tag_114\n      jump\t// in\n    tag_115:\n      dup1\n      iszero\n      tag_116\n      jumpi\n      dup1\n      0x1f\n      lt\n      tag_117\n      jumpi\n      0x0100\n      dup1\n      dup4\n      sload\n      div\n      mul\n      dup4\n      mstore\n      swap2\n      0x20\n      add\n      swap2\n      jump(tag_116)\n    tag_117:\n      dup3\n      add\n      swap2\n      swap1\n      0x00\n      mstore\n      keccak256(0x00, 0x20)\n      swap1\n    tag_118:\n      dup2\n      sload\n      dup2\n      mstore\n      swap1\n      0x01\n      add\n      swap1\n      0x20\n      add\n      dup1\n      dup4\n      gt\n      tag_118\n      jumpi\n      dup3\n      swap1\n      sub\n      0x1f\n      and\n      dup3\n      add\n      swap2\n    tag_116:\n      pop\n      pop\n      pop\n      pop\n      pop\n      swap1\n      dup1\n      0x01\n      add\n      sload\n      swap1\n      dup1\n      0x02\n      add\n      0x00\n      swap1\n      sload\n      swap1\n      0x0100\n      exp\n      swap1\n      div\n      0xffffffff\n      and\n      swap1\n      pop\n      dup4\n      jump\t// out\n        /* \"HeroOwnership.sol\":4649:4750  function transferOwnership(address newOwner) public onlyOwner {... */\n    tag_74:\n        /* \"HeroOwnership.sol\":3911:3920  isOwner() */\n      tag_120\n        /* \"HeroOwnership.sol\":3911:3918  isOwner */\n      tag_62\n        /* \"HeroOwnership.sol\":3911:3920  isOwner() */\n      jump\t// in\n    tag_120:\n        /* \"HeroOwnership.sol\":3903:3921  require(isOwner()) */\n      tag_121\n      jumpi\n      0x00\n      dup1\n      revert\n    tag_121:\n        /* \"HeroOwnership.sol\":4717:4745  _transferOwnership(newOwner) */\n      tag_123\n        /* \"HeroOwnership.sol\":4736:4744  newOwner */\n      dup2\n        /* \"HeroOwnership.sol\":4717:4735  _transferOwnership */\n      tag_124\n        /* \"HeroOwnership.sol\":4717:4745  _transferOwnership(newOwner) */\n      jump\t// in\n    tag_123:\n        /* \"HeroOwnership.sol\":4649:4750  function transferOwnership(address newOwner) public onlyOwner {... */\n      pop\n      jump\t// out\n        /* \"HeroOwnership.sol\":7179:7459  function _transfer(... */\n    tag_97:\n        /* \"HeroOwnership.sol\":7296:7322  ownerHeroCount[_to].add(1) */\n      tag_126\n        /* \"HeroOwnership.sol\":7320:7321  1 */\n      0x01\n        /* \"HeroOwnership.sol\":7296:7310  ownerHeroCount */\n      0x06\n        /* \"HeroOwnership.sol\":7296:7315  ownerHeroCount[_to] */\n      0x00\n        /* \"HeroOwnership.sol\":7311:7314  _to */\n      dup6\n        /* \"HeroOwnership.sol\":7296:7315  ownerHeroCount[_to] */\n      0xffffffffffffffffffffffffffffffffffffffff\n      and\n      0xffffffffffffffffffffffffffffffffffffffff\n      and\n      dup2\n      mstore\n      0x20\n      add\n      swap1\n      dup2\n      mstore\n      0x20\n      add\n      0x00\n      keccak256\n      sload\n        /* \"HeroOwnership.sol\":7296:7319  ownerHeroCount[_to].add */\n      tag_127\n      swap1\n        /* \"HeroOwnership.sol\":7296:7322  ownerHeroCount[_to].add(1) */\n      swap2\n      swap1\n      0xffffffff\n      and\n      jump\t// in\n    tag_126:\n        /* \"HeroOwnership.sol\":7274:7288  ownerHeroCount */\n      0x06\n        /* \"HeroOwnership.sol\":7274:7293  ownerHeroCount[_to] */\n      0x00\n        /* \"HeroOwnership.sol\":7289:7292  _to */\n      dup5\n        /* \"HeroOwnership.sol\":7274:7293  ownerHeroCount[_to] */\n      0xffffffffffffffffffffffffffffffffffffffff\n      and\n      0xffffffffffffffffffffffffffffffffffffffff\n      and\n      dup2\n      mstore\n      0x20\n      add\n      swap1\n      dup2\n      mstore\n      0x20\n      add\n      0x00\n      keccak256\n        /* \"HeroOwnership.sol\":7274:7322  ownerHeroCount[_to] = ownerHeroCount[_to].add(1) */\n      dup2\n      swap1\n      sstore\n      pop\n        /* \"HeroOwnership.sol\":7352:7380  ownerHeroCount[_from].sub(1) */\n      tag_128\n        /* \"HeroOwnership.sol\":7378:7379  1 */\n      0x01\n        /* \"HeroOwnership.sol\":7352:7366  ownerHeroCount */\n      0x06\n        /* \"HeroOwnership.sol\":7352:7373  ownerHeroCount[_from] */\n      0x00\n        /* \"HeroOwnership.sol\":7367:7372  _from */\n      dup7\n        /* \"HeroOwnership.sol\":7352:7373  ownerHeroCount[_from] */\n      0xffffffffffffffffffffffffffffffffffffffff\n      and\n      0xffffffffffffffffffffffffffffffffffffffff\n      and\n      dup2\n      mstore\n      0x20\n      add\n      swap1\n      dup2\n      mstore\n      0x20\n      add\n      0x00\n      keccak256\n      sload\n        /* \"HeroOwnership.sol\":7352:7377  ownerHeroCount[_from].sub */\n      tag_129\n      swap1\n        /* \"HeroOwnership.sol\":7352:7380  ownerHeroCount[_from].sub(1) */\n      swap2\n      swap1\n      0xffffffff\n      and\n      jump\t// in\n    tag_128:\n        /* \"HeroOwnership.sol\":7328:7342  ownerHeroCount */\n      0x06\n        /* \"HeroOwnership.sol\":7328:7349  ownerHeroCount[_from] */\n      0x00\n        /* \"HeroOwnership.sol\":7343:7348  _from */\n      dup6\n        /* \"HeroOwnership.sol\":7328:7349  ownerHeroCount[_from] */\n      0xffffffffffffffffffffffffffffffffffffffff\n      and\n      0xffffffffffffffffffffffffffffffffffffffff\n      and\n      dup2\n      mstore\n      0x20\n      add\n      swap1\n      dup2\n      mstore\n      0x20\n      add\n      0x00\n      keccak256\n        /* \"HeroOwnership.sol\":7328:7380  ownerHeroCount[_from] = ownerHeroCount[_from].sub(1) */\n      dup2\n      swap1\n      sstore\n      pop\n        /* \"HeroOwnership.sol\":7410:7413  _to */\n      dup2\n        /* \"HeroOwnership.sol\":7386:7397  heroToOwner */\n      0x05\n        /* \"HeroOwnership.sol\":7386:7407  heroToOwner[_tokenId] */\n      0x00\n        /* \"HeroOwnership.sol\":7398:7406  _tokenId */\n      dup4\n        /* \"HeroOwnership.sol\":7386:7407  heroToOwner[_tokenId] */\n      dup2\n      mstore\n      0x20\n      add\n      swap1\n      dup2\n      mstore\n      0x20\n      add\n      0x00\n      keccak256\n      0x00\n        /* \"HeroOwnership.sol\":7386:7413  heroToOwner[_tokenId] = _to */\n      0x0100\n      exp\n      dup2\n      sload\n      dup2\n      0xffffffffffffffffffffffffffffffffffffffff\n      mul\n      not\n      and\n      swap1\n      dup4\n      0xffffffffffffffffffffffffffffffffffffffff\n      and\n      mul\n      or\n      swap1\n      sstore\n      pop\n        /* \"HeroOwnership.sol\":7445:7453  _tokenId */\n      dup1\n        /* \"HeroOwnership.sol\":7440:7443  _to */\n      dup3\n        /* \"HeroOwnership.sol\":7424:7454  Transfer(_from, _to, _tokenId) */\n      0xffffffffffffffffffffffffffffffffffffffff\n      and\n        /* \"HeroOwnership.sol\":7433:7438  _from */\n      dup5\n        /* \"HeroOwnership.sol\":7424:7454  Transfer(_from, _to, _tokenId) */\n      0xffffffffffffffffffffffffffffffffffffffff\n      and\n      0xddf252ad1be2c89b69c2b068fc378daa952ba7f163c4a11628f55a4df523b3ef\n      mload(0x40)\n      mload(0x40)\n      dup1\n      swap2\n      sub\n      swap1\n      log4\n        /* \"HeroOwnership.sol\":7179:7459  function _transfer(... */\n      pop\n      pop\n      pop\n      jump\t// out\n        /* \"HeroOwnership.sol\":5539:5716  function _generateRandomDna(string memory _str) private view returns (uint256) {... */\n    tag_106:\n        /* \"HeroOwnership.sol\":5609:5616  uint256 */\n      0x00\n        /* \"HeroOwnership.sol\":5624:5636  uint256 rand */\n      dup1\n        /* \"HeroOwnership.sol\":5674:5678  _str */\n      dup3\n        /* \"HeroOwnership.sol\":5657:5679  abi.encodePacked(_str) */\n      add(0x20, mload(0x40))\n      tag_131\n      swap2\n      swap1\n      tag_132\n      jump\t// in\n    tag_131:\n      mload(0x40)\n      0x20\n      dup2\n      dup4\n      sub\n      sub\n      dup2\n      mstore\n      swap1\n      0x40\n      mstore\n        /* \"HeroOwnership.sol\":5647:5680  keccak256(abi.encodePacked(_str)) */\n      dup1\n      mload\n      swap1\n      0x20\n      add\n      keccak256\n        /* \"HeroOwnership.sol\":5639:5681  uint256(keccak256(abi.encodePacked(_str))) */\n      0x00\n      shr\n        /* \"HeroOwnership.sol\":5624:5681  uint256 rand = uint256(keccak256(abi.encodePacked(_str))) */\n      swap1\n      pop\n        /* \"HeroOwnership.sol\":5701:5711  dnaModulus */\n      sload(0x02)\n        /* \"HeroOwnership.sol\":5694:5698  rand */\n      dup2\n        /* \"HeroOwnership.sol\":5694:5711  rand % dnaModulus */\n      tag_133\n      swap2\n      swap1\n      tag_134\n      jump\t// in\n    tag_133:\n        /* \"HeroOwnership.sol\":5687:5711  return rand % dnaModulus */\n      swap2\n      pop\n      pop\n        /* \"HeroOwnership.sol\":5539:5716  function _generateRandomDna(string memory _str) private view returns (uint256) {... */\n      swap2\n      swap1\n      pop\n      jump\t// out\n        /* \"HeroOwnership.sol\":5720:6002  function _createHero(string memory _name, uint256 _dna) internal {... */\n    tag_108:\n        /* \"HeroOwnership.sol\":5791:5797  heroes */\n      0x04\n        /* \"HeroOwnership.sol\":5803:5823  Hero(_name, _dna, 1) */\n      mload(0x40)\n      dup1\n      0x60\n      add\n      0x40\n      mstore\n      dup1\n        /* \"HeroOwnership.sol\":5808:5813  _name */\n      dup5\n        /* \"HeroOwnership.sol\":5803:5823  Hero(_name, _dna, 1) */\n      dup2\n      mstore\n      0x20\n      add\n        /* \"HeroOwnership.sol\":5815:5819  _dna */\n      dup4\n        /* \"HeroOwnership.sol\":5803:5823  Hero(_name, _dna, 1) */\n      dup2\n      mstore\n      0x20\n      add\n        /* \"HeroOwnership.sol\":5821:5822  1 */\n      0x01\n        /* \"HeroOwnership.sol\":5803:5823  Hero(_name, _dna, 1) */\n      0xffffffff\n      and\n      dup2\n      mstore\n      pop\n        /* \"HeroOwnership.sol\":5791:5824  heroes.push(Hero(_name, _dna, 1)) */\n      swap1\n      dup1\n      0x01\n      dup2\n      sload\n      add\n      dup1\n      dup3\n      sstore\n      dup1\n      swap2\n      pop\n      pop\n      0x01\n      swap1\n      sub\n      swap1\n      0x00\n      mstore\n      keccak256(0x00, 0x20)\n      swap1\n      0x03\n      mul\n      add\n      0x00\n      swap1\n      swap2\n      swap1\n      swap2\n      swap1\n      swap2\n      pop\n      0x00\n      dup3\n      add\n      mload\n      dup2\n      0x00\n      add\n      swap1\n      dup1\n      mload\n      swap1\n      0x20\n      add\n      swap1\n      tag_137\n      swap3\n      swap2\n      swap1\n      tag_138\n      jump\t// in\n    tag_137:\n      pop\n      0x20\n      dup3\n      add\n      mload\n      dup2\n      0x01\n      add\n      sstore\n      0x40\n      dup3\n      add\n      mload\n      dup2\n      0x02\n      add\n      exp(0x0100, 0x00)\n      dup2\n      sload\n      dup2\n      0xffffffff\n      mul\n      not\n      and\n      swap1\n      dup4\n      0xffffffff\n      and\n      mul\n      or\n      swap1\n      sstore\n      pop\n      pop\n      pop\n        /* \"HeroOwnership.sol\":5830:5840  uint256 id */\n      0x00\n        /* \"HeroOwnership.sol\":5859:5860  1 */\n      0x01\n        /* \"HeroOwnership.sol\":5843:5849  heroes */\n      0x04\n        /* \"HeroOwnership.sol\":5843:5856  heroes.length */\n      dup1\n      sload\n      swap1\n      pop\n        /* \"HeroOwnership.sol\":5843:5860  heroes.length - 1 */\n      tag_139\n      swap2\n      swap1\n      tag_140\n      jump\t// in\n    tag_139:\n        /* \"HeroOwnership.sol\":5830:5860  uint256 id = heroes.length - 1 */\n      swap1\n      pop\n        /* \"HeroOwnership.sol\":5884:5894  msg.sender */\n      caller\n        /* \"HeroOwnership.sol\":5866:5877  heroToOwner */\n      0x05\n        /* \"HeroOwnership.sol\":5866:5881  heroToOwner[id] */\n      0x00\n        /* \"HeroOwnership.sol\":5878:5880  id */\n      dup4\n        /* \"HeroOwnership.sol\":5866:5881  heroToOwner[id] */\n      dup2\n      mstore\n      0x20\n      add\n      swap1\n      dup2\n      mstore\n      0x20\n      add\n      0x00\n      keccak256\n      0x00\n        /* \"HeroOwnership.sol\":5866:5894  heroToOwner[id] = msg.sender */\n      0x0100\n      exp\n      dup2\n      sload\n      dup2\n      0xffffffffffffffffffffffffffffffffffffffff\n      mul\n      not\n      and\n      swap1\n      dup4\n      0xffffffffffffffffffffffffffffffffffffffff\n      and\n      mul\n      or\n      swap1\n      sstore\n      pop\n        /* \"HeroOwnership.sol\":5929:5962  ownerHeroCount[msg.sender].add(1) */\n      tag_141\n        /* \"HeroOwnership.sol\":5960:5961  1 */\n      0x01\n        /* \"HeroOwnership.sol\":5929:5943  ownerHeroCount */\n      0x06\n        /* \"HeroOwnership.sol\":5929:5955  ownerHeroCount[msg.sender] */\n      0x00\n        /* \"HeroOwnership.sol\":5944:5954  msg.sender */\n      caller\n        /* \"HeroOwnership.sol\":5929:5955  ownerHeroCount[msg.sender] */\n      0xffffffffffffffffffffffffffffffffffffffff\n      and\n      0xffffffffffffffffffffffffffffffffffffffff\n      and\n      dup2\n      mstore\n      0x20\n      add\n      swap1\n      dup2\n      mstore\n      0x20\n      add\n      0x00\n      keccak256\n      sload\n        /* \"HeroOwnership.sol\":5929:5959  ownerHeroCount[msg.sender].add */\n      tag_127\n      swap1\n        /* \"HeroOwnership.sol\":5929:5962  ownerHeroCount[msg.sender].add(1) */\n      swap2\n      swap1\n      0xffffffff\n      and\n      jump\t// in\n    tag_141:\n        /* \"HeroOwnership.sol\":5900:5914  ownerHeroCount */\n      0x06\n        /* \"HeroOwnership.sol\":5900:5926  ownerHeroCount[msg.sender] */\n      0x00\n        /* \"HeroOwnership.sol\":5915:5925  msg.sender */\n      caller\n        /* \"HeroOwnership.sol\":5900:5926  ownerHeroCount[msg.sender] */\n      0xffffffffffffffffffffffffffffffffffffffff\n      and\n      0xffffffffffffffffffffffffffffffffffffffff\n      and\n      dup2\n      mstore\n      0x20\n      add\n      swap1\n      dup2\n      mstore\n      0x20\n      add\n      0x00\n      keccak256\n        /* \"HeroOwnership.sol\":5900:5962  ownerHeroCount[msg.sender] = ownerHeroCount[msg.sender].add(1) */\n      dup2\n      swap1\n      sstore\n      pop\n        /* \"HeroOwnership.sol\":5973:5997  NewHero(id, _name, _dna) */\n      0xc404ae7075893405fef7ba0a0001d5ab3a05de4f9d9854f10259d60d822063a6\n        /* \"HeroOwnership.sol\":5981:5983  id */\n      dup2\n        /* \"HeroOwnership.sol\":5985:5990  _name */\n      dup5\n        /* \"HeroOwnership.sol\":5992:5996  _dna */\n      dup5\n        /* \"HeroOwnership.sol\":5973:5997  NewHero(id, _name, _dna) */\n      mload(0x40)\n      tag_142\n      swap4\n      swap3\n      swap2\n      swap1\n      tag_143\n      jump\t// in\n    tag_142:\n      mload(0x40)\n      dup1\n      swap2\n      sub\n      swap1\n      log1\n        /* \"HeroOwnership.sol\":5785:6002  {... */\n      pop\n        /* \"HeroOwnership.sol\":5720:6002  function _createHero(string memory _name, uint256 _dna) internal {... */\n      pop\n      pop\n      jump\t// out\n        /* \"HeroOwnership.sol\":4884:5053  function _transferOwnership(address newOwner) internal {... */\n    tag_124:\n        /* \"HeroOwnership.sol\":4973:4974  0 */\n      0x00\n        /* \"HeroOwnership.sol\":4953:4975  newOwner != address(0) */\n      0xffffffffffffffffffffffffffffffffffffffff\n      and\n        /* \"HeroOwnership.sol\":4953:4961  newOwner */\n      dup2\n        /* \"HeroOwnership.sol\":4953:4975  newOwner != address(0) */\n      0xffffffffffffffffffffffffffffffffffffffff\n      and\n      eq\n      iszero\n        /* \"HeroOwnership.sol\":4945:4976  require(newOwner != address(0)) */\n      tag_145\n      jumpi\n      0x00\n      dup1\n      revert\n    tag_145:\n        /* \"HeroOwnership.sol\":5016:5024  newOwner */\n      dup1\n        /* \"HeroOwnership.sol\":4987:5025  OwnershipTransferred(_owner, newOwner) */\n      0xffffffffffffffffffffffffffffffffffffffff\n      and\n        /* \"HeroOwnership.sol\":5008:5014  _owner */\n      0x00\n      dup1\n      sload\n      swap1\n      0x0100\n      exp\n      swap1\n      div\n      0xffffffffffffffffffffffffffffffffffffffff\n      and\n        /* \"HeroOwnership.sol\":4987:5025  OwnershipTransferred(_owner, newOwner) */\n      0xffffffffffffffffffffffffffffffffffffffff\n      and\n      0x8be0079c531659141344cd1fd0a4f28419497f9722a3daafe3b4186f6b6457e0\n      mload(0x40)\n      mload(0x40)\n      dup1\n      swap2\n      sub\n      swap1\n      log3\n        /* \"HeroOwnership.sol\":5040:5048  newOwner */\n      dup1\n        /* \"HeroOwnership.sol\":5031:5037  _owner */\n      0x00\n      dup1\n        /* \"HeroOwnership.sol\":5031:5048  _owner = newOwner */\n      0x0100\n      exp\n      dup2\n      sload\n      dup2\n      0xffffffffffffffffffffffffffffffffffffffff\n      mul\n      not\n      and\n      swap1\n      dup4\n      0xffffffffffffffffffffffffffffffffffffffff\n      and\n      mul\n      or\n      swap1\n      sstore\n      pop\n        /* \"HeroOwnership.sol\":4884:5053  function _transferOwnership(address newOwner) internal {... */\n      pop\n      jump\t// out\n        /* \"HeroOwnership.sol\":956:1085  function add(uint256 a, uint256 b) internal pure returns (uint256) {... */\n    tag_127:\n        /* \"HeroOwnership.sol\":1014:1021  uint256 */\n      0x00\n        /* \"HeroOwnership.sol\":1029:1038  uint256 c */\n      dup1\n        /* \"HeroOwnership.sol\":1045:1046  b */\n      dup3\n        /* \"HeroOwnership.sol\":1041:1042  a */\n      dup5\n        /* \"HeroOwnership.sol\":1041:1046  a + b */\n      tag_147\n      swap2\n      swap1\n      tag_148\n      jump\t// in\n    tag_147:\n        /* \"HeroOwnership.sol\":1029:1046  uint256 c = a + b */\n      swap1\n      pop\n        /* \"HeroOwnership.sol\":1064:1065  a */\n      dup4\n        /* \"HeroOwnership.sol\":1059:1060  c */\n      dup2\n        /* \"HeroOwnership.sol\":1059:1065  c >= a */\n      lt\n      iszero\n        /* \"HeroOwnership.sol\":1052:1066  assert(c >= a) */\n      tag_149\n      jumpi\n      tag_150\n      tag_151\n      jump\t// in\n    tag_150:\n    tag_149:\n        /* \"HeroOwnership.sol\":1079:1080  c */\n      dup1\n        /* \"HeroOwnership.sol\":1072:1080  return c */\n      swap2\n      pop\n      pop\n        /* \"HeroOwnership.sol\":956:1085  function add(uint256 a, uint256 b) internal pure returns (uint256) {... */\n      swap3\n      swap2\n      pop\n      pop\n      jump\t// out\n        /* \"HeroOwnership.sol\":782:892  function sub(uint256 a, uint256 b) internal pure returns (uint256) {... */\n    tag_129:\n        /* \"HeroOwnership.sol\":840:847  uint256 */\n      0x00\n        /* \"HeroOwnership.sol\":867:868  a */\n      dup3\n        /* \"HeroOwnership.sol\":862:863  b */\n      dup3\n        /* \"HeroOwnership.sol\":862:868  b <= a */\n      gt\n      iszero\n        /* \"HeroOwnership.sol\":855:869  assert(b <= a) */\n      tag_153\n      jumpi\n      tag_154\n      tag_151\n      jump\t// in\n    tag_154:\n    tag_153:\n        /* \"HeroOwnership.sol\":886:887  b */\n      dup2\n        /* \"HeroOwnership.sol\":882:883  a */\n      dup4\n        /* \"HeroOwnership.sol\":882:887  a - b */\n      tag_155\n      swap2\n      swap1\n      tag_140\n      jump\t// in\n    tag_155:\n        /* \"HeroOwnership.sol\":875:887  return a - b */\n      swap1\n      pop\n        /* \"HeroOwnership.sol\":782:892  function sub(uint256 a, uint256 b) internal pure returns (uint256) {... */\n      swap3\n      swap2\n      pop\n      pop\n      jump\t// out\n    tag_138:\n      dup3\n      dup1\n      sload\n      tag_156\n      swap1\n      tag_114\n      jump\t// in\n    tag_156:\n      swap1\n      0x00\n      mstore\n      keccak256(0x00, 0x20)\n      swap1\n      0x1f\n      add\n      0x20\n      swap1\n      div\n      dup2\n      add\n      swap3\n      dup3\n      tag_158\n      jumpi\n      0x00\n      dup6\n      sstore\n      jump(tag_157)\n    tag_158:\n      dup3\n      0x1f\n      lt\n      tag_159\n      jumpi\n      dup1\n      mload\n      not(0xff)\n      and\n      dup4\n      dup1\n      add\n      or\n      dup6\n      sstore\n      jump(tag_157)\n    tag_159:\n      dup3\n      dup1\n      add\n      0x01\n      add\n      dup6\n      sstore\n      dup3\n      iszero\n      tag_157\n      jumpi\n      swap2\n      dup3\n      add\n    tag_160:\n      dup3\n      dup2\n      gt\n      iszero\n      tag_161\n      jumpi\n      dup3\n      mload\n      dup3\n      sstore\n      swap2\n      0x20\n      add\n      swap2\n      swap1\n      0x01\n      add\n      swap1\n      jump(tag_160)\n    tag_161:\n    tag_157:\n      pop\n      swap1\n      pop\n      tag_162\n      swap2\n      swap1\n      tag_163\n      jump\t// in\n    tag_162:\n      pop\n      swap1\n      jump\t// out\n    tag_163:\n    tag_164:\n      dup1\n      dup3\n      gt\n      iszero\n      tag_165\n      jumpi\n      0x00\n      dup2\n      0x00\n      swap1\n      sstore\n      pop\n      0x01\n      add\n      jump(tag_164)\n    tag_165:\n      pop\n      swap1\n      jump\t// out\n        /* \"#utility.yul\":7:82   */\n    tag_166:\n        /* \"#utility.yul\":40:46   */\n      0x00\n        /* \"#utility.yul\":73:75   */\n      0x40\n        /* \"#utility.yul\":67:76   */\n      mload\n        /* \"#utility.yul\":57:76   */\n      swap1\n      pop\n        /* \"#utility.yul\":7:82   */\n      swap1\n      jump\t// out\n        /* \"#utility.yul\":88:205   */\n    tag_167:\n        /* \"#utility.yul\":197:198   */\n      0x00\n        /* \"#utility.yul\":194:195   */\n      dup1\n        /* \"#utility.yul\":187:199   */\n      revert\n        /* \"#utility.yul\":211:328   */\n    tag_168:\n        /* \"#utility.yul\":320:321   */\n      0x00\n        /* \"#utility.yul\":317:318   */\n      dup1\n        /* \"#utility.yul\":310:322   */\n      revert\n        /* \"#utility.yul\":334:460   */\n    tag_169:\n        /* \"#utility.yul\":371:378   */\n      0x00\n        /* \"#utility.yul\":411:453   */\n      0xffffffffffffffffffffffffffffffffffffffff\n        /* \"#utility.yul\":404:409   */\n      dup3\n        /* \"#utility.yul\":400:454   */\n      and\n        /* \"#utility.yul\":389:454   */\n      swap1\n      pop\n        /* \"#utility.yul\":334:460   */\n      swap2\n      swap1\n      pop\n      jump\t// out\n        /* \"#utility.yul\":466:562   */\n    tag_170:\n        /* \"#utility.yul\":503:510   */\n      0x00\n        /* \"#utility.yul\":532:556   */\n      tag_213\n        /* \"#utility.yul\":550:555   */\n      dup3\n        /* \"#utility.yul\":532:556   */\n      tag_169\n      jump\t// in\n    tag_213:\n        /* \"#utility.yul\":521:556   */\n      swap1\n      pop\n        /* \"#utility.yul\":466:562   */\n      swap2\n      swap1\n      pop\n      jump\t// out\n        /* \"#utility.yul\":568:690   */\n    tag_171:\n        /* \"#utility.yul\":641:665   */\n      tag_215\n        /* \"#utility.yul\":659:664   */\n      dup2\n        /* \"#utility.yul\":641:665   */\n      tag_170\n      jump\t// in\n    tag_215:\n        /* \"#utility.yul\":634:639   */\n      dup2\n        /* \"#utility.yul\":631:666   */\n      eq\n        /* \"#utility.yul\":621:684   */\n      tag_216\n      jumpi\n        /* \"#utility.yul\":680:681   */\n      0x00\n        /* \"#utility.yul\":677:678   */\n      dup1\n        /* \"#utility.yul\":670:682   */\n      revert\n        /* \"#utility.yul\":621:684   */\n    tag_216:\n        /* \"#utility.yul\":568:690   */\n      pop\n      jump\t// out\n        /* \"#utility.yul\":696:835   */\n    tag_172:\n        /* \"#utility.yul\":742:747   */\n      0x00\n        /* \"#utility.yul\":780:786   */\n      dup2\n        /* \"#utility.yul\":767:787   */\n      calldataload\n        /* \"#utility.yul\":758:787   */\n      swap1\n      pop\n        /* \"#utility.yul\":796:829   */\n      tag_218\n        /* \"#utility.yul\":823:828   */\n      dup2\n        /* \"#utility.yul\":796:829   */\n      tag_171\n      jump\t// in\n    tag_218:\n        /* \"#utility.yul\":696:835   */\n      swap3\n      swap2\n      pop\n      pop\n      jump\t// out\n        /* \"#utility.yul\":841:1170   */\n    tag_18:\n        /* \"#utility.yul\":900:906   */\n      0x00\n        /* \"#utility.yul\":949:951   */\n      0x20\n        /* \"#utility.yul\":937:946   */\n      dup3\n        /* \"#utility.yul\":928:935   */\n      dup5\n        /* \"#utility.yul\":924:947   */\n      sub\n        /* \"#utility.yul\":920:952   */\n      slt\n        /* \"#utility.yul\":917:1036   */\n      iszero\n      tag_220\n      jumpi\n        /* \"#utility.yul\":955:1034   */\n      tag_221\n      tag_167\n      jump\t// in\n    tag_221:\n        /* \"#utility.yul\":917:1036   */\n    tag_220:\n        /* \"#utility.yul\":1075:1076   */\n      0x00\n        /* \"#utility.yul\":1100:1153   */\n      tag_222\n        /* \"#utility.yul\":1145:1152   */\n      dup5\n        /* \"#utility.yul\":1136:1142   */\n      dup3\n        /* \"#utility.yul\":1125:1134   */\n      dup6\n        /* \"#utility.yul\":1121:1143   */\n      add\n        /* \"#utility.yul\":1100:1153   */\n      tag_172\n      jump\t// in\n    tag_222:\n        /* \"#utility.yul\":1090:1153   */\n      swap2\n      pop\n        /* \"#utility.yul\":1046:1163   */\n      pop\n        /* \"#utility.yul\":841:1170   */\n      swap3\n      swap2\n      pop\n      pop\n      jump\t// out\n        /* \"#utility.yul\":1176:1290   */\n    tag_173:\n        /* \"#utility.yul\":1243:1249   */\n      0x00\n        /* \"#utility.yul\":1277:1282   */\n      dup2\n        /* \"#utility.yul\":1271:1283   */\n      mload\n        /* \"#utility.yul\":1261:1283   */\n      swap1\n      pop\n        /* \"#utility.yul\":1176:1290   */\n      swap2\n      swap1\n      pop\n      jump\t// out\n        /* \"#utility.yul\":1296:1480   */\n    tag_174:\n        /* \"#utility.yul\":1395:1406   */\n      0x00\n        /* \"#utility.yul\":1429:1435   */\n      dup3\n        /* \"#utility.yul\":1424:1427   */\n      dup3\n        /* \"#utility.yul\":1417:1436   */\n      mstore\n        /* \"#utility.yul\":1469:1473   */\n      0x20\n        /* \"#utility.yul\":1464:1467   */\n      dup3\n        /* \"#utility.yul\":1460:1474   */\n      add\n        /* \"#utility.yul\":1445:1474   */\n      swap1\n      pop\n        /* \"#utility.yul\":1296:1480   */\n      swap3\n      swap2\n      pop\n      pop\n      jump\t// out\n        /* \"#utility.yul\":1486:1618   */\n    tag_175:\n        /* \"#utility.yul\":1553:1557   */\n      0x00\n        /* \"#utility.yul\":1576:1579   */\n      dup2\n        /* \"#utility.yul\":1568:1579   */\n      swap1\n      pop\n        /* \"#utility.yul\":1606:1610   */\n      0x20\n        /* \"#utility.yul\":1601:1604   */\n      dup3\n        /* \"#utility.yul\":1597:1611   */\n      add\n        /* \"#utility.yul\":1589:1611   */\n      swap1\n      pop\n        /* \"#utility.yul\":1486:1618   */\n      swap2\n      swap1\n      pop\n      jump\t// out\n        /* \"#utility.yul\":1624:1701   */\n    tag_176:\n        /* \"#utility.yul\":1661:1668   */\n      0x00\n        /* \"#utility.yul\":1690:1695   */\n      dup2\n        /* \"#utility.yul\":1679:1695   */\n      swap1\n      pop\n        /* \"#utility.yul\":1624:1701   */\n      swap2\n      swap1\n      pop\n      jump\t// out\n        /* \"#utility.yul\":1707:1815   */\n    tag_177:\n        /* \"#utility.yul\":1784:1808   */\n      tag_228\n        /* \"#utility.yul\":1802:1807   */\n      dup2\n        /* \"#utility.yul\":1784:1808   */\n      tag_176\n      jump\t// in\n    tag_228:\n        /* \"#utility.yul\":1779:1782   */\n      dup3\n        /* \"#utility.yul\":1772:1809   */\n      mstore\n        /* \"#utility.yul\":1707:1815   */\n      pop\n      pop\n      jump\t// out\n        /* \"#utility.yul\":1821:2000   */\n    tag_178:\n        /* \"#utility.yul\":1890:1900   */\n      0x00\n        /* \"#utility.yul\":1911:1957   */\n      tag_230\n        /* \"#utility.yul\":1953:1956   */\n      dup4\n        /* \"#utility.yul\":1945:1951   */\n      dup4\n        /* \"#utility.yul\":1911:1957   */\n      tag_177\n      jump\t// in\n    tag_230:\n        /* \"#utility.yul\":1989:1993   */\n      0x20\n        /* \"#utility.yul\":1984:1987   */\n      dup4\n        /* \"#utility.yul\":1980:1994   */\n      add\n        /* \"#utility.yul\":1966:1994   */\n      swap1\n      pop\n        /* \"#utility.yul\":1821:2000   */\n      swap3\n      swap2\n      pop\n      pop\n      jump\t// out\n        /* \"#utility.yul\":2006:2119   */\n    tag_179:\n        /* \"#utility.yul\":2076:2080   */\n      0x00\n        /* \"#utility.yul\":2108:2112   */\n      0x20\n        /* \"#utility.yul\":2103:2106   */\n      dup3\n        /* \"#utility.yul\":2099:2113   */\n      add\n        /* \"#utility.yul\":2091:2113   */\n      swap1\n      pop\n        /* \"#utility.yul\":2006:2119   */\n      swap2\n      swap1\n      pop\n      jump\t// out\n        /* \"#utility.yul\":2155:2887   */\n    tag_180:\n        /* \"#utility.yul\":2274:2277   */\n      0x00\n        /* \"#utility.yul\":2303:2357   */\n      tag_233\n        /* \"#utility.yul\":2351:2356   */\n      dup3\n        /* \"#utility.yul\":2303:2357   */\n      tag_173\n      jump\t// in\n    tag_233:\n        /* \"#utility.yul\":2373:2459   */\n      tag_234\n        /* \"#utility.yul\":2452:2458   */\n      dup2\n        /* \"#utility.yul\":2447:2450   */\n      dup6\n        /* \"#utility.yul\":2373:2459   */\n      tag_174\n      jump\t// in\n    tag_234:\n        /* \"#utility.yul\":2366:2459   */\n      swap4\n      pop\n        /* \"#utility.yul\":2483:2539   */\n      tag_235\n        /* \"#utility.yul\":2533:2538   */\n      dup4\n        /* \"#utility.yul\":2483:2539   */\n      tag_175\n      jump\t// in\n    tag_235:\n        /* \"#utility.yul\":2562:2569   */\n      dup1\n        /* \"#utility.yul\":2593:2594   */\n      0x00\n        /* \"#utility.yul\":2578:2862   */\n    tag_236:\n        /* \"#utility.yul\":2603:2609   */\n      dup4\n        /* \"#utility.yul\":2600:2601   */\n      dup2\n        /* \"#utility.yul\":2597:2610   */\n      lt\n        /* \"#utility.yul\":2578:2862   */\n      iszero\n      tag_238\n      jumpi\n        /* \"#utility.yul\":2679:2685   */\n      dup2\n        /* \"#utility.yul\":2673:2686   */\n      mload\n        /* \"#utility.yul\":2706:2769   */\n      tag_239\n        /* \"#utility.yul\":2765:2768   */\n      dup9\n        /* \"#utility.yul\":2750:2763   */\n      dup3\n        /* \"#utility.yul\":2706:2769   */\n      tag_178\n      jump\t// in\n    tag_239:\n        /* \"#utility.yul\":2699:2769   */\n      swap8\n      pop\n        /* \"#utility.yul\":2792:2852   */\n      tag_240\n        /* \"#utility.yul\":2845:2851   */\n      dup4\n        /* \"#utility.yul\":2792:2852   */\n      tag_179\n      jump\t// in\n    tag_240:\n        /* \"#utility.yul\":2782:2852   */\n      swap3\n      pop\n        /* \"#utility.yul\":2638:2862   */\n      pop\n        /* \"#utility.yul\":2625:2626   */\n      0x01\n        /* \"#utility.yul\":2622:2623   */\n      dup2\n        /* \"#utility.yul\":2618:2627   */\n      add\n        /* \"#utility.yul\":2613:2627   */\n      swap1\n      pop\n        /* \"#utility.yul\":2578:2862   */\n      jump(tag_236)\n    tag_238:\n        /* \"#utility.yul\":2582:2596   */\n      pop\n        /* \"#utility.yul\":2878:2881   */\n      dup6\n        /* \"#utility.yul\":2871:2881   */\n      swap4\n      pop\n        /* \"#utility.yul\":2279:2887   */\n      pop\n      pop\n      pop\n        /* \"#utility.yul\":2155:2887   */\n      swap3\n      swap2\n      pop\n      pop\n      jump\t// out\n        /* \"#utility.yul\":2893:3266   */\n    tag_21:\n        /* \"#utility.yul\":3036:3040   */\n      0x00\n        /* \"#utility.yul\":3074:3076   */\n      0x20\n        /* \"#utility.yul\":3063:3072   */\n      dup3\n        /* \"#utility.yul\":3059:3077   */\n      add\n        /* \"#utility.yul\":3051:3077   */\n      swap1\n      pop\n        /* \"#utility.yul\":3123:3132   */\n      dup2\n        /* \"#utility.yul\":3117:3121   */\n      dup2\n        /* \"#utility.yul\":3113:3133   */\n      sub\n        /* \"#utility.yul\":3109:3110   */\n      0x00\n        /* \"#utility.yul\":3098:3107   */\n      dup4\n        /* \"#utility.yul\":3094:3111   */\n      add\n        /* \"#utility.yul\":3087:3134   */\n      mstore\n        /* \"#utility.yul\":3151:3259   */\n      tag_242\n        /* \"#utility.yul\":3254:3258   */\n      dup2\n        /* \"#utility.yul\":3245:3251   */\n      dup5\n        /* \"#utility.yul\":3151:3259   */\n      tag_180\n      jump\t// in\n    tag_242:\n        /* \"#utility.yul\":3143:3259   */\n      swap1\n      pop\n        /* \"#utility.yul\":2893:3266   */\n      swap3\n      swap2\n      pop\n      pop\n      jump\t// out\n        /* \"#utility.yul\":3272:3394   */\n    tag_181:\n        /* \"#utility.yul\":3345:3369   */\n      tag_244\n        /* \"#utility.yul\":3363:3368   */\n      dup2\n        /* \"#utility.yul\":3345:3369   */\n      tag_176\n      jump\t// in\n    tag_244:\n        /* \"#utility.yul\":3338:3343   */\n      dup2\n        /* \"#utility.yul\":3335:3370   */\n      eq\n        /* \"#utility.yul\":3325:3388   */\n      tag_245\n      jumpi\n        /* \"#utility.yul\":3384:3385   */\n      0x00\n        /* \"#utility.yul\":3381:3382   */\n      dup1\n        /* \"#utility.yul\":3374:3386   */\n      revert\n        /* \"#utility.yul\":3325:3388   */\n    tag_245:\n        /* \"#utility.yul\":3272:3394   */\n      pop\n      jump\t// out\n        /* \"#utility.yul\":3400:3539   */\n    tag_182:\n        /* \"#utility.yul\":3446:3451   */\n      0x00\n        /* \"#utility.yul\":3484:3490   */\n      dup2\n        /* \"#utility.yul\":3471:3491   */\n      calldataload\n        /* \"#utility.yul\":3462:3491   */\n      swap1\n      pop\n        /* \"#utility.yul\":3500:3533   */\n      tag_247\n        /* \"#utility.yul\":3527:3532   */\n      dup2\n        /* \"#utility.yul\":3500:3533   */\n      tag_181\n      jump\t// in\n    tag_247:\n        /* \"#utility.yul\":3400:3539   */\n      swap3\n      swap2\n      pop\n      pop\n      jump\t// out\n        /* \"#utility.yul\":3545:4019   */\n    tag_24:\n        /* \"#utility.yul\":3613:3619   */\n      0x00\n        /* \"#utility.yul\":3621:3627   */\n      dup1\n        /* \"#utility.yul\":3670:3672   */\n      0x40\n        /* \"#utility.yul\":3658:3667   */\n      dup4\n        /* \"#utility.yul\":3649:3656   */\n      dup6\n        /* \"#utility.yul\":3645:3668   */\n      sub\n        /* \"#utility.yul\":3641:3673   */\n      slt\n        /* \"#utility.yul\":3638:3757   */\n      iszero\n      tag_249\n      jumpi\n        /* \"#utility.yul\":3676:3755   */\n      tag_250\n      tag_167\n      jump\t// in\n    tag_250:\n        /* \"#utility.yul\":3638:3757   */\n    tag_249:\n        /* \"#utility.yul\":3796:3797   */\n      0x00\n        /* \"#utility.yul\":3821:3874   */\n      tag_251\n        /* \"#utility.yul\":3866:3873   */\n      dup6\n        /* \"#utility.yul\":3857:3863   */\n      dup3\n        /* \"#utility.yul\":3846:3855   */\n      dup7\n        /* \"#utility.yul\":3842:3864   */\n      add\n        /* \"#utility.yul\":3821:3874   */\n      tag_172\n      jump\t// in\n    tag_251:\n        /* \"#utility.yul\":3811:3874   */\n      swap3\n      pop\n        /* \"#utility.yul\":3767:3884   */\n      pop\n        /* \"#utility.yul\":3923:3925   */\n      0x20\n        /* \"#utility.yul\":3949:4002   */\n      tag_252\n        /* \"#utility.yul\":3994:4001   */\n      dup6\n        /* \"#utility.yul\":3985:3991   */\n      dup3\n        /* \"#utility.yul\":3974:3983   */\n      dup7\n        /* \"#utility.yul\":3970:3992   */\n      add\n        /* \"#utility.yul\":3949:4002   */\n      tag_182\n      jump\t// in\n    tag_252:\n        /* \"#utility.yul\":3939:4002   */\n      swap2\n      pop\n        /* \"#utility.yul\":3894:4012   */\n      pop\n        /* \"#utility.yul\":3545:4019   */\n      swap3\n      pop\n      swap3\n      swap1\n      pop\n      jump\t// out\n        /* \"#utility.yul\":4025:4644   */\n    tag_28:\n        /* \"#utility.yul\":4102:4108   */\n      0x00\n        /* \"#utility.yul\":4110:4116   */\n      dup1\n        /* \"#utility.yul\":4118:4124   */\n      0x00\n        /* \"#utility.yul\":4167:4169   */\n      0x60\n        /* \"#utility.yul\":4155:4164   */\n      dup5\n        /* \"#utility.yul\":4146:4153   */\n      dup7\n        /* \"#utility.yul\":4142:4165   */\n      sub\n        /* \"#utility.yul\":4138:4170   */\n      slt\n        /* \"#utility.yul\":4135:4254   */\n      iszero\n      tag_254\n      jumpi\n        /* \"#utility.yul\":4173:4252   */\n      tag_255\n      tag_167\n      jump\t// in\n    tag_255:\n        /* \"#utility.yul\":4135:4254   */\n    tag_254:\n        /* \"#utility.yul\":4293:4294   */\n      0x00\n        /* \"#utility.yul\":4318:4371   */\n      tag_256\n        /* \"#utility.yul\":4363:4370   */\n      dup7\n        /* \"#utility.yul\":4354:4360   */\n      dup3\n        /* \"#utility.yul\":4343:4352   */\n      dup8\n        /* \"#utility.yul\":4339:4361   */\n      add\n        /* \"#utility.yul\":4318:4371   */\n      tag_172\n      jump\t// in\n    tag_256:\n        /* \"#utility.yul\":4308:4371   */\n      swap4\n      pop\n        /* \"#utility.yul\":4264:4381   */\n      pop\n        /* \"#utility.yul\":4420:4422   */\n      0x20\n        /* \"#utility.yul\":4446:4499   */\n      tag_257\n        /* \"#utility.yul\":4491:4498   */\n      dup7\n        /* \"#utility.yul\":4482:4488   */\n      dup3\n        /* \"#utility.yul\":4471:4480   */\n      dup8\n        /* \"#utility.yul\":4467:4489   */\n      add\n        /* \"#utility.yul\":4446:4499   */\n      tag_172\n      jump\t// in\n    tag_257:\n        /* \"#utility.yul\":4436:4499   */\n      swap3\n      pop\n        /* \"#utility.yul\":4391:4509   */\n      pop\n        /* \"#utility.yul\":4548:4550   */\n      0x40\n        /* \"#utility.yul\":4574:4627   */\n      tag_258\n        /* \"#utility.yul\":4619:4626   */\n      dup7\n        /* \"#utility.yul\":4610:4616   */\n      dup3\n        /* \"#utility.yul\":4599:4608   */\n      dup8\n        /* \"#utility.yul\":4595:4617   */\n      add\n        /* \"#utility.yul\":4574:4627   */\n      tag_182\n      jump\t// in\n    tag_258:\n        /* \"#utility.yul\":4564:4627   */\n      swap2\n      pop\n        /* \"#utility.yul\":4519:4637   */\n      pop\n        /* \"#utility.yul\":4025:4644   */\n      swap3\n      pop\n      swap3\n      pop\n      swap3\n      jump\t// out\n        /* \"#utility.yul\":4650:4979   */\n    tag_33:\n        /* \"#utility.yul\":4709:4715   */\n      0x00\n        /* \"#utility.yul\":4758:4760   */\n      0x20\n        /* \"#utility.yul\":4746:4755   */\n      dup3\n        /* \"#utility.yul\":4737:4744   */\n      dup5\n        /* \"#utility.yul\":4733:4756   */\n      sub\n        /* \"#utility.yul\":4729:4761   */\n      slt\n        /* \"#utility.yul\":4726:4845   */\n      iszero\n      tag_260\n      jumpi\n        /* \"#utility.yul\":4764:4843   */\n      tag_261\n      tag_167\n      jump\t// in\n    tag_261:\n        /* \"#utility.yul\":4726:4845   */\n    tag_260:\n        /* \"#utility.yul\":4884:4885   */\n      0x00\n        /* \"#utility.yul\":4909:4962   */\n      tag_262\n        /* \"#utility.yul\":4954:4961   */\n      dup5\n        /* \"#utility.yul\":4945:4951   */\n      dup3\n        /* \"#utility.yul\":4934:4943   */\n      dup6\n        /* \"#utility.yul\":4930:4952   */\n      add\n        /* \"#utility.yul\":4909:4962   */\n      tag_182\n      jump\t// in\n    tag_262:\n        /* \"#utility.yul\":4899:4962   */\n      swap2\n      pop\n        /* \"#utility.yul\":4855:4972   */\n      pop\n        /* \"#utility.yul\":4650:4979   */\n      swap3\n      swap2\n      pop\n      pop\n      jump\t// out\n        /* \"#utility.yul\":4985:5103   */\n    tag_183:\n        /* \"#utility.yul\":5072:5096   */\n      tag_264\n        /* \"#utility.yul\":5090:5095   */\n      dup2\n        /* \"#utility.yul\":5072:5096   */\n      tag_170\n      jump\t// in\n    tag_264:\n        /* \"#utility.yul\":5067:5070   */\n      dup3\n        /* \"#utility.yul\":5060:5097   */\n      mstore\n        /* \"#utility.yul\":4985:5103   */\n      pop\n      pop\n      jump\t// out\n        /* \"#utility.yul\":5109:5331   */\n    tag_36:\n        /* \"#utility.yul\":5202:5206   */\n      0x00\n        /* \"#utility.yul\":5240:5242   */\n      0x20\n        /* \"#utility.yul\":5229:5238   */\n      dup3\n        /* \"#utility.yul\":5225:5243   */\n      add\n        /* \"#utility.yul\":5217:5243   */\n      swap1\n      pop\n        /* \"#utility.yul\":5253:5324   */\n      tag_266\n        /* \"#utility.yul\":5321:5322   */\n      0x00\n        /* \"#utility.yul\":5310:5319   */\n      dup4\n        /* \"#utility.yul\":5306:5323   */\n      add\n        /* \"#utility.yul\":5297:5303   */\n      dup5\n        /* \"#utility.yul\":5253:5324   */\n      tag_183\n      jump\t// in\n    tag_266:\n        /* \"#utility.yul\":5109:5331   */\n      swap3\n      swap2\n      pop\n      pop\n      jump\t// out\n        /* \"#utility.yul\":5337:5455   */\n    tag_184:\n        /* \"#utility.yul\":5424:5448   */\n      tag_268\n        /* \"#utility.yul\":5442:5447   */\n      dup2\n        /* \"#utility.yul\":5424:5448   */\n      tag_176\n      jump\t// in\n    tag_268:\n        /* \"#utility.yul\":5419:5422   */\n      dup3\n        /* \"#utility.yul\":5412:5449   */\n      mstore\n        /* \"#utility.yul\":5337:5455   */\n      pop\n      pop\n      jump\t// out\n        /* \"#utility.yul\":5461:5683   */\n    tag_42:\n        /* \"#utility.yul\":5554:5558   */\n      0x00\n        /* \"#utility.yul\":5592:5594   */\n      0x20\n        /* \"#utility.yul\":5581:5590   */\n      dup3\n        /* \"#utility.yul\":5577:5595   */\n      add\n        /* \"#utility.yul\":5569:5595   */\n      swap1\n      pop\n        /* \"#utility.yul\":5605:5676   */\n      tag_270\n        /* \"#utility.yul\":5673:5674   */\n      0x00\n        /* \"#utility.yul\":5662:5671   */\n      dup4\n        /* \"#utility.yul\":5658:5675   */\n      add\n        /* \"#utility.yul\":5649:5655   */\n      dup5\n        /* \"#utility.yul\":5605:5676   */\n      tag_184\n      jump\t// in\n    tag_270:\n        /* \"#utility.yul\":5461:5683   */\n      swap3\n      swap2\n      pop\n      pop\n      jump\t// out\n        /* \"#utility.yul\":5689:5806   */\n    tag_185:\n        /* \"#utility.yul\":5798:5799   */\n      0x00\n        /* \"#utility.yul\":5795:5796   */\n      dup1\n        /* \"#utility.yul\":5788:5800   */\n      revert\n        /* \"#utility.yul\":5812:5929   */\n    tag_186:\n        /* \"#utility.yul\":5921:5922   */\n      0x00\n        /* \"#utility.yul\":5918:5919   */\n      dup1\n        /* \"#utility.yul\":5911:5923   */\n      revert\n        /* \"#utility.yul\":5935:6037   */\n    tag_187:\n        /* \"#utility.yul\":5976:5982   */\n      0x00\n        /* \"#utility.yul\":6027:6029   */\n      0x1f\n        /* \"#utility.yul\":6023:6030   */\n      not\n        /* \"#utility.yul\":6018:6020   */\n      0x1f\n        /* \"#utility.yul\":6011:6016   */\n      dup4\n        /* \"#utility.yul\":6007:6021   */\n      add\n        /* \"#utility.yul\":6003:6031   */\n      and\n        /* \"#utility.yul\":5993:6031   */\n      swap1\n      pop\n        /* \"#utility.yul\":5935:6037   */\n      swap2\n      swap1\n      pop\n      jump\t// out\n        /* \"#utility.yul\":6043:6223   */\n    tag_78:\n        /* \"#utility.yul\":6091:6168   */\n      0x4e487b7100000000000000000000000000000000000000000000000000000000\n        /* \"#utility.yul\":6088:6089   */\n      0x00\n        /* \"#utility.yul\":6081:6169   */\n      mstore\n        /* \"#utility.yul\":6188:6192   */\n      0x41\n        /* \"#utility.yul\":6185:6186   */\n      0x04\n        /* \"#utility.yul\":6178:6193   */\n      mstore\n        /* \"#utility.yul\":6212:6216   */\n      0x24\n        /* \"#utility.yul\":6209:6210   */\n      0x00\n        /* \"#utility.yul\":6202:6217   */\n      revert\n        /* \"#utility.yul\":6229:6510   */\n    tag_188:\n        /* \"#utility.yul\":6312:6339   */\n      tag_276\n        /* \"#utility.yul\":6334:6338   */\n      dup3\n        /* \"#utility.yul\":6312:6339   */\n      tag_187\n      jump\t// in\n    tag_276:\n        /* \"#utility.yul\":6304:6310   */\n      dup2\n        /* \"#utility.yul\":6300:6340   */\n      add\n        /* \"#utility.yul\":6442:6448   */\n      dup2\n        /* \"#utility.yul\":6430:6440   */\n      dup2\n        /* \"#utility.yul\":6427:6449   */\n      lt\n        /* \"#utility.yul\":6406:6424   */\n      0xffffffffffffffff\n        /* \"#utility.yul\":6394:6404   */\n      dup3\n        /* \"#utility.yul\":6391:6425   */\n      gt\n        /* \"#utility.yul\":6388:6450   */\n      or\n        /* \"#utility.yul\":6385:6473   */\n      iszero\n      tag_277\n      jumpi\n        /* \"#utility.yul\":6453:6471   */\n      tag_278\n      tag_78\n      jump\t// in\n    tag_278:\n        /* \"#utility.yul\":6385:6473   */\n    tag_277:\n        /* \"#utility.yul\":6493:6503   */\n      dup1\n        /* \"#utility.yul\":6489:6491   */\n      0x40\n        /* \"#utility.yul\":6482:6504   */\n      mstore\n        /* \"#utility.yul\":6272:6510   */\n      pop\n        /* \"#utility.yul\":6229:6510   */\n      pop\n      pop\n      jump\t// out\n        /* \"#utility.yul\":6516:6645   */\n    tag_189:\n        /* \"#utility.yul\":6550:6556   */\n      0x00\n        /* \"#utility.yul\":6577:6597   */\n      tag_280\n      tag_166\n      jump\t// in\n    tag_280:\n        /* \"#utility.yul\":6567:6597   */\n      swap1\n      pop\n        /* \"#utility.yul\":6606:6639   */\n      tag_281\n        /* \"#utility.yul\":6634:6638   */\n      dup3\n        /* \"#utility.yul\":6626:6632   */\n      dup3\n        /* \"#utility.yul\":6606:6639   */\n      tag_188\n      jump\t// in\n    tag_281:\n        /* \"#utility.yul\":6516:6645   */\n      swap2\n      swap1\n      pop\n      jump\t// out\n        /* \"#utility.yul\":6651:6959   */\n    tag_190:\n        /* \"#utility.yul\":6713:6717   */\n      0x00\n        /* \"#utility.yul\":6803:6821   */\n      0xffffffffffffffff\n        /* \"#utility.yul\":6795:6801   */\n      dup3\n        /* \"#utility.yul\":6792:6822   */\n      gt\n        /* \"#utility.yul\":6789:6845   */\n      iszero\n      tag_283\n      jumpi\n        /* \"#utility.yul\":6825:6843   */\n      tag_284\n      tag_78\n      jump\t// in\n    tag_284:\n        /* \"#utility.yul\":6789:6845   */\n    tag_283:\n        /* \"#utility.yul\":6863:6892   */\n      tag_285\n        /* \"#utility.yul\":6885:6891   */\n      dup3\n        /* \"#utility.yul\":6863:6892   */\n      tag_187\n      jump\t// in\n    tag_285:\n        /* \"#utility.yul\":6855:6892   */\n      swap1\n      pop\n        /* \"#utility.yul\":6947:6951   */\n      0x20\n        /* \"#utility.yul\":6941:6945   */\n      dup2\n        /* \"#utility.yul\":6937:6952   */\n      add\n        /* \"#utility.yul\":6929:6952   */\n      swap1\n      pop\n        /* \"#utility.yul\":6651:6959   */\n      swap2\n      swap1\n      pop\n      jump\t// out\n        /* \"#utility.yul\":6965:7119   */\n    tag_191:\n        /* \"#utility.yul\":7049:7055   */\n      dup3\n        /* \"#utility.yul\":7044:7047   */\n      dup2\n        /* \"#utility.yul\":7039:7042   */\n      dup4\n        /* \"#utility.yul\":7026:7056   */\n      calldatacopy\n        /* \"#utility.yul\":7111:7112   */\n      0x00\n        /* \"#utility.yul\":7102:7108   */\n      dup4\n        /* \"#utility.yul\":7097:7100   */\n      dup4\n        /* \"#utility.yul\":7093:7109   */\n      add\n        /* \"#utility.yul\":7086:7113   */\n      mstore\n        /* \"#utility.yul\":6965:7119   */\n      pop\n      pop\n      pop\n      jump\t// out\n        /* \"#utility.yul\":7125:7537   */\n    tag_192:\n        /* \"#utility.yul\":7203:7208   */\n      0x00\n        /* \"#utility.yul\":7228:7294   */\n      tag_288\n        /* \"#utility.yul\":7244:7293   */\n      tag_289\n        /* \"#utility.yul\":7286:7292   */\n      dup5\n        /* \"#utility.yul\":7244:7293   */\n      tag_190\n      jump\t// in\n    tag_289:\n        /* \"#utility.yul\":7228:7294   */\n      tag_189\n      jump\t// in\n    tag_288:\n        /* \"#utility.yul\":7219:7294   */\n      swap1\n      pop\n        /* \"#utility.yul\":7317:7323   */\n      dup3\n        /* \"#utility.yul\":7310:7315   */\n      dup2\n        /* \"#utility.yul\":7303:7324   */\n      mstore\n        /* \"#utility.yul\":7355:7359   */\n      0x20\n        /* \"#utility.yul\":7348:7353   */\n      dup2\n        /* \"#utility.yul\":7344:7360   */\n      add\n        /* \"#utility.yul\":7393:7396   */\n      dup5\n        /* \"#utility.yul\":7384:7390   */\n      dup5\n        /* \"#utility.yul\":7379:7382   */\n      dup5\n        /* \"#utility.yul\":7375:7391   */\n      add\n        /* \"#utility.yul\":7372:7397   */\n      gt\n        /* \"#utility.yul\":7369:7481   */\n      iszero\n      tag_290\n      jumpi\n        /* \"#utility.yul\":7400:7479   */\n      tag_291\n      tag_186\n      jump\t// in\n    tag_291:\n        /* \"#utility.yul\":7369:7481   */\n    tag_290:\n        /* \"#utility.yul\":7490:7531   */\n      tag_292\n        /* \"#utility.yul\":7524:7530   */\n      dup5\n        /* \"#utility.yul\":7519:7522   */\n      dup3\n        /* \"#utility.yul\":7514:7517   */\n      dup6\n        /* \"#utility.yul\":7490:7531   */\n      tag_191\n      jump\t// in\n    tag_292:\n        /* \"#utility.yul\":7209:7537   */\n      pop\n        /* \"#utility.yul\":7125:7537   */\n      swap4\n      swap3\n      pop\n      pop\n      pop\n      jump\t// out\n        /* \"#utility.yul\":7557:7897   */\n    tag_193:\n        /* \"#utility.yul\":7613:7618   */\n      0x00\n        /* \"#utility.yul\":7662:7665   */\n      dup3\n        /* \"#utility.yul\":7655:7659   */\n      0x1f\n        /* \"#utility.yul\":7647:7653   */\n      dup4\n        /* \"#utility.yul\":7643:7660   */\n      add\n        /* \"#utility.yul\":7639:7666   */\n      slt\n        /* \"#utility.yul\":7629:7751   */\n      tag_294\n      jumpi\n        /* \"#utility.yul\":7670:7749   */\n      tag_295\n      tag_185\n      jump\t// in\n    tag_295:\n        /* \"#utility.yul\":7629:7751   */\n    tag_294:\n        /* \"#utility.yul\":7787:7793   */\n      dup2\n        /* \"#utility.yul\":7774:7794   */\n      calldataload\n        /* \"#utility.yul\":7812:7891   */\n      tag_296\n        /* \"#utility.yul\":7887:7890   */\n      dup5\n        /* \"#utility.yul\":7879:7885   */\n      dup3\n        /* \"#utility.yul\":7872:7876   */\n      0x20\n        /* \"#utility.yul\":7864:7870   */\n      dup7\n        /* \"#utility.yul\":7860:7877   */\n      add\n        /* \"#utility.yul\":7812:7891   */\n      tag_192\n      jump\t// in\n    tag_296:\n        /* \"#utility.yul\":7803:7891   */\n      swap2\n      pop\n        /* \"#utility.yul\":7619:7897   */\n      pop\n        /* \"#utility.yul\":7557:7897   */\n      swap3\n      swap2\n      pop\n      pop\n      jump\t// out\n        /* \"#utility.yul\":7903:8412   */\n    tag_54:\n        /* \"#utility.yul\":7972:7978   */\n      0x00\n        /* \"#utility.yul\":8021:8023   */\n      0x20\n        /* \"#utility.yul\":8009:8018   */\n      dup3\n        /* \"#utility.yul\":8000:8007   */\n      dup5\n        /* \"#utility.yul\":7996:8019   */\n      sub\n        /* \"#utility.yul\":7992:8024   */\n      slt\n        /* \"#utility.yul\":7989:8108   */\n      iszero\n      tag_298\n      jumpi\n        /* \"#utility.yul\":8027:8106   */\n      tag_299\n      tag_167\n      jump\t// in\n    tag_299:\n        /* \"#utility.yul\":7989:8108   */\n    tag_298:\n        /* \"#utility.yul\":8175:8176   */\n      0x00\n        /* \"#utility.yul\":8164:8173   */\n      dup3\n        /* \"#utility.yul\":8160:8177   */\n      add\n        /* \"#utility.yul\":8147:8178   */\n      calldataload\n        /* \"#utility.yul\":8205:8223   */\n      0xffffffffffffffff\n        /* \"#utility.yul\":8197:8203   */\n      dup2\n        /* \"#utility.yul\":8194:8224   */\n      gt\n        /* \"#utility.yul\":8191:8308   */\n      iszero\n      tag_300\n      jumpi\n        /* \"#utility.yul\":8227:8306   */\n      tag_301\n      tag_168\n      jump\t// in\n    tag_301:\n        /* \"#utility.yul\":8191:8308   */\n    tag_300:\n        /* \"#utility.yul\":8332:8395   */\n      tag_302\n        /* \"#utility.yul\":8387:8394   */\n      dup5\n        /* \"#utility.yul\":8378:8384   */\n      dup3\n        /* \"#utility.yul\":8367:8376   */\n      dup6\n        /* \"#utility.yul\":8363:8385   */\n      add\n        /* \"#utility.yul\":8332:8395   */\n      tag_193\n      jump\t// in\n    tag_302:\n        /* \"#utility.yul\":8322:8395   */\n      swap2\n      pop\n        /* \"#utility.yul\":8118:8405   */\n      pop\n        /* \"#utility.yul\":7903:8412   */\n      swap3\n      swap2\n      pop\n      pop\n      jump\t// out\n        /* \"#utility.yul\":8418:8508   */\n    tag_194:\n        /* \"#utility.yul\":8452:8459   */\n      0x00\n        /* \"#utility.yul\":8495:8500   */\n      dup2\n        /* \"#utility.yul\":8488:8501   */\n      iszero\n        /* \"#utility.yul\":8481:8502   */\n      iszero\n        /* \"#utility.yul\":8470:8502   */\n      swap1\n      pop\n        /* \"#utility.yul\":8418:8508   */\n      swap2\n      swap1\n      pop\n      jump\t// out\n        /* \"#utility.yul\":8514:8623   */\n    tag_195:\n        /* \"#utility.yul\":8595:8616   */\n      tag_305\n        /* \"#utility.yul\":8610:8615   */\n      dup2\n        /* \"#utility.yul\":8595:8616   */\n      tag_194\n      jump\t// in\n    tag_305:\n        /* \"#utility.yul\":8590:8593   */\n      dup3\n        /* \"#utility.yul\":8583:8617   */\n      mstore\n        /* \"#utility.yul\":8514:8623   */\n      pop\n      pop\n      jump\t// out\n        /* \"#utility.yul\":8629:8839   */\n    tag_64:\n        /* \"#utility.yul\":8716:8720   */\n      0x00\n        /* \"#utility.yul\":8754:8756   */\n      0x20\n        /* \"#utility.yul\":8743:8752   */\n      dup3\n        /* \"#utility.yul\":8739:8757   */\n      add\n        /* \"#utility.yul\":8731:8757   */\n      swap1\n      pop\n        /* \"#utility.yul\":8767:8832   */\n      tag_307\n        /* \"#utility.yul\":8829:8830   */\n      0x00\n        /* \"#utility.yul\":8818:8827   */\n      dup4\n        /* \"#utility.yul\":8814:8831   */\n      add\n        /* \"#utility.yul\":8805:8811   */\n      dup5\n        /* \"#utility.yul\":8767:8832   */\n      tag_195\n      jump\t// in\n    tag_307:\n        /* \"#utility.yul\":8629:8839   */\n      swap3\n      swap2\n      pop\n      pop\n      jump\t// out\n        /* \"#utility.yul\":8845:8944   */\n    tag_196:\n        /* \"#utility.yul\":8897:8903   */\n      0x00\n        /* \"#utility.yul\":8931:8936   */\n      dup2\n        /* \"#utility.yul\":8925:8937   */\n      mload\n        /* \"#utility.yul\":8915:8937   */\n      swap1\n      pop\n        /* \"#utility.yul\":8845:8944   */\n      swap2\n      swap1\n      pop\n      jump\t// out\n        /* \"#utility.yul\":8950:9119   */\n    tag_197:\n        /* \"#utility.yul\":9034:9045   */\n      0x00\n        /* \"#utility.yul\":9068:9074   */\n      dup3\n        /* \"#utility.yul\":9063:9066   */\n      dup3\n        /* \"#utility.yul\":9056:9075   */\n      mstore\n        /* \"#utility.yul\":9108:9112   */\n      0x20\n        /* \"#utility.yul\":9103:9106   */\n      dup3\n        /* \"#utility.yul\":9099:9113   */\n      add\n        /* \"#utility.yul\":9084:9113   */\n      swap1\n      pop\n        /* \"#utility.yul\":8950:9119   */\n      swap3\n      swap2\n      pop\n      pop\n      jump\t// out\n        /* \"#utility.yul\":9125:9432   */\n    tag_198:\n        /* \"#utility.yul\":9193:9194   */\n      0x00\n        /* \"#utility.yul\":9203:9316   */\n    tag_311:\n        /* \"#utility.yul\":9217:9223   */\n      dup4\n        /* \"#utility.yul\":9214:9215   */\n      dup2\n        /* \"#utility.yul\":9211:9224   */\n      lt\n        /* \"#utility.yul\":9203:9316   */\n      iszero\n      tag_313\n      jumpi\n        /* \"#utility.yul\":9302:9303   */\n      dup1\n        /* \"#utility.yul\":9297:9300   */\n      dup3\n        /* \"#utility.yul\":9293:9304   */\n      add\n        /* \"#utility.yul\":9287:9305   */\n      mload\n        /* \"#utility.yul\":9283:9284   */\n      dup2\n        /* \"#utility.yul\":9278:9281   */\n      dup5\n        /* \"#utility.yul\":9274:9285   */\n      add\n        /* \"#utility.yul\":9267:9306   */\n      mstore\n        /* \"#utility.yul\":9239:9241   */\n      0x20\n        /* \"#utility.yul\":9236:9237   */\n      dup2\n        /* \"#utility.yul\":9232:9242   */\n      add\n        /* \"#utility.yul\":9227:9242   */\n      swap1\n      pop\n        /* \"#utility.yul\":9203:9316   */\n      jump(tag_311)\n    tag_313:\n        /* \"#utility.yul\":9334:9340   */\n      dup4\n        /* \"#utility.yul\":9331:9332   */\n      dup2\n        /* \"#utility.yul\":9328:9341   */\n      gt\n        /* \"#utility.yul\":9325:9426   */\n      iszero\n      tag_314\n      jumpi\n        /* \"#utility.yul\":9414:9415   */\n      0x00\n        /* \"#utility.yul\":9405:9411   */\n      dup5\n        /* \"#utility.yul\":9400:9403   */\n      dup5\n        /* \"#utility.yul\":9396:9412   */\n      add\n        /* \"#utility.yul\":9389:9416   */\n      mstore\n        /* \"#utility.yul\":9325:9426   */\n    tag_314:\n        /* \"#utility.yul\":9174:9432   */\n      pop\n        /* \"#utility.yul\":9125:9432   */\n      pop\n      pop\n      pop\n      jump\t// out\n        /* \"#utility.yul\":9438:9802   */\n    tag_199:\n        /* \"#utility.yul\":9526:9529   */\n      0x00\n        /* \"#utility.yul\":9554:9593   */\n      tag_316\n        /* \"#utility.yul\":9587:9592   */\n      dup3\n        /* \"#utility.yul\":9554:9593   */\n      tag_196\n      jump\t// in\n    tag_316:\n        /* \"#utility.yul\":9609:9680   */\n      tag_317\n        /* \"#utility.yul\":9673:9679   */\n      dup2\n        /* \"#utility.yul\":9668:9671   */\n      dup6\n        /* \"#utility.yul\":9609:9680   */\n      tag_197\n      jump\t// in\n    tag_317:\n        /* \"#utility.yul\":9602:9680   */\n      swap4\n      pop\n        /* \"#utility.yul\":9689:9741   */\n      tag_318\n        /* \"#utility.yul\":9734:9740   */\n      dup2\n        /* \"#utility.yul\":9729:9732   */\n      dup6\n        /* \"#utility.yul\":9722:9726   */\n      0x20\n        /* \"#utility.yul\":9715:9720   */\n      dup7\n        /* \"#utility.yul\":9711:9727   */\n      add\n        /* \"#utility.yul\":9689:9741   */\n      tag_198\n      jump\t// in\n    tag_318:\n        /* \"#utility.yul\":9766:9795   */\n      tag_319\n        /* \"#utility.yul\":9788:9794   */\n      dup2\n        /* \"#utility.yul\":9766:9795   */\n      tag_187\n      jump\t// in\n    tag_319:\n        /* \"#utility.yul\":9761:9764   */\n      dup5\n        /* \"#utility.yul\":9757:9796   */\n      add\n        /* \"#utility.yul\":9750:9796   */\n      swap2\n      pop\n        /* \"#utility.yul\":9530:9802   */\n      pop\n        /* \"#utility.yul\":9438:9802   */\n      swap3\n      swap2\n      pop\n      pop\n      jump\t// out\n        /* \"#utility.yul\":9808:9901   */\n    tag_200:\n        /* \"#utility.yul\":9844:9851   */\n      0x00\n        /* \"#utility.yul\":9884:9894   */\n      0xffffffff\n        /* \"#utility.yul\":9877:9882   */\n      dup3\n        /* \"#utility.yul\":9873:9895   */\n      and\n        /* \"#utility.yul\":9862:9895   */\n      swap1\n      pop\n        /* \"#utility.yul\":9808:9901   */\n      swap2\n      swap1\n      pop\n      jump\t// out\n        /* \"#utility.yul\":9907:10022   */\n    tag_201:\n        /* \"#utility.yul\":9992:10015   */\n      tag_322\n        /* \"#utility.yul\":10009:10014   */\n      dup2\n        /* \"#utility.yul\":9992:10015   */\n      tag_200\n      jump\t// in\n    tag_322:\n        /* \"#utility.yul\":9987:9990   */\n      dup3\n        /* \"#utility.yul\":9980:10016   */\n      mstore\n        /* \"#utility.yul\":9907:10022   */\n      pop\n      pop\n      jump\t// out\n        /* \"#utility.yul\":10028:10557   */\n    tag_70:\n        /* \"#utility.yul\":10195:10199   */\n      0x00\n        /* \"#utility.yul\":10233:10235   */\n      0x60\n        /* \"#utility.yul\":10222:10231   */\n      dup3\n        /* \"#utility.yul\":10218:10236   */\n      add\n        /* \"#utility.yul\":10210:10236   */\n      swap1\n      pop\n        /* \"#utility.yul\":10282:10291   */\n      dup2\n        /* \"#utility.yul\":10276:10280   */\n      dup2\n        /* \"#utility.yul\":10272:10292   */\n      sub\n        /* \"#utility.yul\":10268:10269   */\n      0x00\n        /* \"#utility.yul\":10257:10266   */\n      dup4\n        /* \"#utility.yul\":10253:10270   */\n      add\n        /* \"#utility.yul\":10246:10293   */\n      mstore\n        /* \"#utility.yul\":10310:10388   */\n      tag_324\n        /* \"#utility.yul\":10383:10387   */\n      dup2\n        /* \"#utility.yul\":10374:10380   */\n      dup7\n        /* \"#utility.yul\":10310:10388   */\n      tag_199\n      jump\t// in\n    tag_324:\n        /* \"#utility.yul\":10302:10388   */\n      swap1\n      pop\n        /* \"#utility.yul\":10398:10470   */\n      tag_325\n        /* \"#utility.yul\":10466:10468   */\n      0x20\n        /* \"#utility.yul\":10455:10464   */\n      dup4\n        /* \"#utility.yul\":10451:10469   */\n      add\n        /* \"#utility.yul\":10442:10448   */\n      dup6\n        /* \"#utility.yul\":10398:10470   */\n      tag_184\n      jump\t// in\n    tag_325:\n        /* \"#utility.yul\":10480:10550   */\n      tag_326\n        /* \"#utility.yul\":10546:10548   */\n      0x40\n        /* \"#utility.yul\":10535:10544   */\n      dup4\n        /* \"#utility.yul\":10531:10549   */\n      add\n        /* \"#utility.yul\":10522:10528   */\n      dup5\n        /* \"#utility.yul\":10480:10550   */\n      tag_201\n      jump\t// in\n    tag_326:\n        /* \"#utility.yul\":10028:10557   */\n      swap5\n      swap4\n      pop\n      pop\n      pop\n      pop\n      jump\t// out\n        /* \"#utility.yul\":10563:10743   */\n    tag_86:\n        /* \"#utility.yul\":10611:10688   */\n      0x4e487b7100000000000000000000000000000000000000000000000000000000\n        /* \"#utility.yul\":10608:10609   */\n      0x00\n        /* \"#utility.yul\":10601:10689   */\n      mstore\n        /* \"#utility.yul\":10708:10712   */\n      0x32\n        /* \"#utility.yul\":10705:10706   */\n      0x04\n        /* \"#utility.yul\":10698:10713   */\n      mstore\n        /* \"#utility.yul\":10732:10736   */\n      0x24\n        /* \"#utility.yul\":10729:10730   */\n      0x00\n        /* \"#utility.yul\":10722:10737   */\n      revert\n        /* \"#utility.yul\":10749:10929   */\n    tag_202:\n        /* \"#utility.yul\":10797:10874   */\n      0x4e487b7100000000000000000000000000000000000000000000000000000000\n        /* \"#utility.yul\":10794:10795   */\n      0x00\n        /* \"#utility.yul\":10787:10875   */\n      mstore\n        /* \"#utility.yul\":10894:10898   */\n      0x11\n        /* \"#utility.yul\":10891:10892   */\n      0x04\n        /* \"#utility.yul\":10884:10899   */\n      mstore\n        /* \"#utility.yul\":10918:10922   */\n      0x24\n        /* \"#utility.yul\":10915:10916   */\n      0x00\n        /* \"#utility.yul\":10908:10923   */\n      revert\n        /* \"#utility.yul\":10935:11168   */\n    tag_88:\n        /* \"#utility.yul\":10974:10977   */\n      0x00\n        /* \"#utility.yul\":10997:11021   */\n      tag_330\n        /* \"#utility.yul\":11015:11020   */\n      dup3\n        /* \"#utility.yul\":10997:11021   */\n      tag_176\n      jump\t// in\n    tag_330:\n        /* \"#utility.yul\":10988:11021   */\n      swap2\n      pop\n        /* \"#utility.yul\":11043:11109   */\n      0xffffffffffffffffffffffffffffffffffffffffffffffffffffffffffffffff\n        /* \"#utility.yul\":11036:11041   */\n      dup3\n        /* \"#utility.yul\":11033:11110   */\n      eq\n        /* \"#utility.yul\":11030:11133   */\n      iszero\n      tag_331\n      jumpi\n        /* \"#utility.yul\":11113:11131   */\n      tag_332\n      tag_202\n      jump\t// in\n    tag_332:\n        /* \"#utility.yul\":11030:11133   */\n    tag_331:\n        /* \"#utility.yul\":11160:11161   */\n      0x01\n        /* \"#utility.yul\":11153:11158   */\n      dup3\n        /* \"#utility.yul\":11149:11162   */\n      add\n        /* \"#utility.yul\":11142:11162   */\n      swap1\n      pop\n        /* \"#utility.yul\":10935:11168   */\n      swap2\n      swap1\n      pop\n      jump\t// out\n        /* \"#utility.yul\":11174:11354   */\n    tag_203:\n        /* \"#utility.yul\":11222:11299   */\n      0x4e487b7100000000000000000000000000000000000000000000000000000000\n        /* \"#utility.yul\":11219:11220   */\n      0x00\n        /* \"#utility.yul\":11212:11300   */\n      mstore\n        /* \"#utility.yul\":11319:11323   */\n      0x22\n        /* \"#utility.yul\":11316:11317   */\n      0x04\n        /* \"#utility.yul\":11309:11324   */\n      mstore\n        /* \"#utility.yul\":11343:11347   */\n      0x24\n        /* \"#utility.yul\":11340:11341   */\n      0x00\n        /* \"#utility.yul\":11333:11348   */\n      revert\n        /* \"#utility.yul\":11360:11680   */\n    tag_114:\n        /* \"#utility.yul\":11404:11410   */\n      0x00\n        /* \"#utility.yul\":11441:11442   */\n      0x02\n        /* \"#utility.yul\":11435:11439   */\n      dup3\n        /* \"#utility.yul\":11431:11443   */\n      div\n        /* \"#utility.yul\":11421:11443   */\n      swap1\n      pop\n        /* \"#utility.yul\":11488:11489   */\n      0x01\n        /* \"#utility.yul\":11482:11486   */\n      dup3\n        /* \"#utility.yul\":11478:11490   */\n      and\n        /* \"#utility.yul\":11509:11527   */\n      dup1\n        /* \"#utility.yul\":11499:11580   */\n      tag_335\n      jumpi\n        /* \"#utility.yul\":11565:11569   */\n      0x7f\n        /* \"#utility.yul\":11557:11563   */\n      dup3\n        /* \"#utility.yul\":11553:11570   */\n      and\n        /* \"#utility.yul\":11543:11570   */\n      swap2\n      pop\n        /* \"#utility.yul\":11499:11580   */\n    tag_335:\n        /* \"#utility.yul\":11627:11629   */\n      0x20\n        /* \"#utility.yul\":11619:11625   */\n      dup3\n        /* \"#utility.yul\":11616:11630   */\n      lt\n        /* \"#utility.yul\":11596:11614   */\n      dup2\n        /* \"#utility.yul\":11593:11631   */\n      eq\n        /* \"#utility.yul\":11590:11674   */\n      iszero\n      tag_336\n      jumpi\n        /* \"#utility.yul\":11646:11664   */\n      tag_337\n      tag_203\n      jump\t// in\n    tag_337:\n        /* \"#utility.yul\":11590:11674   */\n    tag_336:\n        /* \"#utility.yul\":11411:11680   */\n      pop\n        /* \"#utility.yul\":11360:11680   */\n      swap2\n      swap1\n      pop\n      jump\t// out\n        /* \"#utility.yul\":11686:11834   */\n    tag_204:\n        /* \"#utility.yul\":11788:11799   */\n      0x00\n        /* \"#utility.yul\":11825:11828   */\n      dup2\n        /* \"#utility.yul\":11810:11828   */\n      swap1\n      pop\n        /* \"#utility.yul\":11686:11834   */\n      swap3\n      swap2\n      pop\n      pop\n      jump\t// out\n        /* \"#utility.yul\":11840:12217   */\n    tag_205:\n        /* \"#utility.yul\":11946:11949   */\n      0x00\n        /* \"#utility.yul\":11974:12013   */\n      tag_340\n        /* \"#utility.yul\":12007:12012   */\n      dup3\n        /* \"#utility.yul\":11974:12013   */\n      tag_196\n      jump\t// in\n    tag_340:\n        /* \"#utility.yul\":12029:12118   */\n      tag_341\n        /* \"#utility.yul\":12111:12117   */\n      dup2\n        /* \"#utility.yul\":12106:12109   */\n      dup6\n        /* \"#utility.yul\":12029:12118   */\n      tag_204\n      jump\t// in\n    tag_341:\n        /* \"#utility.yul\":12022:12118   */\n      swap4\n      pop\n        /* \"#utility.yul\":12127:12179   */\n      tag_342\n        /* \"#utility.yul\":12172:12178   */\n      dup2\n        /* \"#utility.yul\":12167:12170   */\n      dup6\n        /* \"#utility.yul\":12160:12164   */\n      0x20\n        /* \"#utility.yul\":12153:12158   */\n      dup7\n        /* \"#utility.yul\":12149:12165   */\n      add\n        /* \"#utility.yul\":12127:12179   */\n      tag_198\n      jump\t// in\n    tag_342:\n        /* \"#utility.yul\":12204:12210   */\n      dup1\n        /* \"#utility.yul\":12199:12202   */\n      dup5\n        /* \"#utility.yul\":12195:12211   */\n      add\n        /* \"#utility.yul\":12188:12211   */\n      swap2\n      pop\n        /* \"#utility.yul\":11950:12217   */\n      pop\n        /* \"#utility.yul\":11840:12217   */\n      swap3\n      swap2\n      pop\n      pop\n      jump\t// out\n        /* \"#utility.yul\":12223:12498   */\n    tag_132:\n        /* \"#utility.yul\":12355:12358   */\n      0x00\n        /* \"#utility.yul\":12377:12472   */\n      tag_344\n        /* \"#utility.yul\":12468:12471   */\n      dup3\n        /* \"#utility.yul\":12459:12465   */\n      dup5\n        /* \"#utility.yul\":12377:12472   */\n      tag_205\n      jump\t// in\n    tag_344:\n        /* \"#utility.yul\":12370:12472   */\n      swap2\n      pop\n        /* \"#utility.yul\":12489:12492   */\n      dup2\n        /* \"#utility.yul\":12482:12492   */\n      swap1\n      pop\n        /* \"#utility.yul\":12223:12498   */\n      swap3\n      swap2\n      pop\n      pop\n      jump\t// out\n        /* \"#utility.yul\":12504:12684   */\n    tag_206:\n        /* \"#utility.yul\":12552:12629   */\n      0x4e487b7100000000000000000000000000000000000000000000000000000000\n        /* \"#utility.yul\":12549:12550   */\n      0x00\n        /* \"#utility.yul\":12542:12630   */\n      mstore\n        /* \"#utility.yul\":12649:12653   */\n      0x12\n        /* \"#utility.yul\":12646:12647   */\n      0x04\n        /* \"#utility.yul\":12639:12654   */\n      mstore\n        /* \"#utility.yul\":12673:12677   */\n      0x24\n        /* \"#utility.yul\":12670:12671   */\n      0x00\n        /* \"#utility.yul\":12663:12678   */\n      revert\n        /* \"#utility.yul\":12690:12866   */\n    tag_134:\n        /* \"#utility.yul\":12722:12723   */\n      0x00\n        /* \"#utility.yul\":12739:12759   */\n      tag_347\n        /* \"#utility.yul\":12757:12758   */\n      dup3\n        /* \"#utility.yul\":12739:12759   */\n      tag_176\n      jump\t// in\n    tag_347:\n        /* \"#utility.yul\":12734:12759   */\n      swap2\n      pop\n        /* \"#utility.yul\":12773:12793   */\n      tag_348\n        /* \"#utility.yul\":12791:12792   */\n      dup4\n        /* \"#utility.yul\":12773:12793   */\n      tag_176\n      jump\t// in\n    tag_348:\n        /* \"#utility.yul\":12768:12793   */\n      swap3\n      pop\n        /* \"#utility.yul\":12812:12813   */\n      dup3\n        /* \"#utility.yul\":12802:12837   */\n      tag_349\n      jumpi\n        /* \"#utility.yul\":12817:12835   */\n      tag_350\n      tag_206\n      jump\t// in\n    tag_350:\n        /* \"#utility.yul\":12802:12837   */\n    tag_349:\n        /* \"#utility.yul\":12858:12859   */\n      dup3\n        /* \"#utility.yul\":12855:12856   */\n      dup3\n        /* \"#utility.yul\":12851:12860   */\n      mod\n        /* \"#utility.yul\":12846:12860   */\n      swap1\n      pop\n        /* \"#utility.yul\":12690:12866   */\n      swap3\n      swap2\n      pop\n      pop\n      jump\t// out\n        /* \"#utility.yul\":12872:13063   */\n    tag_140:\n        /* \"#utility.yul\":12912:12916   */\n      0x00\n        /* \"#utility.yul\":12932:12952   */\n      tag_352\n        /* \"#utility.yul\":12950:12951   */\n      dup3\n        /* \"#utility.yul\":12932:12952   */\n      tag_176\n      jump\t// in\n    tag_352:\n        /* \"#utility.yul\":12927:12952   */\n      swap2\n      pop\n        /* \"#utility.yul\":12966:12986   */\n      tag_353\n        /* \"#utility.yul\":12984:12985   */\n      dup4\n        /* \"#utility.yul\":12966:12986   */\n      tag_176\n      jump\t// in\n    tag_353:\n        /* \"#utility.yul\":12961:12986   */\n      swap3\n      pop\n        /* \"#utility.yul\":13005:13006   */\n      dup3\n        /* \"#utility.yul\":13002:13003   */\n      dup3\n        /* \"#utility.yul\":12999:13007   */\n      lt\n        /* \"#utility.yul\":12996:13030   */\n      iszero\n      tag_354\n      jumpi\n        /* \"#utility.yul\":13010:13028   */\n      tag_355\n      tag_202\n      jump\t// in\n    tag_355:\n        /* \"#utility.yul\":12996:13030   */\n    tag_354:\n        /* \"#utility.yul\":13055:13056   */\n      dup3\n        /* \"#utility.yul\":13052:13053   */\n      dup3\n        /* \"#utility.yul\":13048:13057   */\n      sub\n        /* \"#utility.yul\":13040:13057   */\n      swap1\n      pop\n        /* \"#utility.yul\":12872:13063   */\n      swap3\n      swap2\n      pop\n      pop\n      jump\t// out\n        /* \"#utility.yul\":13069:13602   */\n    tag_143:\n        /* \"#utility.yul\":13238:13242   */\n      0x00\n        /* \"#utility.yul\":13276:13278   */\n      0x60\n        /* \"#utility.yul\":13265:13274   */\n      dup3\n        /* \"#utility.yul\":13261:13279   */\n      add\n        /* \"#utility.yul\":13253:13279   */\n      swap1\n      pop\n        /* \"#utility.yul\":13289:13360   */\n      tag_357\n        /* \"#utility.yul\":13357:13358   */\n      0x00\n        /* \"#utility.yul\":13346:13355   */\n      dup4\n        /* \"#utility.yul\":13342:13359   */\n      add\n        /* \"#utility.yul\":13333:13339   */\n      dup7\n        /* \"#utility.yul\":13289:13360   */\n      tag_184\n      jump\t// in\n    tag_357:\n        /* \"#utility.yul\":13407:13416   */\n      dup2\n        /* \"#utility.yul\":13401:13405   */\n      dup2\n        /* \"#utility.yul\":13397:13417   */\n      sub\n        /* \"#utility.yul\":13392:13394   */\n      0x20\n        /* \"#utility.yul\":13381:13390   */\n      dup4\n        /* \"#utility.yul\":13377:13395   */\n      add\n        /* \"#utility.yul\":13370:13418   */\n      mstore\n        /* \"#utility.yul\":13435:13513   */\n      tag_358\n        /* \"#utility.yul\":13508:13512   */\n      dup2\n        /* \"#utility.yul\":13499:13505   */\n      dup6\n        /* \"#utility.yul\":13435:13513   */\n      tag_199\n      jump\t// in\n    tag_358:\n        /* \"#utility.yul\":13427:13513   */\n      swap1\n      pop\n        /* \"#utility.yul\":13523:13595   */\n      tag_359\n        /* \"#utility.yul\":13591:13593   */\n      0x40\n        /* \"#utility.yul\":13580:13589   */\n      dup4\n        /* \"#utility.yul\":13576:13594   */\n      add\n        /* \"#utility.yul\":13567:13573   */\n      dup5\n        /* \"#utility.yul\":13523:13595   */\n      tag_184\n      jump\t// in\n    tag_359:\n        /* \"#utility.yul\":13069:13602   */\n      swap5\n      swap4\n      pop\n      pop\n      pop\n      pop\n      jump\t// out\n        /* \"#utility.yul\":13608:13913   */\n    tag_148:\n        /* \"#utility.yul\":13648:13651   */\n      0x00\n        /* \"#utility.yul\":13667:13687   */\n      tag_361\n        /* \"#utility.yul\":13685:13686   */\n      dup3\n        /* \"#utility.yul\":13667:13687   */\n      tag_176\n      jump\t// in\n    tag_361:\n        /* \"#utility.yul\":13662:13687   */\n      swap2\n      pop\n        /* \"#utility.yul\":13701:13721   */\n      tag_362\n        /* \"#utility.yul\":13719:13720   */\n      dup4\n        /* \"#utility.yul\":13701:13721   */\n      tag_176\n      jump\t// in\n    tag_362:\n        /* \"#utility.yul\":13696:13721   */\n      swap3\n      pop\n        /* \"#utility.yul\":13855:13856   */\n      dup3\n        /* \"#utility.yul\":13787:13853   */\n      0xffffffffffffffffffffffffffffffffffffffffffffffffffffffffffffffff\n        /* \"#utility.yul\":13783:13857   */\n      sub\n        /* \"#utility.yul\":13780:13781   */\n      dup3\n        /* \"#utility.yul\":13777:13858   */\n      gt\n        /* \"#utility.yul\":13774:13881   */\n      iszero\n      tag_363\n      jumpi\n        /* \"#utility.yul\":13861:13879   */\n      tag_364\n      tag_202\n      jump\t// in\n    tag_364:\n        /* \"#utility.yul\":13774:13881   */\n    tag_363:\n        /* \"#utility.yul\":13905:13906   */\n      dup3\n        /* \"#utility.yul\":13902:13903   */\n      dup3\n        /* \"#utility.yul\":13898:13907   */\n      add\n        /* \"#utility.yul\":13891:13907   */\n      swap1\n      pop\n        /* \"#utility.yul\":13608:13913   */\n      swap3\n      swap2\n      pop\n      pop\n      jump\t// out\n        /* \"#utility.yul\":13919:14099   */\n    tag_151:\n        /* \"#utility.yul\":13967:14044   */\n      0x4e487b7100000000000000000000000000000000000000000000000000000000\n        /* \"#utility.yul\":13964:13965   */\n      0x00\n        /* \"#utility.yul\":13957:14045   */\n      mstore\n        /* \"#utility.yul\":14064:14068   */\n      0x01\n        /* \"#utility.yul\":14061:14062   */\n      0x04\n        /* \"#utility.yul\":14054:14069   */\n      mstore\n        /* \"#utility.yul\":14088:14092   */\n      0x24\n        /* \"#utility.yul\":14085:14086   */\n      0x00\n        /* \"#utility.yul\":14078:14093   */\n      revert\n\n    auxdata: 0xa264697066735822122076876fe49b92d57059c9407a858639b9c2421c4455a8ceeb585d352eefe9c3d664736f6c634300080a0033\n}\n","bytecode":{"linkReferences":{},"object":"60806040526010600155600154600a6200001a919062000280565b600255620151806003553480156200003157600080fd5b50336000806101000a81548173ffffffffffffffffffffffffffffffffffffffff021916908373ffffffffffffffffffffffffffffffffffffffff16021790555060008054906101000a900473ffffffffffffffffffffffffffffffffffffffff1673ffffffffffffffffffffffffffffffffffffffff16600073ffffffffffffffffffffffffffffffffffffffff167f8be0079c531659141344cd1fd0a4f28419497f9722a3daafe3b4186f6b6457e060405160405180910390a3620002d1565b7f4e487b7100000000000000000000000000000000000000000000000000000000600052601160045260246000fd5b60008160011c9050919050565b6000808291508390505b60018511156200018157808604811115620001595762000158620000f3565b5b6001851615620001695780820291505b8081029050620001798562000122565b945062000139565b94509492505050565b6000826200019c57600190506200026f565b81620001ac57600090506200026f565b8160018114620001c55760028114620001d05762000206565b60019150506200026f565b60ff841115620001e557620001e4620000f3565b5b8360020a915084821115620001ff57620001fe620000f3565b5b506200026f565b5060208310610133831016604e8410600b8410161715620002405782820a9050838111156200023a5762000239620000f3565b5b6200026f565b6200024f84848460016200012f565b92509050818404811115620002695762000268620000f3565b5b81810290505b9392505050565b6000819050919050565b60006200028d8262000276565b91506200029a8362000276565b9250620002c97fffffffffffffffffffffffffffffffffffffffffffffffffffffffffffffffff84846200018a565b905092915050565b61178380620002e16000396000f3fe6080604052600436106100a75760003560e01c80637b0f0a19116100645780637b0f0a19146101b25780638a72ec00146101ef5780638da5cb5b146102185780638f32d59b14610243578063a8d4a03b1461026e578063f2fde38b146102ad576100a7565b806307c99f4e146100ac578063095ea7b3146100e957806323b872dd146101055780636352211e1461012157806370a082311461015e578063715018a61461019b575b600080fd5b3480156100b857600080fd5b506100d360048036038101906100ce9190610f9a565b6102d6565b6040516100e0919061108f565b60405180910390f35b61010360048036038101906100fe91906110dd565b610429565b005b61011f600480360381019061011a919061111d565b610547565b005b34801561012d57600080fd5b5061014860048036038101906101439190611170565b61062b565b60405161015591906111ac565b60405180910390f35b34801561016a57600080fd5b5061018560048036038101906101809190610f9a565b610668565b60405161019291906111d6565b60405180910390f35b3480156101a757600080fd5b506101b06106b1565b005b3480156101be57600080fd5b506101d960048036038101906101d49190611170565b610780565b6040516101e691906111ac565b60405180910390f35b3480156101fb57600080fd5b5061021660048036038101906102119190611337565b6107b3565b005b34801561022457600080fd5b5061022d6107ce565b60405161023a91906111ac565b60405180910390f35b34801561024f57600080fd5b506102586107f7565b604051610265919061139b565b60405180910390f35b34801561027a57600080fd5b5061029560048036038101906102909190611170565b61084e565b6040516102a49392919061145d565b60405180910390f35b3480156102b957600080fd5b506102d460048036038101906102cf9190610f9a565b610920565b005b60606000600660008473ffffffffffffffffffffffffffffffffffffffff1673ffffffffffffffffffffffffffffffffffffffff1681526020019081526020016000205467ffffffffffffffff8111156103335761033261120c565b5b6040519080825280602002602001820160405280156103615781602001602082028036833780820191505090505b5090506000805b60048054905081101561041e578473ffffffffffffffffffffffffffffffffffffffff166005600083815260200190815260200160002060009054906101000a900473ffffffffffffffffffffffffffffffffffffffff1673ffffffffffffffffffffffffffffffffffffffff16141561040b57808383815181106103f0576103ef61149b565b5b6020026020010181815250508180610407906114f9565b9250505b8080610416906114f9565b915050610368565b508192505050919050565b806005600082815260200190815260200160002060009054906101000a900473ffffffffffffffffffffffffffffffffffffffff1673ffffffffffffffffffffffffffffffffffffffff163373ffffffffffffffffffffffffffffffffffffffff161461049557600080fd5b826007600084815260200190815260200160002060006101000a81548173ffffffffffffffffffffffffffffffffffffffff021916908373ffffffffffffffffffffffffffffffffffffffff160217905550818373ffffffffffffffffffffffffffffffffffffffff163373ffffffffffffffffffffffffffffffffffffffff167f8c5be1e5ebec7d5bd14f71427d1e84f3dd0314c0f7b2291e5b200ac8c7c3b92560405160405180910390a4505050565b3373ffffffffffffffffffffffffffffffffffffffff166005600083815260200190815260200160002060009054906101000a900473ffffffffffffffffffffffffffffffffffffffff1673ffffffffffffffffffffffffffffffffffffffff16148061061257503373ffffffffffffffffffffffffffffffffffffffff166007600083815260200190815260200160002060009054906101000a900473ffffffffffffffffffffffffffffffffffffffff1673ffffffffffffffffffffffffffffffffffffffff16145b61061b57600080fd5b61062683838361093d565b505050565b60006005600083815260200190815260200160002060009054906101000a900473ffffffffffffffffffffffffffffffffffffffff169050919050565b6000600660008373ffffffffffffffffffffffffffffffffffffffff1673ffffffffffffffffffffffffffffffffffffffff168152602001908152602001600020549050919050565b6106b96107f7565b6106c257600080fd5b600073ffffffffffffffffffffffffffffffffffffffff1660008054906101000a900473ffffffffffffffffffffffffffffffffffffffff1673ffffffffffffffffffffffffffffffffffffffff167f8be0079c531659141344cd1fd0a4f28419497f9722a3daafe3b4186f6b6457e060405160405180910390a360008060006101000a81548173ffffffffffffffffffffffffffffffffffffffff021916908373ffffffffffffffffffffffffffffffffffffffff160217905550565b60056020528060005260406000206000915054906101000a900473ffffffffffffffffffffffffffffffffffffffff1681565b60006107be82610b1b565b90506107ca8282610b60565b5050565b60008060009054906101000a900473ffffffffffffffffffffffffffffffffffffffff16905090565b60008060009054906101000a900473ffffffffffffffffffffffffffffffffffffffff1673ffffffffffffffffffffffffffffffffffffffff163373ffffffffffffffffffffffffffffffffffffffff1614905090565b6004818154811061085e57600080fd5b906000526020600020906003020160009150905080600001805461088190611571565b80601f01602080910402602001604051908101604052809291908181526020018280546108ad90611571565b80156108fa5780601f106108cf576101008083540402835291602001916108fa565b820191906000526020600020905b8154815290600101906020018083116108dd57829003601f168201915b5050505050908060010154908060020160009054906101000a900463ffffffff16905083565b6109286107f7565b61093157600080fd5b61093a81610d3b565b50565b6109906001600660008573ffffffffffffffffffffffffffffffffffffffff1673ffffffffffffffffffffffffffffffffffffffff16815260200190815260200160002054610e3290919063ffffffff16565b600660008473ffffffffffffffffffffffffffffffffffffffff1673ffffffffffffffffffffffffffffffffffffffff16815260200190815260200160002081905550610a266001600660008673ffffffffffffffffffffffffffffffffffffffff1673ffffffffffffffffffffffffffffffffffffffff16815260200190815260200160002054610e5e90919063ffffffff16565b600660008573ffffffffffffffffffffffffffffffffffffffff1673ffffffffffffffffffffffffffffffffffffffff16815260200190815260200160002081905550816005600083815260200190815260200160002060006101000a81548173ffffffffffffffffffffffffffffffffffffffff021916908373ffffffffffffffffffffffffffffffffffffffff160217905550808273ffffffffffffffffffffffffffffffffffffffff168473ffffffffffffffffffffffffffffffffffffffff167fddf252ad1be2c89b69c2b068fc378daa952ba7f163c4a11628f55a4df523b3ef60405160405180910390a4505050565b60008082604051602001610b2f91906115df565b6040516020818303038152906040528051906020012060001c905060025481610b589190611625565b915050919050565b60046040518060600160405280848152602001838152602001600163ffffffff1681525090806001815401808255809150506001900390600052602060002090600302016000909190919091506000820151816000019080519060200190610bc9929190610e85565b506020820151816001015560408201518160020160006101000a81548163ffffffff021916908363ffffffff160217905550505060006001600480549050610c119190611656565b9050336005600083815260200190815260200160002060006101000a81548173ffffffffffffffffffffffffffffffffffffffff021916908373ffffffffffffffffffffffffffffffffffffffff160217905550610cb86001600660003373ffffffffffffffffffffffffffffffffffffffff1673ffffffffffffffffffffffffffffffffffffffff16815260200190815260200160002054610e3290919063ffffffff16565b600660003373ffffffffffffffffffffffffffffffffffffffff1673ffffffffffffffffffffffffffffffffffffffff168152602001908152602001600020819055507fc404ae7075893405fef7ba0a0001d5ab3a05de4f9d9854f10259d60d822063a6818484604051610d2e9392919061168a565b60405180910390a1505050565b600073ffffffffffffffffffffffffffffffffffffffff168173ffffffffffffffffffffffffffffffffffffffff161415610d7557600080fd5b8073ffffffffffffffffffffffffffffffffffffffff1660008054906101000a900473ffffffffffffffffffffffffffffffffffffffff1673ffffffffffffffffffffffffffffffffffffffff167f8be0079c531659141344cd1fd0a4f28419497f9722a3daafe3b4186f6b6457e060405160405180910390a3806000806101000a81548173ffffffffffffffffffffffffffffffffffffffff021916908373ffffffffffffffffffffffffffffffffffffffff16021790555050565b6000808284610e4191906116c8565b905083811015610e5457610e5361171e565b5b8091505092915050565b600082821115610e7157610e7061171e565b5b8183610e7d9190611656565b905092915050565b828054610e9190611571565b90600052602060002090601f016020900481019282610eb35760008555610efa565b82601f10610ecc57805160ff1916838001178555610efa565b82800160010185558215610efa579182015b82811115610ef9578251825591602001919060010190610ede565b5b509050610f079190610f0b565b5090565b5b80821115610f24576000816000905550600101610f0c565b5090565b6000604051905090565b600080fd5b600080fd5b600073ffffffffffffffffffffffffffffffffffffffff82169050919050565b6000610f6782610f3c565b9050919050565b610f7781610f5c565b8114610f8257600080fd5b50565b600081359050610f9481610f6e565b92915050565b600060208284031215610fb057610faf610f32565b5b6000610fbe84828501610f85565b91505092915050565b600081519050919050565b600082825260208201905092915050565b6000819050602082019050919050565b6000819050919050565b61100681610ff3565b82525050565b60006110188383610ffd565b60208301905092915050565b6000602082019050919050565b600061103c82610fc7565b6110468185610fd2565b935061105183610fe3565b8060005b83811015611082578151611069888261100c565b975061107483611024565b925050600181019050611055565b5085935050505092915050565b600060208201905081810360008301526110a98184611031565b905092915050565b6110ba81610ff3565b81146110c557600080fd5b50565b6000813590506110d7816110b1565b92915050565b600080604083850312156110f4576110f3610f32565b5b600061110285828601610f85565b9250506020611113858286016110c8565b9150509250929050565b60008060006060848603121561113657611135610f32565b5b600061114486828701610f85565b935050602061115586828701610f85565b9250506040611166868287016110c8565b9150509250925092565b60006020828403121561118657611185610f32565b5b6000611194848285016110c8565b91505092915050565b6111a681610f5c565b82525050565b60006020820190506111c1600083018461119d565b92915050565b6111d081610ff3565b82525050565b60006020820190506111eb60008301846111c7565b92915050565b600080fd5b600080fd5b6000601f19601f8301169050919050565b7f4e487b7100000000000000000000000000000000000000000000000000000000600052604160045260246000fd5b611244826111fb565b810181811067ffffffffffffffff821117156112635761126261120c565b5b80604052505050565b6000611276610f28565b9050611282828261123b565b919050565b600067ffffffffffffffff8211156112a2576112a161120c565b5b6112ab826111fb565b9050602081019050919050565b82818337600083830152505050565b60006112da6112d584611287565b61126c565b9050828152602081018484840111156112f6576112f56111f6565b5b6113018482856112b8565b509392505050565b600082601f83011261131e5761131d6111f1565b5b813561132e8482602086016112c7565b91505092915050565b60006020828403121561134d5761134c610f32565b5b600082013567ffffffffffffffff81111561136b5761136a610f37565b5b61137784828501611309565b91505092915050565b60008115159050919050565b61139581611380565b82525050565b60006020820190506113b0600083018461138c565b92915050565b600081519050919050565b600082825260208201905092915050565b60005b838110156113f05780820151818401526020810190506113d5565b838111156113ff576000848401525b50505050565b6000611410826113b6565b61141a81856113c1565b935061142a8185602086016113d2565b611433816111fb565b840191505092915050565b600063ffffffff82169050919050565b6114578161143e565b82525050565b600060608201905081810360008301526114778186611405565b905061148660208301856111c7565b611493604083018461144e565b949350505050565b7f4e487b7100000000000000000000000000000000000000000000000000000000600052603260045260246000fd5b7f4e487b7100000000000000000000000000000000000000000000000000000000600052601160045260246000fd5b600061150482610ff3565b91507fffffffffffffffffffffffffffffffffffffffffffffffffffffffffffffffff821415611537576115366114ca565b5b600182019050919050565b7f4e487b7100000000000000000000000000000000000000000000000000000000600052602260045260246000fd5b6000600282049050600182168061158957607f821691505b6020821081141561159d5761159c611542565b5b50919050565b600081905092915050565b60006115b9826113b6565b6115c381856115a3565b93506115d38185602086016113d2565b80840191505092915050565b60006115eb82846115ae565b915081905092915050565b7f4e487b7100000000000000000000000000000000000000000000000000000000600052601260045260246000fd5b600061163082610ff3565b915061163b83610ff3565b92508261164b5761164a6115f6565b5b828206905092915050565b600061166182610ff3565b915061166c83610ff3565b92508282101561167f5761167e6114ca565b5b828203905092915050565b600060608201905061169f60008301866111c7565b81810360208301526116b18185611405565b90506116c060408301846111c7565b949350505050565b60006116d382610ff3565b91506116de83610ff3565b9250827fffffffffffffffffffffffffffffffffffffffffffffffffffffffffffffffff03821115611713576117126114ca565b5b828201905092915050565b7f4e487b7100000000000000000000000000000000000000000000000000000000600052600160045260246000fdfea264697066735822122076876fe49b92d57059c9407a858639b9c2421c4455a8ceeb585d352eefe9c3d664736f6c634300080a0033","opcodes":"PUSH1 0x80 PUSH1 0x40 MSTORE PUSH1 0x10 PUSH1 0x1 SSTORE PUSH1 0x1 SLOAD PUSH1 0xA PUSH3 0x1A SWAP2 SWAP1 PUSH3 0x280 JUMP JUMPDEST PUSH1 0x2 SSTORE PUSH3 0x15180 PUSH1 0x3 SSTORE CALLVALUE DUP1 ISZERO PUSH3 0x31 JUMPI PUSH1 0x0 DUP1 REVERT JUMPDEST POP CALLER PUSH1 0x0 DUP1 PUSH2 0x100 EXP DUP2 SLOAD DUP2 PUSH20 0xFFFFFFFFFFFFFFFFFFFFFFFFFFFFFFFFFFFFFFFF MUL NOT AND SWAP1 DUP4 PUSH20 0xFFFFFFFFFFFFFFFFFFFFFFFFFFFFFFFFFFFFFFFF AND MUL OR SWAP1 SSTORE POP PUSH1 0x0 DUP1 SLOAD SWAP1 PUSH2 0x100 EXP SWAP1 DIV PUSH20 0xFFFFFFFFFFFFFFFFFFFFFFFFFFFFFFFFFFFFFFFF AND PUSH20 0xFFFFFFFFFFFFFFFFFFFFFFFFFFFFFFFFFFFFFFFF AND PUSH1 0x0 PUSH20 0xFFFFFFFFFFFFFFFFFFFFFFFFFFFFFFFFFFFFFFFF AND PUSH32 0x8BE0079C531659141344CD1FD0A4F28419497F9722A3DAAFE3B4186F6B6457E0 PUSH1 0x40 MLOAD PUSH1 0x40 MLOAD DUP1 SWAP2 SUB SWAP1 LOG3 PUSH3 0x2D1 JUMP JUMPDEST PUSH32 0x4E487B7100000000000000000000000000000000000000000000000000000000 PUSH1 0x0 MSTORE PUSH1 0x11 PUSH1 0x4 MSTORE PUSH1 0x24 PUSH1 0x0 REVERT JUMPDEST PUSH1 0x0 DUP2 PUSH1 0x1 SHR SWAP1 POP SWAP2 SWAP1 POP JUMP JUMPDEST PUSH1 0x0 DUP1 DUP3 SWAP2 POP DUP4 SWAP1 POP JUMPDEST PUSH1 0x1 DUP6 GT ISZERO PUSH3 0x181 JUMPI DUP1 DUP7 DIV DUP2 GT ISZERO PUSH3 0x159 JUMPI PUSH3 0x158 PUSH3 0xF3 JUMP JUMPDEST JUMPDEST PUSH1 0x1 DUP6 AND ISZERO PUSH3 0x169 JUMPI DUP1 DUP3 MUL SWAP2 POP JUMPDEST DUP1 DUP2 MUL SWAP1 POP PUSH3 0x179 DUP6 PUSH3 0x122 JUMP JUMPDEST SWAP5 POP PUSH3 0x139 JUMP JUMPDEST SWAP5 POP SWAP5 SWAP3 POP POP POP JUMP JUMPDEST PUSH1 0x0 DUP3 PUSH3 0x19C JUMPI PUSH1 0x1 SWAP1 POP PUSH3 0x26F JUMP JUMPDEST DUP2 PUSH3 0x1AC JUMPI PUSH1 0x0 SWAP1 POP PUSH3 0x26F JUMP JUMPDEST DUP2 PUSH1 0x1 DUP2 EQ PUSH3 0x1C5 JUMPI PUSH1 0x2 DUP2 EQ PUSH3 0x1D0 JUMPI PUSH3 0x206 JUMP JUMPDEST PUSH1 0x1 SWAP2 POP POP PUSH3 0x26F JUMP JUMPDEST PUSH1 0xFF DUP5 GT ISZERO PUSH3 0x1E5 JUMPI PUSH3 0x1E4 PUSH3 0xF3 JUMP JUMPDEST JUMPDEST DUP4 PUSH1 0x2 EXP SWAP2 POP DUP5 DUP3 GT ISZERO PUSH3 0x1FF JUMPI PUSH3 0x1FE PUSH3 0xF3 JUMP JUMPDEST JUMPDEST POP PUSH3 0x26F JUMP JUMPDEST POP PUSH1 0x20 DUP4 LT PUSH2 0x133 DUP4 LT AND PUSH1 0x4E DUP5 LT PUSH1 0xB DUP5 LT AND OR ISZERO PUSH3 0x240 JUMPI DUP3 DUP3 EXP SWAP1 POP DUP4 DUP2 GT ISZERO PUSH3 0x23A JUMPI PUSH3 0x239 PUSH3 0xF3 JUMP JUMPDEST JUMPDEST PUSH3 0x26F JUMP JUMPDEST PUSH3 0x24F DUP5 DUP5 DUP5 PUSH1 0x1 PUSH3 0x12F JUMP JUMPDEST SWAP3 POP SWAP1 POP DUP2 DUP5 DIV DUP2 GT ISZERO PUSH3 0x269 JUMPI PUSH3 0x268 PUSH3 0xF3 JUMP JUMPDEST JUMPDEST DUP2 DUP2 MUL SWAP1 POP JUMPDEST SWAP4 SWAP3 POP POP POP JUMP JUMPDEST PUSH1 0x0 DUP2 SWAP1 POP SWAP2 SWAP1 POP JUMP JUMPDEST PUSH1 0x0 PUSH3 0x28D DUP3 PUSH3 0x276 JUMP JUMPDEST SWAP2 POP PUSH3 0x29A DUP4 PUSH3 0x276 JUMP JUMPDEST SWAP3 POP PUSH3 0x2C9 PUSH32 0xFFFFFFFFFFFFFFFFFFFFFFFFFFFFFFFFFFFFFFFFFFFFFFFFFFFFFFFFFFFFFFFF DUP5 DUP5 PUSH3 0x18A JUMP JUMPDEST SWAP1 POP SWAP3 SWAP2 POP POP JUMP JUMPDEST PUSH2 0x1783 DUP1 PUSH3 0x2E1 PUSH1 0x0 CODECOPY PUSH1 0x0 RETURN INVALID PUSH1 0x80 PUSH1 0x40 MSTORE PUSH1 0x4 CALLDATASIZE LT PUSH2 0xA7 JUMPI PUSH1 0x0 CALLDATALOAD PUSH1 0xE0 SHR DUP1 PUSH4 0x7B0F0A19 GT PUSH2 0x64 JUMPI DUP1 PUSH4 0x7B0F0A19 EQ PUSH2 0x1B2 JUMPI DUP1 PUSH4 0x8A72EC00 EQ PUSH2 0x1EF JUMPI DUP1 PUSH4 0x8DA5CB5B EQ PUSH2 0x218 JUMPI DUP1 PUSH4 0x8F32D59B EQ PUSH2 0x243 JUMPI DUP1 PUSH4 0xA8D4A03B EQ PUSH2 0x26E JUMPI DUP1 PUSH4 0xF2FDE38B EQ PUSH2 0x2AD JUMPI PUSH2 0xA7 JUMP JUMPDEST DUP1 PUSH4 0x7C99F4E EQ PUSH2 0xAC JUMPI DUP1 PUSH4 0x95EA7B3 EQ PUSH2 0xE9 JUMPI DUP1 PUSH4 0x23B872DD EQ PUSH2 0x105 JUMPI DUP1 PUSH4 0x6352211E EQ PUSH2 0x121 JUMPI DUP1 PUSH4 0x70A08231 EQ PUSH2 0x15E JUMPI DUP1 PUSH4 0x715018A6 EQ PUSH2 0x19B JUMPI JUMPDEST PUSH1 0x0 DUP1 REVERT JUMPDEST CALLVALUE DUP1 ISZERO PUSH2 0xB8 JUMPI PUSH1 0x0 DUP1 REVERT JUMPDEST POP PUSH2 0xD3 PUSH1 0x4 DUP1 CALLDATASIZE SUB DUP2 ADD SWAP1 PUSH2 0xCE SWAP2 SWAP1 PUSH2 0xF9A JUMP JUMPDEST PUSH2 0x2D6 JUMP JUMPDEST PUSH1 0x40 MLOAD PUSH2 0xE0 SWAP2 SWAP1 PUSH2 0x108F JUMP JUMPDEST PUSH1 0x40 MLOAD DUP1 SWAP2 SUB SWAP1 RETURN JUMPDEST PUSH2 0x103 PUSH1 0x4 DUP1 CALLDATASIZE SUB DUP2 ADD SWAP1 PUSH2 0xFE SWAP2 SWAP1 PUSH2 0x10DD JUMP JUMPDEST PUSH2 0x429 JUMP JUMPDEST STOP JUMPDEST PUSH2 0x11F PUSH1 0x4 DUP1 CALLDATASIZE SUB DUP2 ADD SWAP1 PUSH2 0x11A SWAP2 SWAP1 PUSH2 0x111D JUMP JUMPDEST PUSH2 0x547 JUMP JUMPDEST STOP JUMPDEST CALLVALUE DUP1 ISZERO PUSH2 0x12D JUMPI PUSH1 0x0 DUP1 REVERT JUMPDEST POP PUSH2 0x148 PUSH1 0x4 DUP1 CALLDATASIZE SUB DUP2 ADD SWAP1 PUSH2 0x143 SWAP2 SWAP1 PUSH2 0x1170 JUMP JUMPDEST PUSH2 0x62B JUMP JUMPDEST PUSH1 0x40 MLOAD PUSH2 0x155 SWAP2 SWAP1 PUSH2 0x11AC JUMP JUMPDEST PUSH1 0x40 MLOAD DUP1 SWAP2 SUB SWAP1 RETURN JUMPDEST CALLVALUE DUP1 ISZERO PUSH2 0x16A JUMPI PUSH1 0x0 DUP1 REVERT JUMPDEST POP PUSH2 0x185 PUSH1 0x4 DUP1 CALLDATASIZE SUB DUP2 ADD SWAP1 PUSH2 0x180 SWAP2 SWAP1 PUSH2 0xF9A JUMP JUMPDEST PUSH2 0x668 JUMP JUMPDEST PUSH1 0x40 MLOAD PUSH2 0x192 SWAP2 SWAP1 PUSH2 0x11D6 JUMP JUMPDEST PUSH1 0x40 MLOAD DUP1 SWAP2 SUB SWAP1 RETURN JUMPDEST CALLVALUE DUP1 ISZERO PUSH2 0x1A7 JUMPI PUSH1 0x0 DUP1 REVERT JUMPDEST POP PUSH2 0x1B0 PUSH2 0x6B1 JUMP JUMPDEST STOP JUMPDEST CALLVALUE DUP1 ISZERO PUSH2 0x1BE JUMPI PUSH1 0x0 DUP1 REVERT JUMPDEST POP PUSH2 0x1D9 PUSH1 0x4 DUP1 CALLDATASIZE SUB DUP2 ADD SWAP1 PUSH2 0x1D4 SWAP2 SWAP1 PUSH2 0x1170 JUMP JUMPDEST PUSH2 0x780 JUMP JUMPDEST PUSH1 0x40 MLOAD PUSH2 0x1E6 SWAP2 SWAP1 PUSH2 0x11AC JUMP JUMPDEST PUSH1 0x40 MLOAD DUP1 SWAP2 SUB SWAP1 RETURN JUMPDEST CALLVALUE DUP1 ISZERO PUSH2 0x1FB JUMPI PUSH1 0x0 DUP1 REVERT JUMPDEST POP PUSH2 0x216 PUSH1 0x4 DUP1 CALLDATASIZE SUB DUP2 ADD SWAP1 PUSH2 0x211 SWAP2 SWAP1 PUSH2 0x1337 JUMP JUMPDEST PUSH2 0x7B3 JUMP JUMPDEST STOP JUMPDEST CALLVALUE DUP1 ISZERO PUSH2 0x224 JUMPI PUSH1 0x0 DUP1 REVERT JUMPDEST POP PUSH2 0x22D PUSH2 0x7CE JUMP JUMPDEST PUSH1 0x40 MLOAD PUSH2 0x23A SWAP2 SWAP1 PUSH2 0x11AC JUMP JUMPDEST PUSH1 0x40 MLOAD DUP1 SWAP2 SUB SWAP1 RETURN JUMPDEST CALLVALUE DUP1 ISZERO PUSH2 0x24F JUMPI PUSH1 0x0 DUP1 REVERT JUMPDEST POP PUSH2 0x258 PUSH2 0x7F7 JUMP JUMPDEST PUSH1 0x40 MLOAD PUSH2 0x265 SWAP2 SWAP1 PUSH2 0x139B JUMP JUMPDEST PUSH1 0x40 MLOAD DUP1 SWAP2 SUB SWAP1 RETURN JUMPDEST CALLVALUE DUP1 ISZERO PUSH2 0x27A JUMPI PUSH1 0x0 DUP1 REVERT JUMPDEST POP PUSH2 0x295 PUSH1 0x4 DUP1 CALLDATASIZE SUB DUP2 ADD SWAP1 PUSH2 0x290 SWAP2 SWAP1 PUSH2 0x1170 JUMP JUMPDEST PUSH2 0x84E JUMP JUMPDEST PUSH1 0x40 MLOAD PUSH2 0x2A4 SWAP4 SWAP3 SWAP2 SWAP1 PUSH2 0x145D JUMP JUMPDEST PUSH1 0x40 MLOAD DUP1 SWAP2 SUB SWAP1 RETURN JUMPDEST CALLVALUE DUP1 ISZERO PUSH2 0x2B9 JUMPI PUSH1 0x0 DUP1 REVERT JUMPDEST POP PUSH2 0x2D4 PUSH1 0x4 DUP1 CALLDATASIZE SUB DUP2 ADD SWAP1 PUSH2 0x2CF SWAP2 SWAP1 PUSH2 0xF9A JUMP JUMPDEST PUSH2 0x920 JUMP JUMPDEST STOP JUMPDEST PUSH1 0x60 PUSH1 0x0 PUSH1 0x6 PUSH1 0x0 DUP5 PUSH20 0xFFFFFFFFFFFFFFFFFFFFFFFFFFFFFFFFFFFFFFFF AND PUSH20 0xFFFFFFFFFFFFFFFFFFFFFFFFFFFFFFFFFFFFFFFF AND DUP2 MSTORE PUSH1 0x20 ADD SWAP1 DUP2 MSTORE PUSH1 0x20 ADD PUSH1 0x0 KECCAK256 SLOAD PUSH8 0xFFFFFFFFFFFFFFFF DUP2 GT ISZERO PUSH2 0x333 JUMPI PUSH2 0x332 PUSH2 0x120C JUMP JUMPDEST JUMPDEST PUSH1 0x40 MLOAD SWAP1 DUP1 DUP3 MSTORE DUP1 PUSH1 0x20 MUL PUSH1 0x20 ADD DUP3 ADD PUSH1 0x40 MSTORE DUP1 ISZERO PUSH2 0x361 JUMPI DUP2 PUSH1 0x20 ADD PUSH1 0x20 DUP3 MUL DUP1 CALLDATASIZE DUP4 CALLDATACOPY DUP1 DUP3 ADD SWAP2 POP POP SWAP1 POP JUMPDEST POP SWAP1 POP PUSH1 0x0 DUP1 JUMPDEST PUSH1 0x4 DUP1 SLOAD SWAP1 POP DUP2 LT ISZERO PUSH2 0x41E JUMPI DUP5 PUSH20 0xFFFFFFFFFFFFFFFFFFFFFFFFFFFFFFFFFFFFFFFF AND PUSH1 0x5 PUSH1 0x0 DUP4 DUP2 MSTORE PUSH1 0x20 ADD SWAP1 DUP2 MSTORE PUSH1 0x20 ADD PUSH1 0x0 KECCAK256 PUSH1 0x0 SWAP1 SLOAD SWAP1 PUSH2 0x100 EXP SWAP1 DIV PUSH20 0xFFFFFFFFFFFFFFFFFFFFFFFFFFFFFFFFFFFFFFFF AND PUSH20 0xFFFFFFFFFFFFFFFFFFFFFFFFFFFFFFFFFFFFFFFF AND EQ ISZERO PUSH2 0x40B JUMPI DUP1 DUP4 DUP4 DUP2 MLOAD DUP2 LT PUSH2 0x3F0 JUMPI PUSH2 0x3EF PUSH2 0x149B JUMP JUMPDEST JUMPDEST PUSH1 0x20 MUL PUSH1 0x20 ADD ADD DUP2 DUP2 MSTORE POP POP DUP2 DUP1 PUSH2 0x407 SWAP1 PUSH2 0x14F9 JUMP JUMPDEST SWAP3 POP POP JUMPDEST DUP1 DUP1 PUSH2 0x416 SWAP1 PUSH2 0x14F9 JUMP JUMPDEST SWAP2 POP POP PUSH2 0x368 JUMP JUMPDEST POP DUP2 SWAP3 POP POP POP SWAP2 SWAP1 POP JUMP JUMPDEST DUP1 PUSH1 0x5 PUSH1 0x0 DUP3 DUP2 MSTORE PUSH1 0x20 ADD SWAP1 DUP2 MSTORE PUSH1 0x20 ADD PUSH1 0x0 KECCAK256 PUSH1 0x0 SWAP1 SLOAD SWAP1 PUSH2 0x100 EXP SWAP1 DIV PUSH20 0xFFFFFFFFFFFFFFFFFFFFFFFFFFFFFFFFFFFFFFFF AND PUSH20 0xFFFFFFFFFFFFFFFFFFFFFFFFFFFFFFFFFFFFFFFF AND CALLER PUSH20 0xFFFFFFFFFFFFFFFFFFFFFFFFFFFFFFFFFFFFFFFF AND EQ PUSH2 0x495 JUMPI PUSH1 0x0 DUP1 REVERT JUMPDEST DUP3 PUSH1 0x7 PUSH1 0x0 DUP5 DUP2 MSTORE PUSH1 0x20 ADD SWAP1 DUP2 MSTORE PUSH1 0x20 ADD PUSH1 0x0 KECCAK256 PUSH1 0x0 PUSH2 0x100 EXP DUP2 SLOAD DUP2 PUSH20 0xFFFFFFFFFFFFFFFFFFFFFFFFFFFFFFFFFFFFFFFF MUL NOT AND SWAP1 DUP4 PUSH20 0xFFFFFFFFFFFFFFFFFFFFFFFFFFFFFFFFFFFFFFFF AND MUL OR SWAP1 SSTORE POP DUP2 DUP4 PUSH20 0xFFFFFFFFFFFFFFFFFFFFFFFFFFFFFFFFFFFFFFFF AND CALLER PUSH20 0xFFFFFFFFFFFFFFFFFFFFFFFFFFFFFFFFFFFFFFFF AND PUSH32 0x8C5BE1E5EBEC7D5BD14F71427D1E84F3DD0314C0F7B2291E5B200AC8C7C3B925 PUSH1 0x40 MLOAD PUSH1 0x40 MLOAD DUP1 SWAP2 SUB SWAP1 LOG4 POP POP POP JUMP JUMPDEST CALLER PUSH20 0xFFFFFFFFFFFFFFFFFFFFFFFFFFFFFFFFFFFFFFFF AND PUSH1 0x5 PUSH1 0x0 DUP4 DUP2 MSTORE PUSH1 0x20 ADD SWAP1 DUP2 MSTORE PUSH1 0x20 ADD PUSH1 0x0 KECCAK256 PUSH1 0x0 SWAP1 SLOAD SWAP1 PUSH2 0x100 EXP SWAP1 DIV PUSH20 0xFFFFFFFFFFFFFFFFFFFFFFFFFFFFFFFFFFFFFFFF AND PUSH20 0xFFFFFFFFFFFFFFFFFFFFFFFFFFFFFFFFFFFFFFFF AND EQ DUP1 PUSH2 0x612 JUMPI POP CALLER PUSH20 0xFFFFFFFFFFFFFFFFFFFFFFFFFFFFFFFFFFFFFFFF AND PUSH1 0x7 PUSH1 0x0 DUP4 DUP2 MSTORE PUSH1 0x20 ADD SWAP1 DUP2 MSTORE PUSH1 0x20 ADD PUSH1 0x0 KECCAK256 PUSH1 0x0 SWAP1 SLOAD SWAP1 PUSH2 0x100 EXP SWAP1 DIV PUSH20 0xFFFFFFFFFFFFFFFFFFFFFFFFFFFFFFFFFFFFFFFF AND PUSH20 0xFFFFFFFFFFFFFFFFFFFFFFFFFFFFFFFFFFFFFFFF AND EQ JUMPDEST PUSH2 0x61B JUMPI PUSH1 0x0 DUP1 REVERT JUMPDEST PUSH2 0x626 DUP4 DUP4 DUP4 PUSH2 0x93D JUMP JUMPDEST POP POP POP JUMP JUMPDEST PUSH1 0x0 PUSH1 0x5 PUSH1 0x0 DUP4 DUP2 MSTORE PUSH1 0x20 ADD SWAP1 DUP2 MSTORE PUSH1 0x20 ADD PUSH1 0x0 KECCAK256 PUSH1 0x0 SWAP1 SLOAD SWAP1 PUSH2 0x100 EXP SWAP1 DIV PUSH20 0xFFFFFFFFFFFFFFFFFFFFFFFFFFFFFFFFFFFFFFFF AND SWAP1 POP SWAP2 SWAP1 POP JUMP JUMPDEST PUSH1 0x0 PUSH1 0x6 PUSH1 0x0 DUP4 PUSH20 0xFFFFFFFFFFFFFFFFFFFFFFFFFFFFFFFFFFFFFFFF AND PUSH20 0xFFFFFFFFFFFFFFFFFFFFFFFFFFFFFFFFFFFFFFFF AND DUP2 MSTORE PUSH1 0x20 ADD SWAP1 DUP2 MSTORE PUSH1 0x20 ADD PUSH1 0x0 KECCAK256 SLOAD SWAP1 POP SWAP2 SWAP1 POP JUMP JUMPDEST PUSH2 0x6B9 PUSH2 0x7F7 JUMP JUMPDEST PUSH2 0x6C2 JUMPI PUSH1 0x0 DUP1 REVERT JUMPDEST PUSH1 0x0 PUSH20 0xFFFFFFFFFFFFFFFFFFFFFFFFFFFFFFFFFFFFFFFF AND PUSH1 0x0 DUP1 SLOAD SWAP1 PUSH2 0x100 EXP SWAP1 DIV PUSH20 0xFFFFFFFFFFFFFFFFFFFFFFFFFFFFFFFFFFFFFFFF AND PUSH20 0xFFFFFFFFFFFFFFFFFFFFFFFFFFFFFFFFFFFFFFFF AND PUSH32 0x8BE0079C531659141344CD1FD0A4F28419497F9722A3DAAFE3B4186F6B6457E0 PUSH1 0x40 MLOAD PUSH1 0x40 MLOAD DUP1 SWAP2 SUB SWAP1 LOG3 PUSH1 0x0 DUP1 PUSH1 0x0 PUSH2 0x100 EXP DUP2 SLOAD DUP2 PUSH20 0xFFFFFFFFFFFFFFFFFFFFFFFFFFFFFFFFFFFFFFFF MUL NOT AND SWAP1 DUP4 PUSH20 0xFFFFFFFFFFFFFFFFFFFFFFFFFFFFFFFFFFFFFFFF AND MUL OR SWAP1 SSTORE POP JUMP JUMPDEST PUSH1 0x5 PUSH1 0x20 MSTORE DUP1 PUSH1 0x0 MSTORE PUSH1 0x40 PUSH1 0x0 KECCAK256 PUSH1 0x0 SWAP2 POP SLOAD SWAP1 PUSH2 0x100 EXP SWAP1 DIV PUSH20 0xFFFFFFFFFFFFFFFFFFFFFFFFFFFFFFFFFFFFFFFF AND DUP2 JUMP JUMPDEST PUSH1 0x0 PUSH2 0x7BE DUP3 PUSH2 0xB1B JUMP JUMPDEST SWAP1 POP PUSH2 0x7CA DUP3 DUP3 PUSH2 0xB60 JUMP JUMPDEST POP POP JUMP JUMPDEST PUSH1 0x0 DUP1 PUSH1 0x0 SWAP1 SLOAD SWAP1 PUSH2 0x100 EXP SWAP1 DIV PUSH20 0xFFFFFFFFFFFFFFFFFFFFFFFFFFFFFFFFFFFFFFFF AND SWAP1 POP SWAP1 JUMP JUMPDEST PUSH1 0x0 DUP1 PUSH1 0x0 SWAP1 SLOAD SWAP1 PUSH2 0x100 EXP SWAP1 DIV PUSH20 0xFFFFFFFFFFFFFFFFFFFFFFFFFFFFFFFFFFFFFFFF AND PUSH20 0xFFFFFFFFFFFFFFFFFFFFFFFFFFFFFFFFFFFFFFFF AND CALLER PUSH20 0xFFFFFFFFFFFFFFFFFFFFFFFFFFFFFFFFFFFFFFFF AND EQ SWAP1 POP SWAP1 JUMP JUMPDEST PUSH1 0x4 DUP2 DUP2 SLOAD DUP2 LT PUSH2 0x85E JUMPI PUSH1 0x0 DUP1 REVERT JUMPDEST SWAP1 PUSH1 0x0 MSTORE PUSH1 0x20 PUSH1 0x0 KECCAK256 SWAP1 PUSH1 0x3 MUL ADD PUSH1 0x0 SWAP2 POP SWAP1 POP DUP1 PUSH1 0x0 ADD DUP1 SLOAD PUSH2 0x881 SWAP1 PUSH2 0x1571 JUMP JUMPDEST DUP1 PUSH1 0x1F ADD PUSH1 0x20 DUP1 SWAP2 DIV MUL PUSH1 0x20 ADD PUSH1 0x40 MLOAD SWAP1 DUP2 ADD PUSH1 0x40 MSTORE DUP1 SWAP3 SWAP2 SWAP1 DUP2 DUP2 MSTORE PUSH1 0x20 ADD DUP3 DUP1 SLOAD PUSH2 0x8AD SWAP1 PUSH2 0x1571 JUMP JUMPDEST DUP1 ISZERO PUSH2 0x8FA JUMPI DUP1 PUSH1 0x1F LT PUSH2 0x8CF JUMPI PUSH2 0x100 DUP1 DUP4 SLOAD DIV MUL DUP4 MSTORE SWAP2 PUSH1 0x20 ADD SWAP2 PUSH2 0x8FA JUMP JUMPDEST DUP3 ADD SWAP2 SWAP1 PUSH1 0x0 MSTORE PUSH1 0x20 PUSH1 0x0 KECCAK256 SWAP1 JUMPDEST DUP2 SLOAD DUP2 MSTORE SWAP1 PUSH1 0x1 ADD SWAP1 PUSH1 0x20 ADD DUP1 DUP4 GT PUSH2 0x8DD JUMPI DUP3 SWAP1 SUB PUSH1 0x1F AND DUP3 ADD SWAP2 JUMPDEST POP POP POP POP POP SWAP1 DUP1 PUSH1 0x1 ADD SLOAD SWAP1 DUP1 PUSH1 0x2 ADD PUSH1 0x0 SWAP1 SLOAD SWAP1 PUSH2 0x100 EXP SWAP1 DIV PUSH4 0xFFFFFFFF AND SWAP1 POP DUP4 JUMP JUMPDEST PUSH2 0x928 PUSH2 0x7F7 JUMP JUMPDEST PUSH2 0x931 JUMPI PUSH1 0x0 DUP1 REVERT JUMPDEST PUSH2 0x93A DUP2 PUSH2 0xD3B JUMP JUMPDEST POP JUMP JUMPDEST PUSH2 0x990 PUSH1 0x1 PUSH1 0x6 PUSH1 0x0 DUP6 PUSH20 0xFFFFFFFFFFFFFFFFFFFFFFFFFFFFFFFFFFFFFFFF AND PUSH20 0xFFFFFFFFFFFFFFFFFFFFFFFFFFFFFFFFFFFFFFFF AND DUP2 MSTORE PUSH1 0x20 ADD SWAP1 DUP2 MSTORE PUSH1 0x20 ADD PUSH1 0x0 KECCAK256 SLOAD PUSH2 0xE32 SWAP1 SWAP2 SWAP1 PUSH4 0xFFFFFFFF AND JUMP JUMPDEST PUSH1 0x6 PUSH1 0x0 DUP5 PUSH20 0xFFFFFFFFFFFFFFFFFFFFFFFFFFFFFFFFFFFFFFFF AND PUSH20 0xFFFFFFFFFFFFFFFFFFFFFFFFFFFFFFFFFFFFFFFF AND DUP2 MSTORE PUSH1 0x20 ADD SWAP1 DUP2 MSTORE PUSH1 0x20 ADD PUSH1 0x0 KECCAK256 DUP2 SWAP1 SSTORE POP PUSH2 0xA26 PUSH1 0x1 PUSH1 0x6 PUSH1 0x0 DUP7 PUSH20 0xFFFFFFFFFFFFFFFFFFFFFFFFFFFFFFFFFFFFFFFF AND PUSH20 0xFFFFFFFFFFFFFFFFFFFFFFFFFFFFFFFFFFFFFFFF AND DUP2 MSTORE PUSH1 0x20 ADD SWAP1 DUP2 MSTORE PUSH1 0x20 ADD PUSH1 0x0 KECCAK256 SLOAD PUSH2 0xE5E SWAP1 SWAP2 SWAP1 PUSH4 0xFFFFFFFF AND JUMP JUMPDEST PUSH1 0x6 PUSH1 0x0 DUP6 PUSH20 0xFFFFFFFFFFFFFFFFFFFFFFFFFFFFFFFFFFFFFFFF AND PUSH20 0xFFFFFFFFFFFFFFFFFFFFFFFFFFFFFFFFFFFFFFFF AND DUP2 MSTORE PUSH1 0x20 ADD SWAP1 DUP2 MSTORE PUSH1 0x20 ADD PUSH1 0x0 KECCAK256 DUP2 SWAP1 SSTORE POP DUP2 PUSH1 0x5 PUSH1 0x0 DUP4 DUP2 MSTORE PUSH1 0x20 ADD SWAP1 DUP2 MSTORE PUSH1 0x20 ADD PUSH1 0x0 KECCAK256 PUSH1 0x0 PUSH2 0x100 EXP DUP2 SLOAD DUP2 PUSH20 0xFFFFFFFFFFFFFFFFFFFFFFFFFFFFFFFFFFFFFFFF MUL NOT AND SWAP1 DUP4 PUSH20 0xFFFFFFFFFFFFFFFFFFFFFFFFFFFFFFFFFFFFFFFF AND MUL OR SWAP1 SSTORE POP DUP1 DUP3 PUSH20 0xFFFFFFFFFFFFFFFFFFFFFFFFFFFFFFFFFFFFFFFF AND DUP5 PUSH20 0xFFFFFFFFFFFFFFFFFFFFFFFFFFFFFFFFFFFFFFFF AND PUSH32 0xDDF252AD1BE2C89B69C2B068FC378DAA952BA7F163C4A11628F55A4DF523B3EF PUSH1 0x40 MLOAD PUSH1 0x40 MLOAD DUP1 SWAP2 SUB SWAP1 LOG4 POP POP POP JUMP JUMPDEST PUSH1 0x0 DUP1 DUP3 PUSH1 0x40 MLOAD PUSH1 0x20 ADD PUSH2 0xB2F SWAP2 SWAP1 PUSH2 0x15DF JUMP JUMPDEST PUSH1 0x40 MLOAD PUSH1 0x20 DUP2 DUP4 SUB SUB DUP2 MSTORE SWAP1 PUSH1 0x40 MSTORE DUP1 MLOAD SWAP1 PUSH1 0x20 ADD KECCAK256 PUSH1 0x0 SHR SWAP1 POP PUSH1 0x2 SLOAD DUP2 PUSH2 0xB58 SWAP2 SWAP1 PUSH2 0x1625 JUMP JUMPDEST SWAP2 POP POP SWAP2 SWAP1 POP JUMP JUMPDEST PUSH1 0x4 PUSH1 0x40 MLOAD DUP1 PUSH1 0x60 ADD PUSH1 0x40 MSTORE DUP1 DUP5 DUP2 MSTORE PUSH1 0x20 ADD DUP4 DUP2 MSTORE PUSH1 0x20 ADD PUSH1 0x1 PUSH4 0xFFFFFFFF AND DUP2 MSTORE POP SWAP1 DUP1 PUSH1 0x1 DUP2 SLOAD ADD DUP1 DUP3 SSTORE DUP1 SWAP2 POP POP PUSH1 0x1 SWAP1 SUB SWAP1 PUSH1 0x0 MSTORE PUSH1 0x20 PUSH1 0x0 KECCAK256 SWAP1 PUSH1 0x3 MUL ADD PUSH1 0x0 SWAP1 SWAP2 SWAP1 SWAP2 SWAP1 SWAP2 POP PUSH1 0x0 DUP3 ADD MLOAD DUP2 PUSH1 0x0 ADD SWAP1 DUP1 MLOAD SWAP1 PUSH1 0x20 ADD SWAP1 PUSH2 0xBC9 SWAP3 SWAP2 SWAP1 PUSH2 0xE85 JUMP JUMPDEST POP PUSH1 0x20 DUP3 ADD MLOAD DUP2 PUSH1 0x1 ADD SSTORE PUSH1 0x40 DUP3 ADD MLOAD DUP2 PUSH1 0x2 ADD PUSH1 0x0 PUSH2 0x100 EXP DUP2 SLOAD DUP2 PUSH4 0xFFFFFFFF MUL NOT AND SWAP1 DUP4 PUSH4 0xFFFFFFFF AND MUL OR SWAP1 SSTORE POP POP POP PUSH1 0x0 PUSH1 0x1 PUSH1 0x4 DUP1 SLOAD SWAP1 POP PUSH2 0xC11 SWAP2 SWAP1 PUSH2 0x1656 JUMP JUMPDEST SWAP1 POP CALLER PUSH1 0x5 PUSH1 0x0 DUP4 DUP2 MSTORE PUSH1 0x20 ADD SWAP1 DUP2 MSTORE PUSH1 0x20 ADD PUSH1 0x0 KECCAK256 PUSH1 0x0 PUSH2 0x100 EXP DUP2 SLOAD DUP2 PUSH20 0xFFFFFFFFFFFFFFFFFFFFFFFFFFFFFFFFFFFFFFFF MUL NOT AND SWAP1 DUP4 PUSH20 0xFFFFFFFFFFFFFFFFFFFFFFFFFFFFFFFFFFFFFFFF AND MUL OR SWAP1 SSTORE POP PUSH2 0xCB8 PUSH1 0x1 PUSH1 0x6 PUSH1 0x0 CALLER PUSH20 0xFFFFFFFFFFFFFFFFFFFFFFFFFFFFFFFFFFFFFFFF AND PUSH20 0xFFFFFFFFFFFFFFFFFFFFFFFFFFFFFFFFFFFFFFFF AND DUP2 MSTORE PUSH1 0x20 ADD SWAP1 DUP2 MSTORE PUSH1 0x20 ADD PUSH1 0x0 KECCAK256 SLOAD PUSH2 0xE32 SWAP1 SWAP2 SWAP1 PUSH4 0xFFFFFFFF AND JUMP JUMPDEST PUSH1 0x6 PUSH1 0x0 CALLER PUSH20 0xFFFFFFFFFFFFFFFFFFFFFFFFFFFFFFFFFFFFFFFF AND PUSH20 0xFFFFFFFFFFFFFFFFFFFFFFFFFFFFFFFFFFFFFFFF AND DUP2 MSTORE PUSH1 0x20 ADD SWAP1 DUP2 MSTORE PUSH1 0x20 ADD PUSH1 0x0 KECCAK256 DUP2 SWAP1 SSTORE POP PUSH32 0xC404AE7075893405FEF7BA0A0001D5AB3A05DE4F9D9854F10259D60D822063A6 DUP2 DUP5 DUP5 PUSH1 0x40 MLOAD PUSH2 0xD2E SWAP4 SWAP3 SWAP2 SWAP1 PUSH2 0x168A JUMP JUMPDEST PUSH1 0x40 MLOAD DUP1 SWAP2 SUB SWAP1 LOG1 POP POP POP JUMP JUMPDEST PUSH1 0x0 PUSH20 0xFFFFFFFFFFFFFFFFFFFFFFFFFFFFFFFFFFFFFFFF AND DUP2 PUSH20 0xFFFFFFFFFFFFFFFFFFFFFFFFFFFFFFFFFFFFFFFF AND EQ ISZERO PUSH2 0xD75 JUMPI PUSH1 0x0 DUP1 REVERT JUMPDEST DUP1 PUSH20 0xFFFFFFFFFFFFFFFFFFFFFFFFFFFFFFFFFFFFFFFF AND PUSH1 0x0 DUP1 SLOAD SWAP1 PUSH2 0x100 EXP SWAP1 DIV PUSH20 0xFFFFFFFFFFFFFFFFFFFFFFFFFFFFFFFFFFFFFFFF AND PUSH20 0xFFFFFFFFFFFFFFFFFFFFFFFFFFFFFFFFFFFFFFFF AND PUSH32 0x8BE0079C531659141344CD1FD0A4F28419497F9722A3DAAFE3B4186F6B6457E0 PUSH1 0x40 MLOAD PUSH1 0x40 MLOAD DUP1 SWAP2 SUB SWAP1 LOG3 DUP1 PUSH1 0x0 DUP1 PUSH2 0x100 EXP DUP2 SLOAD DUP2 PUSH20 0xFFFFFFFFFFFFFFFFFFFFFFFFFFFFFFFFFFFFFFFF MUL NOT AND SWAP1 DUP4 PUSH20 0xFFFFFFFFFFFFFFFFFFFFFFFFFFFFFFFFFFFFFFFF AND MUL OR SWAP1 SSTORE POP POP JUMP JUMPDEST PUSH1 0x0 DUP1 DUP3 DUP5 PUSH2 0xE41 SWAP2 SWAP1 PUSH2 0x16C8 JUMP JUMPDEST SWAP1 POP DUP4 DUP2 LT ISZERO PUSH2 0xE54 JUMPI PUSH2 0xE53 PUSH2 0x171E JUMP JUMPDEST JUMPDEST DUP1 SWAP2 POP POP SWAP3 SWAP2 POP POP JUMP JUMPDEST PUSH1 0x0 DUP3 DUP3 GT ISZERO PUSH2 0xE71 JUMPI PUSH2 0xE70 PUSH2 0x171E JUMP JUMPDEST JUMPDEST DUP2 DUP4 PUSH2 0xE7D SWAP2 SWAP1 PUSH2 0x1656 JUMP JUMPDEST SWAP1 POP SWAP3 SWAP2 POP POP JUMP JUMPDEST DUP3 DUP1 SLOAD PUSH2 0xE91 SWAP1 PUSH2 0x1571 JUMP JUMPDEST SWAP1 PUSH1 0x0 MSTORE PUSH1 0x20 PUSH1 0x0 KECCAK256 SWAP1 PUSH1 0x1F ADD PUSH1 0x20 SWAP1 DIV DUP2 ADD SWAP3 DUP3 PUSH2 0xEB3 JUMPI PUSH1 0x0 DUP6 SSTORE PUSH2 0xEFA JUMP JUMPDEST DUP3 PUSH1 0x1F LT PUSH2 0xECC JUMPI DUP1 MLOAD PUSH1 0xFF NOT AND DUP4 DUP1 ADD OR DUP6 SSTORE PUSH2 0xEFA JUMP JUMPDEST DUP3 DUP1 ADD PUSH1 0x1 ADD DUP6 SSTORE DUP3 ISZERO PUSH2 0xEFA JUMPI SWAP2 DUP3 ADD JUMPDEST DUP3 DUP2 GT ISZERO PUSH2 0xEF9 JUMPI DUP3 MLOAD DUP3 SSTORE SWAP2 PUSH1 0x20 ADD SWAP2 SWAP1 PUSH1 0x1 ADD SWAP1 PUSH2 0xEDE JUMP JUMPDEST JUMPDEST POP SWAP1 POP PUSH2 0xF07 SWAP2 SWAP1 PUSH2 0xF0B JUMP JUMPDEST POP SWAP1 JUMP JUMPDEST JUMPDEST DUP1 DUP3 GT ISZERO PUSH2 0xF24 JUMPI PUSH1 0x0 DUP2 PUSH1 0x0 SWAP1 SSTORE POP PUSH1 0x1 ADD PUSH2 0xF0C JUMP JUMPDEST POP SWAP1 JUMP JUMPDEST PUSH1 0x0 PUSH1 0x40 MLOAD SWAP1 POP SWAP1 JUMP JUMPDEST PUSH1 0x0 DUP1 REVERT JUMPDEST PUSH1 0x0 DUP1 REVERT JUMPDEST PUSH1 0x0 PUSH20 0xFFFFFFFFFFFFFFFFFFFFFFFFFFFFFFFFFFFFFFFF DUP3 AND SWAP1 POP SWAP2 SWAP1 POP JUMP JUMPDEST PUSH1 0x0 PUSH2 0xF67 DUP3 PUSH2 0xF3C JUMP JUMPDEST SWAP1 POP SWAP2 SWAP1 POP JUMP JUMPDEST PUSH2 0xF77 DUP2 PUSH2 0xF5C JUMP JUMPDEST DUP2 EQ PUSH2 0xF82 JUMPI PUSH1 0x0 DUP1 REVERT JUMPDEST POP JUMP JUMPDEST PUSH1 0x0 DUP2 CALLDATALOAD SWAP1 POP PUSH2 0xF94 DUP2 PUSH2 0xF6E JUMP JUMPDEST SWAP3 SWAP2 POP POP JUMP JUMPDEST PUSH1 0x0 PUSH1 0x20 DUP3 DUP5 SUB SLT ISZERO PUSH2 0xFB0 JUMPI PUSH2 0xFAF PUSH2 0xF32 JUMP JUMPDEST JUMPDEST PUSH1 0x0 PUSH2 0xFBE DUP5 DUP3 DUP6 ADD PUSH2 0xF85 JUMP JUMPDEST SWAP2 POP POP SWAP3 SWAP2 POP POP JUMP JUMPDEST PUSH1 0x0 DUP2 MLOAD SWAP1 POP SWAP2 SWAP1 POP JUMP JUMPDEST PUSH1 0x0 DUP3 DUP3 MSTORE PUSH1 0x20 DUP3 ADD SWAP1 POP SWAP3 SWAP2 POP POP JUMP JUMPDEST PUSH1 0x0 DUP2 SWAP1 POP PUSH1 0x20 DUP3 ADD SWAP1 POP SWAP2 SWAP1 POP JUMP JUMPDEST PUSH1 0x0 DUP2 SWAP1 POP SWAP2 SWAP1 POP JUMP JUMPDEST PUSH2 0x1006 DUP2 PUSH2 0xFF3 JUMP JUMPDEST DUP3 MSTORE POP POP JUMP JUMPDEST PUSH1 0x0 PUSH2 0x1018 DUP4 DUP4 PUSH2 0xFFD JUMP JUMPDEST PUSH1 0x20 DUP4 ADD SWAP1 POP SWAP3 SWAP2 POP POP JUMP JUMPDEST PUSH1 0x0 PUSH1 0x20 DUP3 ADD SWAP1 POP SWAP2 SWAP1 POP JUMP JUMPDEST PUSH1 0x0 PUSH2 0x103C DUP3 PUSH2 0xFC7 JUMP JUMPDEST PUSH2 0x1046 DUP2 DUP6 PUSH2 0xFD2 JUMP JUMPDEST SWAP4 POP PUSH2 0x1051 DUP4 PUSH2 0xFE3 JUMP JUMPDEST DUP1 PUSH1 0x0 JUMPDEST DUP4 DUP2 LT ISZERO PUSH2 0x1082 JUMPI DUP2 MLOAD PUSH2 0x1069 DUP9 DUP3 PUSH2 0x100C JUMP JUMPDEST SWAP8 POP PUSH2 0x1074 DUP4 PUSH2 0x1024 JUMP JUMPDEST SWAP3 POP POP PUSH1 0x1 DUP2 ADD SWAP1 POP PUSH2 0x1055 JUMP JUMPDEST POP DUP6 SWAP4 POP POP POP POP SWAP3 SWAP2 POP POP JUMP JUMPDEST PUSH1 0x0 PUSH1 0x20 DUP3 ADD SWAP1 POP DUP2 DUP2 SUB PUSH1 0x0 DUP4 ADD MSTORE PUSH2 0x10A9 DUP2 DUP5 PUSH2 0x1031 JUMP JUMPDEST SWAP1 POP SWAP3 SWAP2 POP POP JUMP JUMPDEST PUSH2 0x10BA DUP2 PUSH2 0xFF3 JUMP JUMPDEST DUP2 EQ PUSH2 0x10C5 JUMPI PUSH1 0x0 DUP1 REVERT JUMPDEST POP JUMP JUMPDEST PUSH1 0x0 DUP2 CALLDATALOAD SWAP1 POP PUSH2 0x10D7 DUP2 PUSH2 0x10B1 JUMP JUMPDEST SWAP3 SWAP2 POP POP JUMP JUMPDEST PUSH1 0x0 DUP1 PUSH1 0x40 DUP4 DUP6 SUB SLT ISZERO PUSH2 0x10F4 JUMPI PUSH2 0x10F3 PUSH2 0xF32 JUMP JUMPDEST JUMPDEST PUSH1 0x0 PUSH2 0x1102 DUP6 DUP3 DUP7 ADD PUSH2 0xF85 JUMP JUMPDEST SWAP3 POP POP PUSH1 0x20 PUSH2 0x1113 DUP6 DUP3 DUP7 ADD PUSH2 0x10C8 JUMP JUMPDEST SWAP2 POP POP SWAP3 POP SWAP3 SWAP1 POP JUMP JUMPDEST PUSH1 0x0 DUP1 PUSH1 0x0 PUSH1 0x60 DUP5 DUP7 SUB SLT ISZERO PUSH2 0x1136 JUMPI PUSH2 0x1135 PUSH2 0xF32 JUMP JUMPDEST JUMPDEST PUSH1 0x0 PUSH2 0x1144 DUP7 DUP3 DUP8 ADD PUSH2 0xF85 JUMP JUMPDEST SWAP4 POP POP PUSH1 0x20 PUSH2 0x1155 DUP7 DUP3 DUP8 ADD PUSH2 0xF85 JUMP JUMPDEST SWAP3 POP POP PUSH1 0x40 PUSH2 0x1166 DUP7 DUP3 DUP8 ADD PUSH2 0x10C8 JUMP JUMPDEST SWAP2 POP POP SWAP3 POP SWAP3 POP SWAP3 JUMP JUMPDEST PUSH1 0x0 PUSH1 0x20 DUP3 DUP5 SUB SLT ISZERO PUSH2 0x1186 JUMPI PUSH2 0x1185 PUSH2 0xF32 JUMP JUMPDEST JUMPDEST PUSH1 0x0 PUSH2 0x1194 DUP5 DUP3 DUP6 ADD PUSH2 0x10C8 JUMP JUMPDEST SWAP2 POP POP SWAP3 SWAP2 POP POP JUMP JUMPDEST PUSH2 0x11A6 DUP2 PUSH2 0xF5C JUMP JUMPDEST DUP3 MSTORE POP POP JUMP JUMPDEST PUSH1 0x0 PUSH1 0x20 DUP3 ADD SWAP1 POP PUSH2 0x11C1 PUSH1 0x0 DUP4 ADD DUP5 PUSH2 0x119D JUMP JUMPDEST SWAP3 SWAP2 POP POP JUMP JUMPDEST PUSH2 0x11D0 DUP2 PUSH2 0xFF3 JUMP JUMPDEST DUP3 MSTORE POP POP JUMP JUMPDEST PUSH1 0x0 PUSH1 0x20 DUP3 ADD SWAP1 POP PUSH2 0x11EB PUSH1 0x0 DUP4 ADD DUP5 PUSH2 0x11C7 JUMP JUMPDEST SWAP3 SWAP2 POP POP JUMP JUMPDEST PUSH1 0x0 DUP1 REVERT JUMPDEST PUSH1 0x0 DUP1 REVERT JUMPDEST PUSH1 0x0 PUSH1 0x1F NOT PUSH1 0x1F DUP4 ADD AND SWAP1 POP SWAP2 SWAP1 POP JUMP JUMPDEST PUSH32 0x4E487B7100000000000000000000000000000000000000000000000000000000 PUSH1 0x0 MSTORE PUSH1 0x41 PUSH1 0x4 MSTORE PUSH1 0x24 PUSH1 0x0 REVERT JUMPDEST PUSH2 0x1244 DUP3 PUSH2 0x11FB JUMP JUMPDEST DUP2 ADD DUP2 DUP2 LT PUSH8 0xFFFFFFFFFFFFFFFF DUP3 GT OR ISZERO PUSH2 0x1263 JUMPI PUSH2 0x1262 PUSH2 0x120C JUMP JUMPDEST JUMPDEST DUP1 PUSH1 0x40 MSTORE POP POP POP JUMP JUMPDEST PUSH1 0x0 PUSH2 0x1276 PUSH2 0xF28 JUMP JUMPDEST SWAP1 POP PUSH2 0x1282 DUP3 DUP3 PUSH2 0x123B JUMP JUMPDEST SWAP2 SWAP1 POP JUMP JUMPDEST PUSH1 0x0 PUSH8 0xFFFFFFFFFFFFFFFF DUP3 GT ISZERO PUSH2 0x12A2 JUMPI PUSH2 0x12A1 PUSH2 0x120C JUMP JUMPDEST JUMPDEST PUSH2 0x12AB DUP3 PUSH2 0x11FB JUMP JUMPDEST SWAP1 POP PUSH1 0x20 DUP2 ADD SWAP1 POP SWAP2 SWAP1 POP JUMP JUMPDEST DUP3 DUP2 DUP4 CALLDATACOPY PUSH1 0x0 DUP4 DUP4 ADD MSTORE POP POP POP JUMP JUMPDEST PUSH1 0x0 PUSH2 0x12DA PUSH2 0x12D5 DUP5 PUSH2 0x1287 JUMP JUMPDEST PUSH2 0x126C JUMP JUMPDEST SWAP1 POP DUP3 DUP2 MSTORE PUSH1 0x20 DUP2 ADD DUP5 DUP5 DUP5 ADD GT ISZERO PUSH2 0x12F6 JUMPI PUSH2 0x12F5 PUSH2 0x11F6 JUMP JUMPDEST JUMPDEST PUSH2 0x1301 DUP5 DUP3 DUP6 PUSH2 0x12B8 JUMP JUMPDEST POP SWAP4 SWAP3 POP POP POP JUMP JUMPDEST PUSH1 0x0 DUP3 PUSH1 0x1F DUP4 ADD SLT PUSH2 0x131E JUMPI PUSH2 0x131D PUSH2 0x11F1 JUMP JUMPDEST JUMPDEST DUP2 CALLDATALOAD PUSH2 0x132E DUP5 DUP3 PUSH1 0x20 DUP7 ADD PUSH2 0x12C7 JUMP JUMPDEST SWAP2 POP POP SWAP3 SWAP2 POP POP JUMP JUMPDEST PUSH1 0x0 PUSH1 0x20 DUP3 DUP5 SUB SLT ISZERO PUSH2 0x134D JUMPI PUSH2 0x134C PUSH2 0xF32 JUMP JUMPDEST JUMPDEST PUSH1 0x0 DUP3 ADD CALLDATALOAD PUSH8 0xFFFFFFFFFFFFFFFF DUP2 GT ISZERO PUSH2 0x136B JUMPI PUSH2 0x136A PUSH2 0xF37 JUMP JUMPDEST JUMPDEST PUSH2 0x1377 DUP5 DUP3 DUP6 ADD PUSH2 0x1309 JUMP JUMPDEST SWAP2 POP POP SWAP3 SWAP2 POP POP JUMP JUMPDEST PUSH1 0x0 DUP2 ISZERO ISZERO SWAP1 POP SWAP2 SWAP1 POP JUMP JUMPDEST PUSH2 0x1395 DUP2 PUSH2 0x1380 JUMP JUMPDEST DUP3 MSTORE POP POP JUMP JUMPDEST PUSH1 0x0 PUSH1 0x20 DUP3 ADD SWAP1 POP PUSH2 0x13B0 PUSH1 0x0 DUP4 ADD DUP5 PUSH2 0x138C JUMP JUMPDEST SWAP3 SWAP2 POP POP JUMP JUMPDEST PUSH1 0x0 DUP2 MLOAD SWAP1 POP SWAP2 SWAP1 POP JUMP JUMPDEST PUSH1 0x0 DUP3 DUP3 MSTORE PUSH1 0x20 DUP3 ADD SWAP1 POP SWAP3 SWAP2 POP POP JUMP JUMPDEST PUSH1 0x0 JUMPDEST DUP4 DUP2 LT ISZERO PUSH2 0x13F0 JUMPI DUP1 DUP3 ADD MLOAD DUP2 DUP5 ADD MSTORE PUSH1 0x20 DUP2 ADD SWAP1 POP PUSH2 0x13D5 JUMP JUMPDEST DUP4 DUP2 GT ISZERO PUSH2 0x13FF JUMPI PUSH1 0x0 DUP5 DUP5 ADD MSTORE JUMPDEST POP POP POP POP JUMP JUMPDEST PUSH1 0x0 PUSH2 0x1410 DUP3 PUSH2 0x13B6 JUMP JUMPDEST PUSH2 0x141A DUP2 DUP6 PUSH2 0x13C1 JUMP JUMPDEST SWAP4 POP PUSH2 0x142A DUP2 DUP6 PUSH1 0x20 DUP7 ADD PUSH2 0x13D2 JUMP JUMPDEST PUSH2 0x1433 DUP2 PUSH2 0x11FB JUMP JUMPDEST DUP5 ADD SWAP2 POP POP SWAP3 SWAP2 POP POP JUMP JUMPDEST PUSH1 0x0 PUSH4 0xFFFFFFFF DUP3 AND SWAP1 POP SWAP2 SWAP1 POP JUMP JUMPDEST PUSH2 0x1457 DUP2 PUSH2 0x143E JUMP JUMPDEST DUP3 MSTORE POP POP JUMP JUMPDEST PUSH1 0x0 PUSH1 0x60 DUP3 ADD SWAP1 POP DUP2 DUP2 SUB PUSH1 0x0 DUP4 ADD MSTORE PUSH2 0x1477 DUP2 DUP7 PUSH2 0x1405 JUMP JUMPDEST SWAP1 POP PUSH2 0x1486 PUSH1 0x20 DUP4 ADD DUP6 PUSH2 0x11C7 JUMP JUMPDEST PUSH2 0x1493 PUSH1 0x40 DUP4 ADD DUP5 PUSH2 0x144E JUMP JUMPDEST SWAP5 SWAP4 POP POP POP POP JUMP JUMPDEST PUSH32 0x4E487B7100000000000000000000000000000000000000000000000000000000 PUSH1 0x0 MSTORE PUSH1 0x32 PUSH1 0x4 MSTORE PUSH1 0x24 PUSH1 0x0 REVERT JUMPDEST PUSH32 0x4E487B7100000000000000000000000000000000000000000000000000000000 PUSH1 0x0 MSTORE PUSH1 0x11 PUSH1 0x4 MSTORE PUSH1 0x24 PUSH1 0x0 REVERT JUMPDEST PUSH1 0x0 PUSH2 0x1504 DUP3 PUSH2 0xFF3 JUMP JUMPDEST SWAP2 POP PUSH32 0xFFFFFFFFFFFFFFFFFFFFFFFFFFFFFFFFFFFFFFFFFFFFFFFFFFFFFFFFFFFFFFFF DUP3 EQ ISZERO PUSH2 0x1537 JUMPI PUSH2 0x1536 PUSH2 0x14CA JUMP JUMPDEST JUMPDEST PUSH1 0x1 DUP3 ADD SWAP1 POP SWAP2 SWAP1 POP JUMP JUMPDEST PUSH32 0x4E487B7100000000000000000000000000000000000000000000000000000000 PUSH1 0x0 MSTORE PUSH1 0x22 PUSH1 0x4 MSTORE PUSH1 0x24 PUSH1 0x0 REVERT JUMPDEST PUSH1 0x0 PUSH1 0x2 DUP3 DIV SWAP1 POP PUSH1 0x1 DUP3 AND DUP1 PUSH2 0x1589 JUMPI PUSH1 0x7F DUP3 AND SWAP2 POP JUMPDEST PUSH1 0x20 DUP3 LT DUP2 EQ ISZERO PUSH2 0x159D JUMPI PUSH2 0x159C PUSH2 0x1542 JUMP JUMPDEST JUMPDEST POP SWAP2 SWAP1 POP JUMP JUMPDEST PUSH1 0x0 DUP2 SWAP1 POP SWAP3 SWAP2 POP POP JUMP JUMPDEST PUSH1 0x0 PUSH2 0x15B9 DUP3 PUSH2 0x13B6 JUMP JUMPDEST PUSH2 0x15C3 DUP2 DUP6 PUSH2 0x15A3 JUMP JUMPDEST SWAP4 POP PUSH2 0x15D3 DUP2 DUP6 PUSH1 0x20 DUP7 ADD PUSH2 0x13D2 JUMP JUMPDEST DUP1 DUP5 ADD SWAP2 POP POP SWAP3 SWAP2 POP POP JUMP JUMPDEST PUSH1 0x0 PUSH2 0x15EB DUP3 DUP5 PUSH2 0x15AE JUMP JUMPDEST SWAP2 POP DUP2 SWAP1 POP SWAP3 SWAP2 POP POP JUMP JUMPDEST PUSH32 0x4E487B7100000000000000000000000000000000000000000000000000000000 PUSH1 0x0 MSTORE PUSH1 0x12 PUSH1 0x4 MSTORE PUSH1 0x24 PUSH1 0x0 REVERT JUMPDEST PUSH1 0x0 PUSH2 0x1630 DUP3 PUSH2 0xFF3 JUMP JUMPDEST SWAP2 POP PUSH2 0x163B DUP4 PUSH2 0xFF3 JUMP JUMPDEST SWAP3 POP DUP3 PUSH2 0x164B JUMPI PUSH2 0x164A PUSH2 0x15F6 JUMP JUMPDEST JUMPDEST DUP3 DUP3 MOD SWAP1 POP SWAP3 SWAP2 POP POP JUMP JUMPDEST PUSH1 0x0 PUSH2 0x1661 DUP3 PUSH2 0xFF3 JUMP JUMPDEST SWAP2 POP PUSH2 0x166C DUP4 PUSH2 0xFF3 JUMP JUMPDEST SWAP3 POP DUP3 DUP3 LT ISZERO PUSH2 0x167F JUMPI PUSH2 0x167E PUSH2 0x14CA JUMP JUMPDEST JUMPDEST DUP3 DUP3 SUB SWAP1 POP SWAP3 SWAP2 POP POP JUMP JUMPDEST PUSH1 0x0 PUSH1 0x60 DUP3 ADD SWAP1 POP PUSH2 0x169F PUSH1 0x0 DUP4 ADD DUP7 PUSH2 0x11C7 JUMP JUMPDEST DUP2 DUP2 SUB PUSH1 0x20 DUP4 ADD MSTORE PUSH2 0x16B1 DUP2 DUP6 PUSH2 0x1405 JUMP JUMPDEST SWAP1 POP PUSH2 0x16C0 PUSH1 0x40 DUP4 ADD DUP5 PUSH2 0x11C7 JUMP JUMPDEST SWAP5 SWAP4 POP POP POP POP JUMP JUMPDEST PUSH1 0x0 PUSH2 0x16D3 DUP3 PUSH2 0xFF3 JUMP JUMPDEST SWAP2 POP PUSH2 0x16DE DUP4 PUSH2 0xFF3 JUMP JUMPDEST SWAP3 POP DUP3 PUSH32 0xFFFFFFFFFFFFFFFFFFFFFFFFFFFFFFFFFFFFFFFFFFFFFFFFFFFFFFFFFFFFFFFF SUB DUP3 GT ISZERO PUSH2 0x1713 JUMPI PUSH2 0x1712 PUSH2 0x14CA JUMP JUMPDEST JUMPDEST DUP3 DUP3 ADD SWAP1 POP SWAP3 SWAP2 POP POP JUMP JUMPDEST PUSH32 0x4E487B7100000000000000000000000000000000000000000000000000000000 PUSH1 0x0 MSTORE PUSH1 0x1 PUSH1 0x4 MSTORE PUSH1 0x24 PUSH1 0x0 REVERT INVALID LOG2 PUSH5 0x6970667358 0x22 SLT KECCAK256 PUSH23 0x876FE49B92D57059C9407A858639B9C2421C4455A8CEEB PC 0x5D CALLDATALOAD 0x2E 0xEF 0xE9 0xC3 0xD6 PUSH5 0x736F6C6343 STOP ADDMOD EXP STOP CALLER "},"gasEstimates":{"creation":{"codeDepositCost":"1203800","executionCost":"infinite","totalCost":"infinite"},"external":{"approve(address,uint256)":"29147","balanceOf(address)":"2930","createRandomHero(string)":"infinite","getHeroesByOwner(address)":"infinite","heroToOwner(uint256)":"2839","heroes(uint256)":"infinite","isOwner()":"2562","owner()":"2566","ownerOf(uint256)":"2932","renounceOwnership()":"30405","transferFrom(address,address,uint256)":"infinite","transferOwnership(address)":"30782"},"internal":{"_transfer(address,address,uint256)":"infinite"}},"methodIdentifiers":{"approve(address,uint256)":"095ea7b3","balanceOf(address)":"70a08231","createRandomHero(string)":"8a72ec00","getHeroesByOwner(address)":"07c99f4e","heroToOwner(uint256)":"7b0f0a19","heroes(uint256)":"a8d4a03b","isOwner()":"8f32d59b","owner()":"8da5cb5b","ownerOf(uint256)":"6352211e","renounceOwnership()":"715018a6","transferFrom(address,address,uint256)":"23b872dd","transferOwnership(address)":"f2fde38b"}},"storageLayout":{"storage":[{"astId":344,"contract":"HeroOwnership.sol:HeroOwnership","label":"_owner","offset":0,"slot":"0","type":"t_address"},{"astId":474,"contract":"HeroOwnership.sol:HeroOwnership","label":"dnaDigits","offset":0,"slot":"1","type":"t_uint256"},{"astId":479,"contract":"HeroOwnership.sol:HeroOwnership","label":"dnaModulus","offset":0,"slot":"2","type":"t_uint256"},{"astId":482,"contract":"HeroOwnership.sol:HeroOwnership","label":"cooldownTime","offset":0,"slot":"3","type":"t_uint256"},{"astId":501,"contract":"HeroOwnership.sol:HeroOwnership","label":"heroes","offset":0,"slot":"4","type":"t_array(t_struct(Hero)497_storage)dyn_storage"},{"astId":505,"contract":"HeroOwnership.sol:HeroOwnership","label":"heroToOwner","offset":0,"slot":"5","type":"t_mapping(t_uint256,t_address)"},{"astId":509,"contract":"HeroOwnership.sol:HeroOwnership","label":"ownerHeroCount","offset":0,"slot":"6","type":"t_mapping(t_address,t_uint256)"},{"astId":680,"contract":"HeroOwnership.sol:HeroOwnership","label":"heroApprovals","offset":0,"slot":"7","type":"t_mapping(t_uint256,t_address)"}],"types":{"t_address":{"encoding":"inplace","label":"address","numberOfBytes":"20"},"t_array(t_struct(Hero)497_storage)dyn_storage":{"base":"t_struct(Hero)497_storage","encoding":"dynamic_array","label":"struct HeroFactory.Hero[]","numberOfBytes":"32"},"t_mapping(t_address,t_uint256)":{"encoding":"mapping","key":"t_address","label":"mapping(address => uint256)","numberOfBytes":"32","value":"t_uint256"},"t_mapping(t_uint256,t_address)":{"encoding":"mapping","key":"t_uint256","label":"mapping(uint256 => address)","numberOfBytes":"32","value":"t_address"},"t_string_storage":{"encoding":"bytes","label":"string","numberOfBytes":"32"},"t_struct(Hero)497_storage":{"encoding":"inplace","label":"struct HeroFactory.Hero","members":[{"astId":492,"contract":"HeroOwnership.sol:HeroOwnership","label":"name","offset":0,"slot":"0","type":"t_string_storage"},{"astId":494,"contract":"HeroOwnership.sol:HeroOwnership","label":"dna","offset":0,"slot":"1","type":"t_uint256"},{"astId":496,"contract":"HeroOwnership.sol:HeroOwnership","label":"level","offset":0,"slot":"2","type":"t_uint32"}],"numberOfBytes":"96"},"t_uint256":{"encoding":"inplace","label":"uint256","numberOfBytes":"32"},"t_uint32":{"encoding":"inplace","label":"uint32","numberOfBytes":"4"}}},"userdoc":{"kind":"user","methods":{"renounceOwnership()":{"notice":"Renouncing to ownership will leave the contract without an owner. It will not be possible to call the functions with the `onlyOwner` modifier anymore."}},"version":1}}