{"abi":[{"anonymous":false,"inputs":[{"indexed":false,"internalType":"uint256","name":"heroId","type":"uint256"},{"indexed":false,"internalType":"string","name":"name","type":"string"},{"indexed":false,"internalType":"uint256","name":"dna","type":"uint256"}],"name":"NewHero","type":"event"},{"anonymous":false,"inputs":[{"indexed":true,"internalType":"address","name":"previousOwner","type":"address"},{"indexed":true,"internalType":"address","name":"newOwner","type":"address"}],"name":"OwnershipTransferred","type":"event"},{"inputs":[{"internalType":"string","name":"_name","type":"string"}],"name":"createRandomHero","outputs":[],"stateMutability":"nonpayable","type":"function"},{"inputs":[{"internalType":"uint256","name":"","type":"uint256"}],"name":"heroToOwner","outputs":[{"internalType":"address","name":"","type":"address"}],"stateMutability":"view","type":"function"},{"inputs":[{"internalType":"uint256","name":"","type":"uint256"}],"name":"heroes","outputs":[{"internalType":"string","name":"name","type":"string"},{"internalType":"uint256","name":"dna","type":"uint256"},{"internalType":"uint32","name":"level","type":"uint32"}],"stateMutability":"view","type":"function"},{"inputs":[],"name":"isOwner","outputs":[{"internalType":"bool","name":"","type":"bool"}],"stateMutability":"view","type":"function"},{"inputs":[],"name":"owner","outputs":[{"internalType":"address","name":"","type":"address"}],"stateMutability":"view","type":"function"},{"inputs":[],"name":"renounceOwnership","outputs":[],"stateMutability":"nonpayable","type":"function"},{"inputs":[{"internalType":"address","name":"newOwner","type":"address"}],"name":"transferOwnership","outputs":[],"stateMutability":"nonpayable","type":"function"}],"devdoc":{"kind":"dev","methods":{"isOwner()":{"returns":{"_0":"true if `msg.sender` is the owner of the contract."}},"owner()":{"returns":{"_0":"the address of the owner."}},"renounceOwnership()":{"details":"Allows the current owner to relinquish control of the contract."},"transferOwnership(address)":{"details":"Allows the current owner to transfer control of the contract to a newOwner.","params":{"newOwner":"The address to transfer ownership to."}}},"version":1},"evm":{"assembly":"    /* \"HeroOwnership.sol\":5057:6236  contract HeroFactory is Ownable {... */\n  mstore(0x40, 0x80)\n    /* \"HeroOwnership.sol\":5206:5208  16 */\n  0x10\n    /* \"HeroOwnership.sol\":5186:5208  uint256 dnaDigits = 16 */\n  0x01\n  sstore\n    /* \"HeroOwnership.sol\":5237:5246  dnaDigits */\n  sload(0x01)\n    /* \"HeroOwnership.sol\":5233:5235  10 */\n  0x0a\n    /* \"HeroOwnership.sol\":5233:5246  10**dnaDigits */\n  tag_1\n  swap2\n  swap1\n  tag_2\n  jump\t// in\ntag_1:\n    /* \"HeroOwnership.sol\":5212:5246  uint256 dnaModulus = 10**dnaDigits */\n  0x02\n  sstore\n    /* \"HeroOwnership.sol\":5273:5279  1 days */\n  0x015180\n    /* \"HeroOwnership.sol\":5250:5279  uint256 cooldownTime = 1 days */\n  0x03\n  sstore\n    /* \"HeroOwnership.sol\":5057:6236  contract HeroFactory is Ownable {... */\n  callvalue\n  dup1\n  iszero\n  tag_3\n  jumpi\n  0x00\n  dup1\n  revert\ntag_3:\n  pop\n    /* \"HeroOwnership.sol\":3604:3614  msg.sender */\n  caller\n    /* \"HeroOwnership.sol\":3595:3601  _owner */\n  0x00\n  dup1\n    /* \"HeroOwnership.sol\":3595:3614  _owner = msg.sender */\n  0x0100\n  exp\n  dup2\n  sload\n  dup2\n  0xffffffffffffffffffffffffffffffffffffffff\n  mul\n  not\n  and\n  swap1\n  dup4\n  0xffffffffffffffffffffffffffffffffffffffff\n  and\n  mul\n  or\n  swap1\n  sstore\n  pop\n    /* \"HeroOwnership.sol\":3658:3664  _owner */\n  0x00\n  dup1\n  sload\n  swap1\n  0x0100\n  exp\n  swap1\n  div\n  0xffffffffffffffffffffffffffffffffffffffff\n  and\n    /* \"HeroOwnership.sol\":3625:3665  OwnershipTransferred(address(0), _owner) */\n  0xffffffffffffffffffffffffffffffffffffffff\n  and\n    /* \"HeroOwnership.sol\":3654:3655  0 */\n  0x00\n    /* \"HeroOwnership.sol\":3625:3665  OwnershipTransferred(address(0), _owner) */\n  0xffffffffffffffffffffffffffffffffffffffff\n  and\n  0x8be0079c531659141344cd1fd0a4f28419497f9722a3daafe3b4186f6b6457e0\n  mload(0x40)\n  mload(0x40)\n  dup1\n  swap2\n  sub\n  swap1\n  log3\n    /* \"HeroOwnership.sol\":5057:6236  contract HeroFactory is Ownable {... */\n  jump(tag_6)\n    /* \"#utility.yul\":7:187   */\ntag_7:\n    /* \"#utility.yul\":55:132   */\n  0x4e487b7100000000000000000000000000000000000000000000000000000000\n    /* \"#utility.yul\":52:53   */\n  0x00\n    /* \"#utility.yul\":45:133   */\n  mstore\n    /* \"#utility.yul\":152:156   */\n  0x11\n    /* \"#utility.yul\":149:150   */\n  0x04\n    /* \"#utility.yul\":142:157   */\n  mstore\n    /* \"#utility.yul\":176:180   */\n  0x24\n    /* \"#utility.yul\":173:174   */\n  0x00\n    /* \"#utility.yul\":166:181   */\n  revert\n    /* \"#utility.yul\":193:295   */\ntag_8:\n    /* \"#utility.yul\":235:243   */\n  0x00\n    /* \"#utility.yul\":282:287   */\n  dup2\n    /* \"#utility.yul\":279:280   */\n  0x01\n    /* \"#utility.yul\":275:288   */\n  shr\n    /* \"#utility.yul\":254:288   */\n  swap1\n  pop\n    /* \"#utility.yul\":193:295   */\n  swap2\n  swap1\n  pop\n  jump\t// out\n    /* \"#utility.yul\":301:1149   */\ntag_9:\n    /* \"#utility.yul\":362:367   */\n  0x00\n    /* \"#utility.yul\":369:373   */\n  dup1\n    /* \"#utility.yul\":393:399   */\n  dup3\n    /* \"#utility.yul\":384:399   */\n  swap2\n  pop\n    /* \"#utility.yul\":417:422   */\n  dup4\n    /* \"#utility.yul\":408:422   */\n  swap1\n  pop\n    /* \"#utility.yul\":431:1143   */\ntag_16:\n    /* \"#utility.yul\":452:453   */\n  0x01\n    /* \"#utility.yul\":442:450   */\n  dup6\n    /* \"#utility.yul\":439:454   */\n  gt\n    /* \"#utility.yul\":431:1143   */\n  iszero\n  tag_18\n  jumpi\n    /* \"#utility.yul\":547:551   */\n  dup1\n    /* \"#utility.yul\":542:545   */\n  dup7\n    /* \"#utility.yul\":538:552   */\n  div\n    /* \"#utility.yul\":532:536   */\n  dup2\n    /* \"#utility.yul\":529:553   */\n  gt\n    /* \"#utility.yul\":526:576   */\n  iszero\n  tag_19\n  jumpi\n    /* \"#utility.yul\":556:574   */\n  tag_20\n  tag_7\n  jump\t// in\ntag_20:\n    /* \"#utility.yul\":526:576   */\ntag_19:\n    /* \"#utility.yul\":606:607   */\n  0x01\n    /* \"#utility.yul\":596:604   */\n  dup6\n    /* \"#utility.yul\":592:608   */\n  and\n    /* \"#utility.yul\":589:1040   */\n  iszero\n  tag_21\n  jumpi\n    /* \"#utility.yul\":1021:1025   */\n  dup1\n    /* \"#utility.yul\":1014:1019   */\n  dup3\n    /* \"#utility.yul\":1010:1026   */\n  mul\n    /* \"#utility.yul\":1001:1026   */\n  swap2\n  pop\n    /* \"#utility.yul\":589:1040   */\ntag_21:\n    /* \"#utility.yul\":1071:1075   */\n  dup1\n    /* \"#utility.yul\":1065:1069   */\n  dup2\n    /* \"#utility.yul\":1061:1076   */\n  mul\n    /* \"#utility.yul\":1053:1076   */\n  swap1\n  pop\n    /* \"#utility.yul\":1101:1133   */\n  tag_22\n    /* \"#utility.yul\":1124:1132   */\n  dup6\n    /* \"#utility.yul\":1101:1133   */\n  tag_8\n  jump\t// in\ntag_22:\n    /* \"#utility.yul\":1089:1133   */\n  swap5\n  pop\n    /* \"#utility.yul\":431:1143   */\n  jump(tag_16)\ntag_18:\n    /* \"#utility.yul\":301:1149   */\n  swap5\n  pop\n  swap5\n  swap3\n  pop\n  pop\n  pop\n  jump\t// out\n    /* \"#utility.yul\":1155:2228   */\ntag_10:\n    /* \"#utility.yul\":1209:1214   */\n  0x00\n    /* \"#utility.yul\":1400:1408   */\n  dup3\n    /* \"#utility.yul\":1390:1430   */\n  tag_24\n  jumpi\n    /* \"#utility.yul\":1421:1422   */\n  0x01\n    /* \"#utility.yul\":1412:1422   */\n  swap1\n  pop\n    /* \"#utility.yul\":1423:1428   */\n  jump(tag_23)\n    /* \"#utility.yul\":1390:1430   */\ntag_24:\n    /* \"#utility.yul\":1449:1453   */\n  dup2\n    /* \"#utility.yul\":1439:1475   */\n  tag_25\n  jumpi\n    /* \"#utility.yul\":1466:1467   */\n  0x00\n    /* \"#utility.yul\":1457:1467   */\n  swap1\n  pop\n    /* \"#utility.yul\":1468:1473   */\n  jump(tag_23)\n    /* \"#utility.yul\":1439:1475   */\ntag_25:\n    /* \"#utility.yul\":1535:1539   */\n  dup2\n    /* \"#utility.yul\":1583:1584   */\n  0x01\n    /* \"#utility.yul\":1578:1605   */\n  dup2\n  eq\n  tag_27\n  jumpi\n    /* \"#utility.yul\":1619:1620   */\n  0x02\n    /* \"#utility.yul\":1614:1805   */\n  dup2\n  eq\n  tag_28\n  jumpi\n    /* \"#utility.yul\":1528:1805   */\n  jump(tag_26)\n    /* \"#utility.yul\":1578:1605   */\ntag_27:\n    /* \"#utility.yul\":1596:1597   */\n  0x01\n    /* \"#utility.yul\":1587:1597   */\n  swap2\n  pop\n    /* \"#utility.yul\":1598:1603   */\n  pop\n  jump(tag_23)\n    /* \"#utility.yul\":1614:1805   */\ntag_28:\n    /* \"#utility.yul\":1659:1662   */\n  0xff\n    /* \"#utility.yul\":1649:1657   */\n  dup5\n    /* \"#utility.yul\":1646:1663   */\n  gt\n    /* \"#utility.yul\":1643:1686   */\n  iszero\n  tag_29\n  jumpi\n    /* \"#utility.yul\":1666:1684   */\n  tag_30\n  tag_7\n  jump\t// in\ntag_30:\n    /* \"#utility.yul\":1643:1686   */\ntag_29:\n    /* \"#utility.yul\":1715:1723   */\n  dup4\n    /* \"#utility.yul\":1712:1713   */\n  0x02\n    /* \"#utility.yul\":1708:1724   */\n  exp\n    /* \"#utility.yul\":1699:1724   */\n  swap2\n  pop\n    /* \"#utility.yul\":1750:1753   */\n  dup5\n    /* \"#utility.yul\":1743:1748   */\n  dup3\n    /* \"#utility.yul\":1740:1754   */\n  gt\n    /* \"#utility.yul\":1737:1777   */\n  iszero\n  tag_31\n  jumpi\n    /* \"#utility.yul\":1757:1775   */\n  tag_32\n  tag_7\n  jump\t// in\ntag_32:\n    /* \"#utility.yul\":1737:1777   */\ntag_31:\n    /* \"#utility.yul\":1790:1795   */\n  pop\n  jump(tag_23)\n    /* \"#utility.yul\":1528:1805   */\ntag_26:\n  pop\n    /* \"#utility.yul\":1914:1916   */\n  0x20\n    /* \"#utility.yul\":1904:1912   */\n  dup4\n    /* \"#utility.yul\":1901:1917   */\n  lt\n    /* \"#utility.yul\":1895:1898   */\n  0x0133\n    /* \"#utility.yul\":1889:1893   */\n  dup4\n    /* \"#utility.yul\":1886:1899   */\n  lt\n    /* \"#utility.yul\":1882:1918   */\n  and\n    /* \"#utility.yul\":1864:1866   */\n  0x4e\n    /* \"#utility.yul\":1854:1862   */\n  dup5\n    /* \"#utility.yul\":1851:1867   */\n  lt\n    /* \"#utility.yul\":1846:1848   */\n  0x0b\n    /* \"#utility.yul\":1840:1844   */\n  dup5\n    /* \"#utility.yul\":1837:1849   */\n  lt\n    /* \"#utility.yul\":1833:1868   */\n  and\n    /* \"#utility.yul\":1817:1928   */\n  or\n    /* \"#utility.yul\":1814:2060   */\n  iszero\n  tag_33\n  jumpi\n    /* \"#utility.yul\":1970:1978   */\n  dup3\n    /* \"#utility.yul\":1964:1968   */\n  dup3\n    /* \"#utility.yul\":1960:1979   */\n  exp\n    /* \"#utility.yul\":1951:1979   */\n  swap1\n  pop\n    /* \"#utility.yul\":2005:2008   */\n  dup4\n    /* \"#utility.yul\":1998:2003   */\n  dup2\n    /* \"#utility.yul\":1995:2009   */\n  gt\n    /* \"#utility.yul\":1992:2032   */\n  iszero\n  tag_34\n  jumpi\n    /* \"#utility.yul\":2012:2030   */\n  tag_35\n  tag_7\n  jump\t// in\ntag_35:\n    /* \"#utility.yul\":1992:2032   */\ntag_34:\n    /* \"#utility.yul\":2045:2050   */\n  jump(tag_23)\n    /* \"#utility.yul\":1814:2060   */\ntag_33:\n    /* \"#utility.yul\":2085:2127   */\n  tag_36\n    /* \"#utility.yul\":2123:2126   */\n  dup5\n    /* \"#utility.yul\":2113:2121   */\n  dup5\n    /* \"#utility.yul\":2107:2111   */\n  dup5\n    /* \"#utility.yul\":2104:2105   */\n  0x01\n    /* \"#utility.yul\":2085:2127   */\n  tag_9\n  jump\t// in\ntag_36:\n    /* \"#utility.yul\":2070:2127   */\n  swap3\n  pop\n  swap1\n  pop\n    /* \"#utility.yul\":2159:2163   */\n  dup2\n    /* \"#utility.yul\":2154:2157   */\n  dup5\n    /* \"#utility.yul\":2150:2164   */\n  div\n    /* \"#utility.yul\":2143:2148   */\n  dup2\n    /* \"#utility.yul\":2140:2165   */\n  gt\n    /* \"#utility.yul\":2137:2188   */\n  iszero\n  tag_37\n  jumpi\n    /* \"#utility.yul\":2168:2186   */\n  tag_38\n  tag_7\n  jump\t// in\ntag_38:\n    /* \"#utility.yul\":2137:2188   */\ntag_37:\n    /* \"#utility.yul\":2217:2221   */\n  dup2\n    /* \"#utility.yul\":2210:2215   */\n  dup2\n    /* \"#utility.yul\":2206:2222   */\n  mul\n    /* \"#utility.yul\":2197:2222   */\n  swap1\n  pop\n    /* \"#utility.yul\":1155:2228   */\ntag_23:\n  swap4\n  swap3\n  pop\n  pop\n  pop\n  jump\t// out\n    /* \"#utility.yul\":2234:2311   */\ntag_11:\n    /* \"#utility.yul\":2271:2278   */\n  0x00\n    /* \"#utility.yul\":2300:2305   */\n  dup2\n    /* \"#utility.yul\":2289:2305   */\n  swap1\n  pop\n    /* \"#utility.yul\":2234:2311   */\n  swap2\n  swap1\n  pop\n  jump\t// out\n    /* \"#utility.yul\":2317:2602   */\ntag_2:\n    /* \"#utility.yul\":2377:2382   */\n  0x00\n    /* \"#utility.yul\":2401:2424   */\n  tag_41\n    /* \"#utility.yul\":2419:2423   */\n  dup3\n    /* \"#utility.yul\":2401:2424   */\n  tag_11\n  jump\t// in\ntag_41:\n    /* \"#utility.yul\":2393:2424   */\n  swap2\n  pop\n    /* \"#utility.yul\":2445:2472   */\n  tag_42\n    /* \"#utility.yul\":2463:2471   */\n  dup4\n    /* \"#utility.yul\":2445:2472   */\n  tag_11\n  jump\t// in\ntag_42:\n    /* \"#utility.yul\":2433:2472   */\n  swap3\n  pop\n    /* \"#utility.yul\":2491:2595   */\n  tag_43\n    /* \"#utility.yul\":2528:2594   */\n  0xffffffffffffffffffffffffffffffffffffffffffffffffffffffffffffffff\n    /* \"#utility.yul\":2518:2526   */\n  dup5\n    /* \"#utility.yul\":2512:2516   */\n  dup5\n    /* \"#utility.yul\":2491:2595   */\n  tag_10\n  jump\t// in\ntag_43:\n    /* \"#utility.yul\":2482:2595   */\n  swap1\n  pop\n    /* \"#utility.yul\":2317:2602   */\n  swap3\n  swap2\n  pop\n  pop\n  jump\t// out\n    /* \"HeroOwnership.sol\":5057:6236  contract HeroFactory is Ownable {... */\ntag_6:\n  dataSize(sub_0)\n  dup1\n  dataOffset(sub_0)\n  0x00\n  codecopy\n  0x00\n  return\nstop\n\nsub_0: assembly {\n        /* \"HeroOwnership.sol\":5057:6236  contract HeroFactory is Ownable {... */\n      mstore(0x40, 0x80)\n      callvalue\n      dup1\n      iszero\n      tag_1\n      jumpi\n      0x00\n      dup1\n      revert\n    tag_1:\n      pop\n      jumpi(tag_2, lt(calldatasize, 0x04))\n      shr(0xe0, calldataload(0x00))\n      dup1\n      0x8da5cb5b\n      gt\n      tag_10\n      jumpi\n      dup1\n      0x8da5cb5b\n      eq\n      tag_6\n      jumpi\n      dup1\n      0x8f32d59b\n      eq\n      tag_7\n      jumpi\n      dup1\n      0xa8d4a03b\n      eq\n      tag_8\n      jumpi\n      dup1\n      0xf2fde38b\n      eq\n      tag_9\n      jumpi\n      jump(tag_2)\n    tag_10:\n      dup1\n      0x715018a6\n      eq\n      tag_3\n      jumpi\n      dup1\n      0x7b0f0a19\n      eq\n      tag_4\n      jumpi\n      dup1\n      0x8a72ec00\n      eq\n      tag_5\n      jumpi\n    tag_2:\n      0x00\n      dup1\n      revert\n        /* \"HeroOwnership.sol\":4361:4488  function renounceOwnership() public onlyOwner {... */\n    tag_3:\n      tag_11\n      tag_12\n      jump\t// in\n    tag_11:\n      stop\n        /* \"HeroOwnership.sol\":5442:5488  mapping(uint256 => address) public heroToOwner */\n    tag_4:\n      tag_13\n      0x04\n      dup1\n      calldatasize\n      sub\n      dup2\n      add\n      swap1\n      tag_14\n      swap2\n      swap1\n      tag_15\n      jump\t// in\n    tag_14:\n      tag_16\n      jump\t// in\n    tag_13:\n      mload(0x40)\n      tag_17\n      swap2\n      swap1\n      tag_18\n      jump\t// in\n    tag_17:\n      mload(0x40)\n      dup1\n      swap2\n      sub\n      swap1\n      return\n        /* \"HeroOwnership.sol\":6006:6234  function createRandomHero(string memory _name) public {... */\n    tag_5:\n      tag_19\n      0x04\n      dup1\n      calldatasize\n      sub\n      dup2\n      add\n      swap1\n      tag_20\n      swap2\n      swap1\n      tag_21\n      jump\t// in\n    tag_20:\n      tag_22\n      jump\t// in\n    tag_19:\n      stop\n        /* \"HeroOwnership.sol\":3725:3796  function owner() public view returns (address) {... */\n    tag_6:\n      tag_23\n      tag_24\n      jump\t// in\n    tag_23:\n      mload(0x40)\n      tag_25\n      swap2\n      swap1\n      tag_18\n      jump\t// in\n    tag_25:\n      mload(0x40)\n      dup1\n      swap2\n      sub\n      swap1\n      return\n        /* \"HeroOwnership.sol\":4013:4097  function isOwner() public view returns (bool) {... */\n    tag_7:\n      tag_26\n      tag_27\n      jump\t// in\n    tag_26:\n      mload(0x40)\n      tag_28\n      swap2\n      swap1\n      tag_29\n      jump\t// in\n    tag_28:\n      mload(0x40)\n      dup1\n      swap2\n      sub\n      swap1\n      return\n        /* \"HeroOwnership.sol\":5417:5437  Hero[] public heroes */\n    tag_8:\n      tag_30\n      0x04\n      dup1\n      calldatasize\n      sub\n      dup2\n      add\n      swap1\n      tag_31\n      swap2\n      swap1\n      tag_15\n      jump\t// in\n    tag_31:\n      tag_32\n      jump\t// in\n    tag_30:\n      mload(0x40)\n      tag_33\n      swap4\n      swap3\n      swap2\n      swap1\n      tag_34\n      jump\t// in\n    tag_33:\n      mload(0x40)\n      dup1\n      swap2\n      sub\n      swap1\n      return\n        /* \"HeroOwnership.sol\":4649:4750  function transferOwnership(address newOwner) public onlyOwner {... */\n    tag_9:\n      tag_35\n      0x04\n      dup1\n      calldatasize\n      sub\n      dup2\n      add\n      swap1\n      tag_36\n      swap2\n      swap1\n      tag_37\n      jump\t// in\n    tag_36:\n      tag_38\n      jump\t// in\n    tag_35:\n      stop\n        /* \"HeroOwnership.sol\":4361:4488  function renounceOwnership() public onlyOwner {... */\n    tag_12:\n        /* \"HeroOwnership.sol\":3911:3920  isOwner() */\n      tag_40\n        /* \"HeroOwnership.sol\":3911:3918  isOwner */\n      tag_27\n        /* \"HeroOwnership.sol\":3911:3920  isOwner() */\n      jump\t// in\n    tag_40:\n        /* \"HeroOwnership.sol\":3903:3921  require(isOwner()) */\n      tag_41\n      jumpi\n      0x00\n      dup1\n      revert\n    tag_41:\n        /* \"HeroOwnership.sol\":4455:4456  0 */\n      0x00\n        /* \"HeroOwnership.sol\":4418:4458  OwnershipTransferred(_owner, address(0)) */\n      0xffffffffffffffffffffffffffffffffffffffff\n      and\n        /* \"HeroOwnership.sol\":4439:4445  _owner */\n      0x00\n      dup1\n      sload\n      swap1\n      0x0100\n      exp\n      swap1\n      div\n      0xffffffffffffffffffffffffffffffffffffffff\n      and\n        /* \"HeroOwnership.sol\":4418:4458  OwnershipTransferred(_owner, address(0)) */\n      0xffffffffffffffffffffffffffffffffffffffff\n      and\n      0x8be0079c531659141344cd1fd0a4f28419497f9722a3daafe3b4186f6b6457e0\n      mload(0x40)\n      mload(0x40)\n      dup1\n      swap2\n      sub\n      swap1\n      log3\n        /* \"HeroOwnership.sol\":4481:4482  0 */\n      0x00\n        /* \"HeroOwnership.sol\":4464:4470  _owner */\n      dup1\n      0x00\n        /* \"HeroOwnership.sol\":4464:4483  _owner = address(0) */\n      0x0100\n      exp\n      dup2\n      sload\n      dup2\n      0xffffffffffffffffffffffffffffffffffffffff\n      mul\n      not\n      and\n      swap1\n      dup4\n      0xffffffffffffffffffffffffffffffffffffffff\n      and\n      mul\n      or\n      swap1\n      sstore\n      pop\n        /* \"HeroOwnership.sol\":4361:4488  function renounceOwnership() public onlyOwner {... */\n      jump\t// out\n        /* \"HeroOwnership.sol\":5442:5488  mapping(uint256 => address) public heroToOwner */\n    tag_16:\n      mstore(0x20, 0x05)\n      dup1\n      0x00\n      mstore\n      keccak256(0x00, 0x40)\n      0x00\n      swap2\n      pop\n      sload\n      swap1\n      0x0100\n      exp\n      swap1\n      div\n      0xffffffffffffffffffffffffffffffffffffffff\n      and\n      dup2\n      jump\t// out\n        /* \"HeroOwnership.sol\":6006:6234  function createRandomHero(string memory _name) public {... */\n    tag_22:\n        /* \"HeroOwnership.sol\":6153:6168  uint256 randDna */\n      0x00\n        /* \"HeroOwnership.sol\":6171:6196  _generateRandomDna(_name) */\n      tag_44\n        /* \"HeroOwnership.sol\":6190:6195  _name */\n      dup3\n        /* \"HeroOwnership.sol\":6171:6189  _generateRandomDna */\n      tag_45\n        /* \"HeroOwnership.sol\":6171:6196  _generateRandomDna(_name) */\n      jump\t// in\n    tag_44:\n        /* \"HeroOwnership.sol\":6153:6196  uint256 randDna = _generateRandomDna(_name) */\n      swap1\n      pop\n        /* \"HeroOwnership.sol\":6202:6229  _createHero(_name, randDna) */\n      tag_46\n        /* \"HeroOwnership.sol\":6214:6219  _name */\n      dup3\n        /* \"HeroOwnership.sol\":6221:6228  randDna */\n      dup3\n        /* \"HeroOwnership.sol\":6202:6213  _createHero */\n      tag_47\n        /* \"HeroOwnership.sol\":6202:6229  _createHero(_name, randDna) */\n      jump\t// in\n    tag_46:\n        /* \"HeroOwnership.sol\":6060:6234  {... */\n      pop\n        /* \"HeroOwnership.sol\":6006:6234  function createRandomHero(string memory _name) public {... */\n      pop\n      jump\t// out\n        /* \"HeroOwnership.sol\":3725:3796  function owner() public view returns (address) {... */\n    tag_24:\n        /* \"HeroOwnership.sol\":3763:3770  address */\n      0x00\n        /* \"HeroOwnership.sol\":3785:3791  _owner */\n      dup1\n      0x00\n      swap1\n      sload\n      swap1\n      0x0100\n      exp\n      swap1\n      div\n      0xffffffffffffffffffffffffffffffffffffffff\n      and\n        /* \"HeroOwnership.sol\":3778:3791  return _owner */\n      swap1\n      pop\n        /* \"HeroOwnership.sol\":3725:3796  function owner() public view returns (address) {... */\n      swap1\n      jump\t// out\n        /* \"HeroOwnership.sol\":4013:4097  function isOwner() public view returns (bool) {... */\n    tag_27:\n        /* \"HeroOwnership.sol\":4053:4057  bool */\n      0x00\n        /* \"HeroOwnership.sol\":4086:4092  _owner */\n      dup1\n      0x00\n      swap1\n      sload\n      swap1\n      0x0100\n      exp\n      swap1\n      div\n      0xffffffffffffffffffffffffffffffffffffffff\n      and\n        /* \"HeroOwnership.sol\":4072:4092  msg.sender == _owner */\n      0xffffffffffffffffffffffffffffffffffffffff\n      and\n        /* \"HeroOwnership.sol\":4072:4082  msg.sender */\n      caller\n        /* \"HeroOwnership.sol\":4072:4092  msg.sender == _owner */\n      0xffffffffffffffffffffffffffffffffffffffff\n      and\n      eq\n        /* \"HeroOwnership.sol\":4065:4092  return msg.sender == _owner */\n      swap1\n      pop\n        /* \"HeroOwnership.sol\":4013:4097  function isOwner() public view returns (bool) {... */\n      swap1\n      jump\t// out\n        /* \"HeroOwnership.sol\":5417:5437  Hero[] public heroes */\n    tag_32:\n      0x04\n      dup2\n      dup2\n      sload\n      dup2\n      lt\n      tag_50\n      jumpi\n      0x00\n      dup1\n      revert\n    tag_50:\n      swap1\n      0x00\n      mstore\n      keccak256(0x00, 0x20)\n      swap1\n      0x03\n      mul\n      add\n      0x00\n      swap2\n      pop\n      swap1\n      pop\n      dup1\n      0x00\n      add\n      dup1\n      sload\n      tag_52\n      swap1\n      tag_53\n      jump\t// in\n    tag_52:\n      dup1\n      0x1f\n      add\n      0x20\n      dup1\n      swap2\n      div\n      mul\n      0x20\n      add\n      mload(0x40)\n      swap1\n      dup2\n      add\n      0x40\n      mstore\n      dup1\n      swap3\n      swap2\n      swap1\n      dup2\n      dup2\n      mstore\n      0x20\n      add\n      dup3\n      dup1\n      sload\n      tag_54\n      swap1\n      tag_53\n      jump\t// in\n    tag_54:\n      dup1\n      iszero\n      tag_55\n      jumpi\n      dup1\n      0x1f\n      lt\n      tag_56\n      jumpi\n      0x0100\n      dup1\n      dup4\n      sload\n      div\n      mul\n      dup4\n      mstore\n      swap2\n      0x20\n      add\n      swap2\n      jump(tag_55)\n    tag_56:\n      dup3\n      add\n      swap2\n      swap1\n      0x00\n      mstore\n      keccak256(0x00, 0x20)\n      swap1\n    tag_57:\n      dup2\n      sload\n      dup2\n      mstore\n      swap1\n      0x01\n      add\n      swap1\n      0x20\n      add\n      dup1\n      dup4\n      gt\n      tag_57\n      jumpi\n      dup3\n      swap1\n      sub\n      0x1f\n      and\n      dup3\n      add\n      swap2\n    tag_55:\n      pop\n      pop\n      pop\n      pop\n      pop\n      swap1\n      dup1\n      0x01\n      add\n      sload\n      swap1\n      dup1\n      0x02\n      add\n      0x00\n      swap1\n      sload\n      swap1\n      0x0100\n      exp\n      swap1\n      div\n      0xffffffff\n      and\n      swap1\n      pop\n      dup4\n      jump\t// out\n        /* \"HeroOwnership.sol\":4649:4750  function transferOwnership(address newOwner) public onlyOwner {... */\n    tag_38:\n        /* \"HeroOwnership.sol\":3911:3920  isOwner() */\n      tag_59\n        /* \"HeroOwnership.sol\":3911:3918  isOwner */\n      tag_27\n        /* \"HeroOwnership.sol\":3911:3920  isOwner() */\n      jump\t// in\n    tag_59:\n        /* \"HeroOwnership.sol\":3903:3921  require(isOwner()) */\n      tag_60\n      jumpi\n      0x00\n      dup1\n      revert\n    tag_60:\n        /* \"HeroOwnership.sol\":4717:4745  _transferOwnership(newOwner) */\n      tag_62\n        /* \"HeroOwnership.sol\":4736:4744  newOwner */\n      dup2\n        /* \"HeroOwnership.sol\":4717:4735  _transferOwnership */\n      tag_63\n        /* \"HeroOwnership.sol\":4717:4745  _transferOwnership(newOwner) */\n      jump\t// in\n    tag_62:\n        /* \"HeroOwnership.sol\":4649:4750  function transferOwnership(address newOwner) public onlyOwner {... */\n      pop\n      jump\t// out\n        /* \"HeroOwnership.sol\":5539:5716  function _generateRandomDna(string memory _str) private view returns (uint256) {... */\n    tag_45:\n        /* \"HeroOwnership.sol\":5609:5616  uint256 */\n      0x00\n        /* \"HeroOwnership.sol\":5624:5636  uint256 rand */\n      dup1\n        /* \"HeroOwnership.sol\":5674:5678  _str */\n      dup3\n        /* \"HeroOwnership.sol\":5657:5679  abi.encodePacked(_str) */\n      add(0x20, mload(0x40))\n      tag_65\n      swap2\n      swap1\n      tag_66\n      jump\t// in\n    tag_65:\n      mload(0x40)\n      0x20\n      dup2\n      dup4\n      sub\n      sub\n      dup2\n      mstore\n      swap1\n      0x40\n      mstore\n        /* \"HeroOwnership.sol\":5647:5680  keccak256(abi.encodePacked(_str)) */\n      dup1\n      mload\n      swap1\n      0x20\n      add\n      keccak256\n        /* \"HeroOwnership.sol\":5639:5681  uint256(keccak256(abi.encodePacked(_str))) */\n      0x00\n      shr\n        /* \"HeroOwnership.sol\":5624:5681  uint256 rand = uint256(keccak256(abi.encodePacked(_str))) */\n      swap1\n      pop\n        /* \"HeroOwnership.sol\":5701:5711  dnaModulus */\n      sload(0x02)\n        /* \"HeroOwnership.sol\":5694:5698  rand */\n      dup2\n        /* \"HeroOwnership.sol\":5694:5711  rand % dnaModulus */\n      tag_67\n      swap2\n      swap1\n      tag_68\n      jump\t// in\n    tag_67:\n        /* \"HeroOwnership.sol\":5687:5711  return rand % dnaModulus */\n      swap2\n      pop\n      pop\n        /* \"HeroOwnership.sol\":5539:5716  function _generateRandomDna(string memory _str) private view returns (uint256) {... */\n      swap2\n      swap1\n      pop\n      jump\t// out\n        /* \"HeroOwnership.sol\":5720:6002  function _createHero(string memory _name, uint256 _dna) internal {... */\n    tag_47:\n        /* \"HeroOwnership.sol\":5791:5797  heroes */\n      0x04\n        /* \"HeroOwnership.sol\":5803:5823  Hero(_name, _dna, 1) */\n      mload(0x40)\n      dup1\n      0x60\n      add\n      0x40\n      mstore\n      dup1\n        /* \"HeroOwnership.sol\":5808:5813  _name */\n      dup5\n        /* \"HeroOwnership.sol\":5803:5823  Hero(_name, _dna, 1) */\n      dup2\n      mstore\n      0x20\n      add\n        /* \"HeroOwnership.sol\":5815:5819  _dna */\n      dup4\n        /* \"HeroOwnership.sol\":5803:5823  Hero(_name, _dna, 1) */\n      dup2\n      mstore\n      0x20\n      add\n        /* \"HeroOwnership.sol\":5821:5822  1 */\n      0x01\n        /* \"HeroOwnership.sol\":5803:5823  Hero(_name, _dna, 1) */\n      0xffffffff\n      and\n      dup2\n      mstore\n      pop\n        /* \"HeroOwnership.sol\":5791:5824  heroes.push(Hero(_name, _dna, 1)) */\n      swap1\n      dup1\n      0x01\n      dup2\n      sload\n      add\n      dup1\n      dup3\n      sstore\n      dup1\n      swap2\n      pop\n      pop\n      0x01\n      swap1\n      sub\n      swap1\n      0x00\n      mstore\n      keccak256(0x00, 0x20)\n      swap1\n      0x03\n      mul\n      add\n      0x00\n      swap1\n      swap2\n      swap1\n      swap2\n      swap1\n      swap2\n      pop\n      0x00\n      dup3\n      add\n      mload\n      dup2\n      0x00\n      add\n      swap1\n      dup1\n      mload\n      swap1\n      0x20\n      add\n      swap1\n      tag_71\n      swap3\n      swap2\n      swap1\n      tag_72\n      jump\t// in\n    tag_71:\n      pop\n      0x20\n      dup3\n      add\n      mload\n      dup2\n      0x01\n      add\n      sstore\n      0x40\n      dup3\n      add\n      mload\n      dup2\n      0x02\n      add\n      exp(0x0100, 0x00)\n      dup2\n      sload\n      dup2\n      0xffffffff\n      mul\n      not\n      and\n      swap1\n      dup4\n      0xffffffff\n      and\n      mul\n      or\n      swap1\n      sstore\n      pop\n      pop\n      pop\n        /* \"HeroOwnership.sol\":5830:5840  uint256 id */\n      0x00\n        /* \"HeroOwnership.sol\":5859:5860  1 */\n      0x01\n        /* \"HeroOwnership.sol\":5843:5849  heroes */\n      0x04\n        /* \"HeroOwnership.sol\":5843:5856  heroes.length */\n      dup1\n      sload\n      swap1\n      pop\n        /* \"HeroOwnership.sol\":5843:5860  heroes.length - 1 */\n      tag_73\n      swap2\n      swap1\n      tag_74\n      jump\t// in\n    tag_73:\n        /* \"HeroOwnership.sol\":5830:5860  uint256 id = heroes.length - 1 */\n      swap1\n      pop\n        /* \"HeroOwnership.sol\":5884:5894  msg.sender */\n      caller\n        /* \"HeroOwnership.sol\":5866:5877  heroToOwner */\n      0x05\n        /* \"HeroOwnership.sol\":5866:5881  heroToOwner[id] */\n      0x00\n        /* \"HeroOwnership.sol\":5878:5880  id */\n      dup4\n        /* \"HeroOwnership.sol\":5866:5881  heroToOwner[id] */\n      dup2\n      mstore\n      0x20\n      add\n      swap1\n      dup2\n      mstore\n      0x20\n      add\n      0x00\n      keccak256\n      0x00\n        /* \"HeroOwnership.sol\":5866:5894  heroToOwner[id] = msg.sender */\n      0x0100\n      exp\n      dup2\n      sload\n      dup2\n      0xffffffffffffffffffffffffffffffffffffffff\n      mul\n      not\n      and\n      swap1\n      dup4\n      0xffffffffffffffffffffffffffffffffffffffff\n      and\n      mul\n      or\n      swap1\n      sstore\n      pop\n        /* \"HeroOwnership.sol\":5929:5962  ownerHeroCount[msg.sender].add(1) */\n      tag_75\n        /* \"HeroOwnership.sol\":5960:5961  1 */\n      0x01\n        /* \"HeroOwnership.sol\":5929:5943  ownerHeroCount */\n      0x06\n        /* \"HeroOwnership.sol\":5929:5955  ownerHeroCount[msg.sender] */\n      0x00\n        /* \"HeroOwnership.sol\":5944:5954  msg.sender */\n      caller\n        /* \"HeroOwnership.sol\":5929:5955  ownerHeroCount[msg.sender] */\n      0xffffffffffffffffffffffffffffffffffffffff\n      and\n      0xffffffffffffffffffffffffffffffffffffffff\n      and\n      dup2\n      mstore\n      0x20\n      add\n      swap1\n      dup2\n      mstore\n      0x20\n      add\n      0x00\n      keccak256\n      sload\n        /* \"HeroOwnership.sol\":5929:5959  ownerHeroCount[msg.sender].add */\n      tag_76\n      swap1\n        /* \"HeroOwnership.sol\":5929:5962  ownerHeroCount[msg.sender].add(1) */\n      swap2\n      swap1\n      0xffffffff\n      and\n      jump\t// in\n    tag_75:\n        /* \"HeroOwnership.sol\":5900:5914  ownerHeroCount */\n      0x06\n        /* \"HeroOwnership.sol\":5900:5926  ownerHeroCount[msg.sender] */\n      0x00\n        /* \"HeroOwnership.sol\":5915:5925  msg.sender */\n      caller\n        /* \"HeroOwnership.sol\":5900:5926  ownerHeroCount[msg.sender] */\n      0xffffffffffffffffffffffffffffffffffffffff\n      and\n      0xffffffffffffffffffffffffffffffffffffffff\n      and\n      dup2\n      mstore\n      0x20\n      add\n      swap1\n      dup2\n      mstore\n      0x20\n      add\n      0x00\n      keccak256\n        /* \"HeroOwnership.sol\":5900:5962  ownerHeroCount[msg.sender] = ownerHeroCount[msg.sender].add(1) */\n      dup2\n      swap1\n      sstore\n      pop\n        /* \"HeroOwnership.sol\":5973:5997  NewHero(id, _name, _dna) */\n      0xc404ae7075893405fef7ba0a0001d5ab3a05de4f9d9854f10259d60d822063a6\n        /* \"HeroOwnership.sol\":5981:5983  id */\n      dup2\n        /* \"HeroOwnership.sol\":5985:5990  _name */\n      dup5\n        /* \"HeroOwnership.sol\":5992:5996  _dna */\n      dup5\n        /* \"HeroOwnership.sol\":5973:5997  NewHero(id, _name, _dna) */\n      mload(0x40)\n      tag_77\n      swap4\n      swap3\n      swap2\n      swap1\n      tag_78\n      jump\t// in\n    tag_77:\n      mload(0x40)\n      dup1\n      swap2\n      sub\n      swap1\n      log1\n        /* \"HeroOwnership.sol\":5785:6002  {... */\n      pop\n        /* \"HeroOwnership.sol\":5720:6002  function _createHero(string memory _name, uint256 _dna) internal {... */\n      pop\n      pop\n      jump\t// out\n        /* \"HeroOwnership.sol\":4884:5053  function _transferOwnership(address newOwner) internal {... */\n    tag_63:\n        /* \"HeroOwnership.sol\":4973:4974  0 */\n      0x00\n        /* \"HeroOwnership.sol\":4953:4975  newOwner != address(0) */\n      0xffffffffffffffffffffffffffffffffffffffff\n      and\n        /* \"HeroOwnership.sol\":4953:4961  newOwner */\n      dup2\n        /* \"HeroOwnership.sol\":4953:4975  newOwner != address(0) */\n      0xffffffffffffffffffffffffffffffffffffffff\n      and\n      eq\n      iszero\n        /* \"HeroOwnership.sol\":4945:4976  require(newOwner != address(0)) */\n      tag_80\n      jumpi\n      0x00\n      dup1\n      revert\n    tag_80:\n        /* \"HeroOwnership.sol\":5016:5024  newOwner */\n      dup1\n        /* \"HeroOwnership.sol\":4987:5025  OwnershipTransferred(_owner, newOwner) */\n      0xffffffffffffffffffffffffffffffffffffffff\n      and\n        /* \"HeroOwnership.sol\":5008:5014  _owner */\n      0x00\n      dup1\n      sload\n      swap1\n      0x0100\n      exp\n      swap1\n      div\n      0xffffffffffffffffffffffffffffffffffffffff\n      and\n        /* \"HeroOwnership.sol\":4987:5025  OwnershipTransferred(_owner, newOwner) */\n      0xffffffffffffffffffffffffffffffffffffffff\n      and\n      0x8be0079c531659141344cd1fd0a4f28419497f9722a3daafe3b4186f6b6457e0\n      mload(0x40)\n      mload(0x40)\n      dup1\n      swap2\n      sub\n      swap1\n      log3\n        /* \"HeroOwnership.sol\":5040:5048  newOwner */\n      dup1\n        /* \"HeroOwnership.sol\":5031:5037  _owner */\n      0x00\n      dup1\n        /* \"HeroOwnership.sol\":5031:5048  _owner = newOwner */\n      0x0100\n      exp\n      dup2\n      sload\n      dup2\n      0xffffffffffffffffffffffffffffffffffffffff\n      mul\n      not\n      and\n      swap1\n      dup4\n      0xffffffffffffffffffffffffffffffffffffffff\n      and\n      mul\n      or\n      swap1\n      sstore\n      pop\n        /* \"HeroOwnership.sol\":4884:5053  function _transferOwnership(address newOwner) internal {... */\n      pop\n      jump\t// out\n        /* \"HeroOwnership.sol\":956:1085  function add(uint256 a, uint256 b) internal pure returns (uint256) {... */\n    tag_76:\n        /* \"HeroOwnership.sol\":1014:1021  uint256 */\n      0x00\n        /* \"HeroOwnership.sol\":1029:1038  uint256 c */\n      dup1\n        /* \"HeroOwnership.sol\":1045:1046  b */\n      dup3\n        /* \"HeroOwnership.sol\":1041:1042  a */\n      dup5\n        /* \"HeroOwnership.sol\":1041:1046  a + b */\n      tag_82\n      swap2\n      swap1\n      tag_83\n      jump\t// in\n    tag_82:\n        /* \"HeroOwnership.sol\":1029:1046  uint256 c = a + b */\n      swap1\n      pop\n        /* \"HeroOwnership.sol\":1064:1065  a */\n      dup4\n        /* \"HeroOwnership.sol\":1059:1060  c */\n      dup2\n        /* \"HeroOwnership.sol\":1059:1065  c >= a */\n      lt\n      iszero\n        /* \"HeroOwnership.sol\":1052:1066  assert(c >= a) */\n      tag_84\n      jumpi\n      tag_85\n      tag_86\n      jump\t// in\n    tag_85:\n    tag_84:\n        /* \"HeroOwnership.sol\":1079:1080  c */\n      dup1\n        /* \"HeroOwnership.sol\":1072:1080  return c */\n      swap2\n      pop\n      pop\n        /* \"HeroOwnership.sol\":956:1085  function add(uint256 a, uint256 b) internal pure returns (uint256) {... */\n      swap3\n      swap2\n      pop\n      pop\n      jump\t// out\n    tag_72:\n      dup3\n      dup1\n      sload\n      tag_87\n      swap1\n      tag_53\n      jump\t// in\n    tag_87:\n      swap1\n      0x00\n      mstore\n      keccak256(0x00, 0x20)\n      swap1\n      0x1f\n      add\n      0x20\n      swap1\n      div\n      dup2\n      add\n      swap3\n      dup3\n      tag_89\n      jumpi\n      0x00\n      dup6\n      sstore\n      jump(tag_88)\n    tag_89:\n      dup3\n      0x1f\n      lt\n      tag_90\n      jumpi\n      dup1\n      mload\n      not(0xff)\n      and\n      dup4\n      dup1\n      add\n      or\n      dup6\n      sstore\n      jump(tag_88)\n    tag_90:\n      dup3\n      dup1\n      add\n      0x01\n      add\n      dup6\n      sstore\n      dup3\n      iszero\n      tag_88\n      jumpi\n      swap2\n      dup3\n      add\n    tag_91:\n      dup3\n      dup2\n      gt\n      iszero\n      tag_92\n      jumpi\n      dup3\n      mload\n      dup3\n      sstore\n      swap2\n      0x20\n      add\n      swap2\n      swap1\n      0x01\n      add\n      swap1\n      jump(tag_91)\n    tag_92:\n    tag_88:\n      pop\n      swap1\n      pop\n      tag_93\n      swap2\n      swap1\n      tag_94\n      jump\t// in\n    tag_93:\n      pop\n      swap1\n      jump\t// out\n    tag_94:\n    tag_95:\n      dup1\n      dup3\n      gt\n      iszero\n      tag_96\n      jumpi\n      0x00\n      dup2\n      0x00\n      swap1\n      sstore\n      pop\n      0x01\n      add\n      jump(tag_95)\n    tag_96:\n      pop\n      swap1\n      jump\t// out\n        /* \"#utility.yul\":7:82   */\n    tag_97:\n        /* \"#utility.yul\":40:46   */\n      0x00\n        /* \"#utility.yul\":73:75   */\n      0x40\n        /* \"#utility.yul\":67:76   */\n      mload\n        /* \"#utility.yul\":57:76   */\n      swap1\n      pop\n        /* \"#utility.yul\":7:82   */\n      swap1\n      jump\t// out\n        /* \"#utility.yul\":88:205   */\n    tag_98:\n        /* \"#utility.yul\":197:198   */\n      0x00\n        /* \"#utility.yul\":194:195   */\n      dup1\n        /* \"#utility.yul\":187:199   */\n      revert\n        /* \"#utility.yul\":211:328   */\n    tag_99:\n        /* \"#utility.yul\":320:321   */\n      0x00\n        /* \"#utility.yul\":317:318   */\n      dup1\n        /* \"#utility.yul\":310:322   */\n      revert\n        /* \"#utility.yul\":334:411   */\n    tag_100:\n        /* \"#utility.yul\":371:378   */\n      0x00\n        /* \"#utility.yul\":400:405   */\n      dup2\n        /* \"#utility.yul\":389:405   */\n      swap1\n      pop\n        /* \"#utility.yul\":334:411   */\n      swap2\n      swap1\n      pop\n      jump\t// out\n        /* \"#utility.yul\":417:539   */\n    tag_101:\n        /* \"#utility.yul\":490:514   */\n      tag_138\n        /* \"#utility.yul\":508:513   */\n      dup2\n        /* \"#utility.yul\":490:514   */\n      tag_100\n      jump\t// in\n    tag_138:\n        /* \"#utility.yul\":483:488   */\n      dup2\n        /* \"#utility.yul\":480:515   */\n      eq\n        /* \"#utility.yul\":470:533   */\n      tag_139\n      jumpi\n        /* \"#utility.yul\":529:530   */\n      0x00\n        /* \"#utility.yul\":526:527   */\n      dup1\n        /* \"#utility.yul\":519:531   */\n      revert\n        /* \"#utility.yul\":470:533   */\n    tag_139:\n        /* \"#utility.yul\":417:539   */\n      pop\n      jump\t// out\n        /* \"#utility.yul\":545:684   */\n    tag_102:\n        /* \"#utility.yul\":591:596   */\n      0x00\n        /* \"#utility.yul\":629:635   */\n      dup2\n        /* \"#utility.yul\":616:636   */\n      calldataload\n        /* \"#utility.yul\":607:636   */\n      swap1\n      pop\n        /* \"#utility.yul\":645:678   */\n      tag_141\n        /* \"#utility.yul\":672:677   */\n      dup2\n        /* \"#utility.yul\":645:678   */\n      tag_101\n      jump\t// in\n    tag_141:\n        /* \"#utility.yul\":545:684   */\n      swap3\n      swap2\n      pop\n      pop\n      jump\t// out\n        /* \"#utility.yul\":690:1019   */\n    tag_15:\n        /* \"#utility.yul\":749:755   */\n      0x00\n        /* \"#utility.yul\":798:800   */\n      0x20\n        /* \"#utility.yul\":786:795   */\n      dup3\n        /* \"#utility.yul\":777:784   */\n      dup5\n        /* \"#utility.yul\":773:796   */\n      sub\n        /* \"#utility.yul\":769:801   */\n      slt\n        /* \"#utility.yul\":766:885   */\n      iszero\n      tag_143\n      jumpi\n        /* \"#utility.yul\":804:883   */\n      tag_144\n      tag_98\n      jump\t// in\n    tag_144:\n        /* \"#utility.yul\":766:885   */\n    tag_143:\n        /* \"#utility.yul\":924:925   */\n      0x00\n        /* \"#utility.yul\":949:1002   */\n      tag_145\n        /* \"#utility.yul\":994:1001   */\n      dup5\n        /* \"#utility.yul\":985:991   */\n      dup3\n        /* \"#utility.yul\":974:983   */\n      dup6\n        /* \"#utility.yul\":970:992   */\n      add\n        /* \"#utility.yul\":949:1002   */\n      tag_102\n      jump\t// in\n    tag_145:\n        /* \"#utility.yul\":939:1002   */\n      swap2\n      pop\n        /* \"#utility.yul\":895:1012   */\n      pop\n        /* \"#utility.yul\":690:1019   */\n      swap3\n      swap2\n      pop\n      pop\n      jump\t// out\n        /* \"#utility.yul\":1025:1151   */\n    tag_103:\n        /* \"#utility.yul\":1062:1069   */\n      0x00\n        /* \"#utility.yul\":1102:1144   */\n      0xffffffffffffffffffffffffffffffffffffffff\n        /* \"#utility.yul\":1095:1100   */\n      dup3\n        /* \"#utility.yul\":1091:1145   */\n      and\n        /* \"#utility.yul\":1080:1145   */\n      swap1\n      pop\n        /* \"#utility.yul\":1025:1151   */\n      swap2\n      swap1\n      pop\n      jump\t// out\n        /* \"#utility.yul\":1157:1253   */\n    tag_104:\n        /* \"#utility.yul\":1194:1201   */\n      0x00\n        /* \"#utility.yul\":1223:1247   */\n      tag_148\n        /* \"#utility.yul\":1241:1246   */\n      dup3\n        /* \"#utility.yul\":1223:1247   */\n      tag_103\n      jump\t// in\n    tag_148:\n        /* \"#utility.yul\":1212:1247   */\n      swap1\n      pop\n        /* \"#utility.yul\":1157:1253   */\n      swap2\n      swap1\n      pop\n      jump\t// out\n        /* \"#utility.yul\":1259:1377   */\n    tag_105:\n        /* \"#utility.yul\":1346:1370   */\n      tag_150\n        /* \"#utility.yul\":1364:1369   */\n      dup2\n        /* \"#utility.yul\":1346:1370   */\n      tag_104\n      jump\t// in\n    tag_150:\n        /* \"#utility.yul\":1341:1344   */\n      dup3\n        /* \"#utility.yul\":1334:1371   */\n      mstore\n        /* \"#utility.yul\":1259:1377   */\n      pop\n      pop\n      jump\t// out\n        /* \"#utility.yul\":1383:1605   */\n    tag_18:\n        /* \"#utility.yul\":1476:1480   */\n      0x00\n        /* \"#utility.yul\":1514:1516   */\n      0x20\n        /* \"#utility.yul\":1503:1512   */\n      dup3\n        /* \"#utility.yul\":1499:1517   */\n      add\n        /* \"#utility.yul\":1491:1517   */\n      swap1\n      pop\n        /* \"#utility.yul\":1527:1598   */\n      tag_152\n        /* \"#utility.yul\":1595:1596   */\n      0x00\n        /* \"#utility.yul\":1584:1593   */\n      dup4\n        /* \"#utility.yul\":1580:1597   */\n      add\n        /* \"#utility.yul\":1571:1577   */\n      dup5\n        /* \"#utility.yul\":1527:1598   */\n      tag_105\n      jump\t// in\n    tag_152:\n        /* \"#utility.yul\":1383:1605   */\n      swap3\n      swap2\n      pop\n      pop\n      jump\t// out\n        /* \"#utility.yul\":1611:1728   */\n    tag_106:\n        /* \"#utility.yul\":1720:1721   */\n      0x00\n        /* \"#utility.yul\":1717:1718   */\n      dup1\n        /* \"#utility.yul\":1710:1722   */\n      revert\n        /* \"#utility.yul\":1734:1851   */\n    tag_107:\n        /* \"#utility.yul\":1843:1844   */\n      0x00\n        /* \"#utility.yul\":1840:1841   */\n      dup1\n        /* \"#utility.yul\":1833:1845   */\n      revert\n        /* \"#utility.yul\":1857:1959   */\n    tag_108:\n        /* \"#utility.yul\":1898:1904   */\n      0x00\n        /* \"#utility.yul\":1949:1951   */\n      0x1f\n        /* \"#utility.yul\":1945:1952   */\n      not\n        /* \"#utility.yul\":1940:1942   */\n      0x1f\n        /* \"#utility.yul\":1933:1938   */\n      dup4\n        /* \"#utility.yul\":1929:1943   */\n      add\n        /* \"#utility.yul\":1925:1953   */\n      and\n        /* \"#utility.yul\":1915:1953   */\n      swap1\n      pop\n        /* \"#utility.yul\":1857:1959   */\n      swap2\n      swap1\n      pop\n      jump\t// out\n        /* \"#utility.yul\":1965:2145   */\n    tag_109:\n        /* \"#utility.yul\":2013:2090   */\n      0x4e487b7100000000000000000000000000000000000000000000000000000000\n        /* \"#utility.yul\":2010:2011   */\n      0x00\n        /* \"#utility.yul\":2003:2091   */\n      mstore\n        /* \"#utility.yul\":2110:2114   */\n      0x41\n        /* \"#utility.yul\":2107:2108   */\n      0x04\n        /* \"#utility.yul\":2100:2115   */\n      mstore\n        /* \"#utility.yul\":2134:2138   */\n      0x24\n        /* \"#utility.yul\":2131:2132   */\n      0x00\n        /* \"#utility.yul\":2124:2139   */\n      revert\n        /* \"#utility.yul\":2151:2432   */\n    tag_110:\n        /* \"#utility.yul\":2234:2261   */\n      tag_158\n        /* \"#utility.yul\":2256:2260   */\n      dup3\n        /* \"#utility.yul\":2234:2261   */\n      tag_108\n      jump\t// in\n    tag_158:\n        /* \"#utility.yul\":2226:2232   */\n      dup2\n        /* \"#utility.yul\":2222:2262   */\n      add\n        /* \"#utility.yul\":2364:2370   */\n      dup2\n        /* \"#utility.yul\":2352:2362   */\n      dup2\n        /* \"#utility.yul\":2349:2371   */\n      lt\n        /* \"#utility.yul\":2328:2346   */\n      0xffffffffffffffff\n        /* \"#utility.yul\":2316:2326   */\n      dup3\n        /* \"#utility.yul\":2313:2347   */\n      gt\n        /* \"#utility.yul\":2310:2372   */\n      or\n        /* \"#utility.yul\":2307:2395   */\n      iszero\n      tag_159\n      jumpi\n        /* \"#utility.yul\":2375:2393   */\n      tag_160\n      tag_109\n      jump\t// in\n    tag_160:\n        /* \"#utility.yul\":2307:2395   */\n    tag_159:\n        /* \"#utility.yul\":2415:2425   */\n      dup1\n        /* \"#utility.yul\":2411:2413   */\n      0x40\n        /* \"#utility.yul\":2404:2426   */\n      mstore\n        /* \"#utility.yul\":2194:2432   */\n      pop\n        /* \"#utility.yul\":2151:2432   */\n      pop\n      pop\n      jump\t// out\n        /* \"#utility.yul\":2438:2567   */\n    tag_111:\n        /* \"#utility.yul\":2472:2478   */\n      0x00\n        /* \"#utility.yul\":2499:2519   */\n      tag_162\n      tag_97\n      jump\t// in\n    tag_162:\n        /* \"#utility.yul\":2489:2519   */\n      swap1\n      pop\n        /* \"#utility.yul\":2528:2561   */\n      tag_163\n        /* \"#utility.yul\":2556:2560   */\n      dup3\n        /* \"#utility.yul\":2548:2554   */\n      dup3\n        /* \"#utility.yul\":2528:2561   */\n      tag_110\n      jump\t// in\n    tag_163:\n        /* \"#utility.yul\":2438:2567   */\n      swap2\n      swap1\n      pop\n      jump\t// out\n        /* \"#utility.yul\":2573:2881   */\n    tag_112:\n        /* \"#utility.yul\":2635:2639   */\n      0x00\n        /* \"#utility.yul\":2725:2743   */\n      0xffffffffffffffff\n        /* \"#utility.yul\":2717:2723   */\n      dup3\n        /* \"#utility.yul\":2714:2744   */\n      gt\n        /* \"#utility.yul\":2711:2767   */\n      iszero\n      tag_165\n      jumpi\n        /* \"#utility.yul\":2747:2765   */\n      tag_166\n      tag_109\n      jump\t// in\n    tag_166:\n        /* \"#utility.yul\":2711:2767   */\n    tag_165:\n        /* \"#utility.yul\":2785:2814   */\n      tag_167\n        /* \"#utility.yul\":2807:2813   */\n      dup3\n        /* \"#utility.yul\":2785:2814   */\n      tag_108\n      jump\t// in\n    tag_167:\n        /* \"#utility.yul\":2777:2814   */\n      swap1\n      pop\n        /* \"#utility.yul\":2869:2873   */\n      0x20\n        /* \"#utility.yul\":2863:2867   */\n      dup2\n        /* \"#utility.yul\":2859:2874   */\n      add\n        /* \"#utility.yul\":2851:2874   */\n      swap1\n      pop\n        /* \"#utility.yul\":2573:2881   */\n      swap2\n      swap1\n      pop\n      jump\t// out\n        /* \"#utility.yul\":2887:3041   */\n    tag_113:\n        /* \"#utility.yul\":2971:2977   */\n      dup3\n        /* \"#utility.yul\":2966:2969   */\n      dup2\n        /* \"#utility.yul\":2961:2964   */\n      dup4\n        /* \"#utility.yul\":2948:2978   */\n      calldatacopy\n        /* \"#utility.yul\":3033:3034   */\n      0x00\n        /* \"#utility.yul\":3024:3030   */\n      dup4\n        /* \"#utility.yul\":3019:3022   */\n      dup4\n        /* \"#utility.yul\":3015:3031   */\n      add\n        /* \"#utility.yul\":3008:3035   */\n      mstore\n        /* \"#utility.yul\":2887:3041   */\n      pop\n      pop\n      pop\n      jump\t// out\n        /* \"#utility.yul\":3047:3459   */\n    tag_114:\n        /* \"#utility.yul\":3125:3130   */\n      0x00\n        /* \"#utility.yul\":3150:3216   */\n      tag_170\n        /* \"#utility.yul\":3166:3215   */\n      tag_171\n        /* \"#utility.yul\":3208:3214   */\n      dup5\n        /* \"#utility.yul\":3166:3215   */\n      tag_112\n      jump\t// in\n    tag_171:\n        /* \"#utility.yul\":3150:3216   */\n      tag_111\n      jump\t// in\n    tag_170:\n        /* \"#utility.yul\":3141:3216   */\n      swap1\n      pop\n        /* \"#utility.yul\":3239:3245   */\n      dup3\n        /* \"#utility.yul\":3232:3237   */\n      dup2\n        /* \"#utility.yul\":3225:3246   */\n      mstore\n        /* \"#utility.yul\":3277:3281   */\n      0x20\n        /* \"#utility.yul\":3270:3275   */\n      dup2\n        /* \"#utility.yul\":3266:3282   */\n      add\n        /* \"#utility.yul\":3315:3318   */\n      dup5\n        /* \"#utility.yul\":3306:3312   */\n      dup5\n        /* \"#utility.yul\":3301:3304   */\n      dup5\n        /* \"#utility.yul\":3297:3313   */\n      add\n        /* \"#utility.yul\":3294:3319   */\n      gt\n        /* \"#utility.yul\":3291:3403   */\n      iszero\n      tag_172\n      jumpi\n        /* \"#utility.yul\":3322:3401   */\n      tag_173\n      tag_107\n      jump\t// in\n    tag_173:\n        /* \"#utility.yul\":3291:3403   */\n    tag_172:\n        /* \"#utility.yul\":3412:3453   */\n      tag_174\n        /* \"#utility.yul\":3446:3452   */\n      dup5\n        /* \"#utility.yul\":3441:3444   */\n      dup3\n        /* \"#utility.yul\":3436:3439   */\n      dup6\n        /* \"#utility.yul\":3412:3453   */\n      tag_113\n      jump\t// in\n    tag_174:\n        /* \"#utility.yul\":3131:3459   */\n      pop\n        /* \"#utility.yul\":3047:3459   */\n      swap4\n      swap3\n      pop\n      pop\n      pop\n      jump\t// out\n        /* \"#utility.yul\":3479:3819   */\n    tag_115:\n        /* \"#utility.yul\":3535:3540   */\n      0x00\n        /* \"#utility.yul\":3584:3587   */\n      dup3\n        /* \"#utility.yul\":3577:3581   */\n      0x1f\n        /* \"#utility.yul\":3569:3575   */\n      dup4\n        /* \"#utility.yul\":3565:3582   */\n      add\n        /* \"#utility.yul\":3561:3588   */\n      slt\n        /* \"#utility.yul\":3551:3673   */\n      tag_176\n      jumpi\n        /* \"#utility.yul\":3592:3671   */\n      tag_177\n      tag_106\n      jump\t// in\n    tag_177:\n        /* \"#utility.yul\":3551:3673   */\n    tag_176:\n        /* \"#utility.yul\":3709:3715   */\n      dup2\n        /* \"#utility.yul\":3696:3716   */\n      calldataload\n        /* \"#utility.yul\":3734:3813   */\n      tag_178\n        /* \"#utility.yul\":3809:3812   */\n      dup5\n        /* \"#utility.yul\":3801:3807   */\n      dup3\n        /* \"#utility.yul\":3794:3798   */\n      0x20\n        /* \"#utility.yul\":3786:3792   */\n      dup7\n        /* \"#utility.yul\":3782:3799   */\n      add\n        /* \"#utility.yul\":3734:3813   */\n      tag_114\n      jump\t// in\n    tag_178:\n        /* \"#utility.yul\":3725:3813   */\n      swap2\n      pop\n        /* \"#utility.yul\":3541:3819   */\n      pop\n        /* \"#utility.yul\":3479:3819   */\n      swap3\n      swap2\n      pop\n      pop\n      jump\t// out\n        /* \"#utility.yul\":3825:4334   */\n    tag_21:\n        /* \"#utility.yul\":3894:3900   */\n      0x00\n        /* \"#utility.yul\":3943:3945   */\n      0x20\n        /* \"#utility.yul\":3931:3940   */\n      dup3\n        /* \"#utility.yul\":3922:3929   */\n      dup5\n        /* \"#utility.yul\":3918:3941   */\n      sub\n        /* \"#utility.yul\":3914:3946   */\n      slt\n        /* \"#utility.yul\":3911:4030   */\n      iszero\n      tag_180\n      jumpi\n        /* \"#utility.yul\":3949:4028   */\n      tag_181\n      tag_98\n      jump\t// in\n    tag_181:\n        /* \"#utility.yul\":3911:4030   */\n    tag_180:\n        /* \"#utility.yul\":4097:4098   */\n      0x00\n        /* \"#utility.yul\":4086:4095   */\n      dup3\n        /* \"#utility.yul\":4082:4099   */\n      add\n        /* \"#utility.yul\":4069:4100   */\n      calldataload\n        /* \"#utility.yul\":4127:4145   */\n      0xffffffffffffffff\n        /* \"#utility.yul\":4119:4125   */\n      dup2\n        /* \"#utility.yul\":4116:4146   */\n      gt\n        /* \"#utility.yul\":4113:4230   */\n      iszero\n      tag_182\n      jumpi\n        /* \"#utility.yul\":4149:4228   */\n      tag_183\n      tag_99\n      jump\t// in\n    tag_183:\n        /* \"#utility.yul\":4113:4230   */\n    tag_182:\n        /* \"#utility.yul\":4254:4317   */\n      tag_184\n        /* \"#utility.yul\":4309:4316   */\n      dup5\n        /* \"#utility.yul\":4300:4306   */\n      dup3\n        /* \"#utility.yul\":4289:4298   */\n      dup6\n        /* \"#utility.yul\":4285:4307   */\n      add\n        /* \"#utility.yul\":4254:4317   */\n      tag_115\n      jump\t// in\n    tag_184:\n        /* \"#utility.yul\":4244:4317   */\n      swap2\n      pop\n        /* \"#utility.yul\":4040:4327   */\n      pop\n        /* \"#utility.yul\":3825:4334   */\n      swap3\n      swap2\n      pop\n      pop\n      jump\t// out\n        /* \"#utility.yul\":4340:4430   */\n    tag_116:\n        /* \"#utility.yul\":4374:4381   */\n      0x00\n        /* \"#utility.yul\":4417:4422   */\n      dup2\n        /* \"#utility.yul\":4410:4423   */\n      iszero\n        /* \"#utility.yul\":4403:4424   */\n      iszero\n        /* \"#utility.yul\":4392:4424   */\n      swap1\n      pop\n        /* \"#utility.yul\":4340:4430   */\n      swap2\n      swap1\n      pop\n      jump\t// out\n        /* \"#utility.yul\":4436:4545   */\n    tag_117:\n        /* \"#utility.yul\":4517:4538   */\n      tag_187\n        /* \"#utility.yul\":4532:4537   */\n      dup2\n        /* \"#utility.yul\":4517:4538   */\n      tag_116\n      jump\t// in\n    tag_187:\n        /* \"#utility.yul\":4512:4515   */\n      dup3\n        /* \"#utility.yul\":4505:4539   */\n      mstore\n        /* \"#utility.yul\":4436:4545   */\n      pop\n      pop\n      jump\t// out\n        /* \"#utility.yul\":4551:4761   */\n    tag_29:\n        /* \"#utility.yul\":4638:4642   */\n      0x00\n        /* \"#utility.yul\":4676:4678   */\n      0x20\n        /* \"#utility.yul\":4665:4674   */\n      dup3\n        /* \"#utility.yul\":4661:4679   */\n      add\n        /* \"#utility.yul\":4653:4679   */\n      swap1\n      pop\n        /* \"#utility.yul\":4689:4754   */\n      tag_189\n        /* \"#utility.yul\":4751:4752   */\n      0x00\n        /* \"#utility.yul\":4740:4749   */\n      dup4\n        /* \"#utility.yul\":4736:4753   */\n      add\n        /* \"#utility.yul\":4727:4733   */\n      dup5\n        /* \"#utility.yul\":4689:4754   */\n      tag_117\n      jump\t// in\n    tag_189:\n        /* \"#utility.yul\":4551:4761   */\n      swap3\n      swap2\n      pop\n      pop\n      jump\t// out\n        /* \"#utility.yul\":4767:4866   */\n    tag_118:\n        /* \"#utility.yul\":4819:4825   */\n      0x00\n        /* \"#utility.yul\":4853:4858   */\n      dup2\n        /* \"#utility.yul\":4847:4859   */\n      mload\n        /* \"#utility.yul\":4837:4859   */\n      swap1\n      pop\n        /* \"#utility.yul\":4767:4866   */\n      swap2\n      swap1\n      pop\n      jump\t// out\n        /* \"#utility.yul\":4872:5041   */\n    tag_119:\n        /* \"#utility.yul\":4956:4967   */\n      0x00\n        /* \"#utility.yul\":4990:4996   */\n      dup3\n        /* \"#utility.yul\":4985:4988   */\n      dup3\n        /* \"#utility.yul\":4978:4997   */\n      mstore\n        /* \"#utility.yul\":5030:5034   */\n      0x20\n        /* \"#utility.yul\":5025:5028   */\n      dup3\n        /* \"#utility.yul\":5021:5035   */\n      add\n        /* \"#utility.yul\":5006:5035   */\n      swap1\n      pop\n        /* \"#utility.yul\":4872:5041   */\n      swap3\n      swap2\n      pop\n      pop\n      jump\t// out\n        /* \"#utility.yul\":5047:5354   */\n    tag_120:\n        /* \"#utility.yul\":5115:5116   */\n      0x00\n        /* \"#utility.yul\":5125:5238   */\n    tag_193:\n        /* \"#utility.yul\":5139:5145   */\n      dup4\n        /* \"#utility.yul\":5136:5137   */\n      dup2\n        /* \"#utility.yul\":5133:5146   */\n      lt\n        /* \"#utility.yul\":5125:5238   */\n      iszero\n      tag_195\n      jumpi\n        /* \"#utility.yul\":5224:5225   */\n      dup1\n        /* \"#utility.yul\":5219:5222   */\n      dup3\n        /* \"#utility.yul\":5215:5226   */\n      add\n        /* \"#utility.yul\":5209:5227   */\n      mload\n        /* \"#utility.yul\":5205:5206   */\n      dup2\n        /* \"#utility.yul\":5200:5203   */\n      dup5\n        /* \"#utility.yul\":5196:5207   */\n      add\n        /* \"#utility.yul\":5189:5228   */\n      mstore\n        /* \"#utility.yul\":5161:5163   */\n      0x20\n        /* \"#utility.yul\":5158:5159   */\n      dup2\n        /* \"#utility.yul\":5154:5164   */\n      add\n        /* \"#utility.yul\":5149:5164   */\n      swap1\n      pop\n        /* \"#utility.yul\":5125:5238   */\n      jump(tag_193)\n    tag_195:\n        /* \"#utility.yul\":5256:5262   */\n      dup4\n        /* \"#utility.yul\":5253:5254   */\n      dup2\n        /* \"#utility.yul\":5250:5263   */\n      gt\n        /* \"#utility.yul\":5247:5348   */\n      iszero\n      tag_196\n      jumpi\n        /* \"#utility.yul\":5336:5337   */\n      0x00\n        /* \"#utility.yul\":5327:5333   */\n      dup5\n        /* \"#utility.yul\":5322:5325   */\n      dup5\n        /* \"#utility.yul\":5318:5334   */\n      add\n        /* \"#utility.yul\":5311:5338   */\n      mstore\n        /* \"#utility.yul\":5247:5348   */\n    tag_196:\n        /* \"#utility.yul\":5096:5354   */\n      pop\n        /* \"#utility.yul\":5047:5354   */\n      pop\n      pop\n      pop\n      jump\t// out\n        /* \"#utility.yul\":5360:5724   */\n    tag_121:\n        /* \"#utility.yul\":5448:5451   */\n      0x00\n        /* \"#utility.yul\":5476:5515   */\n      tag_198\n        /* \"#utility.yul\":5509:5514   */\n      dup3\n        /* \"#utility.yul\":5476:5515   */\n      tag_118\n      jump\t// in\n    tag_198:\n        /* \"#utility.yul\":5531:5602   */\n      tag_199\n        /* \"#utility.yul\":5595:5601   */\n      dup2\n        /* \"#utility.yul\":5590:5593   */\n      dup6\n        /* \"#utility.yul\":5531:5602   */\n      tag_119\n      jump\t// in\n    tag_199:\n        /* \"#utility.yul\":5524:5602   */\n      swap4\n      pop\n        /* \"#utility.yul\":5611:5663   */\n      tag_200\n        /* \"#utility.yul\":5656:5662   */\n      dup2\n        /* \"#utility.yul\":5651:5654   */\n      dup6\n        /* \"#utility.yul\":5644:5648   */\n      0x20\n        /* \"#utility.yul\":5637:5642   */\n      dup7\n        /* \"#utility.yul\":5633:5649   */\n      add\n        /* \"#utility.yul\":5611:5663   */\n      tag_120\n      jump\t// in\n    tag_200:\n        /* \"#utility.yul\":5688:5717   */\n      tag_201\n        /* \"#utility.yul\":5710:5716   */\n      dup2\n        /* \"#utility.yul\":5688:5717   */\n      tag_108\n      jump\t// in\n    tag_201:\n        /* \"#utility.yul\":5683:5686   */\n      dup5\n        /* \"#utility.yul\":5679:5718   */\n      add\n        /* \"#utility.yul\":5672:5718   */\n      swap2\n      pop\n        /* \"#utility.yul\":5452:5724   */\n      pop\n        /* \"#utility.yul\":5360:5724   */\n      swap3\n      swap2\n      pop\n      pop\n      jump\t// out\n        /* \"#utility.yul\":5730:5848   */\n    tag_122:\n        /* \"#utility.yul\":5817:5841   */\n      tag_203\n        /* \"#utility.yul\":5835:5840   */\n      dup2\n        /* \"#utility.yul\":5817:5841   */\n      tag_100\n      jump\t// in\n    tag_203:\n        /* \"#utility.yul\":5812:5815   */\n      dup3\n        /* \"#utility.yul\":5805:5842   */\n      mstore\n        /* \"#utility.yul\":5730:5848   */\n      pop\n      pop\n      jump\t// out\n        /* \"#utility.yul\":5854:5947   */\n    tag_123:\n        /* \"#utility.yul\":5890:5897   */\n      0x00\n        /* \"#utility.yul\":5930:5940   */\n      0xffffffff\n        /* \"#utility.yul\":5923:5928   */\n      dup3\n        /* \"#utility.yul\":5919:5941   */\n      and\n        /* \"#utility.yul\":5908:5941   */\n      swap1\n      pop\n        /* \"#utility.yul\":5854:5947   */\n      swap2\n      swap1\n      pop\n      jump\t// out\n        /* \"#utility.yul\":5953:6068   */\n    tag_124:\n        /* \"#utility.yul\":6038:6061   */\n      tag_206\n        /* \"#utility.yul\":6055:6060   */\n      dup2\n        /* \"#utility.yul\":6038:6061   */\n      tag_123\n      jump\t// in\n    tag_206:\n        /* \"#utility.yul\":6033:6036   */\n      dup3\n        /* \"#utility.yul\":6026:6062   */\n      mstore\n        /* \"#utility.yul\":5953:6068   */\n      pop\n      pop\n      jump\t// out\n        /* \"#utility.yul\":6074:6603   */\n    tag_34:\n        /* \"#utility.yul\":6241:6245   */\n      0x00\n        /* \"#utility.yul\":6279:6281   */\n      0x60\n        /* \"#utility.yul\":6268:6277   */\n      dup3\n        /* \"#utility.yul\":6264:6282   */\n      add\n        /* \"#utility.yul\":6256:6282   */\n      swap1\n      pop\n        /* \"#utility.yul\":6328:6337   */\n      dup2\n        /* \"#utility.yul\":6322:6326   */\n      dup2\n        /* \"#utility.yul\":6318:6338   */\n      sub\n        /* \"#utility.yul\":6314:6315   */\n      0x00\n        /* \"#utility.yul\":6303:6312   */\n      dup4\n        /* \"#utility.yul\":6299:6316   */\n      add\n        /* \"#utility.yul\":6292:6339   */\n      mstore\n        /* \"#utility.yul\":6356:6434   */\n      tag_208\n        /* \"#utility.yul\":6429:6433   */\n      dup2\n        /* \"#utility.yul\":6420:6426   */\n      dup7\n        /* \"#utility.yul\":6356:6434   */\n      tag_121\n      jump\t// in\n    tag_208:\n        /* \"#utility.yul\":6348:6434   */\n      swap1\n      pop\n        /* \"#utility.yul\":6444:6516   */\n      tag_209\n        /* \"#utility.yul\":6512:6514   */\n      0x20\n        /* \"#utility.yul\":6501:6510   */\n      dup4\n        /* \"#utility.yul\":6497:6515   */\n      add\n        /* \"#utility.yul\":6488:6494   */\n      dup6\n        /* \"#utility.yul\":6444:6516   */\n      tag_122\n      jump\t// in\n    tag_209:\n        /* \"#utility.yul\":6526:6596   */\n      tag_210\n        /* \"#utility.yul\":6592:6594   */\n      0x40\n        /* \"#utility.yul\":6581:6590   */\n      dup4\n        /* \"#utility.yul\":6577:6595   */\n      add\n        /* \"#utility.yul\":6568:6574   */\n      dup5\n        /* \"#utility.yul\":6526:6596   */\n      tag_124\n      jump\t// in\n    tag_210:\n        /* \"#utility.yul\":6074:6603   */\n      swap5\n      swap4\n      pop\n      pop\n      pop\n      pop\n      jump\t// out\n        /* \"#utility.yul\":6609:6731   */\n    tag_125:\n        /* \"#utility.yul\":6682:6706   */\n      tag_212\n        /* \"#utility.yul\":6700:6705   */\n      dup2\n        /* \"#utility.yul\":6682:6706   */\n      tag_104\n      jump\t// in\n    tag_212:\n        /* \"#utility.yul\":6675:6680   */\n      dup2\n        /* \"#utility.yul\":6672:6707   */\n      eq\n        /* \"#utility.yul\":6662:6725   */\n      tag_213\n      jumpi\n        /* \"#utility.yul\":6721:6722   */\n      0x00\n        /* \"#utility.yul\":6718:6719   */\n      dup1\n        /* \"#utility.yul\":6711:6723   */\n      revert\n        /* \"#utility.yul\":6662:6725   */\n    tag_213:\n        /* \"#utility.yul\":6609:6731   */\n      pop\n      jump\t// out\n        /* \"#utility.yul\":6737:6876   */\n    tag_126:\n        /* \"#utility.yul\":6783:6788   */\n      0x00\n        /* \"#utility.yul\":6821:6827   */\n      dup2\n        /* \"#utility.yul\":6808:6828   */\n      calldataload\n        /* \"#utility.yul\":6799:6828   */\n      swap1\n      pop\n        /* \"#utility.yul\":6837:6870   */\n      tag_215\n        /* \"#utility.yul\":6864:6869   */\n      dup2\n        /* \"#utility.yul\":6837:6870   */\n      tag_125\n      jump\t// in\n    tag_215:\n        /* \"#utility.yul\":6737:6876   */\n      swap3\n      swap2\n      pop\n      pop\n      jump\t// out\n        /* \"#utility.yul\":6882:7211   */\n    tag_37:\n        /* \"#utility.yul\":6941:6947   */\n      0x00\n        /* \"#utility.yul\":6990:6992   */\n      0x20\n        /* \"#utility.yul\":6978:6987   */\n      dup3\n        /* \"#utility.yul\":6969:6976   */\n      dup5\n        /* \"#utility.yul\":6965:6988   */\n      sub\n        /* \"#utility.yul\":6961:6993   */\n      slt\n        /* \"#utility.yul\":6958:7077   */\n      iszero\n      tag_217\n      jumpi\n        /* \"#utility.yul\":6996:7075   */\n      tag_218\n      tag_98\n      jump\t// in\n    tag_218:\n        /* \"#utility.yul\":6958:7077   */\n    tag_217:\n        /* \"#utility.yul\":7116:7117   */\n      0x00\n        /* \"#utility.yul\":7141:7194   */\n      tag_219\n        /* \"#utility.yul\":7186:7193   */\n      dup5\n        /* \"#utility.yul\":7177:7183   */\n      dup3\n        /* \"#utility.yul\":7166:7175   */\n      dup6\n        /* \"#utility.yul\":7162:7184   */\n      add\n        /* \"#utility.yul\":7141:7194   */\n      tag_126\n      jump\t// in\n    tag_219:\n        /* \"#utility.yul\":7131:7194   */\n      swap2\n      pop\n        /* \"#utility.yul\":7087:7204   */\n      pop\n        /* \"#utility.yul\":6882:7211   */\n      swap3\n      swap2\n      pop\n      pop\n      jump\t// out\n        /* \"#utility.yul\":7217:7397   */\n    tag_127:\n        /* \"#utility.yul\":7265:7342   */\n      0x4e487b7100000000000000000000000000000000000000000000000000000000\n        /* \"#utility.yul\":7262:7263   */\n      0x00\n        /* \"#utility.yul\":7255:7343   */\n      mstore\n        /* \"#utility.yul\":7362:7366   */\n      0x22\n        /* \"#utility.yul\":7359:7360   */\n      0x04\n        /* \"#utility.yul\":7352:7367   */\n      mstore\n        /* \"#utility.yul\":7386:7390   */\n      0x24\n        /* \"#utility.yul\":7383:7384   */\n      0x00\n        /* \"#utility.yul\":7376:7391   */\n      revert\n        /* \"#utility.yul\":7403:7723   */\n    tag_53:\n        /* \"#utility.yul\":7447:7453   */\n      0x00\n        /* \"#utility.yul\":7484:7485   */\n      0x02\n        /* \"#utility.yul\":7478:7482   */\n      dup3\n        /* \"#utility.yul\":7474:7486   */\n      div\n        /* \"#utility.yul\":7464:7486   */\n      swap1\n      pop\n        /* \"#utility.yul\":7531:7532   */\n      0x01\n        /* \"#utility.yul\":7525:7529   */\n      dup3\n        /* \"#utility.yul\":7521:7533   */\n      and\n        /* \"#utility.yul\":7552:7570   */\n      dup1\n        /* \"#utility.yul\":7542:7623   */\n      tag_222\n      jumpi\n        /* \"#utility.yul\":7608:7612   */\n      0x7f\n        /* \"#utility.yul\":7600:7606   */\n      dup3\n        /* \"#utility.yul\":7596:7613   */\n      and\n        /* \"#utility.yul\":7586:7613   */\n      swap2\n      pop\n        /* \"#utility.yul\":7542:7623   */\n    tag_222:\n        /* \"#utility.yul\":7670:7672   */\n      0x20\n        /* \"#utility.yul\":7662:7668   */\n      dup3\n        /* \"#utility.yul\":7659:7673   */\n      lt\n        /* \"#utility.yul\":7639:7657   */\n      dup2\n        /* \"#utility.yul\":7636:7674   */\n      eq\n        /* \"#utility.yul\":7633:7717   */\n      iszero\n      tag_223\n      jumpi\n        /* \"#utility.yul\":7689:7707   */\n      tag_224\n      tag_127\n      jump\t// in\n    tag_224:\n        /* \"#utility.yul\":7633:7717   */\n    tag_223:\n        /* \"#utility.yul\":7454:7723   */\n      pop\n        /* \"#utility.yul\":7403:7723   */\n      swap2\n      swap1\n      pop\n      jump\t// out\n        /* \"#utility.yul\":7729:7877   */\n    tag_128:\n        /* \"#utility.yul\":7831:7842   */\n      0x00\n        /* \"#utility.yul\":7868:7871   */\n      dup2\n        /* \"#utility.yul\":7853:7871   */\n      swap1\n      pop\n        /* \"#utility.yul\":7729:7877   */\n      swap3\n      swap2\n      pop\n      pop\n      jump\t// out\n        /* \"#utility.yul\":7883:8260   */\n    tag_129:\n        /* \"#utility.yul\":7989:7992   */\n      0x00\n        /* \"#utility.yul\":8017:8056   */\n      tag_227\n        /* \"#utility.yul\":8050:8055   */\n      dup3\n        /* \"#utility.yul\":8017:8056   */\n      tag_118\n      jump\t// in\n    tag_227:\n        /* \"#utility.yul\":8072:8161   */\n      tag_228\n        /* \"#utility.yul\":8154:8160   */\n      dup2\n        /* \"#utility.yul\":8149:8152   */\n      dup6\n        /* \"#utility.yul\":8072:8161   */\n      tag_128\n      jump\t// in\n    tag_228:\n        /* \"#utility.yul\":8065:8161   */\n      swap4\n      pop\n        /* \"#utility.yul\":8170:8222   */\n      tag_229\n        /* \"#utility.yul\":8215:8221   */\n      dup2\n        /* \"#utility.yul\":8210:8213   */\n      dup6\n        /* \"#utility.yul\":8203:8207   */\n      0x20\n        /* \"#utility.yul\":8196:8201   */\n      dup7\n        /* \"#utility.yul\":8192:8208   */\n      add\n        /* \"#utility.yul\":8170:8222   */\n      tag_120\n      jump\t// in\n    tag_229:\n        /* \"#utility.yul\":8247:8253   */\n      dup1\n        /* \"#utility.yul\":8242:8245   */\n      dup5\n        /* \"#utility.yul\":8238:8254   */\n      add\n        /* \"#utility.yul\":8231:8254   */\n      swap2\n      pop\n        /* \"#utility.yul\":7993:8260   */\n      pop\n        /* \"#utility.yul\":7883:8260   */\n      swap3\n      swap2\n      pop\n      pop\n      jump\t// out\n        /* \"#utility.yul\":8266:8541   */\n    tag_66:\n        /* \"#utility.yul\":8398:8401   */\n      0x00\n        /* \"#utility.yul\":8420:8515   */\n      tag_231\n        /* \"#utility.yul\":8511:8514   */\n      dup3\n        /* \"#utility.yul\":8502:8508   */\n      dup5\n        /* \"#utility.yul\":8420:8515   */\n      tag_129\n      jump\t// in\n    tag_231:\n        /* \"#utility.yul\":8413:8515   */\n      swap2\n      pop\n        /* \"#utility.yul\":8532:8535   */\n      dup2\n        /* \"#utility.yul\":8525:8535   */\n      swap1\n      pop\n        /* \"#utility.yul\":8266:8541   */\n      swap3\n      swap2\n      pop\n      pop\n      jump\t// out\n        /* \"#utility.yul\":8547:8727   */\n    tag_130:\n        /* \"#utility.yul\":8595:8672   */\n      0x4e487b7100000000000000000000000000000000000000000000000000000000\n        /* \"#utility.yul\":8592:8593   */\n      0x00\n        /* \"#utility.yul\":8585:8673   */\n      mstore\n        /* \"#utility.yul\":8692:8696   */\n      0x12\n        /* \"#utility.yul\":8689:8690   */\n      0x04\n        /* \"#utility.yul\":8682:8697   */\n      mstore\n        /* \"#utility.yul\":8716:8720   */\n      0x24\n        /* \"#utility.yul\":8713:8714   */\n      0x00\n        /* \"#utility.yul\":8706:8721   */\n      revert\n        /* \"#utility.yul\":8733:8909   */\n    tag_68:\n        /* \"#utility.yul\":8765:8766   */\n      0x00\n        /* \"#utility.yul\":8782:8802   */\n      tag_234\n        /* \"#utility.yul\":8800:8801   */\n      dup3\n        /* \"#utility.yul\":8782:8802   */\n      tag_100\n      jump\t// in\n    tag_234:\n        /* \"#utility.yul\":8777:8802   */\n      swap2\n      pop\n        /* \"#utility.yul\":8816:8836   */\n      tag_235\n        /* \"#utility.yul\":8834:8835   */\n      dup4\n        /* \"#utility.yul\":8816:8836   */\n      tag_100\n      jump\t// in\n    tag_235:\n        /* \"#utility.yul\":8811:8836   */\n      swap3\n      pop\n        /* \"#utility.yul\":8855:8856   */\n      dup3\n        /* \"#utility.yul\":8845:8880   */\n      tag_236\n      jumpi\n        /* \"#utility.yul\":8860:8878   */\n      tag_237\n      tag_130\n      jump\t// in\n    tag_237:\n        /* \"#utility.yul\":8845:8880   */\n    tag_236:\n        /* \"#utility.yul\":8901:8902   */\n      dup3\n        /* \"#utility.yul\":8898:8899   */\n      dup3\n        /* \"#utility.yul\":8894:8903   */\n      mod\n        /* \"#utility.yul\":8889:8903   */\n      swap1\n      pop\n        /* \"#utility.yul\":8733:8909   */\n      swap3\n      swap2\n      pop\n      pop\n      jump\t// out\n        /* \"#utility.yul\":8915:9095   */\n    tag_131:\n        /* \"#utility.yul\":8963:9040   */\n      0x4e487b7100000000000000000000000000000000000000000000000000000000\n        /* \"#utility.yul\":8960:8961   */\n      0x00\n        /* \"#utility.yul\":8953:9041   */\n      mstore\n        /* \"#utility.yul\":9060:9064   */\n      0x11\n        /* \"#utility.yul\":9057:9058   */\n      0x04\n        /* \"#utility.yul\":9050:9065   */\n      mstore\n        /* \"#utility.yul\":9084:9088   */\n      0x24\n        /* \"#utility.yul\":9081:9082   */\n      0x00\n        /* \"#utility.yul\":9074:9089   */\n      revert\n        /* \"#utility.yul\":9101:9292   */\n    tag_74:\n        /* \"#utility.yul\":9141:9145   */\n      0x00\n        /* \"#utility.yul\":9161:9181   */\n      tag_240\n        /* \"#utility.yul\":9179:9180   */\n      dup3\n        /* \"#utility.yul\":9161:9181   */\n      tag_100\n      jump\t// in\n    tag_240:\n        /* \"#utility.yul\":9156:9181   */\n      swap2\n      pop\n        /* \"#utility.yul\":9195:9215   */\n      tag_241\n        /* \"#utility.yul\":9213:9214   */\n      dup4\n        /* \"#utility.yul\":9195:9215   */\n      tag_100\n      jump\t// in\n    tag_241:\n        /* \"#utility.yul\":9190:9215   */\n      swap3\n      pop\n        /* \"#utility.yul\":9234:9235   */\n      dup3\n        /* \"#utility.yul\":9231:9232   */\n      dup3\n        /* \"#utility.yul\":9228:9236   */\n      lt\n        /* \"#utility.yul\":9225:9259   */\n      iszero\n      tag_242\n      jumpi\n        /* \"#utility.yul\":9239:9257   */\n      tag_243\n      tag_131\n      jump\t// in\n    tag_243:\n        /* \"#utility.yul\":9225:9259   */\n    tag_242:\n        /* \"#utility.yul\":9284:9285   */\n      dup3\n        /* \"#utility.yul\":9281:9282   */\n      dup3\n        /* \"#utility.yul\":9277:9286   */\n      sub\n        /* \"#utility.yul\":9269:9286   */\n      swap1\n      pop\n        /* \"#utility.yul\":9101:9292   */\n      swap3\n      swap2\n      pop\n      pop\n      jump\t// out\n        /* \"#utility.yul\":9298:9831   */\n    tag_78:\n        /* \"#utility.yul\":9467:9471   */\n      0x00\n        /* \"#utility.yul\":9505:9507   */\n      0x60\n        /* \"#utility.yul\":9494:9503   */\n      dup3\n        /* \"#utility.yul\":9490:9508   */\n      add\n        /* \"#utility.yul\":9482:9508   */\n      swap1\n      pop\n        /* \"#utility.yul\":9518:9589   */\n      tag_245\n        /* \"#utility.yul\":9586:9587   */\n      0x00\n        /* \"#utility.yul\":9575:9584   */\n      dup4\n        /* \"#utility.yul\":9571:9588   */\n      add\n        /* \"#utility.yul\":9562:9568   */\n      dup7\n        /* \"#utility.yul\":9518:9589   */\n      tag_122\n      jump\t// in\n    tag_245:\n        /* \"#utility.yul\":9636:9645   */\n      dup2\n        /* \"#utility.yul\":9630:9634   */\n      dup2\n        /* \"#utility.yul\":9626:9646   */\n      sub\n        /* \"#utility.yul\":9621:9623   */\n      0x20\n        /* \"#utility.yul\":9610:9619   */\n      dup4\n        /* \"#utility.yul\":9606:9624   */\n      add\n        /* \"#utility.yul\":9599:9647   */\n      mstore\n        /* \"#utility.yul\":9664:9742   */\n      tag_246\n        /* \"#utility.yul\":9737:9741   */\n      dup2\n        /* \"#utility.yul\":9728:9734   */\n      dup6\n        /* \"#utility.yul\":9664:9742   */\n      tag_121\n      jump\t// in\n    tag_246:\n        /* \"#utility.yul\":9656:9742   */\n      swap1\n      pop\n        /* \"#utility.yul\":9752:9824   */\n      tag_247\n        /* \"#utility.yul\":9820:9822   */\n      0x40\n        /* \"#utility.yul\":9809:9818   */\n      dup4\n        /* \"#utility.yul\":9805:9823   */\n      add\n        /* \"#utility.yul\":9796:9802   */\n      dup5\n        /* \"#utility.yul\":9752:9824   */\n      tag_122\n      jump\t// in\n    tag_247:\n        /* \"#utility.yul\":9298:9831   */\n      swap5\n      swap4\n      pop\n      pop\n      pop\n      pop\n      jump\t// out\n        /* \"#utility.yul\":9837:10142   */\n    tag_83:\n        /* \"#utility.yul\":9877:9880   */\n      0x00\n        /* \"#utility.yul\":9896:9916   */\n      tag_249\n        /* \"#utility.yul\":9914:9915   */\n      dup3\n        /* \"#utility.yul\":9896:9916   */\n      tag_100\n      jump\t// in\n    tag_249:\n        /* \"#utility.yul\":9891:9916   */\n      swap2\n      pop\n        /* \"#utility.yul\":9930:9950   */\n      tag_250\n        /* \"#utility.yul\":9948:9949   */\n      dup4\n        /* \"#utility.yul\":9930:9950   */\n      tag_100\n      jump\t// in\n    tag_250:\n        /* \"#utility.yul\":9925:9950   */\n      swap3\n      pop\n        /* \"#utility.yul\":10084:10085   */\n      dup3\n        /* \"#utility.yul\":10016:10082   */\n      0xffffffffffffffffffffffffffffffffffffffffffffffffffffffffffffffff\n        /* \"#utility.yul\":10012:10086   */\n      sub\n        /* \"#utility.yul\":10009:10010   */\n      dup3\n        /* \"#utility.yul\":10006:10087   */\n      gt\n        /* \"#utility.yul\":10003:10110   */\n      iszero\n      tag_251\n      jumpi\n        /* \"#utility.yul\":10090:10108   */\n      tag_252\n      tag_131\n      jump\t// in\n    tag_252:\n        /* \"#utility.yul\":10003:10110   */\n    tag_251:\n        /* \"#utility.yul\":10134:10135   */\n      dup3\n        /* \"#utility.yul\":10131:10132   */\n      dup3\n        /* \"#utility.yul\":10127:10136   */\n      add\n        /* \"#utility.yul\":10120:10136   */\n      swap1\n      pop\n        /* \"#utility.yul\":9837:10142   */\n      swap3\n      swap2\n      pop\n      pop\n      jump\t// out\n        /* \"#utility.yul\":10148:10328   */\n    tag_86:\n        /* \"#utility.yul\":10196:10273   */\n      0x4e487b7100000000000000000000000000000000000000000000000000000000\n        /* \"#utility.yul\":10193:10194   */\n      0x00\n        /* \"#utility.yul\":10186:10274   */\n      mstore\n        /* \"#utility.yul\":10293:10297   */\n      0x01\n        /* \"#utility.yul\":10290:10291   */\n      0x04\n        /* \"#utility.yul\":10283:10298   */\n      mstore\n        /* \"#utility.yul\":10317:10321   */\n      0x24\n        /* \"#utility.yul\":10314:10315   */\n      0x00\n        /* \"#utility.yul\":10307:10322   */\n      revert\n\n    auxdata: 0xa2646970667358221220053209617772d63552644d99fde26be9afcf4f34f70afd1c4d9e7bf1fb59c61964736f6c634300080a0033\n}\n","bytecode":{"linkReferences":{},"object":"60806040526010600155600154600a6200001a919062000280565b600255620151806003553480156200003157600080fd5b50336000806101000a81548173ffffffffffffffffffffffffffffffffffffffff021916908373ffffffffffffffffffffffffffffffffffffffff16021790555060008054906101000a900473ffffffffffffffffffffffffffffffffffffffff1673ffffffffffffffffffffffffffffffffffffffff16600073ffffffffffffffffffffffffffffffffffffffff167f8be0079c531659141344cd1fd0a4f28419497f9722a3daafe3b4186f6b6457e060405160405180910390a3620002d1565b7f4e487b7100000000000000000000000000000000000000000000000000000000600052601160045260246000fd5b60008160011c9050919050565b6000808291508390505b60018511156200018157808604811115620001595762000158620000f3565b5b6001851615620001695780820291505b8081029050620001798562000122565b945062000139565b94509492505050565b6000826200019c57600190506200026f565b81620001ac57600090506200026f565b8160018114620001c55760028114620001d05762000206565b60019150506200026f565b60ff841115620001e557620001e4620000f3565b5b8360020a915084821115620001ff57620001fe620000f3565b5b506200026f565b5060208310610133831016604e8410600b8410161715620002405782820a9050838111156200023a5762000239620000f3565b5b6200026f565b6200024f84848460016200012f565b92509050818404811115620002695762000268620000f3565b5b81810290505b9392505050565b6000819050919050565b60006200028d8262000276565b91506200029a8362000276565b9250620002c97fffffffffffffffffffffffffffffffffffffffffffffffffffffffffffffffff84846200018a565b905092915050565b610e2980620002e16000396000f3fe608060405234801561001057600080fd5b506004361061007d5760003560e01c80638da5cb5b1161005b5780638da5cb5b146100d85780638f32d59b146100f6578063a8d4a03b14610114578063f2fde38b146101465761007d565b8063715018a6146100825780637b0f0a191461008c5780638a72ec00146100bc575b600080fd5b61008a610162565b005b6100a660048036038101906100a1919061081e565b610231565b6040516100b3919061088c565b60405180910390f35b6100d660048036038101906100d191906109ed565b610264565b005b6100e061027f565b6040516100ed919061088c565b60405180910390f35b6100fe6102a8565b60405161010b9190610a51565b60405180910390f35b61012e6004803603810190610129919061081e565b6102ff565b60405161013d93929190610b22565b60405180910390f35b610160600480360381019061015b9190610b8c565b6103d1565b005b61016a6102a8565b61017357600080fd5b600073ffffffffffffffffffffffffffffffffffffffff1660008054906101000a900473ffffffffffffffffffffffffffffffffffffffff1673ffffffffffffffffffffffffffffffffffffffff167f8be0079c531659141344cd1fd0a4f28419497f9722a3daafe3b4186f6b6457e060405160405180910390a360008060006101000a81548173ffffffffffffffffffffffffffffffffffffffff021916908373ffffffffffffffffffffffffffffffffffffffff160217905550565b60056020528060005260406000206000915054906101000a900473ffffffffffffffffffffffffffffffffffffffff1681565b600061026f826103ee565b905061027b8282610433565b5050565b60008060009054906101000a900473ffffffffffffffffffffffffffffffffffffffff16905090565b60008060009054906101000a900473ffffffffffffffffffffffffffffffffffffffff1673ffffffffffffffffffffffffffffffffffffffff163373ffffffffffffffffffffffffffffffffffffffff1614905090565b6004818154811061030f57600080fd5b906000526020600020906003020160009150905080600001805461033290610be8565b80601f016020809104026020016040519081016040528092919081815260200182805461035e90610be8565b80156103ab5780601f10610380576101008083540402835291602001916103ab565b820191906000526020600020905b81548152906001019060200180831161038e57829003601f168201915b5050505050908060010154908060020160009054906101000a900463ffffffff16905083565b6103d96102a8565b6103e257600080fd5b6103eb8161060e565b50565b600080826040516020016104029190610c56565b6040516020818303038152906040528051906020012060001c90506002548161042b9190610c9c565b915050919050565b60046040518060600160405280848152602001838152602001600163ffffffff168152509080600181540180825580915050600190039060005260206000209060030201600090919091909150600082015181600001908051906020019061049c929190610731565b506020820151816001015560408201518160020160006101000a81548163ffffffff021916908363ffffffff1602179055505050600060016004805490506104e49190610cfc565b9050336005600083815260200190815260200160002060006101000a81548173ffffffffffffffffffffffffffffffffffffffff021916908373ffffffffffffffffffffffffffffffffffffffff16021790555061058b6001600660003373ffffffffffffffffffffffffffffffffffffffff1673ffffffffffffffffffffffffffffffffffffffff1681526020019081526020016000205461070590919063ffffffff16565b600660003373ffffffffffffffffffffffffffffffffffffffff1673ffffffffffffffffffffffffffffffffffffffff168152602001908152602001600020819055507fc404ae7075893405fef7ba0a0001d5ab3a05de4f9d9854f10259d60d822063a681848460405161060193929190610d30565b60405180910390a1505050565b600073ffffffffffffffffffffffffffffffffffffffff168173ffffffffffffffffffffffffffffffffffffffff16141561064857600080fd5b8073ffffffffffffffffffffffffffffffffffffffff1660008054906101000a900473ffffffffffffffffffffffffffffffffffffffff1673ffffffffffffffffffffffffffffffffffffffff167f8be0079c531659141344cd1fd0a4f28419497f9722a3daafe3b4186f6b6457e060405160405180910390a3806000806101000a81548173ffffffffffffffffffffffffffffffffffffffff021916908373ffffffffffffffffffffffffffffffffffffffff16021790555050565b60008082846107149190610d6e565b90508381101561072757610726610dc4565b5b8091505092915050565b82805461073d90610be8565b90600052602060002090601f01602090048101928261075f57600085556107a6565b82601f1061077857805160ff19168380011785556107a6565b828001600101855582156107a6579182015b828111156107a557825182559160200191906001019061078a565b5b5090506107b391906107b7565b5090565b5b808211156107d05760008160009055506001016107b8565b5090565b6000604051905090565b600080fd5b600080fd5b6000819050919050565b6107fb816107e8565b811461080657600080fd5b50565b600081359050610818816107f2565b92915050565b600060208284031215610834576108336107de565b5b600061084284828501610809565b91505092915050565b600073ffffffffffffffffffffffffffffffffffffffff82169050919050565b60006108768261084b565b9050919050565b6108868161086b565b82525050565b60006020820190506108a1600083018461087d565b92915050565b600080fd5b600080fd5b6000601f19601f8301169050919050565b7f4e487b7100000000000000000000000000000000000000000000000000000000600052604160045260246000fd5b6108fa826108b1565b810181811067ffffffffffffffff82111715610919576109186108c2565b5b80604052505050565b600061092c6107d4565b905061093882826108f1565b919050565b600067ffffffffffffffff821115610958576109576108c2565b5b610961826108b1565b9050602081019050919050565b82818337600083830152505050565b600061099061098b8461093d565b610922565b9050828152602081018484840111156109ac576109ab6108ac565b5b6109b784828561096e565b509392505050565b600082601f8301126109d4576109d36108a7565b5b81356109e484826020860161097d565b91505092915050565b600060208284031215610a0357610a026107de565b5b600082013567ffffffffffffffff811115610a2157610a206107e3565b5b610a2d848285016109bf565b91505092915050565b60008115159050919050565b610a4b81610a36565b82525050565b6000602082019050610a666000830184610a42565b92915050565b600081519050919050565b600082825260208201905092915050565b60005b83811015610aa6578082015181840152602081019050610a8b565b83811115610ab5576000848401525b50505050565b6000610ac682610a6c565b610ad08185610a77565b9350610ae0818560208601610a88565b610ae9816108b1565b840191505092915050565b610afd816107e8565b82525050565b600063ffffffff82169050919050565b610b1c81610b03565b82525050565b60006060820190508181036000830152610b3c8186610abb565b9050610b4b6020830185610af4565b610b586040830184610b13565b949350505050565b610b698161086b565b8114610b7457600080fd5b50565b600081359050610b8681610b60565b92915050565b600060208284031215610ba257610ba16107de565b5b6000610bb084828501610b77565b91505092915050565b7f4e487b7100000000000000000000000000000000000000000000000000000000600052602260045260246000fd5b60006002820490506001821680610c0057607f821691505b60208210811415610c1457610c13610bb9565b5b50919050565b600081905092915050565b6000610c3082610a6c565b610c3a8185610c1a565b9350610c4a818560208601610a88565b80840191505092915050565b6000610c628284610c25565b915081905092915050565b7f4e487b7100000000000000000000000000000000000000000000000000000000600052601260045260246000fd5b6000610ca7826107e8565b9150610cb2836107e8565b925082610cc257610cc1610c6d565b5b828206905092915050565b7f4e487b7100000000000000000000000000000000000000000000000000000000600052601160045260246000fd5b6000610d07826107e8565b9150610d12836107e8565b925082821015610d2557610d24610ccd565b5b828203905092915050565b6000606082019050610d456000830186610af4565b8181036020830152610d578185610abb565b9050610d666040830184610af4565b949350505050565b6000610d79826107e8565b9150610d84836107e8565b9250827fffffffffffffffffffffffffffffffffffffffffffffffffffffffffffffffff03821115610db957610db8610ccd565b5b828201905092915050565b7f4e487b7100000000000000000000000000000000000000000000000000000000600052600160045260246000fdfea2646970667358221220053209617772d63552644d99fde26be9afcf4f34f70afd1c4d9e7bf1fb59c61964736f6c634300080a0033","opcodes":"PUSH1 0x80 PUSH1 0x40 MSTORE PUSH1 0x10 PUSH1 0x1 SSTORE PUSH1 0x1 SLOAD PUSH1 0xA PUSH3 0x1A SWAP2 SWAP1 PUSH3 0x280 JUMP JUMPDEST PUSH1 0x2 SSTORE PUSH3 0x15180 PUSH1 0x3 SSTORE CALLVALUE DUP1 ISZERO PUSH3 0x31 JUMPI PUSH1 0x0 DUP1 REVERT JUMPDEST POP CALLER PUSH1 0x0 DUP1 PUSH2 0x100 EXP DUP2 SLOAD DUP2 PUSH20 0xFFFFFFFFFFFFFFFFFFFFFFFFFFFFFFFFFFFFFFFF MUL NOT AND SWAP1 DUP4 PUSH20 0xFFFFFFFFFFFFFFFFFFFFFFFFFFFFFFFFFFFFFFFF AND MUL OR SWAP1 SSTORE POP PUSH1 0x0 DUP1 SLOAD SWAP1 PUSH2 0x100 EXP SWAP1 DIV PUSH20 0xFFFFFFFFFFFFFFFFFFFFFFFFFFFFFFFFFFFFFFFF AND PUSH20 0xFFFFFFFFFFFFFFFFFFFFFFFFFFFFFFFFFFFFFFFF AND PUSH1 0x0 PUSH20 0xFFFFFFFFFFFFFFFFFFFFFFFFFFFFFFFFFFFFFFFF AND PUSH32 0x8BE0079C531659141344CD1FD0A4F28419497F9722A3DAAFE3B4186F6B6457E0 PUSH1 0x40 MLOAD PUSH1 0x40 MLOAD DUP1 SWAP2 SUB SWAP1 LOG3 PUSH3 0x2D1 JUMP JUMPDEST PUSH32 0x4E487B7100000000000000000000000000000000000000000000000000000000 PUSH1 0x0 MSTORE PUSH1 0x11 PUSH1 0x4 MSTORE PUSH1 0x24 PUSH1 0x0 REVERT JUMPDEST PUSH1 0x0 DUP2 PUSH1 0x1 SHR SWAP1 POP SWAP2 SWAP1 POP JUMP JUMPDEST PUSH1 0x0 DUP1 DUP3 SWAP2 POP DUP4 SWAP1 POP JUMPDEST PUSH1 0x1 DUP6 GT ISZERO PUSH3 0x181 JUMPI DUP1 DUP7 DIV DUP2 GT ISZERO PUSH3 0x159 JUMPI PUSH3 0x158 PUSH3 0xF3 JUMP JUMPDEST JUMPDEST PUSH1 0x1 DUP6 AND ISZERO PUSH3 0x169 JUMPI DUP1 DUP3 MUL SWAP2 POP JUMPDEST DUP1 DUP2 MUL SWAP1 POP PUSH3 0x179 DUP6 PUSH3 0x122 JUMP JUMPDEST SWAP5 POP PUSH3 0x139 JUMP JUMPDEST SWAP5 POP SWAP5 SWAP3 POP POP POP JUMP JUMPDEST PUSH1 0x0 DUP3 PUSH3 0x19C JUMPI PUSH1 0x1 SWAP1 POP PUSH3 0x26F JUMP JUMPDEST DUP2 PUSH3 0x1AC JUMPI PUSH1 0x0 SWAP1 POP PUSH3 0x26F JUMP JUMPDEST DUP2 PUSH1 0x1 DUP2 EQ PUSH3 0x1C5 JUMPI PUSH1 0x2 DUP2 EQ PUSH3 0x1D0 JUMPI PUSH3 0x206 JUMP JUMPDEST PUSH1 0x1 SWAP2 POP POP PUSH3 0x26F JUMP JUMPDEST PUSH1 0xFF DUP5 GT ISZERO PUSH3 0x1E5 JUMPI PUSH3 0x1E4 PUSH3 0xF3 JUMP JUMPDEST JUMPDEST DUP4 PUSH1 0x2 EXP SWAP2 POP DUP5 DUP3 GT ISZERO PUSH3 0x1FF JUMPI PUSH3 0x1FE PUSH3 0xF3 JUMP JUMPDEST JUMPDEST POP PUSH3 0x26F JUMP JUMPDEST POP PUSH1 0x20 DUP4 LT PUSH2 0x133 DUP4 LT AND PUSH1 0x4E DUP5 LT PUSH1 0xB DUP5 LT AND OR ISZERO PUSH3 0x240 JUMPI DUP3 DUP3 EXP SWAP1 POP DUP4 DUP2 GT ISZERO PUSH3 0x23A JUMPI PUSH3 0x239 PUSH3 0xF3 JUMP JUMPDEST JUMPDEST PUSH3 0x26F JUMP JUMPDEST PUSH3 0x24F DUP5 DUP5 DUP5 PUSH1 0x1 PUSH3 0x12F JUMP JUMPDEST SWAP3 POP SWAP1 POP DUP2 DUP5 DIV DUP2 GT ISZERO PUSH3 0x269 JUMPI PUSH3 0x268 PUSH3 0xF3 JUMP JUMPDEST JUMPDEST DUP2 DUP2 MUL SWAP1 POP JUMPDEST SWAP4 SWAP3 POP POP POP JUMP JUMPDEST PUSH1 0x0 DUP2 SWAP1 POP SWAP2 SWAP1 POP JUMP JUMPDEST PUSH1 0x0 PUSH3 0x28D DUP3 PUSH3 0x276 JUMP JUMPDEST SWAP2 POP PUSH3 0x29A DUP4 PUSH3 0x276 JUMP JUMPDEST SWAP3 POP PUSH3 0x2C9 PUSH32 0xFFFFFFFFFFFFFFFFFFFFFFFFFFFFFFFFFFFFFFFFFFFFFFFFFFFFFFFFFFFFFFFF DUP5 DUP5 PUSH3 0x18A JUMP JUMPDEST SWAP1 POP SWAP3 SWAP2 POP POP JUMP JUMPDEST PUSH2 0xE29 DUP1 PUSH3 0x2E1 PUSH1 0x0 CODECOPY PUSH1 0x0 RETURN INVALID PUSH1 0x80 PUSH1 0x40 MSTORE CALLVALUE DUP1 ISZERO PUSH2 0x10 JUMPI PUSH1 0x0 DUP1 REVERT JUMPDEST POP PUSH1 0x4 CALLDATASIZE LT PUSH2 0x7D JUMPI PUSH1 0x0 CALLDATALOAD PUSH1 0xE0 SHR DUP1 PUSH4 0x8DA5CB5B GT PUSH2 0x5B JUMPI DUP1 PUSH4 0x8DA5CB5B EQ PUSH2 0xD8 JUMPI DUP1 PUSH4 0x8F32D59B EQ PUSH2 0xF6 JUMPI DUP1 PUSH4 0xA8D4A03B EQ PUSH2 0x114 JUMPI DUP1 PUSH4 0xF2FDE38B EQ PUSH2 0x146 JUMPI PUSH2 0x7D JUMP JUMPDEST DUP1 PUSH4 0x715018A6 EQ PUSH2 0x82 JUMPI DUP1 PUSH4 0x7B0F0A19 EQ PUSH2 0x8C JUMPI DUP1 PUSH4 0x8A72EC00 EQ PUSH2 0xBC JUMPI JUMPDEST PUSH1 0x0 DUP1 REVERT JUMPDEST PUSH2 0x8A PUSH2 0x162 JUMP JUMPDEST STOP JUMPDEST PUSH2 0xA6 PUSH1 0x4 DUP1 CALLDATASIZE SUB DUP2 ADD SWAP1 PUSH2 0xA1 SWAP2 SWAP1 PUSH2 0x81E JUMP JUMPDEST PUSH2 0x231 JUMP JUMPDEST PUSH1 0x40 MLOAD PUSH2 0xB3 SWAP2 SWAP1 PUSH2 0x88C JUMP JUMPDEST PUSH1 0x40 MLOAD DUP1 SWAP2 SUB SWAP1 RETURN JUMPDEST PUSH2 0xD6 PUSH1 0x4 DUP1 CALLDATASIZE SUB DUP2 ADD SWAP1 PUSH2 0xD1 SWAP2 SWAP1 PUSH2 0x9ED JUMP JUMPDEST PUSH2 0x264 JUMP JUMPDEST STOP JUMPDEST PUSH2 0xE0 PUSH2 0x27F JUMP JUMPDEST PUSH1 0x40 MLOAD PUSH2 0xED SWAP2 SWAP1 PUSH2 0x88C JUMP JUMPDEST PUSH1 0x40 MLOAD DUP1 SWAP2 SUB SWAP1 RETURN JUMPDEST PUSH2 0xFE PUSH2 0x2A8 JUMP JUMPDEST PUSH1 0x40 MLOAD PUSH2 0x10B SWAP2 SWAP1 PUSH2 0xA51 JUMP JUMPDEST PUSH1 0x40 MLOAD DUP1 SWAP2 SUB SWAP1 RETURN JUMPDEST PUSH2 0x12E PUSH1 0x4 DUP1 CALLDATASIZE SUB DUP2 ADD SWAP1 PUSH2 0x129 SWAP2 SWAP1 PUSH2 0x81E JUMP JUMPDEST PUSH2 0x2FF JUMP JUMPDEST PUSH1 0x40 MLOAD PUSH2 0x13D SWAP4 SWAP3 SWAP2 SWAP1 PUSH2 0xB22 JUMP JUMPDEST PUSH1 0x40 MLOAD DUP1 SWAP2 SUB SWAP1 RETURN JUMPDEST PUSH2 0x160 PUSH1 0x4 DUP1 CALLDATASIZE SUB DUP2 ADD SWAP1 PUSH2 0x15B SWAP2 SWAP1 PUSH2 0xB8C JUMP JUMPDEST PUSH2 0x3D1 JUMP JUMPDEST STOP JUMPDEST PUSH2 0x16A PUSH2 0x2A8 JUMP JUMPDEST PUSH2 0x173 JUMPI PUSH1 0x0 DUP1 REVERT JUMPDEST PUSH1 0x0 PUSH20 0xFFFFFFFFFFFFFFFFFFFFFFFFFFFFFFFFFFFFFFFF AND PUSH1 0x0 DUP1 SLOAD SWAP1 PUSH2 0x100 EXP SWAP1 DIV PUSH20 0xFFFFFFFFFFFFFFFFFFFFFFFFFFFFFFFFFFFFFFFF AND PUSH20 0xFFFFFFFFFFFFFFFFFFFFFFFFFFFFFFFFFFFFFFFF AND PUSH32 0x8BE0079C531659141344CD1FD0A4F28419497F9722A3DAAFE3B4186F6B6457E0 PUSH1 0x40 MLOAD PUSH1 0x40 MLOAD DUP1 SWAP2 SUB SWAP1 LOG3 PUSH1 0x0 DUP1 PUSH1 0x0 PUSH2 0x100 EXP DUP2 SLOAD DUP2 PUSH20 0xFFFFFFFFFFFFFFFFFFFFFFFFFFFFFFFFFFFFFFFF MUL NOT AND SWAP1 DUP4 PUSH20 0xFFFFFFFFFFFFFFFFFFFFFFFFFFFFFFFFFFFFFFFF AND MUL OR SWAP1 SSTORE POP JUMP JUMPDEST PUSH1 0x5 PUSH1 0x20 MSTORE DUP1 PUSH1 0x0 MSTORE PUSH1 0x40 PUSH1 0x0 KECCAK256 PUSH1 0x0 SWAP2 POP SLOAD SWAP1 PUSH2 0x100 EXP SWAP1 DIV PUSH20 0xFFFFFFFFFFFFFFFFFFFFFFFFFFFFFFFFFFFFFFFF AND DUP2 JUMP JUMPDEST PUSH1 0x0 PUSH2 0x26F DUP3 PUSH2 0x3EE JUMP JUMPDEST SWAP1 POP PUSH2 0x27B DUP3 DUP3 PUSH2 0x433 JUMP JUMPDEST POP POP JUMP JUMPDEST PUSH1 0x0 DUP1 PUSH1 0x0 SWAP1 SLOAD SWAP1 PUSH2 0x100 EXP SWAP1 DIV PUSH20 0xFFFFFFFFFFFFFFFFFFFFFFFFFFFFFFFFFFFFFFFF AND SWAP1 POP SWAP1 JUMP JUMPDEST PUSH1 0x0 DUP1 PUSH1 0x0 SWAP1 SLOAD SWAP1 PUSH2 0x100 EXP SWAP1 DIV PUSH20 0xFFFFFFFFFFFFFFFFFFFFFFFFFFFFFFFFFFFFFFFF AND PUSH20 0xFFFFFFFFFFFFFFFFFFFFFFFFFFFFFFFFFFFFFFFF AND CALLER PUSH20 0xFFFFFFFFFFFFFFFFFFFFFFFFFFFFFFFFFFFFFFFF AND EQ SWAP1 POP SWAP1 JUMP JUMPDEST PUSH1 0x4 DUP2 DUP2 SLOAD DUP2 LT PUSH2 0x30F JUMPI PUSH1 0x0 DUP1 REVERT JUMPDEST SWAP1 PUSH1 0x0 MSTORE PUSH1 0x20 PUSH1 0x0 KECCAK256 SWAP1 PUSH1 0x3 MUL ADD PUSH1 0x0 SWAP2 POP SWAP1 POP DUP1 PUSH1 0x0 ADD DUP1 SLOAD PUSH2 0x332 SWAP1 PUSH2 0xBE8 JUMP JUMPDEST DUP1 PUSH1 0x1F ADD PUSH1 0x20 DUP1 SWAP2 DIV MUL PUSH1 0x20 ADD PUSH1 0x40 MLOAD SWAP1 DUP2 ADD PUSH1 0x40 MSTORE DUP1 SWAP3 SWAP2 SWAP1 DUP2 DUP2 MSTORE PUSH1 0x20 ADD DUP3 DUP1 SLOAD PUSH2 0x35E SWAP1 PUSH2 0xBE8 JUMP JUMPDEST DUP1 ISZERO PUSH2 0x3AB JUMPI DUP1 PUSH1 0x1F LT PUSH2 0x380 JUMPI PUSH2 0x100 DUP1 DUP4 SLOAD DIV MUL DUP4 MSTORE SWAP2 PUSH1 0x20 ADD SWAP2 PUSH2 0x3AB JUMP JUMPDEST DUP3 ADD SWAP2 SWAP1 PUSH1 0x0 MSTORE PUSH1 0x20 PUSH1 0x0 KECCAK256 SWAP1 JUMPDEST DUP2 SLOAD DUP2 MSTORE SWAP1 PUSH1 0x1 ADD SWAP1 PUSH1 0x20 ADD DUP1 DUP4 GT PUSH2 0x38E JUMPI DUP3 SWAP1 SUB PUSH1 0x1F AND DUP3 ADD SWAP2 JUMPDEST POP POP POP POP POP SWAP1 DUP1 PUSH1 0x1 ADD SLOAD SWAP1 DUP1 PUSH1 0x2 ADD PUSH1 0x0 SWAP1 SLOAD SWAP1 PUSH2 0x100 EXP SWAP1 DIV PUSH4 0xFFFFFFFF AND SWAP1 POP DUP4 JUMP JUMPDEST PUSH2 0x3D9 PUSH2 0x2A8 JUMP JUMPDEST PUSH2 0x3E2 JUMPI PUSH1 0x0 DUP1 REVERT JUMPDEST PUSH2 0x3EB DUP2 PUSH2 0x60E JUMP JUMPDEST POP JUMP JUMPDEST PUSH1 0x0 DUP1 DUP3 PUSH1 0x40 MLOAD PUSH1 0x20 ADD PUSH2 0x402 SWAP2 SWAP1 PUSH2 0xC56 JUMP JUMPDEST PUSH1 0x40 MLOAD PUSH1 0x20 DUP2 DUP4 SUB SUB DUP2 MSTORE SWAP1 PUSH1 0x40 MSTORE DUP1 MLOAD SWAP1 PUSH1 0x20 ADD KECCAK256 PUSH1 0x0 SHR SWAP1 POP PUSH1 0x2 SLOAD DUP2 PUSH2 0x42B SWAP2 SWAP1 PUSH2 0xC9C JUMP JUMPDEST SWAP2 POP POP SWAP2 SWAP1 POP JUMP JUMPDEST PUSH1 0x4 PUSH1 0x40 MLOAD DUP1 PUSH1 0x60 ADD PUSH1 0x40 MSTORE DUP1 DUP5 DUP2 MSTORE PUSH1 0x20 ADD DUP4 DUP2 MSTORE PUSH1 0x20 ADD PUSH1 0x1 PUSH4 0xFFFFFFFF AND DUP2 MSTORE POP SWAP1 DUP1 PUSH1 0x1 DUP2 SLOAD ADD DUP1 DUP3 SSTORE DUP1 SWAP2 POP POP PUSH1 0x1 SWAP1 SUB SWAP1 PUSH1 0x0 MSTORE PUSH1 0x20 PUSH1 0x0 KECCAK256 SWAP1 PUSH1 0x3 MUL ADD PUSH1 0x0 SWAP1 SWAP2 SWAP1 SWAP2 SWAP1 SWAP2 POP PUSH1 0x0 DUP3 ADD MLOAD DUP2 PUSH1 0x0 ADD SWAP1 DUP1 MLOAD SWAP1 PUSH1 0x20 ADD SWAP1 PUSH2 0x49C SWAP3 SWAP2 SWAP1 PUSH2 0x731 JUMP JUMPDEST POP PUSH1 0x20 DUP3 ADD MLOAD DUP2 PUSH1 0x1 ADD SSTORE PUSH1 0x40 DUP3 ADD MLOAD DUP2 PUSH1 0x2 ADD PUSH1 0x0 PUSH2 0x100 EXP DUP2 SLOAD DUP2 PUSH4 0xFFFFFFFF MUL NOT AND SWAP1 DUP4 PUSH4 0xFFFFFFFF AND MUL OR SWAP1 SSTORE POP POP POP PUSH1 0x0 PUSH1 0x1 PUSH1 0x4 DUP1 SLOAD SWAP1 POP PUSH2 0x4E4 SWAP2 SWAP1 PUSH2 0xCFC JUMP JUMPDEST SWAP1 POP CALLER PUSH1 0x5 PUSH1 0x0 DUP4 DUP2 MSTORE PUSH1 0x20 ADD SWAP1 DUP2 MSTORE PUSH1 0x20 ADD PUSH1 0x0 KECCAK256 PUSH1 0x0 PUSH2 0x100 EXP DUP2 SLOAD DUP2 PUSH20 0xFFFFFFFFFFFFFFFFFFFFFFFFFFFFFFFFFFFFFFFF MUL NOT AND SWAP1 DUP4 PUSH20 0xFFFFFFFFFFFFFFFFFFFFFFFFFFFFFFFFFFFFFFFF AND MUL OR SWAP1 SSTORE POP PUSH2 0x58B PUSH1 0x1 PUSH1 0x6 PUSH1 0x0 CALLER PUSH20 0xFFFFFFFFFFFFFFFFFFFFFFFFFFFFFFFFFFFFFFFF AND PUSH20 0xFFFFFFFFFFFFFFFFFFFFFFFFFFFFFFFFFFFFFFFF AND DUP2 MSTORE PUSH1 0x20 ADD SWAP1 DUP2 MSTORE PUSH1 0x20 ADD PUSH1 0x0 KECCAK256 SLOAD PUSH2 0x705 SWAP1 SWAP2 SWAP1 PUSH4 0xFFFFFFFF AND JUMP JUMPDEST PUSH1 0x6 PUSH1 0x0 CALLER PUSH20 0xFFFFFFFFFFFFFFFFFFFFFFFFFFFFFFFFFFFFFFFF AND PUSH20 0xFFFFFFFFFFFFFFFFFFFFFFFFFFFFFFFFFFFFFFFF AND DUP2 MSTORE PUSH1 0x20 ADD SWAP1 DUP2 MSTORE PUSH1 0x20 ADD PUSH1 0x0 KECCAK256 DUP2 SWAP1 SSTORE POP PUSH32 0xC404AE7075893405FEF7BA0A0001D5AB3A05DE4F9D9854F10259D60D822063A6 DUP2 DUP5 DUP5 PUSH1 0x40 MLOAD PUSH2 0x601 SWAP4 SWAP3 SWAP2 SWAP1 PUSH2 0xD30 JUMP JUMPDEST PUSH1 0x40 MLOAD DUP1 SWAP2 SUB SWAP1 LOG1 POP POP POP JUMP JUMPDEST PUSH1 0x0 PUSH20 0xFFFFFFFFFFFFFFFFFFFFFFFFFFFFFFFFFFFFFFFF AND DUP2 PUSH20 0xFFFFFFFFFFFFFFFFFFFFFFFFFFFFFFFFFFFFFFFF AND EQ ISZERO PUSH2 0x648 JUMPI PUSH1 0x0 DUP1 REVERT JUMPDEST DUP1 PUSH20 0xFFFFFFFFFFFFFFFFFFFFFFFFFFFFFFFFFFFFFFFF AND PUSH1 0x0 DUP1 SLOAD SWAP1 PUSH2 0x100 EXP SWAP1 DIV PUSH20 0xFFFFFFFFFFFFFFFFFFFFFFFFFFFFFFFFFFFFFFFF AND PUSH20 0xFFFFFFFFFFFFFFFFFFFFFFFFFFFFFFFFFFFFFFFF AND PUSH32 0x8BE0079C531659141344CD1FD0A4F28419497F9722A3DAAFE3B4186F6B6457E0 PUSH1 0x40 MLOAD PUSH1 0x40 MLOAD DUP1 SWAP2 SUB SWAP1 LOG3 DUP1 PUSH1 0x0 DUP1 PUSH2 0x100 EXP DUP2 SLOAD DUP2 PUSH20 0xFFFFFFFFFFFFFFFFFFFFFFFFFFFFFFFFFFFFFFFF MUL NOT AND SWAP1 DUP4 PUSH20 0xFFFFFFFFFFFFFFFFFFFFFFFFFFFFFFFFFFFFFFFF AND MUL OR SWAP1 SSTORE POP POP JUMP JUMPDEST PUSH1 0x0 DUP1 DUP3 DUP5 PUSH2 0x714 SWAP2 SWAP1 PUSH2 0xD6E JUMP JUMPDEST SWAP1 POP DUP4 DUP2 LT ISZERO PUSH2 0x727 JUMPI PUSH2 0x726 PUSH2 0xDC4 JUMP JUMPDEST JUMPDEST DUP1 SWAP2 POP POP SWAP3 SWAP2 POP POP JUMP JUMPDEST DUP3 DUP1 SLOAD PUSH2 0x73D SWAP1 PUSH2 0xBE8 JUMP JUMPDEST SWAP1 PUSH1 0x0 MSTORE PUSH1 0x20 PUSH1 0x0 KECCAK256 SWAP1 PUSH1 0x1F ADD PUSH1 0x20 SWAP1 DIV DUP2 ADD SWAP3 DUP3 PUSH2 0x75F JUMPI PUSH1 0x0 DUP6 SSTORE PUSH2 0x7A6 JUMP JUMPDEST DUP3 PUSH1 0x1F LT PUSH2 0x778 JUMPI DUP1 MLOAD PUSH1 0xFF NOT AND DUP4 DUP1 ADD OR DUP6 SSTORE PUSH2 0x7A6 JUMP JUMPDEST DUP3 DUP1 ADD PUSH1 0x1 ADD DUP6 SSTORE DUP3 ISZERO PUSH2 0x7A6 JUMPI SWAP2 DUP3 ADD JUMPDEST DUP3 DUP2 GT ISZERO PUSH2 0x7A5 JUMPI DUP3 MLOAD DUP3 SSTORE SWAP2 PUSH1 0x20 ADD SWAP2 SWAP1 PUSH1 0x1 ADD SWAP1 PUSH2 0x78A JUMP JUMPDEST JUMPDEST POP SWAP1 POP PUSH2 0x7B3 SWAP2 SWAP1 PUSH2 0x7B7 JUMP JUMPDEST POP SWAP1 JUMP JUMPDEST JUMPDEST DUP1 DUP3 GT ISZERO PUSH2 0x7D0 JUMPI PUSH1 0x0 DUP2 PUSH1 0x0 SWAP1 SSTORE POP PUSH1 0x1 ADD PUSH2 0x7B8 JUMP JUMPDEST POP SWAP1 JUMP JUMPDEST PUSH1 0x0 PUSH1 0x40 MLOAD SWAP1 POP SWAP1 JUMP JUMPDEST PUSH1 0x0 DUP1 REVERT JUMPDEST PUSH1 0x0 DUP1 REVERT JUMPDEST PUSH1 0x0 DUP2 SWAP1 POP SWAP2 SWAP1 POP JUMP JUMPDEST PUSH2 0x7FB DUP2 PUSH2 0x7E8 JUMP JUMPDEST DUP2 EQ PUSH2 0x806 JUMPI PUSH1 0x0 DUP1 REVERT JUMPDEST POP JUMP JUMPDEST PUSH1 0x0 DUP2 CALLDATALOAD SWAP1 POP PUSH2 0x818 DUP2 PUSH2 0x7F2 JUMP JUMPDEST SWAP3 SWAP2 POP POP JUMP JUMPDEST PUSH1 0x0 PUSH1 0x20 DUP3 DUP5 SUB SLT ISZERO PUSH2 0x834 JUMPI PUSH2 0x833 PUSH2 0x7DE JUMP JUMPDEST JUMPDEST PUSH1 0x0 PUSH2 0x842 DUP5 DUP3 DUP6 ADD PUSH2 0x809 JUMP JUMPDEST SWAP2 POP POP SWAP3 SWAP2 POP POP JUMP JUMPDEST PUSH1 0x0 PUSH20 0xFFFFFFFFFFFFFFFFFFFFFFFFFFFFFFFFFFFFFFFF DUP3 AND SWAP1 POP SWAP2 SWAP1 POP JUMP JUMPDEST PUSH1 0x0 PUSH2 0x876 DUP3 PUSH2 0x84B JUMP JUMPDEST SWAP1 POP SWAP2 SWAP1 POP JUMP JUMPDEST PUSH2 0x886 DUP2 PUSH2 0x86B JUMP JUMPDEST DUP3 MSTORE POP POP JUMP JUMPDEST PUSH1 0x0 PUSH1 0x20 DUP3 ADD SWAP1 POP PUSH2 0x8A1 PUSH1 0x0 DUP4 ADD DUP5 PUSH2 0x87D JUMP JUMPDEST SWAP3 SWAP2 POP POP JUMP JUMPDEST PUSH1 0x0 DUP1 REVERT JUMPDEST PUSH1 0x0 DUP1 REVERT JUMPDEST PUSH1 0x0 PUSH1 0x1F NOT PUSH1 0x1F DUP4 ADD AND SWAP1 POP SWAP2 SWAP1 POP JUMP JUMPDEST PUSH32 0x4E487B7100000000000000000000000000000000000000000000000000000000 PUSH1 0x0 MSTORE PUSH1 0x41 PUSH1 0x4 MSTORE PUSH1 0x24 PUSH1 0x0 REVERT JUMPDEST PUSH2 0x8FA DUP3 PUSH2 0x8B1 JUMP JUMPDEST DUP2 ADD DUP2 DUP2 LT PUSH8 0xFFFFFFFFFFFFFFFF DUP3 GT OR ISZERO PUSH2 0x919 JUMPI PUSH2 0x918 PUSH2 0x8C2 JUMP JUMPDEST JUMPDEST DUP1 PUSH1 0x40 MSTORE POP POP POP JUMP JUMPDEST PUSH1 0x0 PUSH2 0x92C PUSH2 0x7D4 JUMP JUMPDEST SWAP1 POP PUSH2 0x938 DUP3 DUP3 PUSH2 0x8F1 JUMP JUMPDEST SWAP2 SWAP1 POP JUMP JUMPDEST PUSH1 0x0 PUSH8 0xFFFFFFFFFFFFFFFF DUP3 GT ISZERO PUSH2 0x958 JUMPI PUSH2 0x957 PUSH2 0x8C2 JUMP JUMPDEST JUMPDEST PUSH2 0x961 DUP3 PUSH2 0x8B1 JUMP JUMPDEST SWAP1 POP PUSH1 0x20 DUP2 ADD SWAP1 POP SWAP2 SWAP1 POP JUMP JUMPDEST DUP3 DUP2 DUP4 CALLDATACOPY PUSH1 0x0 DUP4 DUP4 ADD MSTORE POP POP POP JUMP JUMPDEST PUSH1 0x0 PUSH2 0x990 PUSH2 0x98B DUP5 PUSH2 0x93D JUMP JUMPDEST PUSH2 0x922 JUMP JUMPDEST SWAP1 POP DUP3 DUP2 MSTORE PUSH1 0x20 DUP2 ADD DUP5 DUP5 DUP5 ADD GT ISZERO PUSH2 0x9AC JUMPI PUSH2 0x9AB PUSH2 0x8AC JUMP JUMPDEST JUMPDEST PUSH2 0x9B7 DUP5 DUP3 DUP6 PUSH2 0x96E JUMP JUMPDEST POP SWAP4 SWAP3 POP POP POP JUMP JUMPDEST PUSH1 0x0 DUP3 PUSH1 0x1F DUP4 ADD SLT PUSH2 0x9D4 JUMPI PUSH2 0x9D3 PUSH2 0x8A7 JUMP JUMPDEST JUMPDEST DUP2 CALLDATALOAD PUSH2 0x9E4 DUP5 DUP3 PUSH1 0x20 DUP7 ADD PUSH2 0x97D JUMP JUMPDEST SWAP2 POP POP SWAP3 SWAP2 POP POP JUMP JUMPDEST PUSH1 0x0 PUSH1 0x20 DUP3 DUP5 SUB SLT ISZERO PUSH2 0xA03 JUMPI PUSH2 0xA02 PUSH2 0x7DE JUMP JUMPDEST JUMPDEST PUSH1 0x0 DUP3 ADD CALLDATALOAD PUSH8 0xFFFFFFFFFFFFFFFF DUP2 GT ISZERO PUSH2 0xA21 JUMPI PUSH2 0xA20 PUSH2 0x7E3 JUMP JUMPDEST JUMPDEST PUSH2 0xA2D DUP5 DUP3 DUP6 ADD PUSH2 0x9BF JUMP JUMPDEST SWAP2 POP POP SWAP3 SWAP2 POP POP JUMP JUMPDEST PUSH1 0x0 DUP2 ISZERO ISZERO SWAP1 POP SWAP2 SWAP1 POP JUMP JUMPDEST PUSH2 0xA4B DUP2 PUSH2 0xA36 JUMP JUMPDEST DUP3 MSTORE POP POP JUMP JUMPDEST PUSH1 0x0 PUSH1 0x20 DUP3 ADD SWAP1 POP PUSH2 0xA66 PUSH1 0x0 DUP4 ADD DUP5 PUSH2 0xA42 JUMP JUMPDEST SWAP3 SWAP2 POP POP JUMP JUMPDEST PUSH1 0x0 DUP2 MLOAD SWAP1 POP SWAP2 SWAP1 POP JUMP JUMPDEST PUSH1 0x0 DUP3 DUP3 MSTORE PUSH1 0x20 DUP3 ADD SWAP1 POP SWAP3 SWAP2 POP POP JUMP JUMPDEST PUSH1 0x0 JUMPDEST DUP4 DUP2 LT ISZERO PUSH2 0xAA6 JUMPI DUP1 DUP3 ADD MLOAD DUP2 DUP5 ADD MSTORE PUSH1 0x20 DUP2 ADD SWAP1 POP PUSH2 0xA8B JUMP JUMPDEST DUP4 DUP2 GT ISZERO PUSH2 0xAB5 JUMPI PUSH1 0x0 DUP5 DUP5 ADD MSTORE JUMPDEST POP POP POP POP JUMP JUMPDEST PUSH1 0x0 PUSH2 0xAC6 DUP3 PUSH2 0xA6C JUMP JUMPDEST PUSH2 0xAD0 DUP2 DUP6 PUSH2 0xA77 JUMP JUMPDEST SWAP4 POP PUSH2 0xAE0 DUP2 DUP6 PUSH1 0x20 DUP7 ADD PUSH2 0xA88 JUMP JUMPDEST PUSH2 0xAE9 DUP2 PUSH2 0x8B1 JUMP JUMPDEST DUP5 ADD SWAP2 POP POP SWAP3 SWAP2 POP POP JUMP JUMPDEST PUSH2 0xAFD DUP2 PUSH2 0x7E8 JUMP JUMPDEST DUP3 MSTORE POP POP JUMP JUMPDEST PUSH1 0x0 PUSH4 0xFFFFFFFF DUP3 AND SWAP1 POP SWAP2 SWAP1 POP JUMP JUMPDEST PUSH2 0xB1C DUP2 PUSH2 0xB03 JUMP JUMPDEST DUP3 MSTORE POP POP JUMP JUMPDEST PUSH1 0x0 PUSH1 0x60 DUP3 ADD SWAP1 POP DUP2 DUP2 SUB PUSH1 0x0 DUP4 ADD MSTORE PUSH2 0xB3C DUP2 DUP7 PUSH2 0xABB JUMP JUMPDEST SWAP1 POP PUSH2 0xB4B PUSH1 0x20 DUP4 ADD DUP6 PUSH2 0xAF4 JUMP JUMPDEST PUSH2 0xB58 PUSH1 0x40 DUP4 ADD DUP5 PUSH2 0xB13 JUMP JUMPDEST SWAP5 SWAP4 POP POP POP POP JUMP JUMPDEST PUSH2 0xB69 DUP2 PUSH2 0x86B JUMP JUMPDEST DUP2 EQ PUSH2 0xB74 JUMPI PUSH1 0x0 DUP1 REVERT JUMPDEST POP JUMP JUMPDEST PUSH1 0x0 DUP2 CALLDATALOAD SWAP1 POP PUSH2 0xB86 DUP2 PUSH2 0xB60 JUMP JUMPDEST SWAP3 SWAP2 POP POP JUMP JUMPDEST PUSH1 0x0 PUSH1 0x20 DUP3 DUP5 SUB SLT ISZERO PUSH2 0xBA2 JUMPI PUSH2 0xBA1 PUSH2 0x7DE JUMP JUMPDEST JUMPDEST PUSH1 0x0 PUSH2 0xBB0 DUP5 DUP3 DUP6 ADD PUSH2 0xB77 JUMP JUMPDEST SWAP2 POP POP SWAP3 SWAP2 POP POP JUMP JUMPDEST PUSH32 0x4E487B7100000000000000000000000000000000000000000000000000000000 PUSH1 0x0 MSTORE PUSH1 0x22 PUSH1 0x4 MSTORE PUSH1 0x24 PUSH1 0x0 REVERT JUMPDEST PUSH1 0x0 PUSH1 0x2 DUP3 DIV SWAP1 POP PUSH1 0x1 DUP3 AND DUP1 PUSH2 0xC00 JUMPI PUSH1 0x7F DUP3 AND SWAP2 POP JUMPDEST PUSH1 0x20 DUP3 LT DUP2 EQ ISZERO PUSH2 0xC14 JUMPI PUSH2 0xC13 PUSH2 0xBB9 JUMP JUMPDEST JUMPDEST POP SWAP2 SWAP1 POP JUMP JUMPDEST PUSH1 0x0 DUP2 SWAP1 POP SWAP3 SWAP2 POP POP JUMP JUMPDEST PUSH1 0x0 PUSH2 0xC30 DUP3 PUSH2 0xA6C JUMP JUMPDEST PUSH2 0xC3A DUP2 DUP6 PUSH2 0xC1A JUMP JUMPDEST SWAP4 POP PUSH2 0xC4A DUP2 DUP6 PUSH1 0x20 DUP7 ADD PUSH2 0xA88 JUMP JUMPDEST DUP1 DUP5 ADD SWAP2 POP POP SWAP3 SWAP2 POP POP JUMP JUMPDEST PUSH1 0x0 PUSH2 0xC62 DUP3 DUP5 PUSH2 0xC25 JUMP JUMPDEST SWAP2 POP DUP2 SWAP1 POP SWAP3 SWAP2 POP POP JUMP JUMPDEST PUSH32 0x4E487B7100000000000000000000000000000000000000000000000000000000 PUSH1 0x0 MSTORE PUSH1 0x12 PUSH1 0x4 MSTORE PUSH1 0x24 PUSH1 0x0 REVERT JUMPDEST PUSH1 0x0 PUSH2 0xCA7 DUP3 PUSH2 0x7E8 JUMP JUMPDEST SWAP2 POP PUSH2 0xCB2 DUP4 PUSH2 0x7E8 JUMP JUMPDEST SWAP3 POP DUP3 PUSH2 0xCC2 JUMPI PUSH2 0xCC1 PUSH2 0xC6D JUMP JUMPDEST JUMPDEST DUP3 DUP3 MOD SWAP1 POP SWAP3 SWAP2 POP POP JUMP JUMPDEST PUSH32 0x4E487B7100000000000000000000000000000000000000000000000000000000 PUSH1 0x0 MSTORE PUSH1 0x11 PUSH1 0x4 MSTORE PUSH1 0x24 PUSH1 0x0 REVERT JUMPDEST PUSH1 0x0 PUSH2 0xD07 DUP3 PUSH2 0x7E8 JUMP JUMPDEST SWAP2 POP PUSH2 0xD12 DUP4 PUSH2 0x7E8 JUMP JUMPDEST SWAP3 POP DUP3 DUP3 LT ISZERO PUSH2 0xD25 JUMPI PUSH2 0xD24 PUSH2 0xCCD JUMP JUMPDEST JUMPDEST DUP3 DUP3 SUB SWAP1 POP SWAP3 SWAP2 POP POP JUMP JUMPDEST PUSH1 0x0 PUSH1 0x60 DUP3 ADD SWAP1 POP PUSH2 0xD45 PUSH1 0x0 DUP4 ADD DUP7 PUSH2 0xAF4 JUMP JUMPDEST DUP2 DUP2 SUB PUSH1 0x20 DUP4 ADD MSTORE PUSH2 0xD57 DUP2 DUP6 PUSH2 0xABB JUMP JUMPDEST SWAP1 POP PUSH2 0xD66 PUSH1 0x40 DUP4 ADD DUP5 PUSH2 0xAF4 JUMP JUMPDEST SWAP5 SWAP4 POP POP POP POP JUMP JUMPDEST PUSH1 0x0 PUSH2 0xD79 DUP3 PUSH2 0x7E8 JUMP JUMPDEST SWAP2 POP PUSH2 0xD84 DUP4 PUSH2 0x7E8 JUMP JUMPDEST SWAP3 POP DUP3 PUSH32 0xFFFFFFFFFFFFFFFFFFFFFFFFFFFFFFFFFFFFFFFFFFFFFFFFFFFFFFFFFFFFFFFF SUB DUP3 GT ISZERO PUSH2 0xDB9 JUMPI PUSH2 0xDB8 PUSH2 0xCCD JUMP JUMPDEST JUMPDEST DUP3 DUP3 ADD SWAP1 POP SWAP3 SWAP2 POP POP JUMP JUMPDEST PUSH32 0x4E487B7100000000000000000000000000000000000000000000000000000000 PUSH1 0x0 MSTORE PUSH1 0x1 PUSH1 0x4 MSTORE PUSH1 0x24 PUSH1 0x0 REVERT INVALID LOG2 PUSH5 0x6970667358 0x22 SLT KECCAK256 SDIV ORIGIN MULMOD PUSH2 0x7772 0xD6 CALLDATALOAD MSTORE PUSH5 0x4D99FDE26B 0xE9 0xAF 0xCF 0x4F CALLVALUE 0xF7 EXP REVERT SHR 0x4D SWAP15 PUSH28 0xF1FB59C61964736F6C634300080A0033000000000000000000000000 "},"gasEstimates":{"creation":{"codeDepositCost":"725000","executionCost":"infinite","totalCost":"infinite"},"external":{"createRandomHero(string)":"infinite","heroToOwner(uint256)":"2862","heroes(uint256)":"infinite","isOwner()":"2518","owner()":"2522","renounceOwnership()":"30295","transferOwnership(address)":"30738"},"internal":{"_createHero(string memory,uint256)":"infinite","_generateRandomDna(string memory)":"infinite"}},"methodIdentifiers":{"createRandomHero(string)":"8a72ec00","heroToOwner(uint256)":"7b0f0a19","heroes(uint256)":"a8d4a03b","isOwner()":"8f32d59b","owner()":"8da5cb5b","renounceOwnership()":"715018a6","transferOwnership(address)":"f2fde38b"}},"storageLayout":{"storage":[{"astId":344,"contract":"HeroOwnership.sol:HeroFactory","label":"_owner","offset":0,"slot":"0","type":"t_address"},{"astId":474,"contract":"HeroOwnership.sol:HeroFactory","label":"dnaDigits","offset":0,"slot":"1","type":"t_uint256"},{"astId":479,"contract":"HeroOwnership.sol:HeroFactory","label":"dnaModulus","offset":0,"slot":"2","type":"t_uint256"},{"astId":482,"contract":"HeroOwnership.sol:HeroFactory","label":"cooldownTime","offset":0,"slot":"3","type":"t_uint256"},{"astId":501,"contract":"HeroOwnership.sol:HeroFactory","label":"heroes","offset":0,"slot":"4","type":"t_array(t_struct(Hero)497_storage)dyn_storage"},{"astId":505,"contract":"HeroOwnership.sol:HeroFactory","label":"heroToOwner","offset":0,"slot":"5","type":"t_mapping(t_uint256,t_address)"},{"astId":509,"contract":"HeroOwnership.sol:HeroFactory","label":"ownerHeroCount","offset":0,"slot":"6","type":"t_mapping(t_address,t_uint256)"}],"types":{"t_address":{"encoding":"inplace","label":"address","numberOfBytes":"20"},"t_array(t_struct(Hero)497_storage)dyn_storage":{"base":"t_struct(Hero)497_storage","encoding":"dynamic_array","label":"struct HeroFactory.Hero[]","numberOfBytes":"32"},"t_mapping(t_address,t_uint256)":{"encoding":"mapping","key":"t_address","label":"mapping(address => uint256)","numberOfBytes":"32","value":"t_uint256"},"t_mapping(t_uint256,t_address)":{"encoding":"mapping","key":"t_uint256","label":"mapping(uint256 => address)","numberOfBytes":"32","value":"t_address"},"t_string_storage":{"encoding":"bytes","label":"string","numberOfBytes":"32"},"t_struct(Hero)497_storage":{"encoding":"inplace","label":"struct HeroFactory.Hero","members":[{"astId":492,"contract":"HeroOwnership.sol:HeroFactory","label":"name","offset":0,"slot":"0","type":"t_string_storage"},{"astId":494,"contract":"HeroOwnership.sol:HeroFactory","label":"dna","offset":0,"slot":"1","type":"t_uint256"},{"astId":496,"contract":"HeroOwnership.sol:HeroFactory","label":"level","offset":0,"slot":"2","type":"t_uint32"}],"numberOfBytes":"96"},"t_uint256":{"encoding":"inplace","label":"uint256","numberOfBytes":"32"},"t_uint32":{"encoding":"inplace","label":"uint32","numberOfBytes":"4"}}},"userdoc":{"kind":"user","methods":{"renounceOwnership()":{"notice":"Renouncing to ownership will leave the contract without an owner. It will not be possible to call the functions with the `onlyOwner` modifier anymore."}},"version":1}}