{"abi":[{"anonymous":false,"inputs":[{"indexed":false,"internalType":"uint256","name":"heroId","type":"uint256"},{"indexed":false,"internalType":"string","name":"name","type":"string"},{"indexed":false,"internalType":"uint256","name":"dna","type":"uint256"}],"name":"NewHero","type":"event"},{"anonymous":false,"inputs":[{"indexed":true,"internalType":"address","name":"previousOwner","type":"address"},{"indexed":true,"internalType":"address","name":"newOwner","type":"address"}],"name":"OwnershipTransferred","type":"event"},{"inputs":[{"internalType":"string","name":"_name","type":"string"}],"name":"createRandomHero","outputs":[],"stateMutability":"nonpayable","type":"function"},{"inputs":[{"internalType":"address","name":"_owner","type":"address"}],"name":"getHeroesByOwner","outputs":[{"internalType":"uint256[]","name":"","type":"uint256[]"}],"stateMutability":"view","type":"function"},{"inputs":[{"internalType":"uint256","name":"","type":"uint256"}],"name":"heroToOwner","outputs":[{"internalType":"address","name":"","type":"address"}],"stateMutability":"view","type":"function"},{"inputs":[{"internalType":"uint256","name":"","type":"uint256"}],"name":"heroes","outputs":[{"internalType":"string","name":"name","type":"string"},{"internalType":"uint256","name":"dna","type":"uint256"},{"internalType":"uint32","name":"level","type":"uint32"}],"stateMutability":"view","type":"function"},{"inputs":[],"name":"isOwner","outputs":[{"internalType":"bool","name":"","type":"bool"}],"stateMutability":"view","type":"function"},{"inputs":[],"name":"owner","outputs":[{"internalType":"address","name":"","type":"address"}],"stateMutability":"view","type":"function"},{"inputs":[],"name":"renounceOwnership","outputs":[],"stateMutability":"nonpayable","type":"function"},{"inputs":[{"internalType":"address","name":"newOwner","type":"address"}],"name":"transferOwnership","outputs":[],"stateMutability":"nonpayable","type":"function"}],"devdoc":{"kind":"dev","methods":{"isOwner()":{"returns":{"_0":"true if `msg.sender` is the owner of the contract."}},"owner()":{"returns":{"_0":"the address of the owner."}},"renounceOwnership()":{"details":"Allows the current owner to relinquish control of the contract."},"transferOwnership(address)":{"details":"Allows the current owner to transfer control of the contract to a newOwner.","params":{"newOwner":"The address to transfer ownership to."}}},"version":1},"evm":{"assembly":"    /* \"HeroOwnership.sol\":6238:6630  contract HeroHelper is HeroFactory {... */\n  mstore(0x40, 0x80)\n    /* \"HeroOwnership.sol\":5206:5208  16 */\n  0x10\n    /* \"HeroOwnership.sol\":5186:5208  uint256 dnaDigits = 16 */\n  0x01\n  sstore\n    /* \"HeroOwnership.sol\":5237:5246  dnaDigits */\n  sload(0x01)\n    /* \"HeroOwnership.sol\":5233:5235  10 */\n  0x0a\n    /* \"HeroOwnership.sol\":5233:5246  10**dnaDigits */\n  tag_1\n  swap2\n  swap1\n  tag_2\n  jump\t// in\ntag_1:\n    /* \"HeroOwnership.sol\":5212:5246  uint256 dnaModulus = 10**dnaDigits */\n  0x02\n  sstore\n    /* \"HeroOwnership.sol\":5273:5279  1 days */\n  0x015180\n    /* \"HeroOwnership.sol\":5250:5279  uint256 cooldownTime = 1 days */\n  0x03\n  sstore\n    /* \"HeroOwnership.sol\":6238:6630  contract HeroHelper is HeroFactory {... */\n  callvalue\n  dup1\n  iszero\n  tag_3\n  jumpi\n  0x00\n  dup1\n  revert\ntag_3:\n  pop\n    /* \"HeroOwnership.sol\":3604:3614  msg.sender */\n  caller\n    /* \"HeroOwnership.sol\":3595:3601  _owner */\n  0x00\n  dup1\n    /* \"HeroOwnership.sol\":3595:3614  _owner = msg.sender */\n  0x0100\n  exp\n  dup2\n  sload\n  dup2\n  0xffffffffffffffffffffffffffffffffffffffff\n  mul\n  not\n  and\n  swap1\n  dup4\n  0xffffffffffffffffffffffffffffffffffffffff\n  and\n  mul\n  or\n  swap1\n  sstore\n  pop\n    /* \"HeroOwnership.sol\":3658:3664  _owner */\n  0x00\n  dup1\n  sload\n  swap1\n  0x0100\n  exp\n  swap1\n  div\n  0xffffffffffffffffffffffffffffffffffffffff\n  and\n    /* \"HeroOwnership.sol\":3625:3665  OwnershipTransferred(address(0), _owner) */\n  0xffffffffffffffffffffffffffffffffffffffff\n  and\n    /* \"HeroOwnership.sol\":3654:3655  0 */\n  0x00\n    /* \"HeroOwnership.sol\":3625:3665  OwnershipTransferred(address(0), _owner) */\n  0xffffffffffffffffffffffffffffffffffffffff\n  and\n  0x8be0079c531659141344cd1fd0a4f28419497f9722a3daafe3b4186f6b6457e0\n  mload(0x40)\n  mload(0x40)\n  dup1\n  swap2\n  sub\n  swap1\n  log3\n    /* \"HeroOwnership.sol\":6238:6630  contract HeroHelper is HeroFactory {... */\n  jump(tag_6)\n    /* \"#utility.yul\":7:187   */\ntag_7:\n    /* \"#utility.yul\":55:132   */\n  0x4e487b7100000000000000000000000000000000000000000000000000000000\n    /* \"#utility.yul\":52:53   */\n  0x00\n    /* \"#utility.yul\":45:133   */\n  mstore\n    /* \"#utility.yul\":152:156   */\n  0x11\n    /* \"#utility.yul\":149:150   */\n  0x04\n    /* \"#utility.yul\":142:157   */\n  mstore\n    /* \"#utility.yul\":176:180   */\n  0x24\n    /* \"#utility.yul\":173:174   */\n  0x00\n    /* \"#utility.yul\":166:181   */\n  revert\n    /* \"#utility.yul\":193:295   */\ntag_8:\n    /* \"#utility.yul\":235:243   */\n  0x00\n    /* \"#utility.yul\":282:287   */\n  dup2\n    /* \"#utility.yul\":279:280   */\n  0x01\n    /* \"#utility.yul\":275:288   */\n  shr\n    /* \"#utility.yul\":254:288   */\n  swap1\n  pop\n    /* \"#utility.yul\":193:295   */\n  swap2\n  swap1\n  pop\n  jump\t// out\n    /* \"#utility.yul\":301:1149   */\ntag_9:\n    /* \"#utility.yul\":362:367   */\n  0x00\n    /* \"#utility.yul\":369:373   */\n  dup1\n    /* \"#utility.yul\":393:399   */\n  dup3\n    /* \"#utility.yul\":384:399   */\n  swap2\n  pop\n    /* \"#utility.yul\":417:422   */\n  dup4\n    /* \"#utility.yul\":408:422   */\n  swap1\n  pop\n    /* \"#utility.yul\":431:1143   */\ntag_16:\n    /* \"#utility.yul\":452:453   */\n  0x01\n    /* \"#utility.yul\":442:450   */\n  dup6\n    /* \"#utility.yul\":439:454   */\n  gt\n    /* \"#utility.yul\":431:1143   */\n  iszero\n  tag_18\n  jumpi\n    /* \"#utility.yul\":547:551   */\n  dup1\n    /* \"#utility.yul\":542:545   */\n  dup7\n    /* \"#utility.yul\":538:552   */\n  div\n    /* \"#utility.yul\":532:536   */\n  dup2\n    /* \"#utility.yul\":529:553   */\n  gt\n    /* \"#utility.yul\":526:576   */\n  iszero\n  tag_19\n  jumpi\n    /* \"#utility.yul\":556:574   */\n  tag_20\n  tag_7\n  jump\t// in\ntag_20:\n    /* \"#utility.yul\":526:576   */\ntag_19:\n    /* \"#utility.yul\":606:607   */\n  0x01\n    /* \"#utility.yul\":596:604   */\n  dup6\n    /* \"#utility.yul\":592:608   */\n  and\n    /* \"#utility.yul\":589:1040   */\n  iszero\n  tag_21\n  jumpi\n    /* \"#utility.yul\":1021:1025   */\n  dup1\n    /* \"#utility.yul\":1014:1019   */\n  dup3\n    /* \"#utility.yul\":1010:1026   */\n  mul\n    /* \"#utility.yul\":1001:1026   */\n  swap2\n  pop\n    /* \"#utility.yul\":589:1040   */\ntag_21:\n    /* \"#utility.yul\":1071:1075   */\n  dup1\n    /* \"#utility.yul\":1065:1069   */\n  dup2\n    /* \"#utility.yul\":1061:1076   */\n  mul\n    /* \"#utility.yul\":1053:1076   */\n  swap1\n  pop\n    /* \"#utility.yul\":1101:1133   */\n  tag_22\n    /* \"#utility.yul\":1124:1132   */\n  dup6\n    /* \"#utility.yul\":1101:1133   */\n  tag_8\n  jump\t// in\ntag_22:\n    /* \"#utility.yul\":1089:1133   */\n  swap5\n  pop\n    /* \"#utility.yul\":431:1143   */\n  jump(tag_16)\ntag_18:\n    /* \"#utility.yul\":301:1149   */\n  swap5\n  pop\n  swap5\n  swap3\n  pop\n  pop\n  pop\n  jump\t// out\n    /* \"#utility.yul\":1155:2228   */\ntag_10:\n    /* \"#utility.yul\":1209:1214   */\n  0x00\n    /* \"#utility.yul\":1400:1408   */\n  dup3\n    /* \"#utility.yul\":1390:1430   */\n  tag_24\n  jumpi\n    /* \"#utility.yul\":1421:1422   */\n  0x01\n    /* \"#utility.yul\":1412:1422   */\n  swap1\n  pop\n    /* \"#utility.yul\":1423:1428   */\n  jump(tag_23)\n    /* \"#utility.yul\":1390:1430   */\ntag_24:\n    /* \"#utility.yul\":1449:1453   */\n  dup2\n    /* \"#utility.yul\":1439:1475   */\n  tag_25\n  jumpi\n    /* \"#utility.yul\":1466:1467   */\n  0x00\n    /* \"#utility.yul\":1457:1467   */\n  swap1\n  pop\n    /* \"#utility.yul\":1468:1473   */\n  jump(tag_23)\n    /* \"#utility.yul\":1439:1475   */\ntag_25:\n    /* \"#utility.yul\":1535:1539   */\n  dup2\n    /* \"#utility.yul\":1583:1584   */\n  0x01\n    /* \"#utility.yul\":1578:1605   */\n  dup2\n  eq\n  tag_27\n  jumpi\n    /* \"#utility.yul\":1619:1620   */\n  0x02\n    /* \"#utility.yul\":1614:1805   */\n  dup2\n  eq\n  tag_28\n  jumpi\n    /* \"#utility.yul\":1528:1805   */\n  jump(tag_26)\n    /* \"#utility.yul\":1578:1605   */\ntag_27:\n    /* \"#utility.yul\":1596:1597   */\n  0x01\n    /* \"#utility.yul\":1587:1597   */\n  swap2\n  pop\n    /* \"#utility.yul\":1598:1603   */\n  pop\n  jump(tag_23)\n    /* \"#utility.yul\":1614:1805   */\ntag_28:\n    /* \"#utility.yul\":1659:1662   */\n  0xff\n    /* \"#utility.yul\":1649:1657   */\n  dup5\n    /* \"#utility.yul\":1646:1663   */\n  gt\n    /* \"#utility.yul\":1643:1686   */\n  iszero\n  tag_29\n  jumpi\n    /* \"#utility.yul\":1666:1684   */\n  tag_30\n  tag_7\n  jump\t// in\ntag_30:\n    /* \"#utility.yul\":1643:1686   */\ntag_29:\n    /* \"#utility.yul\":1715:1723   */\n  dup4\n    /* \"#utility.yul\":1712:1713   */\n  0x02\n    /* \"#utility.yul\":1708:1724   */\n  exp\n    /* \"#utility.yul\":1699:1724   */\n  swap2\n  pop\n    /* \"#utility.yul\":1750:1753   */\n  dup5\n    /* \"#utility.yul\":1743:1748   */\n  dup3\n    /* \"#utility.yul\":1740:1754   */\n  gt\n    /* \"#utility.yul\":1737:1777   */\n  iszero\n  tag_31\n  jumpi\n    /* \"#utility.yul\":1757:1775   */\n  tag_32\n  tag_7\n  jump\t// in\ntag_32:\n    /* \"#utility.yul\":1737:1777   */\ntag_31:\n    /* \"#utility.yul\":1790:1795   */\n  pop\n  jump(tag_23)\n    /* \"#utility.yul\":1528:1805   */\ntag_26:\n  pop\n    /* \"#utility.yul\":1914:1916   */\n  0x20\n    /* \"#utility.yul\":1904:1912   */\n  dup4\n    /* \"#utility.yul\":1901:1917   */\n  lt\n    /* \"#utility.yul\":1895:1898   */\n  0x0133\n    /* \"#utility.yul\":1889:1893   */\n  dup4\n    /* \"#utility.yul\":1886:1899   */\n  lt\n    /* \"#utility.yul\":1882:1918   */\n  and\n    /* \"#utility.yul\":1864:1866   */\n  0x4e\n    /* \"#utility.yul\":1854:1862   */\n  dup5\n    /* \"#utility.yul\":1851:1867   */\n  lt\n    /* \"#utility.yul\":1846:1848   */\n  0x0b\n    /* \"#utility.yul\":1840:1844   */\n  dup5\n    /* \"#utility.yul\":1837:1849   */\n  lt\n    /* \"#utility.yul\":1833:1868   */\n  and\n    /* \"#utility.yul\":1817:1928   */\n  or\n    /* \"#utility.yul\":1814:2060   */\n  iszero\n  tag_33\n  jumpi\n    /* \"#utility.yul\":1970:1978   */\n  dup3\n    /* \"#utility.yul\":1964:1968   */\n  dup3\n    /* \"#utility.yul\":1960:1979   */\n  exp\n    /* \"#utility.yul\":1951:1979   */\n  swap1\n  pop\n    /* \"#utility.yul\":2005:2008   */\n  dup4\n    /* \"#utility.yul\":1998:2003   */\n  dup2\n    /* \"#utility.yul\":1995:2009   */\n  gt\n    /* \"#utility.yul\":1992:2032   */\n  iszero\n  tag_34\n  jumpi\n    /* \"#utility.yul\":2012:2030   */\n  tag_35\n  tag_7\n  jump\t// in\ntag_35:\n    /* \"#utility.yul\":1992:2032   */\ntag_34:\n    /* \"#utility.yul\":2045:2050   */\n  jump(tag_23)\n    /* \"#utility.yul\":1814:2060   */\ntag_33:\n    /* \"#utility.yul\":2085:2127   */\n  tag_36\n    /* \"#utility.yul\":2123:2126   */\n  dup5\n    /* \"#utility.yul\":2113:2121   */\n  dup5\n    /* \"#utility.yul\":2107:2111   */\n  dup5\n    /* \"#utility.yul\":2104:2105   */\n  0x01\n    /* \"#utility.yul\":2085:2127   */\n  tag_9\n  jump\t// in\ntag_36:\n    /* \"#utility.yul\":2070:2127   */\n  swap3\n  pop\n  swap1\n  pop\n    /* \"#utility.yul\":2159:2163   */\n  dup2\n    /* \"#utility.yul\":2154:2157   */\n  dup5\n    /* \"#utility.yul\":2150:2164   */\n  div\n    /* \"#utility.yul\":2143:2148   */\n  dup2\n    /* \"#utility.yul\":2140:2165   */\n  gt\n    /* \"#utility.yul\":2137:2188   */\n  iszero\n  tag_37\n  jumpi\n    /* \"#utility.yul\":2168:2186   */\n  tag_38\n  tag_7\n  jump\t// in\ntag_38:\n    /* \"#utility.yul\":2137:2188   */\ntag_37:\n    /* \"#utility.yul\":2217:2221   */\n  dup2\n    /* \"#utility.yul\":2210:2215   */\n  dup2\n    /* \"#utility.yul\":2206:2222   */\n  mul\n    /* \"#utility.yul\":2197:2222   */\n  swap1\n  pop\n    /* \"#utility.yul\":1155:2228   */\ntag_23:\n  swap4\n  swap3\n  pop\n  pop\n  pop\n  jump\t// out\n    /* \"#utility.yul\":2234:2311   */\ntag_11:\n    /* \"#utility.yul\":2271:2278   */\n  0x00\n    /* \"#utility.yul\":2300:2305   */\n  dup2\n    /* \"#utility.yul\":2289:2305   */\n  swap1\n  pop\n    /* \"#utility.yul\":2234:2311   */\n  swap2\n  swap1\n  pop\n  jump\t// out\n    /* \"#utility.yul\":2317:2602   */\ntag_2:\n    /* \"#utility.yul\":2377:2382   */\n  0x00\n    /* \"#utility.yul\":2401:2424   */\n  tag_41\n    /* \"#utility.yul\":2419:2423   */\n  dup3\n    /* \"#utility.yul\":2401:2424   */\n  tag_11\n  jump\t// in\ntag_41:\n    /* \"#utility.yul\":2393:2424   */\n  swap2\n  pop\n    /* \"#utility.yul\":2445:2472   */\n  tag_42\n    /* \"#utility.yul\":2463:2471   */\n  dup4\n    /* \"#utility.yul\":2445:2472   */\n  tag_11\n  jump\t// in\ntag_42:\n    /* \"#utility.yul\":2433:2472   */\n  swap3\n  pop\n    /* \"#utility.yul\":2491:2595   */\n  tag_43\n    /* \"#utility.yul\":2528:2594   */\n  0xffffffffffffffffffffffffffffffffffffffffffffffffffffffffffffffff\n    /* \"#utility.yul\":2518:2526   */\n  dup5\n    /* \"#utility.yul\":2512:2516   */\n  dup5\n    /* \"#utility.yul\":2491:2595   */\n  tag_10\n  jump\t// in\ntag_43:\n    /* \"#utility.yul\":2482:2595   */\n  swap1\n  pop\n    /* \"#utility.yul\":2317:2602   */\n  swap3\n  swap2\n  pop\n  pop\n  jump\t// out\n    /* \"HeroOwnership.sol\":6238:6630  contract HeroHelper is HeroFactory {... */\ntag_6:\n  dataSize(sub_0)\n  dup1\n  dataOffset(sub_0)\n  0x00\n  codecopy\n  0x00\n  return\nstop\n\nsub_0: assembly {\n        /* \"HeroOwnership.sol\":6238:6630  contract HeroHelper is HeroFactory {... */\n      mstore(0x40, 0x80)\n      callvalue\n      dup1\n      iszero\n      tag_1\n      jumpi\n      0x00\n      dup1\n      revert\n    tag_1:\n      pop\n      jumpi(tag_2, lt(calldatasize, 0x04))\n      shr(0xe0, calldataload(0x00))\n      dup1\n      0x8da5cb5b\n      gt\n      tag_11\n      jumpi\n      dup1\n      0x8da5cb5b\n      eq\n      tag_7\n      jumpi\n      dup1\n      0x8f32d59b\n      eq\n      tag_8\n      jumpi\n      dup1\n      0xa8d4a03b\n      eq\n      tag_9\n      jumpi\n      dup1\n      0xf2fde38b\n      eq\n      tag_10\n      jumpi\n      jump(tag_2)\n    tag_11:\n      dup1\n      0x07c99f4e\n      eq\n      tag_3\n      jumpi\n      dup1\n      0x715018a6\n      eq\n      tag_4\n      jumpi\n      dup1\n      0x7b0f0a19\n      eq\n      tag_5\n      jumpi\n      dup1\n      0x8a72ec00\n      eq\n      tag_6\n      jumpi\n    tag_2:\n      0x00\n      dup1\n      revert\n        /* \"HeroOwnership.sol\":6277:6628  function getHeroesByOwner(address _owner) external view returns (uint256[] memory) {... */\n    tag_3:\n      tag_12\n      0x04\n      dup1\n      calldatasize\n      sub\n      dup2\n      add\n      swap1\n      tag_13\n      swap2\n      swap1\n      tag_14\n      jump\t// in\n    tag_13:\n      tag_15\n      jump\t// in\n    tag_12:\n      mload(0x40)\n      tag_16\n      swap2\n      swap1\n      tag_17\n      jump\t// in\n    tag_16:\n      mload(0x40)\n      dup1\n      swap2\n      sub\n      swap1\n      return\n        /* \"HeroOwnership.sol\":4361:4488  function renounceOwnership() public onlyOwner {... */\n    tag_4:\n      tag_18\n      tag_19\n      jump\t// in\n    tag_18:\n      stop\n        /* \"HeroOwnership.sol\":5442:5488  mapping(uint256 => address) public heroToOwner */\n    tag_5:\n      tag_20\n      0x04\n      dup1\n      calldatasize\n      sub\n      dup2\n      add\n      swap1\n      tag_21\n      swap2\n      swap1\n      tag_22\n      jump\t// in\n    tag_21:\n      tag_23\n      jump\t// in\n    tag_20:\n      mload(0x40)\n      tag_24\n      swap2\n      swap1\n      tag_25\n      jump\t// in\n    tag_24:\n      mload(0x40)\n      dup1\n      swap2\n      sub\n      swap1\n      return\n        /* \"HeroOwnership.sol\":6006:6234  function createRandomHero(string memory _name) public {... */\n    tag_6:\n      tag_26\n      0x04\n      dup1\n      calldatasize\n      sub\n      dup2\n      add\n      swap1\n      tag_27\n      swap2\n      swap1\n      tag_28\n      jump\t// in\n    tag_27:\n      tag_29\n      jump\t// in\n    tag_26:\n      stop\n        /* \"HeroOwnership.sol\":3725:3796  function owner() public view returns (address) {... */\n    tag_7:\n      tag_30\n      tag_31\n      jump\t// in\n    tag_30:\n      mload(0x40)\n      tag_32\n      swap2\n      swap1\n      tag_25\n      jump\t// in\n    tag_32:\n      mload(0x40)\n      dup1\n      swap2\n      sub\n      swap1\n      return\n        /* \"HeroOwnership.sol\":4013:4097  function isOwner() public view returns (bool) {... */\n    tag_8:\n      tag_33\n      tag_34\n      jump\t// in\n    tag_33:\n      mload(0x40)\n      tag_35\n      swap2\n      swap1\n      tag_36\n      jump\t// in\n    tag_35:\n      mload(0x40)\n      dup1\n      swap2\n      sub\n      swap1\n      return\n        /* \"HeroOwnership.sol\":5417:5437  Hero[] public heroes */\n    tag_9:\n      tag_37\n      0x04\n      dup1\n      calldatasize\n      sub\n      dup2\n      add\n      swap1\n      tag_38\n      swap2\n      swap1\n      tag_22\n      jump\t// in\n    tag_38:\n      tag_39\n      jump\t// in\n    tag_37:\n      mload(0x40)\n      tag_40\n      swap4\n      swap3\n      swap2\n      swap1\n      tag_41\n      jump\t// in\n    tag_40:\n      mload(0x40)\n      dup1\n      swap2\n      sub\n      swap1\n      return\n        /* \"HeroOwnership.sol\":4649:4750  function transferOwnership(address newOwner) public onlyOwner {... */\n    tag_10:\n      tag_42\n      0x04\n      dup1\n      calldatasize\n      sub\n      dup2\n      add\n      swap1\n      tag_43\n      swap2\n      swap1\n      tag_14\n      jump\t// in\n    tag_43:\n      tag_44\n      jump\t// in\n    tag_42:\n      stop\n        /* \"HeroOwnership.sol\":6277:6628  function getHeroesByOwner(address _owner) external view returns (uint256[] memory) {... */\n    tag_15:\n        /* \"HeroOwnership.sol\":6342:6358  uint256[] memory */\n      0x60\n        /* \"HeroOwnership.sol\":6366:6389  uint256[] memory result */\n      0x00\n        /* \"HeroOwnership.sol\":6406:6420  ownerHeroCount */\n      0x06\n        /* \"HeroOwnership.sol\":6406:6428  ownerHeroCount[_owner] */\n      0x00\n        /* \"HeroOwnership.sol\":6421:6427  _owner */\n      dup5\n        /* \"HeroOwnership.sol\":6406:6428  ownerHeroCount[_owner] */\n      0xffffffffffffffffffffffffffffffffffffffff\n      and\n      0xffffffffffffffffffffffffffffffffffffffff\n      and\n      dup2\n      mstore\n      0x20\n      add\n      swap1\n      dup2\n      mstore\n      0x20\n      add\n      0x00\n      keccak256\n      sload\n        /* \"HeroOwnership.sol\":6392:6429  new uint256[](ownerHeroCount[_owner]) */\n      0xffffffffffffffff\n      dup2\n      gt\n      iszero\n      tag_46\n      jumpi\n      tag_47\n      tag_48\n      jump\t// in\n    tag_47:\n    tag_46:\n      mload(0x40)\n      swap1\n      dup1\n      dup3\n      mstore\n      dup1\n      0x20\n      mul\n      0x20\n      add\n      dup3\n      add\n      0x40\n      mstore\n      dup1\n      iszero\n      tag_49\n      jumpi\n      dup2\n      0x20\n      add\n      0x20\n      dup3\n      mul\n      dup1\n      calldatasize\n      dup4\n      calldatacopy\n      dup1\n      dup3\n      add\n      swap2\n      pop\n      pop\n      swap1\n      pop\n    tag_49:\n      pop\n        /* \"HeroOwnership.sol\":6366:6429  uint256[] memory result = new uint256[](ownerHeroCount[_owner]) */\n      swap1\n      pop\n        /* \"HeroOwnership.sol\":6435:6450  uint256 counter */\n      0x00\n        /* \"HeroOwnership.sol\":6465:6474  uint256 i */\n      dup1\n        /* \"HeroOwnership.sol\":6460:6605  for (uint256 i = 0; i < heroes.length; i++) {... */\n    tag_50:\n        /* \"HeroOwnership.sol\":6484:6490  heroes */\n      0x04\n        /* \"HeroOwnership.sol\":6484:6497  heroes.length */\n      dup1\n      sload\n      swap1\n      pop\n        /* \"HeroOwnership.sol\":6480:6481  i */\n      dup2\n        /* \"HeroOwnership.sol\":6480:6497  i < heroes.length */\n      lt\n        /* \"HeroOwnership.sol\":6460:6605  for (uint256 i = 0; i < heroes.length; i++) {... */\n      iszero\n      tag_51\n      jumpi\n        /* \"HeroOwnership.sol\":6534:6540  _owner */\n      dup5\n        /* \"HeroOwnership.sol\":6516:6540  heroToOwner[i] == _owner */\n      0xffffffffffffffffffffffffffffffffffffffff\n      and\n        /* \"HeroOwnership.sol\":6516:6527  heroToOwner */\n      0x05\n        /* \"HeroOwnership.sol\":6516:6530  heroToOwner[i] */\n      0x00\n        /* \"HeroOwnership.sol\":6528:6529  i */\n      dup4\n        /* \"HeroOwnership.sol\":6516:6530  heroToOwner[i] */\n      dup2\n      mstore\n      0x20\n      add\n      swap1\n      dup2\n      mstore\n      0x20\n      add\n      0x00\n      keccak256\n      0x00\n      swap1\n      sload\n      swap1\n      0x0100\n      exp\n      swap1\n      div\n      0xffffffffffffffffffffffffffffffffffffffff\n      and\n        /* \"HeroOwnership.sol\":6516:6540  heroToOwner[i] == _owner */\n      0xffffffffffffffffffffffffffffffffffffffff\n      and\n      eq\n        /* \"HeroOwnership.sol\":6512:6599  if (heroToOwner[i] == _owner) {... */\n      iszero\n      tag_53\n      jumpi\n        /* \"HeroOwnership.sol\":6570:6571  i */\n      dup1\n        /* \"HeroOwnership.sol\":6552:6558  result */\n      dup4\n        /* \"HeroOwnership.sol\":6559:6566  counter */\n      dup4\n        /* \"HeroOwnership.sol\":6552:6567  result[counter] */\n      dup2\n      mload\n      dup2\n      lt\n      tag_54\n      jumpi\n      tag_55\n      tag_56\n      jump\t// in\n    tag_55:\n    tag_54:\n      0x20\n      mul\n      0x20\n      add\n      add\n        /* \"HeroOwnership.sol\":6552:6571  result[counter] = i */\n      dup2\n      dup2\n      mstore\n      pop\n      pop\n        /* \"HeroOwnership.sol\":6581:6590  counter++ */\n      dup2\n      dup1\n      tag_57\n      swap1\n      tag_58\n      jump\t// in\n    tag_57:\n      swap3\n      pop\n      pop\n        /* \"HeroOwnership.sol\":6512:6599  if (heroToOwner[i] == _owner) {... */\n    tag_53:\n        /* \"HeroOwnership.sol\":6499:6502  i++ */\n      dup1\n      dup1\n      tag_59\n      swap1\n      tag_58\n      jump\t// in\n    tag_59:\n      swap2\n      pop\n      pop\n        /* \"HeroOwnership.sol\":6460:6605  for (uint256 i = 0; i < heroes.length; i++) {... */\n      jump(tag_50)\n    tag_51:\n      pop\n        /* \"HeroOwnership.sol\":6617:6623  result */\n      dup2\n        /* \"HeroOwnership.sol\":6610:6623  return result */\n      swap3\n      pop\n      pop\n      pop\n        /* \"HeroOwnership.sol\":6277:6628  function getHeroesByOwner(address _owner) external view returns (uint256[] memory) {... */\n      swap2\n      swap1\n      pop\n      jump\t// out\n        /* \"HeroOwnership.sol\":4361:4488  function renounceOwnership() public onlyOwner {... */\n    tag_19:\n        /* \"HeroOwnership.sol\":3911:3920  isOwner() */\n      tag_61\n        /* \"HeroOwnership.sol\":3911:3918  isOwner */\n      tag_34\n        /* \"HeroOwnership.sol\":3911:3920  isOwner() */\n      jump\t// in\n    tag_61:\n        /* \"HeroOwnership.sol\":3903:3921  require(isOwner()) */\n      tag_62\n      jumpi\n      0x00\n      dup1\n      revert\n    tag_62:\n        /* \"HeroOwnership.sol\":4455:4456  0 */\n      0x00\n        /* \"HeroOwnership.sol\":4418:4458  OwnershipTransferred(_owner, address(0)) */\n      0xffffffffffffffffffffffffffffffffffffffff\n      and\n        /* \"HeroOwnership.sol\":4439:4445  _owner */\n      0x00\n      dup1\n      sload\n      swap1\n      0x0100\n      exp\n      swap1\n      div\n      0xffffffffffffffffffffffffffffffffffffffff\n      and\n        /* \"HeroOwnership.sol\":4418:4458  OwnershipTransferred(_owner, address(0)) */\n      0xffffffffffffffffffffffffffffffffffffffff\n      and\n      0x8be0079c531659141344cd1fd0a4f28419497f9722a3daafe3b4186f6b6457e0\n      mload(0x40)\n      mload(0x40)\n      dup1\n      swap2\n      sub\n      swap1\n      log3\n        /* \"HeroOwnership.sol\":4481:4482  0 */\n      0x00\n        /* \"HeroOwnership.sol\":4464:4470  _owner */\n      dup1\n      0x00\n        /* \"HeroOwnership.sol\":4464:4483  _owner = address(0) */\n      0x0100\n      exp\n      dup2\n      sload\n      dup2\n      0xffffffffffffffffffffffffffffffffffffffff\n      mul\n      not\n      and\n      swap1\n      dup4\n      0xffffffffffffffffffffffffffffffffffffffff\n      and\n      mul\n      or\n      swap1\n      sstore\n      pop\n        /* \"HeroOwnership.sol\":4361:4488  function renounceOwnership() public onlyOwner {... */\n      jump\t// out\n        /* \"HeroOwnership.sol\":5442:5488  mapping(uint256 => address) public heroToOwner */\n    tag_23:\n      mstore(0x20, 0x05)\n      dup1\n      0x00\n      mstore\n      keccak256(0x00, 0x40)\n      0x00\n      swap2\n      pop\n      sload\n      swap1\n      0x0100\n      exp\n      swap1\n      div\n      0xffffffffffffffffffffffffffffffffffffffff\n      and\n      dup2\n      jump\t// out\n        /* \"HeroOwnership.sol\":6006:6234  function createRandomHero(string memory _name) public {... */\n    tag_29:\n        /* \"HeroOwnership.sol\":6153:6168  uint256 randDna */\n      0x00\n        /* \"HeroOwnership.sol\":6171:6196  _generateRandomDna(_name) */\n      tag_65\n        /* \"HeroOwnership.sol\":6190:6195  _name */\n      dup3\n        /* \"HeroOwnership.sol\":6171:6189  _generateRandomDna */\n      tag_66\n        /* \"HeroOwnership.sol\":6171:6196  _generateRandomDna(_name) */\n      jump\t// in\n    tag_65:\n        /* \"HeroOwnership.sol\":6153:6196  uint256 randDna = _generateRandomDna(_name) */\n      swap1\n      pop\n        /* \"HeroOwnership.sol\":6202:6229  _createHero(_name, randDna) */\n      tag_67\n        /* \"HeroOwnership.sol\":6214:6219  _name */\n      dup3\n        /* \"HeroOwnership.sol\":6221:6228  randDna */\n      dup3\n        /* \"HeroOwnership.sol\":6202:6213  _createHero */\n      tag_68\n        /* \"HeroOwnership.sol\":6202:6229  _createHero(_name, randDna) */\n      jump\t// in\n    tag_67:\n        /* \"HeroOwnership.sol\":6060:6234  {... */\n      pop\n        /* \"HeroOwnership.sol\":6006:6234  function createRandomHero(string memory _name) public {... */\n      pop\n      jump\t// out\n        /* \"HeroOwnership.sol\":3725:3796  function owner() public view returns (address) {... */\n    tag_31:\n        /* \"HeroOwnership.sol\":3763:3770  address */\n      0x00\n        /* \"HeroOwnership.sol\":3785:3791  _owner */\n      dup1\n      0x00\n      swap1\n      sload\n      swap1\n      0x0100\n      exp\n      swap1\n      div\n      0xffffffffffffffffffffffffffffffffffffffff\n      and\n        /* \"HeroOwnership.sol\":3778:3791  return _owner */\n      swap1\n      pop\n        /* \"HeroOwnership.sol\":3725:3796  function owner() public view returns (address) {... */\n      swap1\n      jump\t// out\n        /* \"HeroOwnership.sol\":4013:4097  function isOwner() public view returns (bool) {... */\n    tag_34:\n        /* \"HeroOwnership.sol\":4053:4057  bool */\n      0x00\n        /* \"HeroOwnership.sol\":4086:4092  _owner */\n      dup1\n      0x00\n      swap1\n      sload\n      swap1\n      0x0100\n      exp\n      swap1\n      div\n      0xffffffffffffffffffffffffffffffffffffffff\n      and\n        /* \"HeroOwnership.sol\":4072:4092  msg.sender == _owner */\n      0xffffffffffffffffffffffffffffffffffffffff\n      and\n        /* \"HeroOwnership.sol\":4072:4082  msg.sender */\n      caller\n        /* \"HeroOwnership.sol\":4072:4092  msg.sender == _owner */\n      0xffffffffffffffffffffffffffffffffffffffff\n      and\n      eq\n        /* \"HeroOwnership.sol\":4065:4092  return msg.sender == _owner */\n      swap1\n      pop\n        /* \"HeroOwnership.sol\":4013:4097  function isOwner() public view returns (bool) {... */\n      swap1\n      jump\t// out\n        /* \"HeroOwnership.sol\":5417:5437  Hero[] public heroes */\n    tag_39:\n      0x04\n      dup2\n      dup2\n      sload\n      dup2\n      lt\n      tag_71\n      jumpi\n      0x00\n      dup1\n      revert\n    tag_71:\n      swap1\n      0x00\n      mstore\n      keccak256(0x00, 0x20)\n      swap1\n      0x03\n      mul\n      add\n      0x00\n      swap2\n      pop\n      swap1\n      pop\n      dup1\n      0x00\n      add\n      dup1\n      sload\n      tag_73\n      swap1\n      tag_74\n      jump\t// in\n    tag_73:\n      dup1\n      0x1f\n      add\n      0x20\n      dup1\n      swap2\n      div\n      mul\n      0x20\n      add\n      mload(0x40)\n      swap1\n      dup2\n      add\n      0x40\n      mstore\n      dup1\n      swap3\n      swap2\n      swap1\n      dup2\n      dup2\n      mstore\n      0x20\n      add\n      dup3\n      dup1\n      sload\n      tag_75\n      swap1\n      tag_74\n      jump\t// in\n    tag_75:\n      dup1\n      iszero\n      tag_76\n      jumpi\n      dup1\n      0x1f\n      lt\n      tag_77\n      jumpi\n      0x0100\n      dup1\n      dup4\n      sload\n      div\n      mul\n      dup4\n      mstore\n      swap2\n      0x20\n      add\n      swap2\n      jump(tag_76)\n    tag_77:\n      dup3\n      add\n      swap2\n      swap1\n      0x00\n      mstore\n      keccak256(0x00, 0x20)\n      swap1\n    tag_78:\n      dup2\n      sload\n      dup2\n      mstore\n      swap1\n      0x01\n      add\n      swap1\n      0x20\n      add\n      dup1\n      dup4\n      gt\n      tag_78\n      jumpi\n      dup3\n      swap1\n      sub\n      0x1f\n      and\n      dup3\n      add\n      swap2\n    tag_76:\n      pop\n      pop\n      pop\n      pop\n      pop\n      swap1\n      dup1\n      0x01\n      add\n      sload\n      swap1\n      dup1\n      0x02\n      add\n      0x00\n      swap1\n      sload\n      swap1\n      0x0100\n      exp\n      swap1\n      div\n      0xffffffff\n      and\n      swap1\n      pop\n      dup4\n      jump\t// out\n        /* \"HeroOwnership.sol\":4649:4750  function transferOwnership(address newOwner) public onlyOwner {... */\n    tag_44:\n        /* \"HeroOwnership.sol\":3911:3920  isOwner() */\n      tag_80\n        /* \"HeroOwnership.sol\":3911:3918  isOwner */\n      tag_34\n        /* \"HeroOwnership.sol\":3911:3920  isOwner() */\n      jump\t// in\n    tag_80:\n        /* \"HeroOwnership.sol\":3903:3921  require(isOwner()) */\n      tag_81\n      jumpi\n      0x00\n      dup1\n      revert\n    tag_81:\n        /* \"HeroOwnership.sol\":4717:4745  _transferOwnership(newOwner) */\n      tag_83\n        /* \"HeroOwnership.sol\":4736:4744  newOwner */\n      dup2\n        /* \"HeroOwnership.sol\":4717:4735  _transferOwnership */\n      tag_84\n        /* \"HeroOwnership.sol\":4717:4745  _transferOwnership(newOwner) */\n      jump\t// in\n    tag_83:\n        /* \"HeroOwnership.sol\":4649:4750  function transferOwnership(address newOwner) public onlyOwner {... */\n      pop\n      jump\t// out\n        /* \"HeroOwnership.sol\":5539:5716  function _generateRandomDna(string memory _str) private view returns (uint256) {... */\n    tag_66:\n        /* \"HeroOwnership.sol\":5609:5616  uint256 */\n      0x00\n        /* \"HeroOwnership.sol\":5624:5636  uint256 rand */\n      dup1\n        /* \"HeroOwnership.sol\":5674:5678  _str */\n      dup3\n        /* \"HeroOwnership.sol\":5657:5679  abi.encodePacked(_str) */\n      add(0x20, mload(0x40))\n      tag_86\n      swap2\n      swap1\n      tag_87\n      jump\t// in\n    tag_86:\n      mload(0x40)\n      0x20\n      dup2\n      dup4\n      sub\n      sub\n      dup2\n      mstore\n      swap1\n      0x40\n      mstore\n        /* \"HeroOwnership.sol\":5647:5680  keccak256(abi.encodePacked(_str)) */\n      dup1\n      mload\n      swap1\n      0x20\n      add\n      keccak256\n        /* \"HeroOwnership.sol\":5639:5681  uint256(keccak256(abi.encodePacked(_str))) */\n      0x00\n      shr\n        /* \"HeroOwnership.sol\":5624:5681  uint256 rand = uint256(keccak256(abi.encodePacked(_str))) */\n      swap1\n      pop\n        /* \"HeroOwnership.sol\":5701:5711  dnaModulus */\n      sload(0x02)\n        /* \"HeroOwnership.sol\":5694:5698  rand */\n      dup2\n        /* \"HeroOwnership.sol\":5694:5711  rand % dnaModulus */\n      tag_88\n      swap2\n      swap1\n      tag_89\n      jump\t// in\n    tag_88:\n        /* \"HeroOwnership.sol\":5687:5711  return rand % dnaModulus */\n      swap2\n      pop\n      pop\n        /* \"HeroOwnership.sol\":5539:5716  function _generateRandomDna(string memory _str) private view returns (uint256) {... */\n      swap2\n      swap1\n      pop\n      jump\t// out\n        /* \"HeroOwnership.sol\":5720:6002  function _createHero(string memory _name, uint256 _dna) internal {... */\n    tag_68:\n        /* \"HeroOwnership.sol\":5791:5797  heroes */\n      0x04\n        /* \"HeroOwnership.sol\":5803:5823  Hero(_name, _dna, 1) */\n      mload(0x40)\n      dup1\n      0x60\n      add\n      0x40\n      mstore\n      dup1\n        /* \"HeroOwnership.sol\":5808:5813  _name */\n      dup5\n        /* \"HeroOwnership.sol\":5803:5823  Hero(_name, _dna, 1) */\n      dup2\n      mstore\n      0x20\n      add\n        /* \"HeroOwnership.sol\":5815:5819  _dna */\n      dup4\n        /* \"HeroOwnership.sol\":5803:5823  Hero(_name, _dna, 1) */\n      dup2\n      mstore\n      0x20\n      add\n        /* \"HeroOwnership.sol\":5821:5822  1 */\n      0x01\n        /* \"HeroOwnership.sol\":5803:5823  Hero(_name, _dna, 1) */\n      0xffffffff\n      and\n      dup2\n      mstore\n      pop\n        /* \"HeroOwnership.sol\":5791:5824  heroes.push(Hero(_name, _dna, 1)) */\n      swap1\n      dup1\n      0x01\n      dup2\n      sload\n      add\n      dup1\n      dup3\n      sstore\n      dup1\n      swap2\n      pop\n      pop\n      0x01\n      swap1\n      sub\n      swap1\n      0x00\n      mstore\n      keccak256(0x00, 0x20)\n      swap1\n      0x03\n      mul\n      add\n      0x00\n      swap1\n      swap2\n      swap1\n      swap2\n      swap1\n      swap2\n      pop\n      0x00\n      dup3\n      add\n      mload\n      dup2\n      0x00\n      add\n      swap1\n      dup1\n      mload\n      swap1\n      0x20\n      add\n      swap1\n      tag_92\n      swap3\n      swap2\n      swap1\n      tag_93\n      jump\t// in\n    tag_92:\n      pop\n      0x20\n      dup3\n      add\n      mload\n      dup2\n      0x01\n      add\n      sstore\n      0x40\n      dup3\n      add\n      mload\n      dup2\n      0x02\n      add\n      exp(0x0100, 0x00)\n      dup2\n      sload\n      dup2\n      0xffffffff\n      mul\n      not\n      and\n      swap1\n      dup4\n      0xffffffff\n      and\n      mul\n      or\n      swap1\n      sstore\n      pop\n      pop\n      pop\n        /* \"HeroOwnership.sol\":5830:5840  uint256 id */\n      0x00\n        /* \"HeroOwnership.sol\":5859:5860  1 */\n      0x01\n        /* \"HeroOwnership.sol\":5843:5849  heroes */\n      0x04\n        /* \"HeroOwnership.sol\":5843:5856  heroes.length */\n      dup1\n      sload\n      swap1\n      pop\n        /* \"HeroOwnership.sol\":5843:5860  heroes.length - 1 */\n      tag_94\n      swap2\n      swap1\n      tag_95\n      jump\t// in\n    tag_94:\n        /* \"HeroOwnership.sol\":5830:5860  uint256 id = heroes.length - 1 */\n      swap1\n      pop\n        /* \"HeroOwnership.sol\":5884:5894  msg.sender */\n      caller\n        /* \"HeroOwnership.sol\":5866:5877  heroToOwner */\n      0x05\n        /* \"HeroOwnership.sol\":5866:5881  heroToOwner[id] */\n      0x00\n        /* \"HeroOwnership.sol\":5878:5880  id */\n      dup4\n        /* \"HeroOwnership.sol\":5866:5881  heroToOwner[id] */\n      dup2\n      mstore\n      0x20\n      add\n      swap1\n      dup2\n      mstore\n      0x20\n      add\n      0x00\n      keccak256\n      0x00\n        /* \"HeroOwnership.sol\":5866:5894  heroToOwner[id] = msg.sender */\n      0x0100\n      exp\n      dup2\n      sload\n      dup2\n      0xffffffffffffffffffffffffffffffffffffffff\n      mul\n      not\n      and\n      swap1\n      dup4\n      0xffffffffffffffffffffffffffffffffffffffff\n      and\n      mul\n      or\n      swap1\n      sstore\n      pop\n        /* \"HeroOwnership.sol\":5929:5962  ownerHeroCount[msg.sender].add(1) */\n      tag_96\n        /* \"HeroOwnership.sol\":5960:5961  1 */\n      0x01\n        /* \"HeroOwnership.sol\":5929:5943  ownerHeroCount */\n      0x06\n        /* \"HeroOwnership.sol\":5929:5955  ownerHeroCount[msg.sender] */\n      0x00\n        /* \"HeroOwnership.sol\":5944:5954  msg.sender */\n      caller\n        /* \"HeroOwnership.sol\":5929:5955  ownerHeroCount[msg.sender] */\n      0xffffffffffffffffffffffffffffffffffffffff\n      and\n      0xffffffffffffffffffffffffffffffffffffffff\n      and\n      dup2\n      mstore\n      0x20\n      add\n      swap1\n      dup2\n      mstore\n      0x20\n      add\n      0x00\n      keccak256\n      sload\n        /* \"HeroOwnership.sol\":5929:5959  ownerHeroCount[msg.sender].add */\n      tag_97\n      swap1\n        /* \"HeroOwnership.sol\":5929:5962  ownerHeroCount[msg.sender].add(1) */\n      swap2\n      swap1\n      0xffffffff\n      and\n      jump\t// in\n    tag_96:\n        /* \"HeroOwnership.sol\":5900:5914  ownerHeroCount */\n      0x06\n        /* \"HeroOwnership.sol\":5900:5926  ownerHeroCount[msg.sender] */\n      0x00\n        /* \"HeroOwnership.sol\":5915:5925  msg.sender */\n      caller\n        /* \"HeroOwnership.sol\":5900:5926  ownerHeroCount[msg.sender] */\n      0xffffffffffffffffffffffffffffffffffffffff\n      and\n      0xffffffffffffffffffffffffffffffffffffffff\n      and\n      dup2\n      mstore\n      0x20\n      add\n      swap1\n      dup2\n      mstore\n      0x20\n      add\n      0x00\n      keccak256\n        /* \"HeroOwnership.sol\":5900:5962  ownerHeroCount[msg.sender] = ownerHeroCount[msg.sender].add(1) */\n      dup2\n      swap1\n      sstore\n      pop\n        /* \"HeroOwnership.sol\":5973:5997  NewHero(id, _name, _dna) */\n      0xc404ae7075893405fef7ba0a0001d5ab3a05de4f9d9854f10259d60d822063a6\n        /* \"HeroOwnership.sol\":5981:5983  id */\n      dup2\n        /* \"HeroOwnership.sol\":5985:5990  _name */\n      dup5\n        /* \"HeroOwnership.sol\":5992:5996  _dna */\n      dup5\n        /* \"HeroOwnership.sol\":5973:5997  NewHero(id, _name, _dna) */\n      mload(0x40)\n      tag_98\n      swap4\n      swap3\n      swap2\n      swap1\n      tag_99\n      jump\t// in\n    tag_98:\n      mload(0x40)\n      dup1\n      swap2\n      sub\n      swap1\n      log1\n        /* \"HeroOwnership.sol\":5785:6002  {... */\n      pop\n        /* \"HeroOwnership.sol\":5720:6002  function _createHero(string memory _name, uint256 _dna) internal {... */\n      pop\n      pop\n      jump\t// out\n        /* \"HeroOwnership.sol\":4884:5053  function _transferOwnership(address newOwner) internal {... */\n    tag_84:\n        /* \"HeroOwnership.sol\":4973:4974  0 */\n      0x00\n        /* \"HeroOwnership.sol\":4953:4975  newOwner != address(0) */\n      0xffffffffffffffffffffffffffffffffffffffff\n      and\n        /* \"HeroOwnership.sol\":4953:4961  newOwner */\n      dup2\n        /* \"HeroOwnership.sol\":4953:4975  newOwner != address(0) */\n      0xffffffffffffffffffffffffffffffffffffffff\n      and\n      eq\n      iszero\n        /* \"HeroOwnership.sol\":4945:4976  require(newOwner != address(0)) */\n      tag_101\n      jumpi\n      0x00\n      dup1\n      revert\n    tag_101:\n        /* \"HeroOwnership.sol\":5016:5024  newOwner */\n      dup1\n        /* \"HeroOwnership.sol\":4987:5025  OwnershipTransferred(_owner, newOwner) */\n      0xffffffffffffffffffffffffffffffffffffffff\n      and\n        /* \"HeroOwnership.sol\":5008:5014  _owner */\n      0x00\n      dup1\n      sload\n      swap1\n      0x0100\n      exp\n      swap1\n      div\n      0xffffffffffffffffffffffffffffffffffffffff\n      and\n        /* \"HeroOwnership.sol\":4987:5025  OwnershipTransferred(_owner, newOwner) */\n      0xffffffffffffffffffffffffffffffffffffffff\n      and\n      0x8be0079c531659141344cd1fd0a4f28419497f9722a3daafe3b4186f6b6457e0\n      mload(0x40)\n      mload(0x40)\n      dup1\n      swap2\n      sub\n      swap1\n      log3\n        /* \"HeroOwnership.sol\":5040:5048  newOwner */\n      dup1\n        /* \"HeroOwnership.sol\":5031:5037  _owner */\n      0x00\n      dup1\n        /* \"HeroOwnership.sol\":5031:5048  _owner = newOwner */\n      0x0100\n      exp\n      dup2\n      sload\n      dup2\n      0xffffffffffffffffffffffffffffffffffffffff\n      mul\n      not\n      and\n      swap1\n      dup4\n      0xffffffffffffffffffffffffffffffffffffffff\n      and\n      mul\n      or\n      swap1\n      sstore\n      pop\n        /* \"HeroOwnership.sol\":4884:5053  function _transferOwnership(address newOwner) internal {... */\n      pop\n      jump\t// out\n        /* \"HeroOwnership.sol\":956:1085  function add(uint256 a, uint256 b) internal pure returns (uint256) {... */\n    tag_97:\n        /* \"HeroOwnership.sol\":1014:1021  uint256 */\n      0x00\n        /* \"HeroOwnership.sol\":1029:1038  uint256 c */\n      dup1\n        /* \"HeroOwnership.sol\":1045:1046  b */\n      dup3\n        /* \"HeroOwnership.sol\":1041:1042  a */\n      dup5\n        /* \"HeroOwnership.sol\":1041:1046  a + b */\n      tag_103\n      swap2\n      swap1\n      tag_104\n      jump\t// in\n    tag_103:\n        /* \"HeroOwnership.sol\":1029:1046  uint256 c = a + b */\n      swap1\n      pop\n        /* \"HeroOwnership.sol\":1064:1065  a */\n      dup4\n        /* \"HeroOwnership.sol\":1059:1060  c */\n      dup2\n        /* \"HeroOwnership.sol\":1059:1065  c >= a */\n      lt\n      iszero\n        /* \"HeroOwnership.sol\":1052:1066  assert(c >= a) */\n      tag_105\n      jumpi\n      tag_106\n      tag_107\n      jump\t// in\n    tag_106:\n    tag_105:\n        /* \"HeroOwnership.sol\":1079:1080  c */\n      dup1\n        /* \"HeroOwnership.sol\":1072:1080  return c */\n      swap2\n      pop\n      pop\n        /* \"HeroOwnership.sol\":956:1085  function add(uint256 a, uint256 b) internal pure returns (uint256) {... */\n      swap3\n      swap2\n      pop\n      pop\n      jump\t// out\n    tag_93:\n      dup3\n      dup1\n      sload\n      tag_108\n      swap1\n      tag_74\n      jump\t// in\n    tag_108:\n      swap1\n      0x00\n      mstore\n      keccak256(0x00, 0x20)\n      swap1\n      0x1f\n      add\n      0x20\n      swap1\n      div\n      dup2\n      add\n      swap3\n      dup3\n      tag_110\n      jumpi\n      0x00\n      dup6\n      sstore\n      jump(tag_109)\n    tag_110:\n      dup3\n      0x1f\n      lt\n      tag_111\n      jumpi\n      dup1\n      mload\n      not(0xff)\n      and\n      dup4\n      dup1\n      add\n      or\n      dup6\n      sstore\n      jump(tag_109)\n    tag_111:\n      dup3\n      dup1\n      add\n      0x01\n      add\n      dup6\n      sstore\n      dup3\n      iszero\n      tag_109\n      jumpi\n      swap2\n      dup3\n      add\n    tag_112:\n      dup3\n      dup2\n      gt\n      iszero\n      tag_113\n      jumpi\n      dup3\n      mload\n      dup3\n      sstore\n      swap2\n      0x20\n      add\n      swap2\n      swap1\n      0x01\n      add\n      swap1\n      jump(tag_112)\n    tag_113:\n    tag_109:\n      pop\n      swap1\n      pop\n      tag_114\n      swap2\n      swap1\n      tag_115\n      jump\t// in\n    tag_114:\n      pop\n      swap1\n      jump\t// out\n    tag_115:\n    tag_116:\n      dup1\n      dup3\n      gt\n      iszero\n      tag_117\n      jumpi\n      0x00\n      dup2\n      0x00\n      swap1\n      sstore\n      pop\n      0x01\n      add\n      jump(tag_116)\n    tag_117:\n      pop\n      swap1\n      jump\t// out\n        /* \"#utility.yul\":7:82   */\n    tag_118:\n        /* \"#utility.yul\":40:46   */\n      0x00\n        /* \"#utility.yul\":73:75   */\n      0x40\n        /* \"#utility.yul\":67:76   */\n      mload\n        /* \"#utility.yul\":57:76   */\n      swap1\n      pop\n        /* \"#utility.yul\":7:82   */\n      swap1\n      jump\t// out\n        /* \"#utility.yul\":88:205   */\n    tag_119:\n        /* \"#utility.yul\":197:198   */\n      0x00\n        /* \"#utility.yul\":194:195   */\n      dup1\n        /* \"#utility.yul\":187:199   */\n      revert\n        /* \"#utility.yul\":211:328   */\n    tag_120:\n        /* \"#utility.yul\":320:321   */\n      0x00\n        /* \"#utility.yul\":317:318   */\n      dup1\n        /* \"#utility.yul\":310:322   */\n      revert\n        /* \"#utility.yul\":334:460   */\n    tag_121:\n        /* \"#utility.yul\":371:378   */\n      0x00\n        /* \"#utility.yul\":411:453   */\n      0xffffffffffffffffffffffffffffffffffffffff\n        /* \"#utility.yul\":404:409   */\n      dup3\n        /* \"#utility.yul\":400:454   */\n      and\n        /* \"#utility.yul\":389:454   */\n      swap1\n      pop\n        /* \"#utility.yul\":334:460   */\n      swap2\n      swap1\n      pop\n      jump\t// out\n        /* \"#utility.yul\":466:562   */\n    tag_122:\n        /* \"#utility.yul\":503:510   */\n      0x00\n        /* \"#utility.yul\":532:556   */\n      tag_165\n        /* \"#utility.yul\":550:555   */\n      dup3\n        /* \"#utility.yul\":532:556   */\n      tag_121\n      jump\t// in\n    tag_165:\n        /* \"#utility.yul\":521:556   */\n      swap1\n      pop\n        /* \"#utility.yul\":466:562   */\n      swap2\n      swap1\n      pop\n      jump\t// out\n        /* \"#utility.yul\":568:690   */\n    tag_123:\n        /* \"#utility.yul\":641:665   */\n      tag_167\n        /* \"#utility.yul\":659:664   */\n      dup2\n        /* \"#utility.yul\":641:665   */\n      tag_122\n      jump\t// in\n    tag_167:\n        /* \"#utility.yul\":634:639   */\n      dup2\n        /* \"#utility.yul\":631:666   */\n      eq\n        /* \"#utility.yul\":621:684   */\n      tag_168\n      jumpi\n        /* \"#utility.yul\":680:681   */\n      0x00\n        /* \"#utility.yul\":677:678   */\n      dup1\n        /* \"#utility.yul\":670:682   */\n      revert\n        /* \"#utility.yul\":621:684   */\n    tag_168:\n        /* \"#utility.yul\":568:690   */\n      pop\n      jump\t// out\n        /* \"#utility.yul\":696:835   */\n    tag_124:\n        /* \"#utility.yul\":742:747   */\n      0x00\n        /* \"#utility.yul\":780:786   */\n      dup2\n        /* \"#utility.yul\":767:787   */\n      calldataload\n        /* \"#utility.yul\":758:787   */\n      swap1\n      pop\n        /* \"#utility.yul\":796:829   */\n      tag_170\n        /* \"#utility.yul\":823:828   */\n      dup2\n        /* \"#utility.yul\":796:829   */\n      tag_123\n      jump\t// in\n    tag_170:\n        /* \"#utility.yul\":696:835   */\n      swap3\n      swap2\n      pop\n      pop\n      jump\t// out\n        /* \"#utility.yul\":841:1170   */\n    tag_14:\n        /* \"#utility.yul\":900:906   */\n      0x00\n        /* \"#utility.yul\":949:951   */\n      0x20\n        /* \"#utility.yul\":937:946   */\n      dup3\n        /* \"#utility.yul\":928:935   */\n      dup5\n        /* \"#utility.yul\":924:947   */\n      sub\n        /* \"#utility.yul\":920:952   */\n      slt\n        /* \"#utility.yul\":917:1036   */\n      iszero\n      tag_172\n      jumpi\n        /* \"#utility.yul\":955:1034   */\n      tag_173\n      tag_119\n      jump\t// in\n    tag_173:\n        /* \"#utility.yul\":917:1036   */\n    tag_172:\n        /* \"#utility.yul\":1075:1076   */\n      0x00\n        /* \"#utility.yul\":1100:1153   */\n      tag_174\n        /* \"#utility.yul\":1145:1152   */\n      dup5\n        /* \"#utility.yul\":1136:1142   */\n      dup3\n        /* \"#utility.yul\":1125:1134   */\n      dup6\n        /* \"#utility.yul\":1121:1143   */\n      add\n        /* \"#utility.yul\":1100:1153   */\n      tag_124\n      jump\t// in\n    tag_174:\n        /* \"#utility.yul\":1090:1153   */\n      swap2\n      pop\n        /* \"#utility.yul\":1046:1163   */\n      pop\n        /* \"#utility.yul\":841:1170   */\n      swap3\n      swap2\n      pop\n      pop\n      jump\t// out\n        /* \"#utility.yul\":1176:1290   */\n    tag_125:\n        /* \"#utility.yul\":1243:1249   */\n      0x00\n        /* \"#utility.yul\":1277:1282   */\n      dup2\n        /* \"#utility.yul\":1271:1283   */\n      mload\n        /* \"#utility.yul\":1261:1283   */\n      swap1\n      pop\n        /* \"#utility.yul\":1176:1290   */\n      swap2\n      swap1\n      pop\n      jump\t// out\n        /* \"#utility.yul\":1296:1480   */\n    tag_126:\n        /* \"#utility.yul\":1395:1406   */\n      0x00\n        /* \"#utility.yul\":1429:1435   */\n      dup3\n        /* \"#utility.yul\":1424:1427   */\n      dup3\n        /* \"#utility.yul\":1417:1436   */\n      mstore\n        /* \"#utility.yul\":1469:1473   */\n      0x20\n        /* \"#utility.yul\":1464:1467   */\n      dup3\n        /* \"#utility.yul\":1460:1474   */\n      add\n        /* \"#utility.yul\":1445:1474   */\n      swap1\n      pop\n        /* \"#utility.yul\":1296:1480   */\n      swap3\n      swap2\n      pop\n      pop\n      jump\t// out\n        /* \"#utility.yul\":1486:1618   */\n    tag_127:\n        /* \"#utility.yul\":1553:1557   */\n      0x00\n        /* \"#utility.yul\":1576:1579   */\n      dup2\n        /* \"#utility.yul\":1568:1579   */\n      swap1\n      pop\n        /* \"#utility.yul\":1606:1610   */\n      0x20\n        /* \"#utility.yul\":1601:1604   */\n      dup3\n        /* \"#utility.yul\":1597:1611   */\n      add\n        /* \"#utility.yul\":1589:1611   */\n      swap1\n      pop\n        /* \"#utility.yul\":1486:1618   */\n      swap2\n      swap1\n      pop\n      jump\t// out\n        /* \"#utility.yul\":1624:1701   */\n    tag_128:\n        /* \"#utility.yul\":1661:1668   */\n      0x00\n        /* \"#utility.yul\":1690:1695   */\n      dup2\n        /* \"#utility.yul\":1679:1695   */\n      swap1\n      pop\n        /* \"#utility.yul\":1624:1701   */\n      swap2\n      swap1\n      pop\n      jump\t// out\n        /* \"#utility.yul\":1707:1815   */\n    tag_129:\n        /* \"#utility.yul\":1784:1808   */\n      tag_180\n        /* \"#utility.yul\":1802:1807   */\n      dup2\n        /* \"#utility.yul\":1784:1808   */\n      tag_128\n      jump\t// in\n    tag_180:\n        /* \"#utility.yul\":1779:1782   */\n      dup3\n        /* \"#utility.yul\":1772:1809   */\n      mstore\n        /* \"#utility.yul\":1707:1815   */\n      pop\n      pop\n      jump\t// out\n        /* \"#utility.yul\":1821:2000   */\n    tag_130:\n        /* \"#utility.yul\":1890:1900   */\n      0x00\n        /* \"#utility.yul\":1911:1957   */\n      tag_182\n        /* \"#utility.yul\":1953:1956   */\n      dup4\n        /* \"#utility.yul\":1945:1951   */\n      dup4\n        /* \"#utility.yul\":1911:1957   */\n      tag_129\n      jump\t// in\n    tag_182:\n        /* \"#utility.yul\":1989:1993   */\n      0x20\n        /* \"#utility.yul\":1984:1987   */\n      dup4\n        /* \"#utility.yul\":1980:1994   */\n      add\n        /* \"#utility.yul\":1966:1994   */\n      swap1\n      pop\n        /* \"#utility.yul\":1821:2000   */\n      swap3\n      swap2\n      pop\n      pop\n      jump\t// out\n        /* \"#utility.yul\":2006:2119   */\n    tag_131:\n        /* \"#utility.yul\":2076:2080   */\n      0x00\n        /* \"#utility.yul\":2108:2112   */\n      0x20\n        /* \"#utility.yul\":2103:2106   */\n      dup3\n        /* \"#utility.yul\":2099:2113   */\n      add\n        /* \"#utility.yul\":2091:2113   */\n      swap1\n      pop\n        /* \"#utility.yul\":2006:2119   */\n      swap2\n      swap1\n      pop\n      jump\t// out\n        /* \"#utility.yul\":2155:2887   */\n    tag_132:\n        /* \"#utility.yul\":2274:2277   */\n      0x00\n        /* \"#utility.yul\":2303:2357   */\n      tag_185\n        /* \"#utility.yul\":2351:2356   */\n      dup3\n        /* \"#utility.yul\":2303:2357   */\n      tag_125\n      jump\t// in\n    tag_185:\n        /* \"#utility.yul\":2373:2459   */\n      tag_186\n        /* \"#utility.yul\":2452:2458   */\n      dup2\n        /* \"#utility.yul\":2447:2450   */\n      dup6\n        /* \"#utility.yul\":2373:2459   */\n      tag_126\n      jump\t// in\n    tag_186:\n        /* \"#utility.yul\":2366:2459   */\n      swap4\n      pop\n        /* \"#utility.yul\":2483:2539   */\n      tag_187\n        /* \"#utility.yul\":2533:2538   */\n      dup4\n        /* \"#utility.yul\":2483:2539   */\n      tag_127\n      jump\t// in\n    tag_187:\n        /* \"#utility.yul\":2562:2569   */\n      dup1\n        /* \"#utility.yul\":2593:2594   */\n      0x00\n        /* \"#utility.yul\":2578:2862   */\n    tag_188:\n        /* \"#utility.yul\":2603:2609   */\n      dup4\n        /* \"#utility.yul\":2600:2601   */\n      dup2\n        /* \"#utility.yul\":2597:2610   */\n      lt\n        /* \"#utility.yul\":2578:2862   */\n      iszero\n      tag_190\n      jumpi\n        /* \"#utility.yul\":2679:2685   */\n      dup2\n        /* \"#utility.yul\":2673:2686   */\n      mload\n        /* \"#utility.yul\":2706:2769   */\n      tag_191\n        /* \"#utility.yul\":2765:2768   */\n      dup9\n        /* \"#utility.yul\":2750:2763   */\n      dup3\n        /* \"#utility.yul\":2706:2769   */\n      tag_130\n      jump\t// in\n    tag_191:\n        /* \"#utility.yul\":2699:2769   */\n      swap8\n      pop\n        /* \"#utility.yul\":2792:2852   */\n      tag_192\n        /* \"#utility.yul\":2845:2851   */\n      dup4\n        /* \"#utility.yul\":2792:2852   */\n      tag_131\n      jump\t// in\n    tag_192:\n        /* \"#utility.yul\":2782:2852   */\n      swap3\n      pop\n        /* \"#utility.yul\":2638:2862   */\n      pop\n        /* \"#utility.yul\":2625:2626   */\n      0x01\n        /* \"#utility.yul\":2622:2623   */\n      dup2\n        /* \"#utility.yul\":2618:2627   */\n      add\n        /* \"#utility.yul\":2613:2627   */\n      swap1\n      pop\n        /* \"#utility.yul\":2578:2862   */\n      jump(tag_188)\n    tag_190:\n        /* \"#utility.yul\":2582:2596   */\n      pop\n        /* \"#utility.yul\":2878:2881   */\n      dup6\n        /* \"#utility.yul\":2871:2881   */\n      swap4\n      pop\n        /* \"#utility.yul\":2279:2887   */\n      pop\n      pop\n      pop\n        /* \"#utility.yul\":2155:2887   */\n      swap3\n      swap2\n      pop\n      pop\n      jump\t// out\n        /* \"#utility.yul\":2893:3266   */\n    tag_17:\n        /* \"#utility.yul\":3036:3040   */\n      0x00\n        /* \"#utility.yul\":3074:3076   */\n      0x20\n        /* \"#utility.yul\":3063:3072   */\n      dup3\n        /* \"#utility.yul\":3059:3077   */\n      add\n        /* \"#utility.yul\":3051:3077   */\n      swap1\n      pop\n        /* \"#utility.yul\":3123:3132   */\n      dup2\n        /* \"#utility.yul\":3117:3121   */\n      dup2\n        /* \"#utility.yul\":3113:3133   */\n      sub\n        /* \"#utility.yul\":3109:3110   */\n      0x00\n        /* \"#utility.yul\":3098:3107   */\n      dup4\n        /* \"#utility.yul\":3094:3111   */\n      add\n        /* \"#utility.yul\":3087:3134   */\n      mstore\n        /* \"#utility.yul\":3151:3259   */\n      tag_194\n        /* \"#utility.yul\":3254:3258   */\n      dup2\n        /* \"#utility.yul\":3245:3251   */\n      dup5\n        /* \"#utility.yul\":3151:3259   */\n      tag_132\n      jump\t// in\n    tag_194:\n        /* \"#utility.yul\":3143:3259   */\n      swap1\n      pop\n        /* \"#utility.yul\":2893:3266   */\n      swap3\n      swap2\n      pop\n      pop\n      jump\t// out\n        /* \"#utility.yul\":3272:3394   */\n    tag_133:\n        /* \"#utility.yul\":3345:3369   */\n      tag_196\n        /* \"#utility.yul\":3363:3368   */\n      dup2\n        /* \"#utility.yul\":3345:3369   */\n      tag_128\n      jump\t// in\n    tag_196:\n        /* \"#utility.yul\":3338:3343   */\n      dup2\n        /* \"#utility.yul\":3335:3370   */\n      eq\n        /* \"#utility.yul\":3325:3388   */\n      tag_197\n      jumpi\n        /* \"#utility.yul\":3384:3385   */\n      0x00\n        /* \"#utility.yul\":3381:3382   */\n      dup1\n        /* \"#utility.yul\":3374:3386   */\n      revert\n        /* \"#utility.yul\":3325:3388   */\n    tag_197:\n        /* \"#utility.yul\":3272:3394   */\n      pop\n      jump\t// out\n        /* \"#utility.yul\":3400:3539   */\n    tag_134:\n        /* \"#utility.yul\":3446:3451   */\n      0x00\n        /* \"#utility.yul\":3484:3490   */\n      dup2\n        /* \"#utility.yul\":3471:3491   */\n      calldataload\n        /* \"#utility.yul\":3462:3491   */\n      swap1\n      pop\n        /* \"#utility.yul\":3500:3533   */\n      tag_199\n        /* \"#utility.yul\":3527:3532   */\n      dup2\n        /* \"#utility.yul\":3500:3533   */\n      tag_133\n      jump\t// in\n    tag_199:\n        /* \"#utility.yul\":3400:3539   */\n      swap3\n      swap2\n      pop\n      pop\n      jump\t// out\n        /* \"#utility.yul\":3545:3874   */\n    tag_22:\n        /* \"#utility.yul\":3604:3610   */\n      0x00\n        /* \"#utility.yul\":3653:3655   */\n      0x20\n        /* \"#utility.yul\":3641:3650   */\n      dup3\n        /* \"#utility.yul\":3632:3639   */\n      dup5\n        /* \"#utility.yul\":3628:3651   */\n      sub\n        /* \"#utility.yul\":3624:3656   */\n      slt\n        /* \"#utility.yul\":3621:3740   */\n      iszero\n      tag_201\n      jumpi\n        /* \"#utility.yul\":3659:3738   */\n      tag_202\n      tag_119\n      jump\t// in\n    tag_202:\n        /* \"#utility.yul\":3621:3740   */\n    tag_201:\n        /* \"#utility.yul\":3779:3780   */\n      0x00\n        /* \"#utility.yul\":3804:3857   */\n      tag_203\n        /* \"#utility.yul\":3849:3856   */\n      dup5\n        /* \"#utility.yul\":3840:3846   */\n      dup3\n        /* \"#utility.yul\":3829:3838   */\n      dup6\n        /* \"#utility.yul\":3825:3847   */\n      add\n        /* \"#utility.yul\":3804:3857   */\n      tag_134\n      jump\t// in\n    tag_203:\n        /* \"#utility.yul\":3794:3857   */\n      swap2\n      pop\n        /* \"#utility.yul\":3750:3867   */\n      pop\n        /* \"#utility.yul\":3545:3874   */\n      swap3\n      swap2\n      pop\n      pop\n      jump\t// out\n        /* \"#utility.yul\":3880:3998   */\n    tag_135:\n        /* \"#utility.yul\":3967:3991   */\n      tag_205\n        /* \"#utility.yul\":3985:3990   */\n      dup2\n        /* \"#utility.yul\":3967:3991   */\n      tag_122\n      jump\t// in\n    tag_205:\n        /* \"#utility.yul\":3962:3965   */\n      dup3\n        /* \"#utility.yul\":3955:3992   */\n      mstore\n        /* \"#utility.yul\":3880:3998   */\n      pop\n      pop\n      jump\t// out\n        /* \"#utility.yul\":4004:4226   */\n    tag_25:\n        /* \"#utility.yul\":4097:4101   */\n      0x00\n        /* \"#utility.yul\":4135:4137   */\n      0x20\n        /* \"#utility.yul\":4124:4133   */\n      dup3\n        /* \"#utility.yul\":4120:4138   */\n      add\n        /* \"#utility.yul\":4112:4138   */\n      swap1\n      pop\n        /* \"#utility.yul\":4148:4219   */\n      tag_207\n        /* \"#utility.yul\":4216:4217   */\n      0x00\n        /* \"#utility.yul\":4205:4214   */\n      dup4\n        /* \"#utility.yul\":4201:4218   */\n      add\n        /* \"#utility.yul\":4192:4198   */\n      dup5\n        /* \"#utility.yul\":4148:4219   */\n      tag_135\n      jump\t// in\n    tag_207:\n        /* \"#utility.yul\":4004:4226   */\n      swap3\n      swap2\n      pop\n      pop\n      jump\t// out\n        /* \"#utility.yul\":4232:4349   */\n    tag_136:\n        /* \"#utility.yul\":4341:4342   */\n      0x00\n        /* \"#utility.yul\":4338:4339   */\n      dup1\n        /* \"#utility.yul\":4331:4343   */\n      revert\n        /* \"#utility.yul\":4355:4472   */\n    tag_137:\n        /* \"#utility.yul\":4464:4465   */\n      0x00\n        /* \"#utility.yul\":4461:4462   */\n      dup1\n        /* \"#utility.yul\":4454:4466   */\n      revert\n        /* \"#utility.yul\":4478:4580   */\n    tag_138:\n        /* \"#utility.yul\":4519:4525   */\n      0x00\n        /* \"#utility.yul\":4570:4572   */\n      0x1f\n        /* \"#utility.yul\":4566:4573   */\n      not\n        /* \"#utility.yul\":4561:4563   */\n      0x1f\n        /* \"#utility.yul\":4554:4559   */\n      dup4\n        /* \"#utility.yul\":4550:4564   */\n      add\n        /* \"#utility.yul\":4546:4574   */\n      and\n        /* \"#utility.yul\":4536:4574   */\n      swap1\n      pop\n        /* \"#utility.yul\":4478:4580   */\n      swap2\n      swap1\n      pop\n      jump\t// out\n        /* \"#utility.yul\":4586:4766   */\n    tag_48:\n        /* \"#utility.yul\":4634:4711   */\n      0x4e487b7100000000000000000000000000000000000000000000000000000000\n        /* \"#utility.yul\":4631:4632   */\n      0x00\n        /* \"#utility.yul\":4624:4712   */\n      mstore\n        /* \"#utility.yul\":4731:4735   */\n      0x41\n        /* \"#utility.yul\":4728:4729   */\n      0x04\n        /* \"#utility.yul\":4721:4736   */\n      mstore\n        /* \"#utility.yul\":4755:4759   */\n      0x24\n        /* \"#utility.yul\":4752:4753   */\n      0x00\n        /* \"#utility.yul\":4745:4760   */\n      revert\n        /* \"#utility.yul\":4772:5053   */\n    tag_139:\n        /* \"#utility.yul\":4855:4882   */\n      tag_213\n        /* \"#utility.yul\":4877:4881   */\n      dup3\n        /* \"#utility.yul\":4855:4882   */\n      tag_138\n      jump\t// in\n    tag_213:\n        /* \"#utility.yul\":4847:4853   */\n      dup2\n        /* \"#utility.yul\":4843:4883   */\n      add\n        /* \"#utility.yul\":4985:4991   */\n      dup2\n        /* \"#utility.yul\":4973:4983   */\n      dup2\n        /* \"#utility.yul\":4970:4992   */\n      lt\n        /* \"#utility.yul\":4949:4967   */\n      0xffffffffffffffff\n        /* \"#utility.yul\":4937:4947   */\n      dup3\n        /* \"#utility.yul\":4934:4968   */\n      gt\n        /* \"#utility.yul\":4931:4993   */\n      or\n        /* \"#utility.yul\":4928:5016   */\n      iszero\n      tag_214\n      jumpi\n        /* \"#utility.yul\":4996:5014   */\n      tag_215\n      tag_48\n      jump\t// in\n    tag_215:\n        /* \"#utility.yul\":4928:5016   */\n    tag_214:\n        /* \"#utility.yul\":5036:5046   */\n      dup1\n        /* \"#utility.yul\":5032:5034   */\n      0x40\n        /* \"#utility.yul\":5025:5047   */\n      mstore\n        /* \"#utility.yul\":4815:5053   */\n      pop\n        /* \"#utility.yul\":4772:5053   */\n      pop\n      pop\n      jump\t// out\n        /* \"#utility.yul\":5059:5188   */\n    tag_140:\n        /* \"#utility.yul\":5093:5099   */\n      0x00\n        /* \"#utility.yul\":5120:5140   */\n      tag_217\n      tag_118\n      jump\t// in\n    tag_217:\n        /* \"#utility.yul\":5110:5140   */\n      swap1\n      pop\n        /* \"#utility.yul\":5149:5182   */\n      tag_218\n        /* \"#utility.yul\":5177:5181   */\n      dup3\n        /* \"#utility.yul\":5169:5175   */\n      dup3\n        /* \"#utility.yul\":5149:5182   */\n      tag_139\n      jump\t// in\n    tag_218:\n        /* \"#utility.yul\":5059:5188   */\n      swap2\n      swap1\n      pop\n      jump\t// out\n        /* \"#utility.yul\":5194:5502   */\n    tag_141:\n        /* \"#utility.yul\":5256:5260   */\n      0x00\n        /* \"#utility.yul\":5346:5364   */\n      0xffffffffffffffff\n        /* \"#utility.yul\":5338:5344   */\n      dup3\n        /* \"#utility.yul\":5335:5365   */\n      gt\n        /* \"#utility.yul\":5332:5388   */\n      iszero\n      tag_220\n      jumpi\n        /* \"#utility.yul\":5368:5386   */\n      tag_221\n      tag_48\n      jump\t// in\n    tag_221:\n        /* \"#utility.yul\":5332:5388   */\n    tag_220:\n        /* \"#utility.yul\":5406:5435   */\n      tag_222\n        /* \"#utility.yul\":5428:5434   */\n      dup3\n        /* \"#utility.yul\":5406:5435   */\n      tag_138\n      jump\t// in\n    tag_222:\n        /* \"#utility.yul\":5398:5435   */\n      swap1\n      pop\n        /* \"#utility.yul\":5490:5494   */\n      0x20\n        /* \"#utility.yul\":5484:5488   */\n      dup2\n        /* \"#utility.yul\":5480:5495   */\n      add\n        /* \"#utility.yul\":5472:5495   */\n      swap1\n      pop\n        /* \"#utility.yul\":5194:5502   */\n      swap2\n      swap1\n      pop\n      jump\t// out\n        /* \"#utility.yul\":5508:5662   */\n    tag_142:\n        /* \"#utility.yul\":5592:5598   */\n      dup3\n        /* \"#utility.yul\":5587:5590   */\n      dup2\n        /* \"#utility.yul\":5582:5585   */\n      dup4\n        /* \"#utility.yul\":5569:5599   */\n      calldatacopy\n        /* \"#utility.yul\":5654:5655   */\n      0x00\n        /* \"#utility.yul\":5645:5651   */\n      dup4\n        /* \"#utility.yul\":5640:5643   */\n      dup4\n        /* \"#utility.yul\":5636:5652   */\n      add\n        /* \"#utility.yul\":5629:5656   */\n      mstore\n        /* \"#utility.yul\":5508:5662   */\n      pop\n      pop\n      pop\n      jump\t// out\n        /* \"#utility.yul\":5668:6080   */\n    tag_143:\n        /* \"#utility.yul\":5746:5751   */\n      0x00\n        /* \"#utility.yul\":5771:5837   */\n      tag_225\n        /* \"#utility.yul\":5787:5836   */\n      tag_226\n        /* \"#utility.yul\":5829:5835   */\n      dup5\n        /* \"#utility.yul\":5787:5836   */\n      tag_141\n      jump\t// in\n    tag_226:\n        /* \"#utility.yul\":5771:5837   */\n      tag_140\n      jump\t// in\n    tag_225:\n        /* \"#utility.yul\":5762:5837   */\n      swap1\n      pop\n        /* \"#utility.yul\":5860:5866   */\n      dup3\n        /* \"#utility.yul\":5853:5858   */\n      dup2\n        /* \"#utility.yul\":5846:5867   */\n      mstore\n        /* \"#utility.yul\":5898:5902   */\n      0x20\n        /* \"#utility.yul\":5891:5896   */\n      dup2\n        /* \"#utility.yul\":5887:5903   */\n      add\n        /* \"#utility.yul\":5936:5939   */\n      dup5\n        /* \"#utility.yul\":5927:5933   */\n      dup5\n        /* \"#utility.yul\":5922:5925   */\n      dup5\n        /* \"#utility.yul\":5918:5934   */\n      add\n        /* \"#utility.yul\":5915:5940   */\n      gt\n        /* \"#utility.yul\":5912:6024   */\n      iszero\n      tag_227\n      jumpi\n        /* \"#utility.yul\":5943:6022   */\n      tag_228\n      tag_137\n      jump\t// in\n    tag_228:\n        /* \"#utility.yul\":5912:6024   */\n    tag_227:\n        /* \"#utility.yul\":6033:6074   */\n      tag_229\n        /* \"#utility.yul\":6067:6073   */\n      dup5\n        /* \"#utility.yul\":6062:6065   */\n      dup3\n        /* \"#utility.yul\":6057:6060   */\n      dup6\n        /* \"#utility.yul\":6033:6074   */\n      tag_142\n      jump\t// in\n    tag_229:\n        /* \"#utility.yul\":5752:6080   */\n      pop\n        /* \"#utility.yul\":5668:6080   */\n      swap4\n      swap3\n      pop\n      pop\n      pop\n      jump\t// out\n        /* \"#utility.yul\":6100:6440   */\n    tag_144:\n        /* \"#utility.yul\":6156:6161   */\n      0x00\n        /* \"#utility.yul\":6205:6208   */\n      dup3\n        /* \"#utility.yul\":6198:6202   */\n      0x1f\n        /* \"#utility.yul\":6190:6196   */\n      dup4\n        /* \"#utility.yul\":6186:6203   */\n      add\n        /* \"#utility.yul\":6182:6209   */\n      slt\n        /* \"#utility.yul\":6172:6294   */\n      tag_231\n      jumpi\n        /* \"#utility.yul\":6213:6292   */\n      tag_232\n      tag_136\n      jump\t// in\n    tag_232:\n        /* \"#utility.yul\":6172:6294   */\n    tag_231:\n        /* \"#utility.yul\":6330:6336   */\n      dup2\n        /* \"#utility.yul\":6317:6337   */\n      calldataload\n        /* \"#utility.yul\":6355:6434   */\n      tag_233\n        /* \"#utility.yul\":6430:6433   */\n      dup5\n        /* \"#utility.yul\":6422:6428   */\n      dup3\n        /* \"#utility.yul\":6415:6419   */\n      0x20\n        /* \"#utility.yul\":6407:6413   */\n      dup7\n        /* \"#utility.yul\":6403:6420   */\n      add\n        /* \"#utility.yul\":6355:6434   */\n      tag_143\n      jump\t// in\n    tag_233:\n        /* \"#utility.yul\":6346:6434   */\n      swap2\n      pop\n        /* \"#utility.yul\":6162:6440   */\n      pop\n        /* \"#utility.yul\":6100:6440   */\n      swap3\n      swap2\n      pop\n      pop\n      jump\t// out\n        /* \"#utility.yul\":6446:6955   */\n    tag_28:\n        /* \"#utility.yul\":6515:6521   */\n      0x00\n        /* \"#utility.yul\":6564:6566   */\n      0x20\n        /* \"#utility.yul\":6552:6561   */\n      dup3\n        /* \"#utility.yul\":6543:6550   */\n      dup5\n        /* \"#utility.yul\":6539:6562   */\n      sub\n        /* \"#utility.yul\":6535:6567   */\n      slt\n        /* \"#utility.yul\":6532:6651   */\n      iszero\n      tag_235\n      jumpi\n        /* \"#utility.yul\":6570:6649   */\n      tag_236\n      tag_119\n      jump\t// in\n    tag_236:\n        /* \"#utility.yul\":6532:6651   */\n    tag_235:\n        /* \"#utility.yul\":6718:6719   */\n      0x00\n        /* \"#utility.yul\":6707:6716   */\n      dup3\n        /* \"#utility.yul\":6703:6720   */\n      add\n        /* \"#utility.yul\":6690:6721   */\n      calldataload\n        /* \"#utility.yul\":6748:6766   */\n      0xffffffffffffffff\n        /* \"#utility.yul\":6740:6746   */\n      dup2\n        /* \"#utility.yul\":6737:6767   */\n      gt\n        /* \"#utility.yul\":6734:6851   */\n      iszero\n      tag_237\n      jumpi\n        /* \"#utility.yul\":6770:6849   */\n      tag_238\n      tag_120\n      jump\t// in\n    tag_238:\n        /* \"#utility.yul\":6734:6851   */\n    tag_237:\n        /* \"#utility.yul\":6875:6938   */\n      tag_239\n        /* \"#utility.yul\":6930:6937   */\n      dup5\n        /* \"#utility.yul\":6921:6927   */\n      dup3\n        /* \"#utility.yul\":6910:6919   */\n      dup6\n        /* \"#utility.yul\":6906:6928   */\n      add\n        /* \"#utility.yul\":6875:6938   */\n      tag_144\n      jump\t// in\n    tag_239:\n        /* \"#utility.yul\":6865:6938   */\n      swap2\n      pop\n        /* \"#utility.yul\":6661:6948   */\n      pop\n        /* \"#utility.yul\":6446:6955   */\n      swap3\n      swap2\n      pop\n      pop\n      jump\t// out\n        /* \"#utility.yul\":6961:7051   */\n    tag_145:\n        /* \"#utility.yul\":6995:7002   */\n      0x00\n        /* \"#utility.yul\":7038:7043   */\n      dup2\n        /* \"#utility.yul\":7031:7044   */\n      iszero\n        /* \"#utility.yul\":7024:7045   */\n      iszero\n        /* \"#utility.yul\":7013:7045   */\n      swap1\n      pop\n        /* \"#utility.yul\":6961:7051   */\n      swap2\n      swap1\n      pop\n      jump\t// out\n        /* \"#utility.yul\":7057:7166   */\n    tag_146:\n        /* \"#utility.yul\":7138:7159   */\n      tag_242\n        /* \"#utility.yul\":7153:7158   */\n      dup2\n        /* \"#utility.yul\":7138:7159   */\n      tag_145\n      jump\t// in\n    tag_242:\n        /* \"#utility.yul\":7133:7136   */\n      dup3\n        /* \"#utility.yul\":7126:7160   */\n      mstore\n        /* \"#utility.yul\":7057:7166   */\n      pop\n      pop\n      jump\t// out\n        /* \"#utility.yul\":7172:7382   */\n    tag_36:\n        /* \"#utility.yul\":7259:7263   */\n      0x00\n        /* \"#utility.yul\":7297:7299   */\n      0x20\n        /* \"#utility.yul\":7286:7295   */\n      dup3\n        /* \"#utility.yul\":7282:7300   */\n      add\n        /* \"#utility.yul\":7274:7300   */\n      swap1\n      pop\n        /* \"#utility.yul\":7310:7375   */\n      tag_244\n        /* \"#utility.yul\":7372:7373   */\n      0x00\n        /* \"#utility.yul\":7361:7370   */\n      dup4\n        /* \"#utility.yul\":7357:7374   */\n      add\n        /* \"#utility.yul\":7348:7354   */\n      dup5\n        /* \"#utility.yul\":7310:7375   */\n      tag_146\n      jump\t// in\n    tag_244:\n        /* \"#utility.yul\":7172:7382   */\n      swap3\n      swap2\n      pop\n      pop\n      jump\t// out\n        /* \"#utility.yul\":7388:7487   */\n    tag_147:\n        /* \"#utility.yul\":7440:7446   */\n      0x00\n        /* \"#utility.yul\":7474:7479   */\n      dup2\n        /* \"#utility.yul\":7468:7480   */\n      mload\n        /* \"#utility.yul\":7458:7480   */\n      swap1\n      pop\n        /* \"#utility.yul\":7388:7487   */\n      swap2\n      swap1\n      pop\n      jump\t// out\n        /* \"#utility.yul\":7493:7662   */\n    tag_148:\n        /* \"#utility.yul\":7577:7588   */\n      0x00\n        /* \"#utility.yul\":7611:7617   */\n      dup3\n        /* \"#utility.yul\":7606:7609   */\n      dup3\n        /* \"#utility.yul\":7599:7618   */\n      mstore\n        /* \"#utility.yul\":7651:7655   */\n      0x20\n        /* \"#utility.yul\":7646:7649   */\n      dup3\n        /* \"#utility.yul\":7642:7656   */\n      add\n        /* \"#utility.yul\":7627:7656   */\n      swap1\n      pop\n        /* \"#utility.yul\":7493:7662   */\n      swap3\n      swap2\n      pop\n      pop\n      jump\t// out\n        /* \"#utility.yul\":7668:7975   */\n    tag_149:\n        /* \"#utility.yul\":7736:7737   */\n      0x00\n        /* \"#utility.yul\":7746:7859   */\n    tag_248:\n        /* \"#utility.yul\":7760:7766   */\n      dup4\n        /* \"#utility.yul\":7757:7758   */\n      dup2\n        /* \"#utility.yul\":7754:7767   */\n      lt\n        /* \"#utility.yul\":7746:7859   */\n      iszero\n      tag_250\n      jumpi\n        /* \"#utility.yul\":7845:7846   */\n      dup1\n        /* \"#utility.yul\":7840:7843   */\n      dup3\n        /* \"#utility.yul\":7836:7847   */\n      add\n        /* \"#utility.yul\":7830:7848   */\n      mload\n        /* \"#utility.yul\":7826:7827   */\n      dup2\n        /* \"#utility.yul\":7821:7824   */\n      dup5\n        /* \"#utility.yul\":7817:7828   */\n      add\n        /* \"#utility.yul\":7810:7849   */\n      mstore\n        /* \"#utility.yul\":7782:7784   */\n      0x20\n        /* \"#utility.yul\":7779:7780   */\n      dup2\n        /* \"#utility.yul\":7775:7785   */\n      add\n        /* \"#utility.yul\":7770:7785   */\n      swap1\n      pop\n        /* \"#utility.yul\":7746:7859   */\n      jump(tag_248)\n    tag_250:\n        /* \"#utility.yul\":7877:7883   */\n      dup4\n        /* \"#utility.yul\":7874:7875   */\n      dup2\n        /* \"#utility.yul\":7871:7884   */\n      gt\n        /* \"#utility.yul\":7868:7969   */\n      iszero\n      tag_251\n      jumpi\n        /* \"#utility.yul\":7957:7958   */\n      0x00\n        /* \"#utility.yul\":7948:7954   */\n      dup5\n        /* \"#utility.yul\":7943:7946   */\n      dup5\n        /* \"#utility.yul\":7939:7955   */\n      add\n        /* \"#utility.yul\":7932:7959   */\n      mstore\n        /* \"#utility.yul\":7868:7969   */\n    tag_251:\n        /* \"#utility.yul\":7717:7975   */\n      pop\n        /* \"#utility.yul\":7668:7975   */\n      pop\n      pop\n      pop\n      jump\t// out\n        /* \"#utility.yul\":7981:8345   */\n    tag_150:\n        /* \"#utility.yul\":8069:8072   */\n      0x00\n        /* \"#utility.yul\":8097:8136   */\n      tag_253\n        /* \"#utility.yul\":8130:8135   */\n      dup3\n        /* \"#utility.yul\":8097:8136   */\n      tag_147\n      jump\t// in\n    tag_253:\n        /* \"#utility.yul\":8152:8223   */\n      tag_254\n        /* \"#utility.yul\":8216:8222   */\n      dup2\n        /* \"#utility.yul\":8211:8214   */\n      dup6\n        /* \"#utility.yul\":8152:8223   */\n      tag_148\n      jump\t// in\n    tag_254:\n        /* \"#utility.yul\":8145:8223   */\n      swap4\n      pop\n        /* \"#utility.yul\":8232:8284   */\n      tag_255\n        /* \"#utility.yul\":8277:8283   */\n      dup2\n        /* \"#utility.yul\":8272:8275   */\n      dup6\n        /* \"#utility.yul\":8265:8269   */\n      0x20\n        /* \"#utility.yul\":8258:8263   */\n      dup7\n        /* \"#utility.yul\":8254:8270   */\n      add\n        /* \"#utility.yul\":8232:8284   */\n      tag_149\n      jump\t// in\n    tag_255:\n        /* \"#utility.yul\":8309:8338   */\n      tag_256\n        /* \"#utility.yul\":8331:8337   */\n      dup2\n        /* \"#utility.yul\":8309:8338   */\n      tag_138\n      jump\t// in\n    tag_256:\n        /* \"#utility.yul\":8304:8307   */\n      dup5\n        /* \"#utility.yul\":8300:8339   */\n      add\n        /* \"#utility.yul\":8293:8339   */\n      swap2\n      pop\n        /* \"#utility.yul\":8073:8345   */\n      pop\n        /* \"#utility.yul\":7981:8345   */\n      swap3\n      swap2\n      pop\n      pop\n      jump\t// out\n        /* \"#utility.yul\":8351:8469   */\n    tag_151:\n        /* \"#utility.yul\":8438:8462   */\n      tag_258\n        /* \"#utility.yul\":8456:8461   */\n      dup2\n        /* \"#utility.yul\":8438:8462   */\n      tag_128\n      jump\t// in\n    tag_258:\n        /* \"#utility.yul\":8433:8436   */\n      dup3\n        /* \"#utility.yul\":8426:8463   */\n      mstore\n        /* \"#utility.yul\":8351:8469   */\n      pop\n      pop\n      jump\t// out\n        /* \"#utility.yul\":8475:8568   */\n    tag_152:\n        /* \"#utility.yul\":8511:8518   */\n      0x00\n        /* \"#utility.yul\":8551:8561   */\n      0xffffffff\n        /* \"#utility.yul\":8544:8549   */\n      dup3\n        /* \"#utility.yul\":8540:8562   */\n      and\n        /* \"#utility.yul\":8529:8562   */\n      swap1\n      pop\n        /* \"#utility.yul\":8475:8568   */\n      swap2\n      swap1\n      pop\n      jump\t// out\n        /* \"#utility.yul\":8574:8689   */\n    tag_153:\n        /* \"#utility.yul\":8659:8682   */\n      tag_261\n        /* \"#utility.yul\":8676:8681   */\n      dup2\n        /* \"#utility.yul\":8659:8682   */\n      tag_152\n      jump\t// in\n    tag_261:\n        /* \"#utility.yul\":8654:8657   */\n      dup3\n        /* \"#utility.yul\":8647:8683   */\n      mstore\n        /* \"#utility.yul\":8574:8689   */\n      pop\n      pop\n      jump\t// out\n        /* \"#utility.yul\":8695:9224   */\n    tag_41:\n        /* \"#utility.yul\":8862:8866   */\n      0x00\n        /* \"#utility.yul\":8900:8902   */\n      0x60\n        /* \"#utility.yul\":8889:8898   */\n      dup3\n        /* \"#utility.yul\":8885:8903   */\n      add\n        /* \"#utility.yul\":8877:8903   */\n      swap1\n      pop\n        /* \"#utility.yul\":8949:8958   */\n      dup2\n        /* \"#utility.yul\":8943:8947   */\n      dup2\n        /* \"#utility.yul\":8939:8959   */\n      sub\n        /* \"#utility.yul\":8935:8936   */\n      0x00\n        /* \"#utility.yul\":8924:8933   */\n      dup4\n        /* \"#utility.yul\":8920:8937   */\n      add\n        /* \"#utility.yul\":8913:8960   */\n      mstore\n        /* \"#utility.yul\":8977:9055   */\n      tag_263\n        /* \"#utility.yul\":9050:9054   */\n      dup2\n        /* \"#utility.yul\":9041:9047   */\n      dup7\n        /* \"#utility.yul\":8977:9055   */\n      tag_150\n      jump\t// in\n    tag_263:\n        /* \"#utility.yul\":8969:9055   */\n      swap1\n      pop\n        /* \"#utility.yul\":9065:9137   */\n      tag_264\n        /* \"#utility.yul\":9133:9135   */\n      0x20\n        /* \"#utility.yul\":9122:9131   */\n      dup4\n        /* \"#utility.yul\":9118:9136   */\n      add\n        /* \"#utility.yul\":9109:9115   */\n      dup6\n        /* \"#utility.yul\":9065:9137   */\n      tag_151\n      jump\t// in\n    tag_264:\n        /* \"#utility.yul\":9147:9217   */\n      tag_265\n        /* \"#utility.yul\":9213:9215   */\n      0x40\n        /* \"#utility.yul\":9202:9211   */\n      dup4\n        /* \"#utility.yul\":9198:9216   */\n      add\n        /* \"#utility.yul\":9189:9195   */\n      dup5\n        /* \"#utility.yul\":9147:9217   */\n      tag_153\n      jump\t// in\n    tag_265:\n        /* \"#utility.yul\":8695:9224   */\n      swap5\n      swap4\n      pop\n      pop\n      pop\n      pop\n      jump\t// out\n        /* \"#utility.yul\":9230:9410   */\n    tag_56:\n        /* \"#utility.yul\":9278:9355   */\n      0x4e487b7100000000000000000000000000000000000000000000000000000000\n        /* \"#utility.yul\":9275:9276   */\n      0x00\n        /* \"#utility.yul\":9268:9356   */\n      mstore\n        /* \"#utility.yul\":9375:9379   */\n      0x32\n        /* \"#utility.yul\":9372:9373   */\n      0x04\n        /* \"#utility.yul\":9365:9380   */\n      mstore\n        /* \"#utility.yul\":9399:9403   */\n      0x24\n        /* \"#utility.yul\":9396:9397   */\n      0x00\n        /* \"#utility.yul\":9389:9404   */\n      revert\n        /* \"#utility.yul\":9416:9596   */\n    tag_154:\n        /* \"#utility.yul\":9464:9541   */\n      0x4e487b7100000000000000000000000000000000000000000000000000000000\n        /* \"#utility.yul\":9461:9462   */\n      0x00\n        /* \"#utility.yul\":9454:9542   */\n      mstore\n        /* \"#utility.yul\":9561:9565   */\n      0x11\n        /* \"#utility.yul\":9558:9559   */\n      0x04\n        /* \"#utility.yul\":9551:9566   */\n      mstore\n        /* \"#utility.yul\":9585:9589   */\n      0x24\n        /* \"#utility.yul\":9582:9583   */\n      0x00\n        /* \"#utility.yul\":9575:9590   */\n      revert\n        /* \"#utility.yul\":9602:9835   */\n    tag_58:\n        /* \"#utility.yul\":9641:9644   */\n      0x00\n        /* \"#utility.yul\":9664:9688   */\n      tag_269\n        /* \"#utility.yul\":9682:9687   */\n      dup3\n        /* \"#utility.yul\":9664:9688   */\n      tag_128\n      jump\t// in\n    tag_269:\n        /* \"#utility.yul\":9655:9688   */\n      swap2\n      pop\n        /* \"#utility.yul\":9710:9776   */\n      0xffffffffffffffffffffffffffffffffffffffffffffffffffffffffffffffff\n        /* \"#utility.yul\":9703:9708   */\n      dup3\n        /* \"#utility.yul\":9700:9777   */\n      eq\n        /* \"#utility.yul\":9697:9800   */\n      iszero\n      tag_270\n      jumpi\n        /* \"#utility.yul\":9780:9798   */\n      tag_271\n      tag_154\n      jump\t// in\n    tag_271:\n        /* \"#utility.yul\":9697:9800   */\n    tag_270:\n        /* \"#utility.yul\":9827:9828   */\n      0x01\n        /* \"#utility.yul\":9820:9825   */\n      dup3\n        /* \"#utility.yul\":9816:9829   */\n      add\n        /* \"#utility.yul\":9809:9829   */\n      swap1\n      pop\n        /* \"#utility.yul\":9602:9835   */\n      swap2\n      swap1\n      pop\n      jump\t// out\n        /* \"#utility.yul\":9841:10021   */\n    tag_155:\n        /* \"#utility.yul\":9889:9966   */\n      0x4e487b7100000000000000000000000000000000000000000000000000000000\n        /* \"#utility.yul\":9886:9887   */\n      0x00\n        /* \"#utility.yul\":9879:9967   */\n      mstore\n        /* \"#utility.yul\":9986:9990   */\n      0x22\n        /* \"#utility.yul\":9983:9984   */\n      0x04\n        /* \"#utility.yul\":9976:9991   */\n      mstore\n        /* \"#utility.yul\":10010:10014   */\n      0x24\n        /* \"#utility.yul\":10007:10008   */\n      0x00\n        /* \"#utility.yul\":10000:10015   */\n      revert\n        /* \"#utility.yul\":10027:10347   */\n    tag_74:\n        /* \"#utility.yul\":10071:10077   */\n      0x00\n        /* \"#utility.yul\":10108:10109   */\n      0x02\n        /* \"#utility.yul\":10102:10106   */\n      dup3\n        /* \"#utility.yul\":10098:10110   */\n      div\n        /* \"#utility.yul\":10088:10110   */\n      swap1\n      pop\n        /* \"#utility.yul\":10155:10156   */\n      0x01\n        /* \"#utility.yul\":10149:10153   */\n      dup3\n        /* \"#utility.yul\":10145:10157   */\n      and\n        /* \"#utility.yul\":10176:10194   */\n      dup1\n        /* \"#utility.yul\":10166:10247   */\n      tag_274\n      jumpi\n        /* \"#utility.yul\":10232:10236   */\n      0x7f\n        /* \"#utility.yul\":10224:10230   */\n      dup3\n        /* \"#utility.yul\":10220:10237   */\n      and\n        /* \"#utility.yul\":10210:10237   */\n      swap2\n      pop\n        /* \"#utility.yul\":10166:10247   */\n    tag_274:\n        /* \"#utility.yul\":10294:10296   */\n      0x20\n        /* \"#utility.yul\":10286:10292   */\n      dup3\n        /* \"#utility.yul\":10283:10297   */\n      lt\n        /* \"#utility.yul\":10263:10281   */\n      dup2\n        /* \"#utility.yul\":10260:10298   */\n      eq\n        /* \"#utility.yul\":10257:10341   */\n      iszero\n      tag_275\n      jumpi\n        /* \"#utility.yul\":10313:10331   */\n      tag_276\n      tag_155\n      jump\t// in\n    tag_276:\n        /* \"#utility.yul\":10257:10341   */\n    tag_275:\n        /* \"#utility.yul\":10078:10347   */\n      pop\n        /* \"#utility.yul\":10027:10347   */\n      swap2\n      swap1\n      pop\n      jump\t// out\n        /* \"#utility.yul\":10353:10501   */\n    tag_156:\n        /* \"#utility.yul\":10455:10466   */\n      0x00\n        /* \"#utility.yul\":10492:10495   */\n      dup2\n        /* \"#utility.yul\":10477:10495   */\n      swap1\n      pop\n        /* \"#utility.yul\":10353:10501   */\n      swap3\n      swap2\n      pop\n      pop\n      jump\t// out\n        /* \"#utility.yul\":10507:10884   */\n    tag_157:\n        /* \"#utility.yul\":10613:10616   */\n      0x00\n        /* \"#utility.yul\":10641:10680   */\n      tag_279\n        /* \"#utility.yul\":10674:10679   */\n      dup3\n        /* \"#utility.yul\":10641:10680   */\n      tag_147\n      jump\t// in\n    tag_279:\n        /* \"#utility.yul\":10696:10785   */\n      tag_280\n        /* \"#utility.yul\":10778:10784   */\n      dup2\n        /* \"#utility.yul\":10773:10776   */\n      dup6\n        /* \"#utility.yul\":10696:10785   */\n      tag_156\n      jump\t// in\n    tag_280:\n        /* \"#utility.yul\":10689:10785   */\n      swap4\n      pop\n        /* \"#utility.yul\":10794:10846   */\n      tag_281\n        /* \"#utility.yul\":10839:10845   */\n      dup2\n        /* \"#utility.yul\":10834:10837   */\n      dup6\n        /* \"#utility.yul\":10827:10831   */\n      0x20\n        /* \"#utility.yul\":10820:10825   */\n      dup7\n        /* \"#utility.yul\":10816:10832   */\n      add\n        /* \"#utility.yul\":10794:10846   */\n      tag_149\n      jump\t// in\n    tag_281:\n        /* \"#utility.yul\":10871:10877   */\n      dup1\n        /* \"#utility.yul\":10866:10869   */\n      dup5\n        /* \"#utility.yul\":10862:10878   */\n      add\n        /* \"#utility.yul\":10855:10878   */\n      swap2\n      pop\n        /* \"#utility.yul\":10617:10884   */\n      pop\n        /* \"#utility.yul\":10507:10884   */\n      swap3\n      swap2\n      pop\n      pop\n      jump\t// out\n        /* \"#utility.yul\":10890:11165   */\n    tag_87:\n        /* \"#utility.yul\":11022:11025   */\n      0x00\n        /* \"#utility.yul\":11044:11139   */\n      tag_283\n        /* \"#utility.yul\":11135:11138   */\n      dup3\n        /* \"#utility.yul\":11126:11132   */\n      dup5\n        /* \"#utility.yul\":11044:11139   */\n      tag_157\n      jump\t// in\n    tag_283:\n        /* \"#utility.yul\":11037:11139   */\n      swap2\n      pop\n        /* \"#utility.yul\":11156:11159   */\n      dup2\n        /* \"#utility.yul\":11149:11159   */\n      swap1\n      pop\n        /* \"#utility.yul\":10890:11165   */\n      swap3\n      swap2\n      pop\n      pop\n      jump\t// out\n        /* \"#utility.yul\":11171:11351   */\n    tag_158:\n        /* \"#utility.yul\":11219:11296   */\n      0x4e487b7100000000000000000000000000000000000000000000000000000000\n        /* \"#utility.yul\":11216:11217   */\n      0x00\n        /* \"#utility.yul\":11209:11297   */\n      mstore\n        /* \"#utility.yul\":11316:11320   */\n      0x12\n        /* \"#utility.yul\":11313:11314   */\n      0x04\n        /* \"#utility.yul\":11306:11321   */\n      mstore\n        /* \"#utility.yul\":11340:11344   */\n      0x24\n        /* \"#utility.yul\":11337:11338   */\n      0x00\n        /* \"#utility.yul\":11330:11345   */\n      revert\n        /* \"#utility.yul\":11357:11533   */\n    tag_89:\n        /* \"#utility.yul\":11389:11390   */\n      0x00\n        /* \"#utility.yul\":11406:11426   */\n      tag_286\n        /* \"#utility.yul\":11424:11425   */\n      dup3\n        /* \"#utility.yul\":11406:11426   */\n      tag_128\n      jump\t// in\n    tag_286:\n        /* \"#utility.yul\":11401:11426   */\n      swap2\n      pop\n        /* \"#utility.yul\":11440:11460   */\n      tag_287\n        /* \"#utility.yul\":11458:11459   */\n      dup4\n        /* \"#utility.yul\":11440:11460   */\n      tag_128\n      jump\t// in\n    tag_287:\n        /* \"#utility.yul\":11435:11460   */\n      swap3\n      pop\n        /* \"#utility.yul\":11479:11480   */\n      dup3\n        /* \"#utility.yul\":11469:11504   */\n      tag_288\n      jumpi\n        /* \"#utility.yul\":11484:11502   */\n      tag_289\n      tag_158\n      jump\t// in\n    tag_289:\n        /* \"#utility.yul\":11469:11504   */\n    tag_288:\n        /* \"#utility.yul\":11525:11526   */\n      dup3\n        /* \"#utility.yul\":11522:11523   */\n      dup3\n        /* \"#utility.yul\":11518:11527   */\n      mod\n        /* \"#utility.yul\":11513:11527   */\n      swap1\n      pop\n        /* \"#utility.yul\":11357:11533   */\n      swap3\n      swap2\n      pop\n      pop\n      jump\t// out\n        /* \"#utility.yul\":11539:11730   */\n    tag_95:\n        /* \"#utility.yul\":11579:11583   */\n      0x00\n        /* \"#utility.yul\":11599:11619   */\n      tag_291\n        /* \"#utility.yul\":11617:11618   */\n      dup3\n        /* \"#utility.yul\":11599:11619   */\n      tag_128\n      jump\t// in\n    tag_291:\n        /* \"#utility.yul\":11594:11619   */\n      swap2\n      pop\n        /* \"#utility.yul\":11633:11653   */\n      tag_292\n        /* \"#utility.yul\":11651:11652   */\n      dup4\n        /* \"#utility.yul\":11633:11653   */\n      tag_128\n      jump\t// in\n    tag_292:\n        /* \"#utility.yul\":11628:11653   */\n      swap3\n      pop\n        /* \"#utility.yul\":11672:11673   */\n      dup3\n        /* \"#utility.yul\":11669:11670   */\n      dup3\n        /* \"#utility.yul\":11666:11674   */\n      lt\n        /* \"#utility.yul\":11663:11697   */\n      iszero\n      tag_293\n      jumpi\n        /* \"#utility.yul\":11677:11695   */\n      tag_294\n      tag_154\n      jump\t// in\n    tag_294:\n        /* \"#utility.yul\":11663:11697   */\n    tag_293:\n        /* \"#utility.yul\":11722:11723   */\n      dup3\n        /* \"#utility.yul\":11719:11720   */\n      dup3\n        /* \"#utility.yul\":11715:11724   */\n      sub\n        /* \"#utility.yul\":11707:11724   */\n      swap1\n      pop\n        /* \"#utility.yul\":11539:11730   */\n      swap3\n      swap2\n      pop\n      pop\n      jump\t// out\n        /* \"#utility.yul\":11736:12269   */\n    tag_99:\n        /* \"#utility.yul\":11905:11909   */\n      0x00\n        /* \"#utility.yul\":11943:11945   */\n      0x60\n        /* \"#utility.yul\":11932:11941   */\n      dup3\n        /* \"#utility.yul\":11928:11946   */\n      add\n        /* \"#utility.yul\":11920:11946   */\n      swap1\n      pop\n        /* \"#utility.yul\":11956:12027   */\n      tag_296\n        /* \"#utility.yul\":12024:12025   */\n      0x00\n        /* \"#utility.yul\":12013:12022   */\n      dup4\n        /* \"#utility.yul\":12009:12026   */\n      add\n        /* \"#utility.yul\":12000:12006   */\n      dup7\n        /* \"#utility.yul\":11956:12027   */\n      tag_151\n      jump\t// in\n    tag_296:\n        /* \"#utility.yul\":12074:12083   */\n      dup2\n        /* \"#utility.yul\":12068:12072   */\n      dup2\n        /* \"#utility.yul\":12064:12084   */\n      sub\n        /* \"#utility.yul\":12059:12061   */\n      0x20\n        /* \"#utility.yul\":12048:12057   */\n      dup4\n        /* \"#utility.yul\":12044:12062   */\n      add\n        /* \"#utility.yul\":12037:12085   */\n      mstore\n        /* \"#utility.yul\":12102:12180   */\n      tag_297\n        /* \"#utility.yul\":12175:12179   */\n      dup2\n        /* \"#utility.yul\":12166:12172   */\n      dup6\n        /* \"#utility.yul\":12102:12180   */\n      tag_150\n      jump\t// in\n    tag_297:\n        /* \"#utility.yul\":12094:12180   */\n      swap1\n      pop\n        /* \"#utility.yul\":12190:12262   */\n      tag_298\n        /* \"#utility.yul\":12258:12260   */\n      0x40\n        /* \"#utility.yul\":12247:12256   */\n      dup4\n        /* \"#utility.yul\":12243:12261   */\n      add\n        /* \"#utility.yul\":12234:12240   */\n      dup5\n        /* \"#utility.yul\":12190:12262   */\n      tag_151\n      jump\t// in\n    tag_298:\n        /* \"#utility.yul\":11736:12269   */\n      swap5\n      swap4\n      pop\n      pop\n      pop\n      pop\n      jump\t// out\n        /* \"#utility.yul\":12275:12580   */\n    tag_104:\n        /* \"#utility.yul\":12315:12318   */\n      0x00\n        /* \"#utility.yul\":12334:12354   */\n      tag_300\n        /* \"#utility.yul\":12352:12353   */\n      dup3\n        /* \"#utility.yul\":12334:12354   */\n      tag_128\n      jump\t// in\n    tag_300:\n        /* \"#utility.yul\":12329:12354   */\n      swap2\n      pop\n        /* \"#utility.yul\":12368:12388   */\n      tag_301\n        /* \"#utility.yul\":12386:12387   */\n      dup4\n        /* \"#utility.yul\":12368:12388   */\n      tag_128\n      jump\t// in\n    tag_301:\n        /* \"#utility.yul\":12363:12388   */\n      swap3\n      pop\n        /* \"#utility.yul\":12522:12523   */\n      dup3\n        /* \"#utility.yul\":12454:12520   */\n      0xffffffffffffffffffffffffffffffffffffffffffffffffffffffffffffffff\n        /* \"#utility.yul\":12450:12524   */\n      sub\n        /* \"#utility.yul\":12447:12448   */\n      dup3\n        /* \"#utility.yul\":12444:12525   */\n      gt\n        /* \"#utility.yul\":12441:12548   */\n      iszero\n      tag_302\n      jumpi\n        /* \"#utility.yul\":12528:12546   */\n      tag_303\n      tag_154\n      jump\t// in\n    tag_303:\n        /* \"#utility.yul\":12441:12548   */\n    tag_302:\n        /* \"#utility.yul\":12572:12573   */\n      dup3\n        /* \"#utility.yul\":12569:12570   */\n      dup3\n        /* \"#utility.yul\":12565:12574   */\n      add\n        /* \"#utility.yul\":12558:12574   */\n      swap1\n      pop\n        /* \"#utility.yul\":12275:12580   */\n      swap3\n      swap2\n      pop\n      pop\n      jump\t// out\n        /* \"#utility.yul\":12586:12766   */\n    tag_107:\n        /* \"#utility.yul\":12634:12711   */\n      0x4e487b7100000000000000000000000000000000000000000000000000000000\n        /* \"#utility.yul\":12631:12632   */\n      0x00\n        /* \"#utility.yul\":12624:12712   */\n      mstore\n        /* \"#utility.yul\":12731:12735   */\n      0x01\n        /* \"#utility.yul\":12728:12729   */\n      0x04\n        /* \"#utility.yul\":12721:12736   */\n      mstore\n        /* \"#utility.yul\":12755:12759   */\n      0x24\n        /* \"#utility.yul\":12752:12753   */\n      0x00\n        /* \"#utility.yul\":12745:12760   */\n      revert\n\n    auxdata: 0xa2646970667358221220f9eae87137c1157a96bf6d62e1e168feb3c6ffffec88f3a1d60fae34ca0ee1eb64736f6c634300080a0033\n}\n","bytecode":{"linkReferences":{},"object":"60806040526010600155600154600a6200001a919062000280565b600255620151806003553480156200003157600080fd5b50336000806101000a81548173ffffffffffffffffffffffffffffffffffffffff021916908373ffffffffffffffffffffffffffffffffffffffff16021790555060008054906101000a900473ffffffffffffffffffffffffffffffffffffffff1673ffffffffffffffffffffffffffffffffffffffff16600073ffffffffffffffffffffffffffffffffffffffff167f8be0079c531659141344cd1fd0a4f28419497f9722a3daafe3b4186f6b6457e060405160405180910390a3620002d1565b7f4e487b7100000000000000000000000000000000000000000000000000000000600052601160045260246000fd5b60008160011c9050919050565b6000808291508390505b60018511156200018157808604811115620001595762000158620000f3565b5b6001851615620001695780820291505b8081029050620001798562000122565b945062000139565b94509492505050565b6000826200019c57600190506200026f565b81620001ac57600090506200026f565b8160018114620001c55760028114620001d05762000206565b60019150506200026f565b60ff841115620001e557620001e4620000f3565b5b8360020a915084821115620001ff57620001fe620000f3565b5b506200026f565b5060208310610133831016604e8410600b8410161715620002405782820a9050838111156200023a5762000239620000f3565b5b6200026f565b6200024f84848460016200012f565b92509050818404811115620002695762000268620000f3565b5b81810290505b9392505050565b6000819050919050565b60006200028d8262000276565b91506200029a8362000276565b9250620002c97fffffffffffffffffffffffffffffffffffffffffffffffffffffffffffffffff84846200018a565b905092915050565b61110f80620002e16000396000f3fe608060405234801561001057600080fd5b50600436106100885760003560e01c80638da5cb5b1161005b5780638da5cb5b146101135780638f32d59b14610131578063a8d4a03b1461014f578063f2fde38b1461018157610088565b806307c99f4e1461008d578063715018a6146100bd5780637b0f0a19146100c75780638a72ec00146100f7575b600080fd5b6100a760048036038101906100a291906109d4565b61019d565b6040516100b49190610ac9565b60405180910390f35b6100c56102f0565b005b6100e160048036038101906100dc9190610b17565b6103bf565b6040516100ee9190610b53565b60405180910390f35b610111600480360381019061010c9190610cb4565b6103f2565b005b61011b61040d565b6040516101289190610b53565b60405180910390f35b610139610436565b6040516101469190610d18565b60405180910390f35b61016960048036038101906101649190610b17565b61048d565b60405161017893929190610de9565b60405180910390f35b61019b600480360381019061019691906109d4565b61055f565b005b60606000600660008473ffffffffffffffffffffffffffffffffffffffff1673ffffffffffffffffffffffffffffffffffffffff1681526020019081526020016000205467ffffffffffffffff8111156101fa576101f9610b89565b5b6040519080825280602002602001820160405280156102285781602001602082028036833780820191505090505b5090506000805b6004805490508110156102e5578473ffffffffffffffffffffffffffffffffffffffff166005600083815260200190815260200160002060009054906101000a900473ffffffffffffffffffffffffffffffffffffffff1673ffffffffffffffffffffffffffffffffffffffff1614156102d257808383815181106102b7576102b6610e27565b5b60200260200101818152505081806102ce90610e85565b9250505b80806102dd90610e85565b91505061022f565b508192505050919050565b6102f8610436565b61030157600080fd5b600073ffffffffffffffffffffffffffffffffffffffff1660008054906101000a900473ffffffffffffffffffffffffffffffffffffffff1673ffffffffffffffffffffffffffffffffffffffff167f8be0079c531659141344cd1fd0a4f28419497f9722a3daafe3b4186f6b6457e060405160405180910390a360008060006101000a81548173ffffffffffffffffffffffffffffffffffffffff021916908373ffffffffffffffffffffffffffffffffffffffff160217905550565b60056020528060005260406000206000915054906101000a900473ffffffffffffffffffffffffffffffffffffffff1681565b60006103fd8261057c565b905061040982826105c1565b5050565b60008060009054906101000a900473ffffffffffffffffffffffffffffffffffffffff16905090565b60008060009054906101000a900473ffffffffffffffffffffffffffffffffffffffff1673ffffffffffffffffffffffffffffffffffffffff163373ffffffffffffffffffffffffffffffffffffffff1614905090565b6004818154811061049d57600080fd5b90600052602060002090600302016000915090508060000180546104c090610efd565b80601f01602080910402602001604051908101604052809291908181526020018280546104ec90610efd565b80156105395780601f1061050e57610100808354040283529160200191610539565b820191906000526020600020905b81548152906001019060200180831161051c57829003601f168201915b5050505050908060010154908060020160009054906101000a900463ffffffff16905083565b610567610436565b61057057600080fd5b6105798161079c565b50565b600080826040516020016105909190610f6b565b6040516020818303038152906040528051906020012060001c9050600254816105b99190610fb1565b915050919050565b60046040518060600160405280848152602001838152602001600163ffffffff168152509080600181540180825580915050600190039060005260206000209060030201600090919091909150600082015181600001908051906020019061062a9291906108bf565b506020820151816001015560408201518160020160006101000a81548163ffffffff021916908363ffffffff1602179055505050600060016004805490506106729190610fe2565b9050336005600083815260200190815260200160002060006101000a81548173ffffffffffffffffffffffffffffffffffffffff021916908373ffffffffffffffffffffffffffffffffffffffff1602179055506107196001600660003373ffffffffffffffffffffffffffffffffffffffff1673ffffffffffffffffffffffffffffffffffffffff1681526020019081526020016000205461089390919063ffffffff16565b600660003373ffffffffffffffffffffffffffffffffffffffff1673ffffffffffffffffffffffffffffffffffffffff168152602001908152602001600020819055507fc404ae7075893405fef7ba0a0001d5ab3a05de4f9d9854f10259d60d822063a681848460405161078f93929190611016565b60405180910390a1505050565b600073ffffffffffffffffffffffffffffffffffffffff168173ffffffffffffffffffffffffffffffffffffffff1614156107d657600080fd5b8073ffffffffffffffffffffffffffffffffffffffff1660008054906101000a900473ffffffffffffffffffffffffffffffffffffffff1673ffffffffffffffffffffffffffffffffffffffff167f8be0079c531659141344cd1fd0a4f28419497f9722a3daafe3b4186f6b6457e060405160405180910390a3806000806101000a81548173ffffffffffffffffffffffffffffffffffffffff021916908373ffffffffffffffffffffffffffffffffffffffff16021790555050565b60008082846108a29190611054565b9050838110156108b5576108b46110aa565b5b8091505092915050565b8280546108cb90610efd565b90600052602060002090601f0160209004810192826108ed5760008555610934565b82601f1061090657805160ff1916838001178555610934565b82800160010185558215610934579182015b82811115610933578251825591602001919060010190610918565b5b5090506109419190610945565b5090565b5b8082111561095e576000816000905550600101610946565b5090565b6000604051905090565b600080fd5b600080fd5b600073ffffffffffffffffffffffffffffffffffffffff82169050919050565b60006109a182610976565b9050919050565b6109b181610996565b81146109bc57600080fd5b50565b6000813590506109ce816109a8565b92915050565b6000602082840312156109ea576109e961096c565b5b60006109f8848285016109bf565b91505092915050565b600081519050919050565b600082825260208201905092915050565b6000819050602082019050919050565b6000819050919050565b610a4081610a2d565b82525050565b6000610a528383610a37565b60208301905092915050565b6000602082019050919050565b6000610a7682610a01565b610a808185610a0c565b9350610a8b83610a1d565b8060005b83811015610abc578151610aa38882610a46565b9750610aae83610a5e565b925050600181019050610a8f565b5085935050505092915050565b60006020820190508181036000830152610ae38184610a6b565b905092915050565b610af481610a2d565b8114610aff57600080fd5b50565b600081359050610b1181610aeb565b92915050565b600060208284031215610b2d57610b2c61096c565b5b6000610b3b84828501610b02565b91505092915050565b610b4d81610996565b82525050565b6000602082019050610b686000830184610b44565b92915050565b600080fd5b600080fd5b6000601f19601f8301169050919050565b7f4e487b7100000000000000000000000000000000000000000000000000000000600052604160045260246000fd5b610bc182610b78565b810181811067ffffffffffffffff82111715610be057610bdf610b89565b5b80604052505050565b6000610bf3610962565b9050610bff8282610bb8565b919050565b600067ffffffffffffffff821115610c1f57610c1e610b89565b5b610c2882610b78565b9050602081019050919050565b82818337600083830152505050565b6000610c57610c5284610c04565b610be9565b905082815260208101848484011115610c7357610c72610b73565b5b610c7e848285610c35565b509392505050565b600082601f830112610c9b57610c9a610b6e565b5b8135610cab848260208601610c44565b91505092915050565b600060208284031215610cca57610cc961096c565b5b600082013567ffffffffffffffff811115610ce857610ce7610971565b5b610cf484828501610c86565b91505092915050565b60008115159050919050565b610d1281610cfd565b82525050565b6000602082019050610d2d6000830184610d09565b92915050565b600081519050919050565b600082825260208201905092915050565b60005b83811015610d6d578082015181840152602081019050610d52565b83811115610d7c576000848401525b50505050565b6000610d8d82610d33565b610d978185610d3e565b9350610da7818560208601610d4f565b610db081610b78565b840191505092915050565b610dc481610a2d565b82525050565b600063ffffffff82169050919050565b610de381610dca565b82525050565b60006060820190508181036000830152610e038186610d82565b9050610e126020830185610dbb565b610e1f6040830184610dda565b949350505050565b7f4e487b7100000000000000000000000000000000000000000000000000000000600052603260045260246000fd5b7f4e487b7100000000000000000000000000000000000000000000000000000000600052601160045260246000fd5b6000610e9082610a2d565b91507fffffffffffffffffffffffffffffffffffffffffffffffffffffffffffffffff821415610ec357610ec2610e56565b5b600182019050919050565b7f4e487b7100000000000000000000000000000000000000000000000000000000600052602260045260246000fd5b60006002820490506001821680610f1557607f821691505b60208210811415610f2957610f28610ece565b5b50919050565b600081905092915050565b6000610f4582610d33565b610f4f8185610f2f565b9350610f5f818560208601610d4f565b80840191505092915050565b6000610f778284610f3a565b915081905092915050565b7f4e487b7100000000000000000000000000000000000000000000000000000000600052601260045260246000fd5b6000610fbc82610a2d565b9150610fc783610a2d565b925082610fd757610fd6610f82565b5b828206905092915050565b6000610fed82610a2d565b9150610ff883610a2d565b92508282101561100b5761100a610e56565b5b828203905092915050565b600060608201905061102b6000830186610dbb565b818103602083015261103d8185610d82565b905061104c6040830184610dbb565b949350505050565b600061105f82610a2d565b915061106a83610a2d565b9250827fffffffffffffffffffffffffffffffffffffffffffffffffffffffffffffffff0382111561109f5761109e610e56565b5b828201905092915050565b7f4e487b7100000000000000000000000000000000000000000000000000000000600052600160045260246000fdfea2646970667358221220f9eae87137c1157a96bf6d62e1e168feb3c6ffffec88f3a1d60fae34ca0ee1eb64736f6c634300080a0033","opcodes":"PUSH1 0x80 PUSH1 0x40 MSTORE PUSH1 0x10 PUSH1 0x1 SSTORE PUSH1 0x1 SLOAD PUSH1 0xA PUSH3 0x1A SWAP2 SWAP1 PUSH3 0x280 JUMP JUMPDEST PUSH1 0x2 SSTORE PUSH3 0x15180 PUSH1 0x3 SSTORE CALLVALUE DUP1 ISZERO PUSH3 0x31 JUMPI PUSH1 0x0 DUP1 REVERT JUMPDEST POP CALLER PUSH1 0x0 DUP1 PUSH2 0x100 EXP DUP2 SLOAD DUP2 PUSH20 0xFFFFFFFFFFFFFFFFFFFFFFFFFFFFFFFFFFFFFFFF MUL NOT AND SWAP1 DUP4 PUSH20 0xFFFFFFFFFFFFFFFFFFFFFFFFFFFFFFFFFFFFFFFF AND MUL OR SWAP1 SSTORE POP PUSH1 0x0 DUP1 SLOAD SWAP1 PUSH2 0x100 EXP SWAP1 DIV PUSH20 0xFFFFFFFFFFFFFFFFFFFFFFFFFFFFFFFFFFFFFFFF AND PUSH20 0xFFFFFFFFFFFFFFFFFFFFFFFFFFFFFFFFFFFFFFFF AND PUSH1 0x0 PUSH20 0xFFFFFFFFFFFFFFFFFFFFFFFFFFFFFFFFFFFFFFFF AND PUSH32 0x8BE0079C531659141344CD1FD0A4F28419497F9722A3DAAFE3B4186F6B6457E0 PUSH1 0x40 MLOAD PUSH1 0x40 MLOAD DUP1 SWAP2 SUB SWAP1 LOG3 PUSH3 0x2D1 JUMP JUMPDEST PUSH32 0x4E487B7100000000000000000000000000000000000000000000000000000000 PUSH1 0x0 MSTORE PUSH1 0x11 PUSH1 0x4 MSTORE PUSH1 0x24 PUSH1 0x0 REVERT JUMPDEST PUSH1 0x0 DUP2 PUSH1 0x1 SHR SWAP1 POP SWAP2 SWAP1 POP JUMP JUMPDEST PUSH1 0x0 DUP1 DUP3 SWAP2 POP DUP4 SWAP1 POP JUMPDEST PUSH1 0x1 DUP6 GT ISZERO PUSH3 0x181 JUMPI DUP1 DUP7 DIV DUP2 GT ISZERO PUSH3 0x159 JUMPI PUSH3 0x158 PUSH3 0xF3 JUMP JUMPDEST JUMPDEST PUSH1 0x1 DUP6 AND ISZERO PUSH3 0x169 JUMPI DUP1 DUP3 MUL SWAP2 POP JUMPDEST DUP1 DUP2 MUL SWAP1 POP PUSH3 0x179 DUP6 PUSH3 0x122 JUMP JUMPDEST SWAP5 POP PUSH3 0x139 JUMP JUMPDEST SWAP5 POP SWAP5 SWAP3 POP POP POP JUMP JUMPDEST PUSH1 0x0 DUP3 PUSH3 0x19C JUMPI PUSH1 0x1 SWAP1 POP PUSH3 0x26F JUMP JUMPDEST DUP2 PUSH3 0x1AC JUMPI PUSH1 0x0 SWAP1 POP PUSH3 0x26F JUMP JUMPDEST DUP2 PUSH1 0x1 DUP2 EQ PUSH3 0x1C5 JUMPI PUSH1 0x2 DUP2 EQ PUSH3 0x1D0 JUMPI PUSH3 0x206 JUMP JUMPDEST PUSH1 0x1 SWAP2 POP POP PUSH3 0x26F JUMP JUMPDEST PUSH1 0xFF DUP5 GT ISZERO PUSH3 0x1E5 JUMPI PUSH3 0x1E4 PUSH3 0xF3 JUMP JUMPDEST JUMPDEST DUP4 PUSH1 0x2 EXP SWAP2 POP DUP5 DUP3 GT ISZERO PUSH3 0x1FF JUMPI PUSH3 0x1FE PUSH3 0xF3 JUMP JUMPDEST JUMPDEST POP PUSH3 0x26F JUMP JUMPDEST POP PUSH1 0x20 DUP4 LT PUSH2 0x133 DUP4 LT AND PUSH1 0x4E DUP5 LT PUSH1 0xB DUP5 LT AND OR ISZERO PUSH3 0x240 JUMPI DUP3 DUP3 EXP SWAP1 POP DUP4 DUP2 GT ISZERO PUSH3 0x23A JUMPI PUSH3 0x239 PUSH3 0xF3 JUMP JUMPDEST JUMPDEST PUSH3 0x26F JUMP JUMPDEST PUSH3 0x24F DUP5 DUP5 DUP5 PUSH1 0x1 PUSH3 0x12F JUMP JUMPDEST SWAP3 POP SWAP1 POP DUP2 DUP5 DIV DUP2 GT ISZERO PUSH3 0x269 JUMPI PUSH3 0x268 PUSH3 0xF3 JUMP JUMPDEST JUMPDEST DUP2 DUP2 MUL SWAP1 POP JUMPDEST SWAP4 SWAP3 POP POP POP JUMP JUMPDEST PUSH1 0x0 DUP2 SWAP1 POP SWAP2 SWAP1 POP JUMP JUMPDEST PUSH1 0x0 PUSH3 0x28D DUP3 PUSH3 0x276 JUMP JUMPDEST SWAP2 POP PUSH3 0x29A DUP4 PUSH3 0x276 JUMP JUMPDEST SWAP3 POP PUSH3 0x2C9 PUSH32 0xFFFFFFFFFFFFFFFFFFFFFFFFFFFFFFFFFFFFFFFFFFFFFFFFFFFFFFFFFFFFFFFF DUP5 DUP5 PUSH3 0x18A JUMP JUMPDEST SWAP1 POP SWAP3 SWAP2 POP POP JUMP JUMPDEST PUSH2 0x110F DUP1 PUSH3 0x2E1 PUSH1 0x0 CODECOPY PUSH1 0x0 RETURN INVALID PUSH1 0x80 PUSH1 0x40 MSTORE CALLVALUE DUP1 ISZERO PUSH2 0x10 JUMPI PUSH1 0x0 DUP1 REVERT JUMPDEST POP PUSH1 0x4 CALLDATASIZE LT PUSH2 0x88 JUMPI PUSH1 0x0 CALLDATALOAD PUSH1 0xE0 SHR DUP1 PUSH4 0x8DA5CB5B GT PUSH2 0x5B JUMPI DUP1 PUSH4 0x8DA5CB5B EQ PUSH2 0x113 JUMPI DUP1 PUSH4 0x8F32D59B EQ PUSH2 0x131 JUMPI DUP1 PUSH4 0xA8D4A03B EQ PUSH2 0x14F JUMPI DUP1 PUSH4 0xF2FDE38B EQ PUSH2 0x181 JUMPI PUSH2 0x88 JUMP JUMPDEST DUP1 PUSH4 0x7C99F4E EQ PUSH2 0x8D JUMPI DUP1 PUSH4 0x715018A6 EQ PUSH2 0xBD JUMPI DUP1 PUSH4 0x7B0F0A19 EQ PUSH2 0xC7 JUMPI DUP1 PUSH4 0x8A72EC00 EQ PUSH2 0xF7 JUMPI JUMPDEST PUSH1 0x0 DUP1 REVERT JUMPDEST PUSH2 0xA7 PUSH1 0x4 DUP1 CALLDATASIZE SUB DUP2 ADD SWAP1 PUSH2 0xA2 SWAP2 SWAP1 PUSH2 0x9D4 JUMP JUMPDEST PUSH2 0x19D JUMP JUMPDEST PUSH1 0x40 MLOAD PUSH2 0xB4 SWAP2 SWAP1 PUSH2 0xAC9 JUMP JUMPDEST PUSH1 0x40 MLOAD DUP1 SWAP2 SUB SWAP1 RETURN JUMPDEST PUSH2 0xC5 PUSH2 0x2F0 JUMP JUMPDEST STOP JUMPDEST PUSH2 0xE1 PUSH1 0x4 DUP1 CALLDATASIZE SUB DUP2 ADD SWAP1 PUSH2 0xDC SWAP2 SWAP1 PUSH2 0xB17 JUMP JUMPDEST PUSH2 0x3BF JUMP JUMPDEST PUSH1 0x40 MLOAD PUSH2 0xEE SWAP2 SWAP1 PUSH2 0xB53 JUMP JUMPDEST PUSH1 0x40 MLOAD DUP1 SWAP2 SUB SWAP1 RETURN JUMPDEST PUSH2 0x111 PUSH1 0x4 DUP1 CALLDATASIZE SUB DUP2 ADD SWAP1 PUSH2 0x10C SWAP2 SWAP1 PUSH2 0xCB4 JUMP JUMPDEST PUSH2 0x3F2 JUMP JUMPDEST STOP JUMPDEST PUSH2 0x11B PUSH2 0x40D JUMP JUMPDEST PUSH1 0x40 MLOAD PUSH2 0x128 SWAP2 SWAP1 PUSH2 0xB53 JUMP JUMPDEST PUSH1 0x40 MLOAD DUP1 SWAP2 SUB SWAP1 RETURN JUMPDEST PUSH2 0x139 PUSH2 0x436 JUMP JUMPDEST PUSH1 0x40 MLOAD PUSH2 0x146 SWAP2 SWAP1 PUSH2 0xD18 JUMP JUMPDEST PUSH1 0x40 MLOAD DUP1 SWAP2 SUB SWAP1 RETURN JUMPDEST PUSH2 0x169 PUSH1 0x4 DUP1 CALLDATASIZE SUB DUP2 ADD SWAP1 PUSH2 0x164 SWAP2 SWAP1 PUSH2 0xB17 JUMP JUMPDEST PUSH2 0x48D JUMP JUMPDEST PUSH1 0x40 MLOAD PUSH2 0x178 SWAP4 SWAP3 SWAP2 SWAP1 PUSH2 0xDE9 JUMP JUMPDEST PUSH1 0x40 MLOAD DUP1 SWAP2 SUB SWAP1 RETURN JUMPDEST PUSH2 0x19B PUSH1 0x4 DUP1 CALLDATASIZE SUB DUP2 ADD SWAP1 PUSH2 0x196 SWAP2 SWAP1 PUSH2 0x9D4 JUMP JUMPDEST PUSH2 0x55F JUMP JUMPDEST STOP JUMPDEST PUSH1 0x60 PUSH1 0x0 PUSH1 0x6 PUSH1 0x0 DUP5 PUSH20 0xFFFFFFFFFFFFFFFFFFFFFFFFFFFFFFFFFFFFFFFF AND PUSH20 0xFFFFFFFFFFFFFFFFFFFFFFFFFFFFFFFFFFFFFFFF AND DUP2 MSTORE PUSH1 0x20 ADD SWAP1 DUP2 MSTORE PUSH1 0x20 ADD PUSH1 0x0 KECCAK256 SLOAD PUSH8 0xFFFFFFFFFFFFFFFF DUP2 GT ISZERO PUSH2 0x1FA JUMPI PUSH2 0x1F9 PUSH2 0xB89 JUMP JUMPDEST JUMPDEST PUSH1 0x40 MLOAD SWAP1 DUP1 DUP3 MSTORE DUP1 PUSH1 0x20 MUL PUSH1 0x20 ADD DUP3 ADD PUSH1 0x40 MSTORE DUP1 ISZERO PUSH2 0x228 JUMPI DUP2 PUSH1 0x20 ADD PUSH1 0x20 DUP3 MUL DUP1 CALLDATASIZE DUP4 CALLDATACOPY DUP1 DUP3 ADD SWAP2 POP POP SWAP1 POP JUMPDEST POP SWAP1 POP PUSH1 0x0 DUP1 JUMPDEST PUSH1 0x4 DUP1 SLOAD SWAP1 POP DUP2 LT ISZERO PUSH2 0x2E5 JUMPI DUP5 PUSH20 0xFFFFFFFFFFFFFFFFFFFFFFFFFFFFFFFFFFFFFFFF AND PUSH1 0x5 PUSH1 0x0 DUP4 DUP2 MSTORE PUSH1 0x20 ADD SWAP1 DUP2 MSTORE PUSH1 0x20 ADD PUSH1 0x0 KECCAK256 PUSH1 0x0 SWAP1 SLOAD SWAP1 PUSH2 0x100 EXP SWAP1 DIV PUSH20 0xFFFFFFFFFFFFFFFFFFFFFFFFFFFFFFFFFFFFFFFF AND PUSH20 0xFFFFFFFFFFFFFFFFFFFFFFFFFFFFFFFFFFFFFFFF AND EQ ISZERO PUSH2 0x2D2 JUMPI DUP1 DUP4 DUP4 DUP2 MLOAD DUP2 LT PUSH2 0x2B7 JUMPI PUSH2 0x2B6 PUSH2 0xE27 JUMP JUMPDEST JUMPDEST PUSH1 0x20 MUL PUSH1 0x20 ADD ADD DUP2 DUP2 MSTORE POP POP DUP2 DUP1 PUSH2 0x2CE SWAP1 PUSH2 0xE85 JUMP JUMPDEST SWAP3 POP POP JUMPDEST DUP1 DUP1 PUSH2 0x2DD SWAP1 PUSH2 0xE85 JUMP JUMPDEST SWAP2 POP POP PUSH2 0x22F JUMP JUMPDEST POP DUP2 SWAP3 POP POP POP SWAP2 SWAP1 POP JUMP JUMPDEST PUSH2 0x2F8 PUSH2 0x436 JUMP JUMPDEST PUSH2 0x301 JUMPI PUSH1 0x0 DUP1 REVERT JUMPDEST PUSH1 0x0 PUSH20 0xFFFFFFFFFFFFFFFFFFFFFFFFFFFFFFFFFFFFFFFF AND PUSH1 0x0 DUP1 SLOAD SWAP1 PUSH2 0x100 EXP SWAP1 DIV PUSH20 0xFFFFFFFFFFFFFFFFFFFFFFFFFFFFFFFFFFFFFFFF AND PUSH20 0xFFFFFFFFFFFFFFFFFFFFFFFFFFFFFFFFFFFFFFFF AND PUSH32 0x8BE0079C531659141344CD1FD0A4F28419497F9722A3DAAFE3B4186F6B6457E0 PUSH1 0x40 MLOAD PUSH1 0x40 MLOAD DUP1 SWAP2 SUB SWAP1 LOG3 PUSH1 0x0 DUP1 PUSH1 0x0 PUSH2 0x100 EXP DUP2 SLOAD DUP2 PUSH20 0xFFFFFFFFFFFFFFFFFFFFFFFFFFFFFFFFFFFFFFFF MUL NOT AND SWAP1 DUP4 PUSH20 0xFFFFFFFFFFFFFFFFFFFFFFFFFFFFFFFFFFFFFFFF AND MUL OR SWAP1 SSTORE POP JUMP JUMPDEST PUSH1 0x5 PUSH1 0x20 MSTORE DUP1 PUSH1 0x0 MSTORE PUSH1 0x40 PUSH1 0x0 KECCAK256 PUSH1 0x0 SWAP2 POP SLOAD SWAP1 PUSH2 0x100 EXP SWAP1 DIV PUSH20 0xFFFFFFFFFFFFFFFFFFFFFFFFFFFFFFFFFFFFFFFF AND DUP2 JUMP JUMPDEST PUSH1 0x0 PUSH2 0x3FD DUP3 PUSH2 0x57C JUMP JUMPDEST SWAP1 POP PUSH2 0x409 DUP3 DUP3 PUSH2 0x5C1 JUMP JUMPDEST POP POP JUMP JUMPDEST PUSH1 0x0 DUP1 PUSH1 0x0 SWAP1 SLOAD SWAP1 PUSH2 0x100 EXP SWAP1 DIV PUSH20 0xFFFFFFFFFFFFFFFFFFFFFFFFFFFFFFFFFFFFFFFF AND SWAP1 POP SWAP1 JUMP JUMPDEST PUSH1 0x0 DUP1 PUSH1 0x0 SWAP1 SLOAD SWAP1 PUSH2 0x100 EXP SWAP1 DIV PUSH20 0xFFFFFFFFFFFFFFFFFFFFFFFFFFFFFFFFFFFFFFFF AND PUSH20 0xFFFFFFFFFFFFFFFFFFFFFFFFFFFFFFFFFFFFFFFF AND CALLER PUSH20 0xFFFFFFFFFFFFFFFFFFFFFFFFFFFFFFFFFFFFFFFF AND EQ SWAP1 POP SWAP1 JUMP JUMPDEST PUSH1 0x4 DUP2 DUP2 SLOAD DUP2 LT PUSH2 0x49D JUMPI PUSH1 0x0 DUP1 REVERT JUMPDEST SWAP1 PUSH1 0x0 MSTORE PUSH1 0x20 PUSH1 0x0 KECCAK256 SWAP1 PUSH1 0x3 MUL ADD PUSH1 0x0 SWAP2 POP SWAP1 POP DUP1 PUSH1 0x0 ADD DUP1 SLOAD PUSH2 0x4C0 SWAP1 PUSH2 0xEFD JUMP JUMPDEST DUP1 PUSH1 0x1F ADD PUSH1 0x20 DUP1 SWAP2 DIV MUL PUSH1 0x20 ADD PUSH1 0x40 MLOAD SWAP1 DUP2 ADD PUSH1 0x40 MSTORE DUP1 SWAP3 SWAP2 SWAP1 DUP2 DUP2 MSTORE PUSH1 0x20 ADD DUP3 DUP1 SLOAD PUSH2 0x4EC SWAP1 PUSH2 0xEFD JUMP JUMPDEST DUP1 ISZERO PUSH2 0x539 JUMPI DUP1 PUSH1 0x1F LT PUSH2 0x50E JUMPI PUSH2 0x100 DUP1 DUP4 SLOAD DIV MUL DUP4 MSTORE SWAP2 PUSH1 0x20 ADD SWAP2 PUSH2 0x539 JUMP JUMPDEST DUP3 ADD SWAP2 SWAP1 PUSH1 0x0 MSTORE PUSH1 0x20 PUSH1 0x0 KECCAK256 SWAP1 JUMPDEST DUP2 SLOAD DUP2 MSTORE SWAP1 PUSH1 0x1 ADD SWAP1 PUSH1 0x20 ADD DUP1 DUP4 GT PUSH2 0x51C JUMPI DUP3 SWAP1 SUB PUSH1 0x1F AND DUP3 ADD SWAP2 JUMPDEST POP POP POP POP POP SWAP1 DUP1 PUSH1 0x1 ADD SLOAD SWAP1 DUP1 PUSH1 0x2 ADD PUSH1 0x0 SWAP1 SLOAD SWAP1 PUSH2 0x100 EXP SWAP1 DIV PUSH4 0xFFFFFFFF AND SWAP1 POP DUP4 JUMP JUMPDEST PUSH2 0x567 PUSH2 0x436 JUMP JUMPDEST PUSH2 0x570 JUMPI PUSH1 0x0 DUP1 REVERT JUMPDEST PUSH2 0x579 DUP2 PUSH2 0x79C JUMP JUMPDEST POP JUMP JUMPDEST PUSH1 0x0 DUP1 DUP3 PUSH1 0x40 MLOAD PUSH1 0x20 ADD PUSH2 0x590 SWAP2 SWAP1 PUSH2 0xF6B JUMP JUMPDEST PUSH1 0x40 MLOAD PUSH1 0x20 DUP2 DUP4 SUB SUB DUP2 MSTORE SWAP1 PUSH1 0x40 MSTORE DUP1 MLOAD SWAP1 PUSH1 0x20 ADD KECCAK256 PUSH1 0x0 SHR SWAP1 POP PUSH1 0x2 SLOAD DUP2 PUSH2 0x5B9 SWAP2 SWAP1 PUSH2 0xFB1 JUMP JUMPDEST SWAP2 POP POP SWAP2 SWAP1 POP JUMP JUMPDEST PUSH1 0x4 PUSH1 0x40 MLOAD DUP1 PUSH1 0x60 ADD PUSH1 0x40 MSTORE DUP1 DUP5 DUP2 MSTORE PUSH1 0x20 ADD DUP4 DUP2 MSTORE PUSH1 0x20 ADD PUSH1 0x1 PUSH4 0xFFFFFFFF AND DUP2 MSTORE POP SWAP1 DUP1 PUSH1 0x1 DUP2 SLOAD ADD DUP1 DUP3 SSTORE DUP1 SWAP2 POP POP PUSH1 0x1 SWAP1 SUB SWAP1 PUSH1 0x0 MSTORE PUSH1 0x20 PUSH1 0x0 KECCAK256 SWAP1 PUSH1 0x3 MUL ADD PUSH1 0x0 SWAP1 SWAP2 SWAP1 SWAP2 SWAP1 SWAP2 POP PUSH1 0x0 DUP3 ADD MLOAD DUP2 PUSH1 0x0 ADD SWAP1 DUP1 MLOAD SWAP1 PUSH1 0x20 ADD SWAP1 PUSH2 0x62A SWAP3 SWAP2 SWAP1 PUSH2 0x8BF JUMP JUMPDEST POP PUSH1 0x20 DUP3 ADD MLOAD DUP2 PUSH1 0x1 ADD SSTORE PUSH1 0x40 DUP3 ADD MLOAD DUP2 PUSH1 0x2 ADD PUSH1 0x0 PUSH2 0x100 EXP DUP2 SLOAD DUP2 PUSH4 0xFFFFFFFF MUL NOT AND SWAP1 DUP4 PUSH4 0xFFFFFFFF AND MUL OR SWAP1 SSTORE POP POP POP PUSH1 0x0 PUSH1 0x1 PUSH1 0x4 DUP1 SLOAD SWAP1 POP PUSH2 0x672 SWAP2 SWAP1 PUSH2 0xFE2 JUMP JUMPDEST SWAP1 POP CALLER PUSH1 0x5 PUSH1 0x0 DUP4 DUP2 MSTORE PUSH1 0x20 ADD SWAP1 DUP2 MSTORE PUSH1 0x20 ADD PUSH1 0x0 KECCAK256 PUSH1 0x0 PUSH2 0x100 EXP DUP2 SLOAD DUP2 PUSH20 0xFFFFFFFFFFFFFFFFFFFFFFFFFFFFFFFFFFFFFFFF MUL NOT AND SWAP1 DUP4 PUSH20 0xFFFFFFFFFFFFFFFFFFFFFFFFFFFFFFFFFFFFFFFF AND MUL OR SWAP1 SSTORE POP PUSH2 0x719 PUSH1 0x1 PUSH1 0x6 PUSH1 0x0 CALLER PUSH20 0xFFFFFFFFFFFFFFFFFFFFFFFFFFFFFFFFFFFFFFFF AND PUSH20 0xFFFFFFFFFFFFFFFFFFFFFFFFFFFFFFFFFFFFFFFF AND DUP2 MSTORE PUSH1 0x20 ADD SWAP1 DUP2 MSTORE PUSH1 0x20 ADD PUSH1 0x0 KECCAK256 SLOAD PUSH2 0x893 SWAP1 SWAP2 SWAP1 PUSH4 0xFFFFFFFF AND JUMP JUMPDEST PUSH1 0x6 PUSH1 0x0 CALLER PUSH20 0xFFFFFFFFFFFFFFFFFFFFFFFFFFFFFFFFFFFFFFFF AND PUSH20 0xFFFFFFFFFFFFFFFFFFFFFFFFFFFFFFFFFFFFFFFF AND DUP2 MSTORE PUSH1 0x20 ADD SWAP1 DUP2 MSTORE PUSH1 0x20 ADD PUSH1 0x0 KECCAK256 DUP2 SWAP1 SSTORE POP PUSH32 0xC404AE7075893405FEF7BA0A0001D5AB3A05DE4F9D9854F10259D60D822063A6 DUP2 DUP5 DUP5 PUSH1 0x40 MLOAD PUSH2 0x78F SWAP4 SWAP3 SWAP2 SWAP1 PUSH2 0x1016 JUMP JUMPDEST PUSH1 0x40 MLOAD DUP1 SWAP2 SUB SWAP1 LOG1 POP POP POP JUMP JUMPDEST PUSH1 0x0 PUSH20 0xFFFFFFFFFFFFFFFFFFFFFFFFFFFFFFFFFFFFFFFF AND DUP2 PUSH20 0xFFFFFFFFFFFFFFFFFFFFFFFFFFFFFFFFFFFFFFFF AND EQ ISZERO PUSH2 0x7D6 JUMPI PUSH1 0x0 DUP1 REVERT JUMPDEST DUP1 PUSH20 0xFFFFFFFFFFFFFFFFFFFFFFFFFFFFFFFFFFFFFFFF AND PUSH1 0x0 DUP1 SLOAD SWAP1 PUSH2 0x100 EXP SWAP1 DIV PUSH20 0xFFFFFFFFFFFFFFFFFFFFFFFFFFFFFFFFFFFFFFFF AND PUSH20 0xFFFFFFFFFFFFFFFFFFFFFFFFFFFFFFFFFFFFFFFF AND PUSH32 0x8BE0079C531659141344CD1FD0A4F28419497F9722A3DAAFE3B4186F6B6457E0 PUSH1 0x40 MLOAD PUSH1 0x40 MLOAD DUP1 SWAP2 SUB SWAP1 LOG3 DUP1 PUSH1 0x0 DUP1 PUSH2 0x100 EXP DUP2 SLOAD DUP2 PUSH20 0xFFFFFFFFFFFFFFFFFFFFFFFFFFFFFFFFFFFFFFFF MUL NOT AND SWAP1 DUP4 PUSH20 0xFFFFFFFFFFFFFFFFFFFFFFFFFFFFFFFFFFFFFFFF AND MUL OR SWAP1 SSTORE POP POP JUMP JUMPDEST PUSH1 0x0 DUP1 DUP3 DUP5 PUSH2 0x8A2 SWAP2 SWAP1 PUSH2 0x1054 JUMP JUMPDEST SWAP1 POP DUP4 DUP2 LT ISZERO PUSH2 0x8B5 JUMPI PUSH2 0x8B4 PUSH2 0x10AA JUMP JUMPDEST JUMPDEST DUP1 SWAP2 POP POP SWAP3 SWAP2 POP POP JUMP JUMPDEST DUP3 DUP1 SLOAD PUSH2 0x8CB SWAP1 PUSH2 0xEFD JUMP JUMPDEST SWAP1 PUSH1 0x0 MSTORE PUSH1 0x20 PUSH1 0x0 KECCAK256 SWAP1 PUSH1 0x1F ADD PUSH1 0x20 SWAP1 DIV DUP2 ADD SWAP3 DUP3 PUSH2 0x8ED JUMPI PUSH1 0x0 DUP6 SSTORE PUSH2 0x934 JUMP JUMPDEST DUP3 PUSH1 0x1F LT PUSH2 0x906 JUMPI DUP1 MLOAD PUSH1 0xFF NOT AND DUP4 DUP1 ADD OR DUP6 SSTORE PUSH2 0x934 JUMP JUMPDEST DUP3 DUP1 ADD PUSH1 0x1 ADD DUP6 SSTORE DUP3 ISZERO PUSH2 0x934 JUMPI SWAP2 DUP3 ADD JUMPDEST DUP3 DUP2 GT ISZERO PUSH2 0x933 JUMPI DUP3 MLOAD DUP3 SSTORE SWAP2 PUSH1 0x20 ADD SWAP2 SWAP1 PUSH1 0x1 ADD SWAP1 PUSH2 0x918 JUMP JUMPDEST JUMPDEST POP SWAP1 POP PUSH2 0x941 SWAP2 SWAP1 PUSH2 0x945 JUMP JUMPDEST POP SWAP1 JUMP JUMPDEST JUMPDEST DUP1 DUP3 GT ISZERO PUSH2 0x95E JUMPI PUSH1 0x0 DUP2 PUSH1 0x0 SWAP1 SSTORE POP PUSH1 0x1 ADD PUSH2 0x946 JUMP JUMPDEST POP SWAP1 JUMP JUMPDEST PUSH1 0x0 PUSH1 0x40 MLOAD SWAP1 POP SWAP1 JUMP JUMPDEST PUSH1 0x0 DUP1 REVERT JUMPDEST PUSH1 0x0 DUP1 REVERT JUMPDEST PUSH1 0x0 PUSH20 0xFFFFFFFFFFFFFFFFFFFFFFFFFFFFFFFFFFFFFFFF DUP3 AND SWAP1 POP SWAP2 SWAP1 POP JUMP JUMPDEST PUSH1 0x0 PUSH2 0x9A1 DUP3 PUSH2 0x976 JUMP JUMPDEST SWAP1 POP SWAP2 SWAP1 POP JUMP JUMPDEST PUSH2 0x9B1 DUP2 PUSH2 0x996 JUMP JUMPDEST DUP2 EQ PUSH2 0x9BC JUMPI PUSH1 0x0 DUP1 REVERT JUMPDEST POP JUMP JUMPDEST PUSH1 0x0 DUP2 CALLDATALOAD SWAP1 POP PUSH2 0x9CE DUP2 PUSH2 0x9A8 JUMP JUMPDEST SWAP3 SWAP2 POP POP JUMP JUMPDEST PUSH1 0x0 PUSH1 0x20 DUP3 DUP5 SUB SLT ISZERO PUSH2 0x9EA JUMPI PUSH2 0x9E9 PUSH2 0x96C JUMP JUMPDEST JUMPDEST PUSH1 0x0 PUSH2 0x9F8 DUP5 DUP3 DUP6 ADD PUSH2 0x9BF JUMP JUMPDEST SWAP2 POP POP SWAP3 SWAP2 POP POP JUMP JUMPDEST PUSH1 0x0 DUP2 MLOAD SWAP1 POP SWAP2 SWAP1 POP JUMP JUMPDEST PUSH1 0x0 DUP3 DUP3 MSTORE PUSH1 0x20 DUP3 ADD SWAP1 POP SWAP3 SWAP2 POP POP JUMP JUMPDEST PUSH1 0x0 DUP2 SWAP1 POP PUSH1 0x20 DUP3 ADD SWAP1 POP SWAP2 SWAP1 POP JUMP JUMPDEST PUSH1 0x0 DUP2 SWAP1 POP SWAP2 SWAP1 POP JUMP JUMPDEST PUSH2 0xA40 DUP2 PUSH2 0xA2D JUMP JUMPDEST DUP3 MSTORE POP POP JUMP JUMPDEST PUSH1 0x0 PUSH2 0xA52 DUP4 DUP4 PUSH2 0xA37 JUMP JUMPDEST PUSH1 0x20 DUP4 ADD SWAP1 POP SWAP3 SWAP2 POP POP JUMP JUMPDEST PUSH1 0x0 PUSH1 0x20 DUP3 ADD SWAP1 POP SWAP2 SWAP1 POP JUMP JUMPDEST PUSH1 0x0 PUSH2 0xA76 DUP3 PUSH2 0xA01 JUMP JUMPDEST PUSH2 0xA80 DUP2 DUP6 PUSH2 0xA0C JUMP JUMPDEST SWAP4 POP PUSH2 0xA8B DUP4 PUSH2 0xA1D JUMP JUMPDEST DUP1 PUSH1 0x0 JUMPDEST DUP4 DUP2 LT ISZERO PUSH2 0xABC JUMPI DUP2 MLOAD PUSH2 0xAA3 DUP9 DUP3 PUSH2 0xA46 JUMP JUMPDEST SWAP8 POP PUSH2 0xAAE DUP4 PUSH2 0xA5E JUMP JUMPDEST SWAP3 POP POP PUSH1 0x1 DUP2 ADD SWAP1 POP PUSH2 0xA8F JUMP JUMPDEST POP DUP6 SWAP4 POP POP POP POP SWAP3 SWAP2 POP POP JUMP JUMPDEST PUSH1 0x0 PUSH1 0x20 DUP3 ADD SWAP1 POP DUP2 DUP2 SUB PUSH1 0x0 DUP4 ADD MSTORE PUSH2 0xAE3 DUP2 DUP5 PUSH2 0xA6B JUMP JUMPDEST SWAP1 POP SWAP3 SWAP2 POP POP JUMP JUMPDEST PUSH2 0xAF4 DUP2 PUSH2 0xA2D JUMP JUMPDEST DUP2 EQ PUSH2 0xAFF JUMPI PUSH1 0x0 DUP1 REVERT JUMPDEST POP JUMP JUMPDEST PUSH1 0x0 DUP2 CALLDATALOAD SWAP1 POP PUSH2 0xB11 DUP2 PUSH2 0xAEB JUMP JUMPDEST SWAP3 SWAP2 POP POP JUMP JUMPDEST PUSH1 0x0 PUSH1 0x20 DUP3 DUP5 SUB SLT ISZERO PUSH2 0xB2D JUMPI PUSH2 0xB2C PUSH2 0x96C JUMP JUMPDEST JUMPDEST PUSH1 0x0 PUSH2 0xB3B DUP5 DUP3 DUP6 ADD PUSH2 0xB02 JUMP JUMPDEST SWAP2 POP POP SWAP3 SWAP2 POP POP JUMP JUMPDEST PUSH2 0xB4D DUP2 PUSH2 0x996 JUMP JUMPDEST DUP3 MSTORE POP POP JUMP JUMPDEST PUSH1 0x0 PUSH1 0x20 DUP3 ADD SWAP1 POP PUSH2 0xB68 PUSH1 0x0 DUP4 ADD DUP5 PUSH2 0xB44 JUMP JUMPDEST SWAP3 SWAP2 POP POP JUMP JUMPDEST PUSH1 0x0 DUP1 REVERT JUMPDEST PUSH1 0x0 DUP1 REVERT JUMPDEST PUSH1 0x0 PUSH1 0x1F NOT PUSH1 0x1F DUP4 ADD AND SWAP1 POP SWAP2 SWAP1 POP JUMP JUMPDEST PUSH32 0x4E487B7100000000000000000000000000000000000000000000000000000000 PUSH1 0x0 MSTORE PUSH1 0x41 PUSH1 0x4 MSTORE PUSH1 0x24 PUSH1 0x0 REVERT JUMPDEST PUSH2 0xBC1 DUP3 PUSH2 0xB78 JUMP JUMPDEST DUP2 ADD DUP2 DUP2 LT PUSH8 0xFFFFFFFFFFFFFFFF DUP3 GT OR ISZERO PUSH2 0xBE0 JUMPI PUSH2 0xBDF PUSH2 0xB89 JUMP JUMPDEST JUMPDEST DUP1 PUSH1 0x40 MSTORE POP POP POP JUMP JUMPDEST PUSH1 0x0 PUSH2 0xBF3 PUSH2 0x962 JUMP JUMPDEST SWAP1 POP PUSH2 0xBFF DUP3 DUP3 PUSH2 0xBB8 JUMP JUMPDEST SWAP2 SWAP1 POP JUMP JUMPDEST PUSH1 0x0 PUSH8 0xFFFFFFFFFFFFFFFF DUP3 GT ISZERO PUSH2 0xC1F JUMPI PUSH2 0xC1E PUSH2 0xB89 JUMP JUMPDEST JUMPDEST PUSH2 0xC28 DUP3 PUSH2 0xB78 JUMP JUMPDEST SWAP1 POP PUSH1 0x20 DUP2 ADD SWAP1 POP SWAP2 SWAP1 POP JUMP JUMPDEST DUP3 DUP2 DUP4 CALLDATACOPY PUSH1 0x0 DUP4 DUP4 ADD MSTORE POP POP POP JUMP JUMPDEST PUSH1 0x0 PUSH2 0xC57 PUSH2 0xC52 DUP5 PUSH2 0xC04 JUMP JUMPDEST PUSH2 0xBE9 JUMP JUMPDEST SWAP1 POP DUP3 DUP2 MSTORE PUSH1 0x20 DUP2 ADD DUP5 DUP5 DUP5 ADD GT ISZERO PUSH2 0xC73 JUMPI PUSH2 0xC72 PUSH2 0xB73 JUMP JUMPDEST JUMPDEST PUSH2 0xC7E DUP5 DUP3 DUP6 PUSH2 0xC35 JUMP JUMPDEST POP SWAP4 SWAP3 POP POP POP JUMP JUMPDEST PUSH1 0x0 DUP3 PUSH1 0x1F DUP4 ADD SLT PUSH2 0xC9B JUMPI PUSH2 0xC9A PUSH2 0xB6E JUMP JUMPDEST JUMPDEST DUP2 CALLDATALOAD PUSH2 0xCAB DUP5 DUP3 PUSH1 0x20 DUP7 ADD PUSH2 0xC44 JUMP JUMPDEST SWAP2 POP POP SWAP3 SWAP2 POP POP JUMP JUMPDEST PUSH1 0x0 PUSH1 0x20 DUP3 DUP5 SUB SLT ISZERO PUSH2 0xCCA JUMPI PUSH2 0xCC9 PUSH2 0x96C JUMP JUMPDEST JUMPDEST PUSH1 0x0 DUP3 ADD CALLDATALOAD PUSH8 0xFFFFFFFFFFFFFFFF DUP2 GT ISZERO PUSH2 0xCE8 JUMPI PUSH2 0xCE7 PUSH2 0x971 JUMP JUMPDEST JUMPDEST PUSH2 0xCF4 DUP5 DUP3 DUP6 ADD PUSH2 0xC86 JUMP JUMPDEST SWAP2 POP POP SWAP3 SWAP2 POP POP JUMP JUMPDEST PUSH1 0x0 DUP2 ISZERO ISZERO SWAP1 POP SWAP2 SWAP1 POP JUMP JUMPDEST PUSH2 0xD12 DUP2 PUSH2 0xCFD JUMP JUMPDEST DUP3 MSTORE POP POP JUMP JUMPDEST PUSH1 0x0 PUSH1 0x20 DUP3 ADD SWAP1 POP PUSH2 0xD2D PUSH1 0x0 DUP4 ADD DUP5 PUSH2 0xD09 JUMP JUMPDEST SWAP3 SWAP2 POP POP JUMP JUMPDEST PUSH1 0x0 DUP2 MLOAD SWAP1 POP SWAP2 SWAP1 POP JUMP JUMPDEST PUSH1 0x0 DUP3 DUP3 MSTORE PUSH1 0x20 DUP3 ADD SWAP1 POP SWAP3 SWAP2 POP POP JUMP JUMPDEST PUSH1 0x0 JUMPDEST DUP4 DUP2 LT ISZERO PUSH2 0xD6D JUMPI DUP1 DUP3 ADD MLOAD DUP2 DUP5 ADD MSTORE PUSH1 0x20 DUP2 ADD SWAP1 POP PUSH2 0xD52 JUMP JUMPDEST DUP4 DUP2 GT ISZERO PUSH2 0xD7C JUMPI PUSH1 0x0 DUP5 DUP5 ADD MSTORE JUMPDEST POP POP POP POP JUMP JUMPDEST PUSH1 0x0 PUSH2 0xD8D DUP3 PUSH2 0xD33 JUMP JUMPDEST PUSH2 0xD97 DUP2 DUP6 PUSH2 0xD3E JUMP JUMPDEST SWAP4 POP PUSH2 0xDA7 DUP2 DUP6 PUSH1 0x20 DUP7 ADD PUSH2 0xD4F JUMP JUMPDEST PUSH2 0xDB0 DUP2 PUSH2 0xB78 JUMP JUMPDEST DUP5 ADD SWAP2 POP POP SWAP3 SWAP2 POP POP JUMP JUMPDEST PUSH2 0xDC4 DUP2 PUSH2 0xA2D JUMP JUMPDEST DUP3 MSTORE POP POP JUMP JUMPDEST PUSH1 0x0 PUSH4 0xFFFFFFFF DUP3 AND SWAP1 POP SWAP2 SWAP1 POP JUMP JUMPDEST PUSH2 0xDE3 DUP2 PUSH2 0xDCA JUMP JUMPDEST DUP3 MSTORE POP POP JUMP JUMPDEST PUSH1 0x0 PUSH1 0x60 DUP3 ADD SWAP1 POP DUP2 DUP2 SUB PUSH1 0x0 DUP4 ADD MSTORE PUSH2 0xE03 DUP2 DUP7 PUSH2 0xD82 JUMP JUMPDEST SWAP1 POP PUSH2 0xE12 PUSH1 0x20 DUP4 ADD DUP6 PUSH2 0xDBB JUMP JUMPDEST PUSH2 0xE1F PUSH1 0x40 DUP4 ADD DUP5 PUSH2 0xDDA JUMP JUMPDEST SWAP5 SWAP4 POP POP POP POP JUMP JUMPDEST PUSH32 0x4E487B7100000000000000000000000000000000000000000000000000000000 PUSH1 0x0 MSTORE PUSH1 0x32 PUSH1 0x4 MSTORE PUSH1 0x24 PUSH1 0x0 REVERT JUMPDEST PUSH32 0x4E487B7100000000000000000000000000000000000000000000000000000000 PUSH1 0x0 MSTORE PUSH1 0x11 PUSH1 0x4 MSTORE PUSH1 0x24 PUSH1 0x0 REVERT JUMPDEST PUSH1 0x0 PUSH2 0xE90 DUP3 PUSH2 0xA2D JUMP JUMPDEST SWAP2 POP PUSH32 0xFFFFFFFFFFFFFFFFFFFFFFFFFFFFFFFFFFFFFFFFFFFFFFFFFFFFFFFFFFFFFFFF DUP3 EQ ISZERO PUSH2 0xEC3 JUMPI PUSH2 0xEC2 PUSH2 0xE56 JUMP JUMPDEST JUMPDEST PUSH1 0x1 DUP3 ADD SWAP1 POP SWAP2 SWAP1 POP JUMP JUMPDEST PUSH32 0x4E487B7100000000000000000000000000000000000000000000000000000000 PUSH1 0x0 MSTORE PUSH1 0x22 PUSH1 0x4 MSTORE PUSH1 0x24 PUSH1 0x0 REVERT JUMPDEST PUSH1 0x0 PUSH1 0x2 DUP3 DIV SWAP1 POP PUSH1 0x1 DUP3 AND DUP1 PUSH2 0xF15 JUMPI PUSH1 0x7F DUP3 AND SWAP2 POP JUMPDEST PUSH1 0x20 DUP3 LT DUP2 EQ ISZERO PUSH2 0xF29 JUMPI PUSH2 0xF28 PUSH2 0xECE JUMP JUMPDEST JUMPDEST POP SWAP2 SWAP1 POP JUMP JUMPDEST PUSH1 0x0 DUP2 SWAP1 POP SWAP3 SWAP2 POP POP JUMP JUMPDEST PUSH1 0x0 PUSH2 0xF45 DUP3 PUSH2 0xD33 JUMP JUMPDEST PUSH2 0xF4F DUP2 DUP6 PUSH2 0xF2F JUMP JUMPDEST SWAP4 POP PUSH2 0xF5F DUP2 DUP6 PUSH1 0x20 DUP7 ADD PUSH2 0xD4F JUMP JUMPDEST DUP1 DUP5 ADD SWAP2 POP POP SWAP3 SWAP2 POP POP JUMP JUMPDEST PUSH1 0x0 PUSH2 0xF77 DUP3 DUP5 PUSH2 0xF3A JUMP JUMPDEST SWAP2 POP DUP2 SWAP1 POP SWAP3 SWAP2 POP POP JUMP JUMPDEST PUSH32 0x4E487B7100000000000000000000000000000000000000000000000000000000 PUSH1 0x0 MSTORE PUSH1 0x12 PUSH1 0x4 MSTORE PUSH1 0x24 PUSH1 0x0 REVERT JUMPDEST PUSH1 0x0 PUSH2 0xFBC DUP3 PUSH2 0xA2D JUMP JUMPDEST SWAP2 POP PUSH2 0xFC7 DUP4 PUSH2 0xA2D JUMP JUMPDEST SWAP3 POP DUP3 PUSH2 0xFD7 JUMPI PUSH2 0xFD6 PUSH2 0xF82 JUMP JUMPDEST JUMPDEST DUP3 DUP3 MOD SWAP1 POP SWAP3 SWAP2 POP POP JUMP JUMPDEST PUSH1 0x0 PUSH2 0xFED DUP3 PUSH2 0xA2D JUMP JUMPDEST SWAP2 POP PUSH2 0xFF8 DUP4 PUSH2 0xA2D JUMP JUMPDEST SWAP3 POP DUP3 DUP3 LT ISZERO PUSH2 0x100B JUMPI PUSH2 0x100A PUSH2 0xE56 JUMP JUMPDEST JUMPDEST DUP3 DUP3 SUB SWAP1 POP SWAP3 SWAP2 POP POP JUMP JUMPDEST PUSH1 0x0 PUSH1 0x60 DUP3 ADD SWAP1 POP PUSH2 0x102B PUSH1 0x0 DUP4 ADD DUP7 PUSH2 0xDBB JUMP JUMPDEST DUP2 DUP2 SUB PUSH1 0x20 DUP4 ADD MSTORE PUSH2 0x103D DUP2 DUP6 PUSH2 0xD82 JUMP JUMPDEST SWAP1 POP PUSH2 0x104C PUSH1 0x40 DUP4 ADD DUP5 PUSH2 0xDBB JUMP JUMPDEST SWAP5 SWAP4 POP POP POP POP JUMP JUMPDEST PUSH1 0x0 PUSH2 0x105F DUP3 PUSH2 0xA2D JUMP JUMPDEST SWAP2 POP PUSH2 0x106A DUP4 PUSH2 0xA2D JUMP JUMPDEST SWAP3 POP DUP3 PUSH32 0xFFFFFFFFFFFFFFFFFFFFFFFFFFFFFFFFFFFFFFFFFFFFFFFFFFFFFFFFFFFFFFFF SUB DUP3 GT ISZERO PUSH2 0x109F JUMPI PUSH2 0x109E PUSH2 0xE56 JUMP JUMPDEST JUMPDEST DUP3 DUP3 ADD SWAP1 POP SWAP3 SWAP2 POP POP JUMP JUMPDEST PUSH32 0x4E487B7100000000000000000000000000000000000000000000000000000000 PUSH1 0x0 MSTORE PUSH1 0x1 PUSH1 0x4 MSTORE PUSH1 0x24 PUSH1 0x0 REVERT INVALID LOG2 PUSH5 0x6970667358 0x22 SLT KECCAK256 0xF9 0xEA 0xE8 PUSH18 0x37C1157A96BF6D62E1E168FEB3C6FFFFEC88 RETURN LOG1 0xD6 0xF 0xAE CALLVALUE 0xCA 0xE 0xE1 0xEB PUSH5 0x736F6C6343 STOP ADDMOD EXP STOP CALLER "},"gasEstimates":{"creation":{"codeDepositCost":"873400","executionCost":"infinite","totalCost":"infinite"},"external":{"createRandomHero(string)":"infinite","getHeroesByOwner(address)":"infinite","heroToOwner(uint256)":"2884","heroes(uint256)":"infinite","isOwner()":"2518","owner()":"2522","renounceOwnership()":"30317","transferOwnership(address)":"30738"}},"methodIdentifiers":{"createRandomHero(string)":"8a72ec00","getHeroesByOwner(address)":"07c99f4e","heroToOwner(uint256)":"7b0f0a19","heroes(uint256)":"a8d4a03b","isOwner()":"8f32d59b","owner()":"8da5cb5b","renounceOwnership()":"715018a6","transferOwnership(address)":"f2fde38b"}},"storageLayout":{"storage":[{"astId":344,"contract":"HeroOwnership.sol:HeroHelper","label":"_owner","offset":0,"slot":"0","type":"t_address"},{"astId":474,"contract":"HeroOwnership.sol:HeroHelper","label":"dnaDigits","offset":0,"slot":"1","type":"t_uint256"},{"astId":479,"contract":"HeroOwnership.sol:HeroHelper","label":"dnaModulus","offset":0,"slot":"2","type":"t_uint256"},{"astId":482,"contract":"HeroOwnership.sol:HeroHelper","label":"cooldownTime","offset":0,"slot":"3","type":"t_uint256"},{"astId":501,"contract":"HeroOwnership.sol:HeroHelper","label":"heroes","offset":0,"slot":"4","type":"t_array(t_struct(Hero)497_storage)dyn_storage"},{"astId":505,"contract":"HeroOwnership.sol:HeroHelper","label":"heroToOwner","offset":0,"slot":"5","type":"t_mapping(t_uint256,t_address)"},{"astId":509,"contract":"HeroOwnership.sol:HeroHelper","label":"ownerHeroCount","offset":0,"slot":"6","type":"t_mapping(t_address,t_uint256)"}],"types":{"t_address":{"encoding":"inplace","label":"address","numberOfBytes":"20"},"t_array(t_struct(Hero)497_storage)dyn_storage":{"base":"t_struct(Hero)497_storage","encoding":"dynamic_array","label":"struct HeroFactory.Hero[]","numberOfBytes":"32"},"t_mapping(t_address,t_uint256)":{"encoding":"mapping","key":"t_address","label":"mapping(address => uint256)","numberOfBytes":"32","value":"t_uint256"},"t_mapping(t_uint256,t_address)":{"encoding":"mapping","key":"t_uint256","label":"mapping(uint256 => address)","numberOfBytes":"32","value":"t_address"},"t_string_storage":{"encoding":"bytes","label":"string","numberOfBytes":"32"},"t_struct(Hero)497_storage":{"encoding":"inplace","label":"struct HeroFactory.Hero","members":[{"astId":492,"contract":"HeroOwnership.sol:HeroHelper","label":"name","offset":0,"slot":"0","type":"t_string_storage"},{"astId":494,"contract":"HeroOwnership.sol:HeroHelper","label":"dna","offset":0,"slot":"1","type":"t_uint256"},{"astId":496,"contract":"HeroOwnership.sol:HeroHelper","label":"level","offset":0,"slot":"2","type":"t_uint32"}],"numberOfBytes":"96"},"t_uint256":{"encoding":"inplace","label":"uint256","numberOfBytes":"32"},"t_uint32":{"encoding":"inplace","label":"uint32","numberOfBytes":"4"}}},"userdoc":{"kind":"user","methods":{"renounceOwnership()":{"notice":"Renouncing to ownership will leave the contract without an owner. It will not be possible to call the functions with the `onlyOwner` modifier anymore."}},"version":1}}